{"abi":[{"type":"constructor","inputs":[{"name":"licensingModule","type":"address","internalType":"address"},{"name":"disputeModule","type":"address","internalType":"address"}],"stateMutability":"nonpayable"},{"type":"function","name":"DISPUTE_MODULE","inputs":[],"outputs":[{"name":"","type":"address","internalType":"contract IDisputeModule"}],"stateMutability":"view"},{"type":"function","name":"LICENSING_MODULE","inputs":[],"outputs":[{"name":"","type":"address","internalType":"contract ILicensingModule"}],"stateMutability":"view"},{"type":"function","name":"UPGRADE_INTERFACE_VERSION","inputs":[],"outputs":[{"name":"","type":"string","internalType":"string"}],"stateMutability":"view"},{"type":"function","name":"approve","inputs":[{"name":"to","type":"address","internalType":"address"},{"name":"tokenId","type":"uint256","internalType":"uint256"}],"outputs":[],"stateMutability":"nonpayable"},{"type":"function","name":"authority","inputs":[],"outputs":[{"name":"","type":"address","internalType":"address"}],"stateMutability":"view"},{"type":"function","name":"balanceOf","inputs":[{"name":"owner","type":"address","internalType":"address"}],"outputs":[{"name":"","type":"uint256","internalType":"uint256"}],"stateMutability":"view"},{"type":"function","name":"burnLicenseTokens","inputs":[{"name":"holder","type":"address","internalType":"address"},{"name":"tokenIds","type":"uint256[]","internalType":"uint256[]"}],"outputs":[],"stateMutability":"nonpayable"},{"type":"function","name":"getApproved","inputs":[{"name":"tokenId","type":"uint256","internalType":"uint256"}],"outputs":[{"name":"","type":"address","internalType":"address"}],"stateMutability":"view"},{"type":"function","name":"getLicenseTemplate","inputs":[{"name":"tokenId","type":"uint256","internalType":"uint256"}],"outputs":[{"name":"","type":"address","internalType":"address"}],"stateMutability":"view"},{"type":"function","name":"getLicenseTermsId","inputs":[{"name":"tokenId","type":"uint256","internalType":"uint256"}],"outputs":[{"name":"","type":"uint256","internalType":"uint256"}],"stateMutability":"view"},{"type":"function","name":"getLicenseTokenMetadata","inputs":[{"name":"tokenId","type":"uint256","internalType":"uint256"}],"outputs":[{"name":"","type":"tuple","internalType":"struct ILicenseToken.LicenseTokenMetadata","components":[{"name":"licensorIpId","type":"address","internalType":"address"},{"name":"licenseTemplate","type":"address","internalType":"address"},{"name":"licenseTermsId","type":"uint256","internalType":"uint256"},{"name":"transferable","type":"bool","internalType":"bool"}]}],"stateMutability":"view"},{"type":"function","name":"getLicensorIpId","inputs":[{"name":"tokenId","type":"uint256","internalType":"uint256"}],"outputs":[{"name":"","type":"address","internalType":"address"}],"stateMutability":"view"},{"type":"function","name":"getTotalTokensByLicensor","inputs":[{"name":"licensorIpId","type":"address","internalType":"address"}],"outputs":[{"name":"","type":"uint256","internalType":"uint256"}],"stateMutability":"view"},{"type":"function","name":"initialize","inputs":[{"name":"accessManager","type":"address","internalType":"address"},{"name":"imageUrl","type":"string","internalType":"string"}],"outputs":[],"stateMutability":"nonpayable"},{"type":"function","name":"isApprovedForAll","inputs":[{"name":"owner","type":"address","internalType":"address"},{"name":"operator","type":"address","internalType":"address"}],"outputs":[{"name":"","type":"bool","internalType":"bool"}],"stateMutability":"view"},{"type":"function","name":"isConsumingScheduledOp","inputs":[],"outputs":[{"name":"","type":"bytes4","internalType":"bytes4"}],"stateMutability":"view"},{"type":"function","name":"isLicenseTokenRevoked","inputs":[{"name":"tokenId","type":"uint256","internalType":"uint256"}],"outputs":[{"name":"","type":"bool","internalType":"bool"}],"stateMutability":"view"},{"type":"function","name":"mintLicenseTokens","inputs":[{"name":"licensorIpId","type":"address","internalType":"address"},{"name":"licenseTemplate","type":"address","internalType":"address"},{"name":"licenseTermsId","type":"uint256","internalType":"uint256"},{"name":"amount","type":"uint256","internalType":"uint256"},{"name":"minter","type":"address","internalType":"address"},{"name":"receiver","type":"address","internalType":"address"}],"outputs":[{"name":"startLicenseTokenId","type":"uint256","internalType":"uint256"}],"stateMutability":"nonpayable"},{"type":"function","name":"name","inputs":[],"outputs":[{"name":"","type":"string","internalType":"string"}],"stateMutability":"view"},{"type":"function","name":"ownerOf","inputs":[{"name":"tokenId","type":"uint256","internalType":"uint256"}],"outputs":[{"name":"","type":"address","internalType":"address"}],"stateMutability":"view"},{"type":"function","name":"proxiableUUID","inputs":[],"outputs":[{"name":"","type":"bytes32","internalType":"bytes32"}],"stateMutability":"view"},{"type":"function","name":"safeTransferFrom","inputs":[{"name":"from","type":"address","internalType":"address"},{"name":"to","type":"address","internalType":"address"},{"name":"tokenId","type":"uint256","internalType":"uint256"}],"outputs":[],"stateMutability":"nonpayable"},{"type":"function","name":"safeTransferFrom","inputs":[{"name":"from","type":"address","internalType":"address"},{"name":"to","type":"address","internalType":"address"},{"name":"tokenId","type":"uint256","internalType":"uint256"},{"name":"data","type":"bytes","internalType":"bytes"}],"outputs":[],"stateMutability":"nonpayable"},{"type":"function","name":"setApprovalForAll","inputs":[{"name":"operator","type":"address","internalType":"address"},{"name":"approved","type":"bool","internalType":"bool"}],"outputs":[],"stateMutability":"nonpayable"},{"type":"function","name":"setAuthority","inputs":[{"name":"newAuthority","type":"address","internalType":"address"}],"outputs":[],"stateMutability":"nonpayable"},{"type":"function","name":"setLicensingImageUrl","inputs":[{"name":"url","type":"string","internalType":"string"}],"outputs":[],"stateMutability":"nonpayable"},{"type":"function","name":"supportsInterface","inputs":[{"name":"interfaceId","type":"bytes4","internalType":"bytes4"}],"outputs":[{"name":"","type":"bool","internalType":"bool"}],"stateMutability":"view"},{"type":"function","name":"symbol","inputs":[],"outputs":[{"name":"","type":"string","internalType":"string"}],"stateMutability":"view"},{"type":"function","name":"tokenByIndex","inputs":[{"name":"index","type":"uint256","internalType":"uint256"}],"outputs":[{"name":"","type":"uint256","internalType":"uint256"}],"stateMutability":"view"},{"type":"function","name":"tokenOfOwnerByIndex","inputs":[{"name":"owner","type":"address","internalType":"address"},{"name":"index","type":"uint256","internalType":"uint256"}],"outputs":[{"name":"","type":"uint256","internalType":"uint256"}],"stateMutability":"view"},{"type":"function","name":"tokenURI","inputs":[{"name":"id","type":"uint256","internalType":"uint256"}],"outputs":[{"name":"","type":"string","internalType":"string"}],"stateMutability":"view"},{"type":"function","name":"totalMintedTokens","inputs":[],"outputs":[{"name":"","type":"uint256","internalType":"uint256"}],"stateMutability":"view"},{"type":"function","name":"totalSupply","inputs":[],"outputs":[{"name":"","type":"uint256","internalType":"uint256"}],"stateMutability":"view"},{"type":"function","name":"transferFrom","inputs":[{"name":"from","type":"address","internalType":"address"},{"name":"to","type":"address","internalType":"address"},{"name":"tokenId","type":"uint256","internalType":"uint256"}],"outputs":[],"stateMutability":"nonpayable"},{"type":"function","name":"upgradeToAndCall","inputs":[{"name":"newImplementation","type":"address","internalType":"address"},{"name":"data","type":"bytes","internalType":"bytes"}],"outputs":[],"stateMutability":"payable"},{"type":"function","name":"validateLicenseTokensForDerivative","inputs":[{"name":"caller","type":"address","internalType":"address"},{"name":"childIpId","type":"address","internalType":"address"},{"name":"tokenIds","type":"uint256[]","internalType":"uint256[]"}],"outputs":[{"name":"licenseTemplate","type":"address","internalType":"address"},{"name":"licensorIpIds","type":"address[]","internalType":"address[]"},{"name":"licenseTermsIds","type":"uint256[]","internalType":"uint256[]"}],"stateMutability":"view"},{"type":"event","name":"Approval","inputs":[{"name":"owner","type":"address","indexed":true,"internalType":"address"},{"name":"approved","type":"address","indexed":true,"internalType":"address"},{"name":"tokenId","type":"uint256","indexed":true,"internalType":"uint256"}],"anonymous":false},{"type":"event","name":"ApprovalForAll","inputs":[{"name":"owner","type":"address","indexed":true,"internalType":"address"},{"name":"operator","type":"address","indexed":true,"internalType":"address"},{"name":"approved","type":"bool","indexed":false,"internalType":"bool"}],"anonymous":false},{"type":"event","name":"AuthorityUpdated","inputs":[{"name":"authority","type":"address","indexed":false,"internalType":"address"}],"anonymous":false},{"type":"event","name":"BatchMetadataUpdate","inputs":[{"name":"_fromTokenId","type":"uint256","indexed":false,"internalType":"uint256"},{"name":"_toTokenId","type":"uint256","indexed":false,"internalType":"uint256"}],"anonymous":false},{"type":"event","name":"Initialized","inputs":[{"name":"version","type":"uint64","indexed":false,"internalType":"uint64"}],"anonymous":false},{"type":"event","name":"LicenseTokenMinted","inputs":[{"name":"minter","type":"address","indexed":true,"internalType":"address"},{"name":"receiver","type":"address","indexed":true,"internalType":"address"},{"name":"tokenId","type":"uint256","indexed":true,"internalType":"uint256"}],"anonymous":false},{"type":"event","name":"Transfer","inputs":[{"name":"from","type":"address","indexed":true,"internalType":"address"},{"name":"to","type":"address","indexed":true,"internalType":"address"},{"name":"tokenId","type":"uint256","indexed":true,"internalType":"uint256"}],"anonymous":false},{"type":"event","name":"Upgraded","inputs":[{"name":"implementation","type":"address","indexed":true,"internalType":"address"}],"anonymous":false},{"type":"error","name":"AccessManagedInvalidAuthority","inputs":[{"name":"authority","type":"address","internalType":"address"}]},{"type":"error","name":"AccessManagedRequiredDelay","inputs":[{"name":"caller","type":"address","internalType":"address"},{"name":"delay","type":"uint32","internalType":"uint32"}]},{"type":"error","name":"AccessManagedUnauthorized","inputs":[{"name":"caller","type":"address","internalType":"address"}]},{"type":"error","name":"AddressEmptyCode","inputs":[{"name":"target","type":"address","internalType":"address"}]},{"type":"error","name":"ERC1967InvalidImplementation","inputs":[{"name":"implementation","type":"address","internalType":"address"}]},{"type":"error","name":"ERC1967NonPayable","inputs":[]},{"type":"error","name":"ERC721EnumerableForbiddenBatchMint","inputs":[]},{"type":"error","name":"ERC721IncorrectOwner","inputs":[{"name":"sender","type":"address","internalType":"address"},{"name":"tokenId","type":"uint256","internalType":"uint256"},{"name":"owner","type":"address","internalType":"address"}]},{"type":"error","name":"ERC721InsufficientApproval","inputs":[{"name":"operator","type":"address","internalType":"address"},{"name":"tokenId","type":"uint256","internalType":"uint256"}]},{"type":"error","name":"ERC721InvalidApprover","inputs":[{"name":"approver","type":"address","internalType":"address"}]},{"type":"error","name":"ERC721InvalidOperator","inputs":[{"name":"operator","type":"address","internalType":"address"}]},{"type":"error","name":"ERC721InvalidOwner","inputs":[{"name":"owner","type":"address","internalType":"address"}]},{"type":"error","name":"ERC721InvalidReceiver","inputs":[{"name":"receiver","type":"address","internalType":"address"}]},{"type":"error","name":"ERC721InvalidSender","inputs":[{"name":"sender","type":"address","internalType":"address"}]},{"type":"error","name":"ERC721NonexistentToken","inputs":[{"name":"tokenId","type":"uint256","internalType":"uint256"}]},{"type":"error","name":"ERC721OutOfBoundsIndex","inputs":[{"name":"owner","type":"address","internalType":"address"},{"name":"index","type":"uint256","internalType":"uint256"}]},{"type":"error","name":"FailedCall","inputs":[]},{"type":"error","name":"InvalidInitialization","inputs":[]},{"type":"error","name":"LicenseToken__AllLicenseTokensMustFromSameLicenseTemplate","inputs":[{"name":"licenseTemplate","type":"address","internalType":"address"},{"name":"anotherLicenseTemplate","type":"address","internalType":"address"}]},{"type":"error","name":"LicenseToken__CallerAndChildIPNotTokenOwner","inputs":[{"name":"tokenId","type":"uint256","internalType":"uint256"},{"name":"caller","type":"address","internalType":"address"},{"name":"childIpIp","type":"address","internalType":"address"},{"name":"actualTokenOwner","type":"address","internalType":"address"}]},{"type":"error","name":"LicenseToken__CallerNotLicensingModule","inputs":[]},{"type":"error","name":"LicenseToken__NotTransferable","inputs":[]},{"type":"error","name":"LicenseToken__RevokedLicense","inputs":[{"name":"tokenId","type":"uint256","internalType":"uint256"}]},{"type":"error","name":"LicenseToken__ZeroAccessManager","inputs":[]},{"type":"error","name":"NotInitializing","inputs":[]},{"type":"error","name":"StringsInsufficientHexLength","inputs":[{"name":"value","type":"uint256","internalType":"uint256"},{"name":"length","type":"uint256","internalType":"uint256"}]},{"type":"error","name":"UUPSUnauthorizedCallContext","inputs":[]},{"type":"error","name":"UUPSUnsupportedProxiableUUID","inputs":[{"name":"slot","type":"bytes32","internalType":"bytes32"}]}],"bytecode":{"object":"0x60e060405230608052348015610013575f80fd5b50604051614d62380380614d6283398101604081905261003291610121565b6001600160a01b0380831660a052811660c05261004d610054565b5050610152565b7ff0c57e16840df040f15088dc2f81fe391c3923bec73e23a9662efc9c229c6a00805468010000000000000000900460ff16156100a45760405163f92ee8a960e01b815260040160405180910390fd5b80546001600160401b03908116146101035780546001600160401b0319166001600160401b0390811782556040519081527fc7f505b2f371ae2175ee4913f4499e1f2633a7b5936321eed1cdaeb6115181d29060200160405180910390a15b50565b80516001600160a01b038116811461011c575f80fd5b919050565b5f8060408385031215610132575f80fd5b61013b83610106565b915061014960208401610106565b90509250929050565b60805160a05160c051614bc361019f5f395f81816109040152610b4601525f81816105d901528181610bc101526114e501525f818161225f01528181612288015261243e0152614bc35ff3fe608060405260043610610243575f3560e01c806365165aa511610131578063ad3cb1cc116100ac578063c87b56dd1161007c578063f399e22e11610062578063f399e22e146108d4578063f943f090146108f3578063fa59951714610926575f80fd5b8063c87b56dd1461084f578063e985e9c51461086e575f80fd5b8063ad3cb1cc14610756578063b033c13a1461079e578063b88d4fde146107f4578063bf7e214f14610813575f80fd5b80638fb360371161010157806395d89b41116100e757806395d89b41146106d0578063a22cb465146106e4578063ac83c87d14610703575f80fd5b80638fb360371461066c5780638fdbea84146106b1575f80fd5b806365165aa5146105c857806370a08231146105fb5780637a9e5e4b1461061a5780638e32e31614610639575f80fd5b806329f6464c116101c1578063477fa8d1116101915780634f6ccce7116101775780634f6ccce71461057657806352d1902d146105955780636352211e146105a9575f80fd5b8063477fa8d1146105355780634f1ef28614610563575f80fd5b806329f6464c146103e15780632de90676146104d85780632f745c59146104f757806342842e0e14610516575f80fd5b80630b92771c116102165780631eb5ce4e116101fc5780631eb5ce4e1461035057806323211dcd1461036f57806323b872dd146103c2575f80fd5b80630b92771c146102f457806318160ddd14610313575f80fd5b806301ffc9a71461024757806306fdde031461027b578063081812fc1461029c578063095ea7b3146102d3575b5f80fd5b348015610252575f80fd5b506102666102613660046139ea565b610973565b60405190151581526020015b60405180910390f35b348015610286575f80fd5b5061028f6109ce565b6040516102729190613a33565b3480156102a7575f80fd5b506102bb6102b6366004613a45565b610a82565b6040516001600160a01b039091168152602001610272565b3480156102de575f80fd5b506102f26102ed366004613a77565b610ac8565b005b3480156102ff575f80fd5b5061026661030e366004613a45565b610ad7565b34801561031e575f80fd5b507f645e039705490088daad89bae25049a34f4a9072d398537b1ab2425f24cbed02545b604051908152602001610272565b34801561035b575f80fd5b506102f261036a366004613ae7565b610bb6565b34801561037a575f80fd5b50610342610389366004613b36565b6001600160a01b03165f9081527f62a0d75e37bea0c3e666dc72a74112fc6af15ce635719127e380d8ca1e555d03602052604090205490565b3480156103cd575f80fd5b506102f26103dc366004613b4f565b610c51565b3480156103ec575f80fd5b5061048d6103fb366004613a45565b60408051608080820183525f808352602080840182905283850182905260609384018290529481527f62a0d75e37bea0c3e666dc72a74112fc6af15ce635719127e380d8ca1e555d0285528390208351918201845280546001600160a01b0390811683526001820154169482019490945260028401549281019290925260039092015460ff1615159181019190915290565b60405161027291905f6080820190506001600160a01b0383511682526001600160a01b0360208401511660208301526040830151604083015260608301511515606083015292915050565b3480156104e3575f80fd5b506102f26104f2366004613b89565b610d0b565b348015610502575f80fd5b50610342610511366004613a77565b610d91565b348015610521575f80fd5b506102f2610530366004613b4f565b610e2e565b348015610540575f80fd5b5061055461054f366004613bf7565b610e4d565b60405161027293929190613c54565b6102f2610571366004613dcc565b611200565b348015610581575f80fd5b50610342610590366004613a45565b61121b565b3480156105a0575f80fd5b506103426112cc565b3480156105b4575f80fd5b506102bb6105c3366004613a45565b6112fa565b3480156105d3575f80fd5b506102bb7f000000000000000000000000000000000000000000000000000000000000000081565b348015610606575f80fd5b50610342610615366004613b36565b611304565b348015610625575f80fd5b506102f2610634366004613b36565b611388565b348015610644575f80fd5b507f62a0d75e37bea0c3e666dc72a74112fc6af15ce635719127e380d8ca1e555d0154610342565b348015610677575f80fd5b50610680611466565b6040517fffffffff000000000000000000000000000000000000000000000000000000009091168152602001610272565b3480156106bc575f80fd5b506103426106cb366004613e17565b6114d9565b3480156106db575f80fd5b5061028f611780565b3480156106ef575f80fd5b506102f26106fe366004613e86565b6117d1565b34801561070e575f80fd5b506102bb61071d366004613a45565b5f9081527f62a0d75e37bea0c3e666dc72a74112fc6af15ce635719127e380d8ca1e555d0260205260409020546001600160a01b031690565b348015610761575f80fd5b5061028f6040518060400160405280600581526020017f352e302e3000000000000000000000000000000000000000000000000000000081525081565b3480156107a9575f80fd5b506102bb6107b8366004613a45565b5f9081527f62a0d75e37bea0c3e666dc72a74112fc6af15ce635719127e380d8ca1e555d0260205260409020600101546001600160a01b031690565b3480156107ff575f80fd5b506102f261080e366004613ebb565b6117dc565b34801561081e575f80fd5b507ff3177357ab46d8af007ab3fdb9af81da189e1068fefdc0073dca88a2cab40a00546001600160a01b03166102bb565b34801561085a575f80fd5b5061028f610869366004613a45565b6117f4565b348015610879575f80fd5b50610266610888366004613f1f565b6001600160a01b039182165f9081527f80bb2b638cc20bc4d0a60d66940f3ab4a00c1d7b313497ca82fb0b4ab00793056020908152604080832093909416825291909152205460ff1690565b3480156108df575f80fd5b506102f26108ee366004613f50565b611b0b565b3480156108fe575f80fd5b506102bb7f000000000000000000000000000000000000000000000000000000000000000081565b348015610931575f80fd5b50610342610940366004613a45565b5f9081527f62a0d75e37bea0c3e666dc72a74112fc6af15ce635719127e380d8ca1e555d02602052604090206002015490565b5f7fffffffff0000000000000000000000000000000000000000000000000000000082167f780e9d630000000000000000000000000000000000000000000000000000000014806109c857506109c882611d72565b92915050565b7f80bb2b638cc20bc4d0a60d66940f3ab4a00c1d7b313497ca82fb0b4ab00793008054606091908190610a0090613fa4565b80601f0160208091040260200160405190810160405280929190818152602001828054610a2c90613fa4565b8015610a775780601f10610a4e57610100808354040283529160200191610a77565b820191905f5260205f20905b815481529060010190602001808311610a5a57829003601f168201915b505050505091505090565b5f610a8c82611e54565b505f8281527f80bb2b638cc20bc4d0a60d66940f3ab4a00c1d7b313497ca82fb0b4ab007930460205260409020546001600160a01b03166109c8565b610ad3828233611ec4565b5050565b5f807f62a0d75e37bea0c3e666dc72a74112fc6af15ce635719127e380d8ca1e555d005f848152600282016020526040908190205490517f13f46c420000000000000000000000000000000000000000000000000000000081526001600160a01b0391821660048201529192507f000000000000000000000000000000000000000000000000000000000000000016906313f46c4290602401602060405180830381865afa158015610b8b573d5f803e3d5ffd5b505050506040513d601f19601f82011682018060405250810190610baf9190613ff5565b9392505050565b336001600160a01b037f00000000000000000000000000000000000000000000000000000000000000001614610c18576040517facabe00300000000000000000000000000000000000000000000000000000000815260040160405180910390fd5b5f5b81811015610c4b57610c43838383818110610c3757610c37614010565b90506020020135611ed1565b600101610c1a565b50505050565b6001600160a01b038216610c98576040517f64a0ae920000000000000000000000000000000000000000000000000000000081525f60048201526024015b60405180910390fd5b5f610ca4838333611f22565b9050836001600160a01b0316816001600160a01b031614610c4b576040517f64283d7b0000000000000000000000000000000000000000000000000000000081526001600160a01b0380861660048301526024820184905282166044820152606401610c8f565b610d17335b5f36612090565b7f62a0d75e37bea0c3e666dc72a74112fc6af15ce635719127e380d8ca1e555d0080610d44838583614081565b507f6bd5c950a8d8df17f772f5af37cb3655737899cbf903264b9795592da439661c60018260010154604051610d84929190918252602082015260400190565b60405180910390a1505050565b5f7f645e039705490088daad89bae25049a34f4a9072d398537b1ab2425f24cbed00610dbc84611304565b8310610e06576040517fa57d13dc0000000000000000000000000000000000000000000000000000000081526001600160a01b038516600482015260248101849052604401610c8f565b6001600160a01b0384165f908152602091825260408082208583529092522054905092915050565b610e4883838360405180602001604052805f8152506117dc565b505050565b5f6060807f62a0d75e37bea0c3e666dc72a74112fc6af15ce635719127e380d8ca1e555d007f62a0d75e37bea0c3e666dc72a74112fc6af15ce635719127e380d8ca1e555d028487878281610ea457610ea4614010565b602090810292909201358352508101919091526040015f20600101546001600160a01b031693508467ffffffffffffffff811115610ee457610ee4613cee565b604051908082528060200260200182016040528015610f0d578160200160208202803683370190505b5092508467ffffffffffffffff811115610f2957610f29613cee565b604051908082528060200260200182016040528015610f52578160200160208202803683370190505b5091505f5b858110156111f4575f826002015f898985818110610f7757610f77614010565b602090810292909201358352508181019290925260409081015f908120825160808101845281546001600160a01b0390811682526001830154169481019490945260028101549284019290925260039091015460ff1615156060830152909150610ff8898985818110610fec57610fec614010565b905060200201356112fa565b90508a6001600160a01b03166110198a8a86818110610fec57610fec614010565b6001600160a01b0316141580156110425750896001600160a01b0316816001600160a01b031614155b156110b65788888481811061105957611059614010565b6040517f6f3fb02e000000000000000000000000000000000000000000000000000000008152602090910292909201356004830152506001600160a01b03808d166024830152808c16604483015282166064820152608401610c8f565b81602001516001600160a01b0316876001600160a01b03161461111e5760208201516040517fdfcb50620000000000000000000000000000000000000000000000000000000081526001600160a01b03808a1660048301529091166024820152604401610c8f565b61113f89898581811061113357611133614010565b90506020020135610ad7565b156111925788888481811061115657611156614010565b905060200201356040517f39944339000000000000000000000000000000000000000000000000000000008152600401610c8f91815260200190565b815f01518684815181106111a8576111a8614010565b60200260200101906001600160a01b031690816001600160a01b03168152505081604001518584815181106111df576111df614010565b60209081029190910101525050600101610f57565b50509450945094915050565b611208612254565b61121182612326565b610ad38282612332565b5f7f645e039705490088daad89bae25049a34f4a9072d398537b1ab2425f24cbed006112657f645e039705490088daad89bae25049a34f4a9072d398537b1ab2425f24cbed025490565b83106112a6576040517fa57d13dc0000000000000000000000000000000000000000000000000000000081525f600482015260248101849052604401610c8f565b8060020183815481106112bb576112bb614010565b905f5260205f200154915050919050565b5f6112d5612433565b507f360894a13ba1a3210667c828492db98dca3e2076cc3735a920a3ca505d382bbc90565b5f6109c882611e54565b5f7f80bb2b638cc20bc4d0a60d66940f3ab4a00c1d7b313497ca82fb0b4ab00793006001600160a01b038316611368576040517f89c62b640000000000000000000000000000000000000000000000000000000081525f6004820152602401610c8f565b6001600160a01b039092165f908152600390920160205250604090205490565b336113ba7ff3177357ab46d8af007ab3fdb9af81da189e1068fefdc0073dca88a2cab40a00546001600160a01b031690565b6001600160a01b0316816001600160a01b03161461140f576040517f068ca9d80000000000000000000000000000000000000000000000000000000081526001600160a01b0382166004820152602401610c8f565b816001600160a01b03163b5f0361145d576040517fc2f31e5e0000000000000000000000000000000000000000000000000000000081526001600160a01b0383166004820152602401610c8f565b610ad382612495565b7ff3177357ab46d8af007ab3fdb9af81da189e1068fefdc0073dca88a2cab40a0080545f919074010000000000000000000000000000000000000000900460ff166114b1575f6114d3565b7f8fb36037000000000000000000000000000000000000000000000000000000005b91505090565b5f336001600160a01b037f0000000000000000000000000000000000000000000000000000000000000000161461153c576040517facabe00300000000000000000000000000000000000000000000000000000000815260040160405180910390fd5b604080516080810182526001600160a01b03808a16825288166020820181905281830188905291517fc32b6fcc000000000000000000000000000000000000000000000000000000008152600481018890525f92606083019163c32b6fcc90602401602060405180830381865afa1580156115b9573d5f803e3d5ffd5b505050506040513d601f19601f820116820180604052508101906115dd9190613ff5565b151590527f62a0d75e37bea0c3e666dc72a74112fc6af15ce635719127e380d8ca1e555d01805493509091507f62a0d75e37bea0c3e666dc72a74112fc6af15ce635719127e380d8ca1e555d009086905f61163883876141a6565b90915550506001600160a01b0389165f908152600382016020526040812080548892906116669084906141a6565b909155505f90505b86811015611773575f61168182866141a6565b5f81815260028581016020908152604092839020885181547fffffffffffffffffffffffff00000000000000000000000000000000000000009081166001600160a01b03928316178355928a015160018301805490941691161790915591870151908201556060860151600390910180547fffffffffffffffffffffffffffffffffffffffffffffffffffffffffffffff001691151591909117905590506117298682612520565b80866001600160a01b0316886001600160a01b03167f14fc68fa3d99c92bb4159f5ae1ddd4bbf7b874931534c08ac40467d7ece273d660405160405180910390a45060010161166e565b5050509695505050505050565b7f80bb2b638cc20bc4d0a60d66940f3ab4a00c1d7b313497ca82fb0b4ab007930180546060917f80bb2b638cc20bc4d0a60d66940f3ab4a00c1d7b313497ca82fb0b4ab007930091610a0090613fa4565b610ad33383836125b3565b6117e7848484610c51565b610c4b33858585856126ac565b5f8181527f62a0d75e37bea0c3e666dc72a74112fc6af15ce635719127e380d8ca1e555d0260209081526040808320815160808101835281546001600160a01b039081168083526001840154909116948201949094526002820154928101929092526003015460ff161515606082810191909152927f62a0d75e37bea0c3e666dc72a74112fc6af15ce635719127e380d8ca1e555d00926118949061284e565b90505f6118a086612864565b6040516118b491908490879060200161425c565b60408051601f198184030181528282526020860151918601517fef6477650000000000000000000000000000000000000000000000000000000084526004840152925082916001600160a01b039091169063ef647765906024015f60405180830381865afa158015611928573d5f803e3d5ffd5b505050506040513d5f823e601f3d908101601f1916820160405261194f9190810190614489565b6040516020016119609291906144fe565b6040516020818303038152906040529050808261198985602001516001600160a01b031661284e565b6119968660400151612864565b86606001516119da576040518060400160405280600581526020017f66616c7365000000000000000000000000000000000000000000000000000000815250611a11565b6040518060400160405280600481526020017f74727565000000000000000000000000000000000000000000000000000000008152505b611a1a8b610ad7565b611a59576040518060400160405280600581526020017f66616c7365000000000000000000000000000000000000000000000000000000815250611a90565b6040518060400160405280600481526020017f74727565000000000000000000000000000000000000000000000000000000008152505b604051602001611aa596959493929190614512565b604051602081830303815290604052905080604051602001611ac791906147b5565b6040516020818303038152906040529050611ae181612920565b604051602001611af191906147ed565b604051602081830303815290604052945050505050919050565b7ff0c57e16840df040f15088dc2f81fe391c3923bec73e23a9662efc9c229c6a00805468010000000000000000810460ff16159067ffffffffffffffff165f81158015611b555750825b90505f8267ffffffffffffffff166001148015611b715750303b155b905081158015611b7f575080155b15611bb6576040517ff92ee8a900000000000000000000000000000000000000000000000000000000815260040160405180910390fd5b84547fffffffffffffffffffffffffffffffffffffffffffffffff00000000000000001660011785558315611c175784547fffffffffffffffffffffffffffffffffffffffffffffff00ffffffffffffffff16680100000000000000001785555b6001600160a01b038716611c57576040517f59e7205c00000000000000000000000000000000000000000000000000000000815260040160405180910390fd5b611ccb6040518060400160405280601d81526020017f50726f6772616d6d61626c65204950204c6963656e736520546f6b656e0000008152506040518060400160405280600e81526020017f50494c6963656e7365546f6b656e000000000000000000000000000000000000815250612946565b611cd487612958565b611cdc612969565b7f62a0d75e37bea0c3e666dc72a74112fc6af15ce635719127e380d8ca1e555d00611d07878261481e565b508315611d695784547fffffffffffffffffffffffffffffffffffffffffffffff00ffffffffffffffff168555604051600181527fc7f505b2f371ae2175ee4913f4499e1f2633a7b5936321eed1cdaeb6115181d29060200160405180910390a15b50505050505050565b5f7fffffffff0000000000000000000000000000000000000000000000000000000082167f80ac58cd000000000000000000000000000000000000000000000000000000001480611e0457507fffffffff0000000000000000000000000000000000000000000000000000000082167f5b5e139f00000000000000000000000000000000000000000000000000000000145b806109c857507f01ffc9a7000000000000000000000000000000000000000000000000000000007fffffffff000000000000000000000000000000000000000000000000000000008316146109c8565b5f8181527f80bb2b638cc20bc4d0a60d66940f3ab4a00c1d7b313497ca82fb0b4ab007930260205260408120546001600160a01b0316806109c8576040517f7e27328900000000000000000000000000000000000000000000000000000000815260048101849052602401610c8f565b610e488383836001612971565b5f611edd5f835f611f22565b90506001600160a01b038116610ad3576040517f7e27328900000000000000000000000000000000000000000000000000000000815260048101839052602401610c8f565b5f8281527f80bb2b638cc20bc4d0a60d66940f3ab4a00c1d7b313497ca82fb0b4ab007930260205260408120547f62a0d75e37bea0c3e666dc72a74112fc6af15ce635719127e380d8ca1e555d00906001600160a01b03168015801590611f9157506001600160a01b03861615155b1561207b575f85815260028084016020908152604092839020835160808101855281546001600160a01b0390811682526001830154169281019290925291820154928101929092526003015460ff1615156060820152611ff086610ad7565b1561202a576040517f3994433900000000000000000000000000000000000000000000000000000000815260048101879052602401610c8f565b80606001516120795780516001600160a01b03838116911614612079576040517fd175f85c00000000000000000000000000000000000000000000000000000000815260040160405180910390fd5b505b612086868686612b05565b9695505050505050565b7ff3177357ab46d8af007ab3fdb9af81da189e1068fefdc0073dca88a2cab40a005f806121046120e77ff3177357ab46d8af007ab3fdb9af81da189e1068fefdc0073dca88a2cab40a00546001600160a01b031690565b87306120f660045f8a8c614917565b6120ff9161493e565b612c16565b915091508161224c5763ffffffff81161561220f5782547fffffffffffffffffffffff00ffffffffffffffffffffffffffffffffffffffff16740100000000000000000000000000000000000000001783556121877ff3177357ab46d8af007ab3fdb9af81da189e1068fefdc0073dca88a2cab40a00546001600160a01b031690565b6001600160a01b03166394c7d7ee8787876040518463ffffffff1660e01b81526004016121b6939291906149a4565b5f604051808303815f87803b1580156121cd575f80fd5b505af11580156121df573d5f803e3d5ffd5b505084547fffffffffffffffffffffff00ffffffffffffffffffffffffffffffffffffffff1685555061224c9050565b6040517f068ca9d80000000000000000000000000000000000000000000000000000000081526001600160a01b0387166004820152602401610c8f565b505050505050565b306001600160a01b037f00000000000000000000000000000000000000000000000000000000000000001614806122ed57507f00000000000000000000000000000000000000000000000000000000000000006001600160a01b03166122e17f360894a13ba1a3210667c828492db98dca3e2076cc3735a920a3ca505d382bbc546001600160a01b031690565b6001600160a01b031614155b15612324576040517fe07c8dba00000000000000000000000000000000000000000000000000000000815260040160405180910390fd5b565b61232f33610d10565b50565b816001600160a01b03166352d1902d6040518163ffffffff1660e01b8152600401602060405180830381865afa92505050801561238c575060408051601f3d908101601f19168201909252612389918101906149e2565b60015b6123cd576040517f4c9c8ce30000000000000000000000000000000000000000000000000000000081526001600160a01b0383166004820152602401610c8f565b7f360894a13ba1a3210667c828492db98dca3e2076cc3735a920a3ca505d382bbc8114612429576040517faa1d49a400000000000000000000000000000000000000000000000000000000815260048101829052602401610c8f565b610e488383612d64565b306001600160a01b037f00000000000000000000000000000000000000000000000000000000000000001614612324576040517fe07c8dba00000000000000000000000000000000000000000000000000000000815260040160405180910390fd5b7ff3177357ab46d8af007ab3fdb9af81da189e1068fefdc0073dca88a2cab40a0080546001600160a01b0383167fffffffffffffffffffffffff00000000000000000000000000000000000000009091168117825560408051918252517f2f658b440c35314f52658ea8a740e05b284cdc84dc9ae01e891f21b8933e7cad9181900360200190a15050565b6001600160a01b038216612562576040517f64a0ae920000000000000000000000000000000000000000000000000000000081525f6004820152602401610c8f565b5f61256e83835f611f22565b90506001600160a01b03811615610e48576040517f73c6ac6e0000000000000000000000000000000000000000000000000000000081525f6004820152602401610c8f565b7f80bb2b638cc20bc4d0a60d66940f3ab4a00c1d7b313497ca82fb0b4ab00793006001600160a01b03831661261f576040517f5b08ba180000000000000000000000000000000000000000000000000000000081526001600160a01b0384166004820152602401610c8f565b6001600160a01b038481165f81815260058401602090815260408083209488168084529482529182902080547fffffffffffffffffffffffffffffffffffffffffffffffffffffffffffffff001687151590811790915591519182527f17307eab39ab6107e8899845ad3d59bd9653f200f220920489ca2b5937696c31910160405180910390a350505050565b6001600160a01b0383163b15612847576040517f150b7a020000000000000000000000000000000000000000000000000000000081526001600160a01b0384169063150b7a02906127079088908890879087906004016149f9565b6020604051808303815f875af1925050508015612741575060408051601f3d908101601f1916820190925261273e91810190614a2f565b60015b6127c1573d80801561276e576040519150601f19603f3d011682016040523d82523d5f602084013e612773565b606091505b5080515f036127b9576040517f64a0ae920000000000000000000000000000000000000000000000000000000081526001600160a01b0385166004820152602401610c8f565b805181602001fd5b7fffffffff0000000000000000000000000000000000000000000000000000000081167f150b7a02000000000000000000000000000000000000000000000000000000001461224c576040517f64a0ae920000000000000000000000000000000000000000000000000000000081526001600160a01b0385166004820152602401610c8f565b5050505050565b60606109c86001600160a01b0383166014612db9565b60605f61287083612fd1565b60010190505f8167ffffffffffffffff81111561288f5761288f613cee565b6040519080825280601f01601f1916602001820160405280156128b9576020820181803683370190505b5090508181016020015b7fffffffffffffffffffffffffffffffffffffffffffffffffffffffffffffffff017f3031323334353637383961626364656600000000000000000000000000000000600a86061a8153600a85049450846128c357509392505050565b60606109c882604051806060016040528060408152602001614b4e6040913960016130b2565b61294e61322d565b610ad38282613294565b61296061322d565b61232f816132d7565b61232461322d565b7f80bb2b638cc20bc4d0a60d66940f3ab4a00c1d7b313497ca82fb0b4ab007930081806129a657506001600160a01b03831615155b15612abd575f6129b585611e54565b90506001600160a01b038416158015906129e15750836001600160a01b0316816001600160a01b031614155b8015612a3157506001600160a01b038082165f9081527f80bb2b638cc20bc4d0a60d66940f3ab4a00c1d7b313497ca82fb0b4ab0079305602090815260408083209388168352929052205460ff16155b15612a73576040517fa9fbf51f0000000000000000000000000000000000000000000000000000000081526001600160a01b0385166004820152602401610c8f565b8215612abb5784866001600160a01b0316826001600160a01b03167f8c5be1e5ebec7d5bd14f71427d1e84f3dd0314c0f7b2291e5b200ac8c7c3b92560405160405180910390a45b505b5f93845260040160205250506040902080547fffffffffffffffffffffffff0000000000000000000000000000000000000000166001600160a01b0392909216919091179055565b5f80612b128585856132e8565b90506001600160a01b038116612bac57612ba7847f645e039705490088daad89bae25049a34f4a9072d398537b1ab2425f24cbed0280545f8381527f645e039705490088daad89bae25049a34f4a9072d398537b1ab2425f24cbed0360205260408120829055600182018355919091527fa42f15e5d656f8155fd7419d740a6073999f19cd6e061449ce4a257150545bf20155565b612bcf565b846001600160a01b0316816001600160a01b031614612bcf57612bcf8185613459565b6001600160a01b038516612beb57612be684613503565b612c0e565b846001600160a01b0316816001600160a01b031614612c0e57612c0e85856135f6565b949350505050565b6040516001600160a01b03848116602483015283811660448301527fffffffff00000000000000000000000000000000000000000000000000000000831660648301525f9182918291829189169060840160408051601f198184030181529181526020820180517bffffffffffffffffffffffffffffffffffffffffffffffffffffffff167fb70096130000000000000000000000000000000000000000000000000000000017905251612cca9190614a4a565b5f60405180830381855afa9150503d805f8114612d02576040519150601f19603f3d011682016040523d82523d5f602084013e612d07565b606091505b50915091508115612d59576040815110612d395780806020019051810190612d2f9190614a55565b9094509250612d59565b6020815110612d595780806020019051810190612d569190613ff5565b93505b505094509492505050565b612d6d82613661565b6040516001600160a01b038316907fbc7cd75a20ee27fd9adebab32041f755214dbc6bffa90cc0225b39da2e5c2d3b905f90a2805115612db157610e488282613708565b610ad361377a565b6060825f612dc8846002614a8a565b612dd39060026141a6565b67ffffffffffffffff811115612deb57612deb613cee565b6040519080825280601f01601f191660200182016040528015612e15576020820181803683370190505b5090507f3000000000000000000000000000000000000000000000000000000000000000815f81518110612e4b57612e4b614010565b60200101907effffffffffffffffffffffffffffffffffffffffffffffffffffffffffffff191690815f1a9053507f780000000000000000000000000000000000000000000000000000000000000081600181518110612ead57612ead614010565b60200101907effffffffffffffffffffffffffffffffffffffffffffffffffffffffffffff191690815f1a9053505f612ee7856002614a8a565b612ef29060016141a6565b90505b6001811115612f8e577f303132333435363738396162636465660000000000000000000000000000000083600f1660108110612f3357612f33614010565b1a60f81b828281518110612f4957612f49614010565b60200101907effffffffffffffffffffffffffffffffffffffffffffffffffffffffffffff191690815f1a90535060049290921c91612f8781614aa1565b9050612ef5565b508115612c0e576040517fe22e27eb0000000000000000000000000000000000000000000000000000000081526004810186905260248101859052604401610c8f565b5f807a184f03e93ff9f4daa797ed6e38ed64bf6a1f0100000000000000008310613019577a184f03e93ff9f4daa797ed6e38ed64bf6a1f010000000000000000830492506040015b6d04ee2d6d415b85acef81000000008310613045576d04ee2d6d415b85acef8100000000830492506020015b662386f26fc10000831061306357662386f26fc10000830492506010015b6305f5e100831061307b576305f5e100830492506008015b612710831061308f57612710830492506004015b606483106130a1576064830492506002015b600a83106109c85760010192915050565b606083515f036130d0575060408051602081019091525f8152610baf565b5f82613100576003855160046130e69190614a8a565b6130f19060026141a6565b6130fb9190614ad5565b613125565b60038551600261311091906141a6565b61311a9190614ad5565b613125906004614a8a565b90505f8167ffffffffffffffff81111561314157613141613cee565b6040519080825280601f01601f19166020018201604052801561316b576020820181803683370190505b509050600185016020820187885189016020810180515f82525b828410156131e0576003840193508351603f8160121c168701518653600186019550603f81600c1c168701518653600186019550603f8160061c168701518653600186019550603f8116870151865350600185019450613185565b9052505085156132215760038851066001811461320457600281146132175761321f565b603d6001830353603d600283035361321f565b603d60018303535b505b50909695505050505050565b7ff0c57e16840df040f15088dc2f81fe391c3923bec73e23a9662efc9c229c6a005468010000000000000000900460ff16612324576040517fd7e6bcf800000000000000000000000000000000000000000000000000000000815260040160405180910390fd5b61329c61322d565b7f80bb2b638cc20bc4d0a60d66940f3ab4a00c1d7b313497ca82fb0b4ab0079300806132c8848261481e565b5060018101610c4b838261481e565b6132df61322d565b61232f81612495565b5f8281527f80bb2b638cc20bc4d0a60d66940f3ab4a00c1d7b313497ca82fb0b4ab007930260205260408120547f80bb2b638cc20bc4d0a60d66940f3ab4a00c1d7b313497ca82fb0b4ab0079300906001600160a01b0390811690841615613355576133558185876137b2565b6001600160a01b038116156133b0576133705f865f80612971565b6001600160a01b0381165f908152600383016020526040902080547fffffffffffffffffffffffffffffffffffffffffffffffffffffffffffffffff0190555b6001600160a01b038616156133e0576001600160a01b0386165f9081526003830160205260409020805460010190555b5f85815260028301602052604080822080547fffffffffffffffffffffffff0000000000000000000000000000000000000000166001600160a01b038a811691821790925591518893918516917fddf252ad1be2c89b69c2b068fc378daa952ba7f163c4a11628f55a4df523b3ef91a495945050505050565b7f645e039705490088daad89bae25049a34f4a9072d398537b1ab2425f24cbed005f61348484611304565b5f8481526001840160209081526040808320546001600160a01b038916845291869052909120919250908183146134dc575f838152602082815260408083205485845281842081905583526001870190915290208290555b5f948552600190930160209081526040808620869055928552929092528220919091555050565b7f645e039705490088daad89bae25049a34f4a9072d398537b1ab2425f24cbed02547f645e039705490088daad89bae25049a34f4a9072d398537b1ab2425f24cbed00905f9061355590600190614b0d565b5f84815260038401602052604081205460028501805493945090928490811061358057613580614010565b905f5260205f2001549050808460020183815481106135a1576135a1614010565b5f918252602080832090910192909255828152600386019091526040808220849055868252812055600284018054806135dc576135dc614b20565b600190038181905f5260205f20015f905590555050505050565b7f645e039705490088daad89bae25049a34f4a9072d398537b1ab2425f24cbed005f600161362385611304565b61362d9190614b0d565b6001600160a01b039094165f9081526020838152604080832087845282528083208690559482526001909301909252502055565b806001600160a01b03163b5f036136af576040517f4c9c8ce30000000000000000000000000000000000000000000000000000000081526001600160a01b0382166004820152602401610c8f565b7f360894a13ba1a3210667c828492db98dca3e2076cc3735a920a3ca505d382bbc80547fffffffffffffffffffffffff0000000000000000000000000000000000000000166001600160a01b0392909216919091179055565b60605f80846001600160a01b0316846040516137249190614a4a565b5f60405180830381855af49150503d805f811461375c576040519150601f19603f3d011682016040523d82523d5f602084013e613761565b606091505b5091509150613771858383613848565b95945050505050565b3415612324576040517fb398979f00000000000000000000000000000000000000000000000000000000815260040160405180910390fd5b6137bd8383836138bd565b610e48576001600160a01b038316613804576040517f7e27328900000000000000000000000000000000000000000000000000000000815260048101829052602401610c8f565b6040517f177e802f0000000000000000000000000000000000000000000000000000000081526001600160a01b038316600482015260248101829052604401610c8f565b60608261385d576138588261397b565b610baf565b815115801561387457506001600160a01b0384163b155b156138b6576040517f9996b3150000000000000000000000000000000000000000000000000000000081526001600160a01b0385166004820152602401610c8f565b5080610baf565b5f6001600160a01b03831615801590612c0e5750826001600160a01b0316846001600160a01b0316148061393457506001600160a01b038085165f9081527f80bb2b638cc20bc4d0a60d66940f3ab4a00c1d7b313497ca82fb0b4ab0079305602090815260408083209387168352929052205460ff165b80612c0e5750505f9081527f80bb2b638cc20bc4d0a60d66940f3ab4a00c1d7b313497ca82fb0b4ab007930460205260409020546001600160a01b03908116911614919050565b80511561398b5780518082602001fd5b6040517fd6bda27500000000000000000000000000000000000000000000000000000000815260040160405180910390fd5b7fffffffff000000000000000000000000000000000000000000000000000000008116811461232f575f80fd5b5f602082840312156139fa575f80fd5b8135610baf816139bd565b5f81518084528060208401602086015e5f602082860101526020601f19601f83011685010191505092915050565b602081525f610baf6020830184613a05565b5f60208284031215613a55575f80fd5b5035919050565b80356001600160a01b0381168114613a72575f80fd5b919050565b5f8060408385031215613a88575f80fd5b613a9183613a5c565b946020939093013593505050565b5f8083601f840112613aaf575f80fd5b50813567ffffffffffffffff811115613ac6575f80fd5b6020830191508360208260051b8501011115613ae0575f80fd5b9250929050565b5f805f60408486031215613af9575f80fd5b613b0284613a5c565b9250602084013567ffffffffffffffff811115613b1d575f80fd5b613b2986828701613a9f565b9497909650939450505050565b5f60208284031215613b46575f80fd5b610baf82613a5c565b5f805f60608486031215613b61575f80fd5b613b6a84613a5c565b9250613b7860208501613a5c565b929592945050506040919091013590565b5f8060208385031215613b9a575f80fd5b823567ffffffffffffffff811115613bb0575f80fd5b8301601f81018513613bc0575f80fd5b803567ffffffffffffffff811115613bd6575f80fd5b856020828401011115613be7575f80fd5b6020919091019590945092505050565b5f805f8060608587031215613c0a575f80fd5b613c1385613a5c565b9350613c2160208601613a5c565b9250604085013567ffffffffffffffff811115613c3c575f80fd5b613c4887828801613a9f565b95989497509550505050565b5f606082016001600160a01b0386168352606060208401528085518083526080850191506020870192505f5b81811015613ca75783516001600160a01b0316835260209384019390920191600101613c80565b50508381036040850152845180825260209182019250908501905f5b81811015613ce1578251845260209384019390920191600101613cc3565b5091979650505050505050565b7f4e487b71000000000000000000000000000000000000000000000000000000005f52604160045260245ffd5b604051601f8201601f1916810167ffffffffffffffff81118282101715613d4457613d44613cee565b604052919050565b5f67ffffffffffffffff821115613d6557613d65613cee565b50601f01601f191660200190565b5f613d85613d8084613d4c565b613d1b565b9050828152838383011115613d98575f80fd5b828260208301375f602084830101529392505050565b5f82601f830112613dbd575f80fd5b610baf83833560208501613d73565b5f8060408385031215613ddd575f80fd5b613de683613a5c565b9150602083013567ffffffffffffffff811115613e01575f80fd5b613e0d85828601613dae565b9150509250929050565b5f805f805f8060c08789031215613e2c575f80fd5b613e3587613a5c565b9550613e4360208801613a5c565b94506040870135935060608701359250613e5f60808801613a5c565b9150613e6d60a08801613a5c565b90509295509295509295565b801515811461232f575f80fd5b5f8060408385031215613e97575f80fd5b613ea083613a5c565b91506020830135613eb081613e79565b809150509250929050565b5f805f8060808587031215613ece575f80fd5b613ed785613a5c565b9350613ee560208601613a5c565b925060408501359150606085013567ffffffffffffffff811115613f07575f80fd5b613f1387828801613dae565b91505092959194509250565b5f8060408385031215613f30575f80fd5b613f3983613a5c565b9150613f4760208401613a5c565b90509250929050565b5f8060408385031215613f61575f80fd5b613f6a83613a5c565b9150602083013567ffffffffffffffff811115613f85575f80fd5b8301601f81018513613f95575f80fd5b613e0d85823560208401613d73565b600181811c90821680613fb857607f821691505b602082108103613fef577f4e487b71000000000000000000000000000000000000000000000000000000005f52602260045260245ffd5b50919050565b5f60208284031215614005575f80fd5b8151610baf81613e79565b7f4e487b71000000000000000000000000000000000000000000000000000000005f52603260045260245ffd5b601f821115610e4857805f5260205f20601f840160051c810160208510156140625750805b601f840160051c820191505b81811015612847575f815560010161406e565b67ffffffffffffffff83111561409957614099613cee565b6140ad836140a78354613fa4565b8361403d565b5f601f8411600181146140fd575f85156140c75750838201355b7fffffffffffffffffffffffffffffffffffffffffffffffffffffffffffffffff600387901b1c1916600186901b178355612847565b5f83815260208120601f198716915b8281101561412c578685013582556020948501946001909201910161410c565b5086821015614167577fffffffffffffffffffffffffffffffffffffffffffffffffffffffffffffffff60f88860031b161c19848701351681555b505060018560011b0183555050505050565b7f4e487b71000000000000000000000000000000000000000000000000000000005f52601160045260245ffd5b808201808211156109c8576109c8614179565b5f81518060208401855e5f93019283525090919050565b5f81546141dc81613fa4565b6001821680156141f3576001811461422657614253565b7fffffffffffffffffffffffffffffffffffffffffffffffffffffffffffffff0083168652811515820286019350614253565b845f5260205f205f5b8381101561424b5781548882015260019091019060200161422f565b505081860193505b50505092915050565b7f7b0000000000000000000000000000000000000000000000000000000000000081527f226e616d65223a202253746f72792050726f746f636f6c204c6963656e73652060018201527f230000000000000000000000000000000000000000000000000000000000000060218201525f6142d960228301866141b9565b7f222c00000000000000000000000000000000000000000000000000000000000081527f226465736372697074696f6e223a20224c6963656e73652061677265656d656e60028201527f742073746174696e6720746865207465726d73206f6620612053746f7279205060228201527f726f746f636f6c2049504173736574222c00000000000000000000000000000060428201527f2265787465726e616c5f75726c223a202268747470733a2f2f70726f746f636f60538201527f6c2e73746f727970726f746f636f6c2e78797a2f6970612f000000000000000060738201526143c7608b8201866141b9565b7f222c000000000000000000000000000000000000000000000000000000000000815290506002810161447e61445561442c614426847f22696d616765223a2022000000000000000000000000000000000000000000008152600a0190565b886141d0565b7f222c000000000000000000000000000000000000000000000000000000000000815260020190565b7f2261747472696275746573223a205b00000000000000000000000000000000008152600f0190565b979650505050505050565b5f60208284031215614499575f80fd5b815167ffffffffffffffff8111156144af575f80fd5b8201601f810184136144bf575f80fd5b80516144cd613d8082613d4c565b8181528560208385010111156144e1575f80fd5b8160208401602083015e5f91810160200191909152949350505050565b5f612c0e61450c83866141b9565b846141b9565b5f61451d82896141b9565b7f7b2274726169745f74797065223a20224c6963656e736f72222c202276616c7581527f65223a2022000000000000000000000000000000000000000000000000000000602082015261457360258201896141b9565b90507f227d2c000000000000000000000000000000000000000000000000000000000081527f7b2274726169745f74797065223a20224c6963656e73652054656d706c61746560038201527f222c202276616c7565223a20220000000000000000000000000000000000000060238201526145f160308201886141b9565b90507f227d2c000000000000000000000000000000000000000000000000000000000081527f7b2274726169745f74797065223a20224c6963656e7365205465726d7320494460038201527f222c202276616c7565223a202200000000000000000000000000000000000000602382015261466f60308201876141b9565b7f227d2c000000000000000000000000000000000000000000000000000000000081529050600381016147a761477e6147786147296147006146fa867f7b2274726169745f74797065223a20225472616e7366657261626c65222c202281527f76616c7565223a20220000000000000000000000000000000000000000000000602082015260290190565b8b6141b9565b7f227d2c0000000000000000000000000000000000000000000000000000000000815260030190565b7f7b2274726169745f74797065223a20225265766f6b6564222c202276616c756581527f223a202200000000000000000000000000000000000000000000000000000000602082015260240190565b876141b9565b7f227d000000000000000000000000000000000000000000000000000000000000815260020190565b9a9950505050505050505050565b5f6147c082846141b9565b7f5d7d00000000000000000000000000000000000000000000000000000000000081526002019392505050565b7f646174613a6170706c69636174696f6e2f6a736f6e3b6261736536342c00000081525f610baf601d8301846141b9565b815167ffffffffffffffff81111561483857614838613cee565b61484c816148468454613fa4565b8461403d565b6020601f82116001811461489d575f83156148675750848201515b7fffffffffffffffffffffffffffffffffffffffffffffffffffffffffffffffff600385901b1c1916600184901b178455612847565b5f84815260208120601f198516915b828110156148cc57878501518255602094850194600190920191016148ac565b508482101561490857868401517fffffffffffffffffffffffffffffffffffffffffffffffffffffffffffffffff600387901b60f8161c191681555b50505050600190811b01905550565b5f8085851115614925575f80fd5b83861115614931575f80fd5b5050820193919092039150565b80357fffffffff00000000000000000000000000000000000000000000000000000000811690600484101561499d577fffffffff00000000000000000000000000000000000000000000000000000000808560040360031b1b82161691505b5092915050565b6001600160a01b038416815260406020820152816040820152818360608301375f818301606090810191909152601f909201601f1916010192915050565b5f602082840312156149f2575f80fd5b5051919050565b6001600160a01b03851681526001600160a01b0384166020820152826040820152608060608201525f6120866080830184613a05565b5f60208284031215614a3f575f80fd5b8151610baf816139bd565b5f610baf82846141b9565b5f8060408385031215614a66575f80fd5b8251614a7181613e79565b602084015190925063ffffffff81168114613eb0575f80fd5b80820281158282048414176109c8576109c8614179565b5f81614aaf57614aaf614179565b507fffffffffffffffffffffffffffffffffffffffffffffffffffffffffffffffff0190565b5f82614b08577f4e487b71000000000000000000000000000000000000000000000000000000005f52601260045260245ffd5b500490565b818103818111156109c8576109c8614179565b7f4e487b71000000000000000000000000000000000000000000000000000000005f52603160045260245ffdfe4142434445464748494a4b4c4d4e4f505152535455565758595a6162636465666768696a6b6c6d6e6f707172737475767778797a303132333435363738392b2fa2646970667358221220ee12c419f5d399790aab42e08fed575e430ed6785f7001b6276b45b9903b6de964736f6c634300081a0033","linkReferences":{}},"methodIdentifiers":{"DISPUTE_MODULE()":"f943f090","LICENSING_MODULE()":"65165aa5","UPGRADE_INTERFACE_VERSION()":"ad3cb1cc","approve(address,uint256)":"095ea7b3","authority()":"bf7e214f","balanceOf(address)":"70a08231","burnLicenseTokens(address,uint256[])":"1eb5ce4e","getApproved(uint256)":"081812fc","getLicenseTemplate(uint256)":"b033c13a","getLicenseTermsId(uint256)":"fa599517","getLicenseTokenMetadata(uint256)":"29f6464c","getLicensorIpId(uint256)":"ac83c87d","getTotalTokensByLicensor(address)":"23211dcd","initialize(address,string)":"f399e22e","isApprovedForAll(address,address)":"e985e9c5","isConsumingScheduledOp()":"8fb36037","isLicenseTokenRevoked(uint256)":"0b92771c","mintLicenseTokens(address,address,uint256,uint256,address,address)":"8fdbea84","name()":"06fdde03","ownerOf(uint256)":"6352211e","proxiableUUID()":"52d1902d","safeTransferFrom(address,address,uint256)":"42842e0e","safeTransferFrom(address,address,uint256,bytes)":"b88d4fde","setApprovalForAll(address,bool)":"a22cb465","setAuthority(address)":"7a9e5e4b","setLicensingImageUrl(string)":"2de90676","supportsInterface(bytes4)":"01ffc9a7","symbol()":"95d89b41","tokenByIndex(uint256)":"4f6ccce7","tokenOfOwnerByIndex(address,uint256)":"2f745c59","tokenURI(uint256)":"c87b56dd","totalMintedTokens()":"8e32e316","totalSupply()":"18160ddd","transferFrom(address,address,uint256)":"23b872dd","upgradeToAndCall(address,bytes)":"4f1ef286","validateLicenseTokensForDerivative(address,address,uint256[])":"477fa8d1"},"id":83}