{"abi":[{"type":"function","name":"HUNDRED_PERCENT","inputs":[],"outputs":[{"name":"","type":"uint32","internalType":"uint32"}],"stateMutability":"view"},{"type":"function","name":"POLICY_KIND_LAP","inputs":[],"outputs":[{"name":"","type":"uint256","internalType":"uint256"}],"stateMutability":"view"},{"type":"function","name":"POLICY_KIND_LRP","inputs":[],"outputs":[{"name":"","type":"uint256","internalType":"uint256"}],"stateMutability":"view"},{"type":"function","name":"addParentIp","inputs":[{"name":"ipId","type":"address","internalType":"address"},{"name":"parentIpIds","type":"address[]","internalType":"address[]"}],"outputs":[],"stateMutability":"nonpayable"},{"type":"function","name":"getAncestorIps","inputs":[{"name":"ipId","type":"address","internalType":"address"},{"name":"startIndex","type":"uint256","internalType":"uint256"},{"name":"pageSize","type":"uint256","internalType":"uint256"}],"outputs":[{"name":"","type":"address[]","internalType":"address[]"}],"stateMutability":"view"},{"type":"function","name":"getAncestorIpsCount","inputs":[{"name":"ipId","type":"address","internalType":"address"}],"outputs":[{"name":"","type":"uint256","internalType":"uint256"}],"stateMutability":"nonpayable"},{"type":"function","name":"getParentIps","inputs":[{"name":"ipId","type":"address","internalType":"address"}],"outputs":[{"name":"","type":"address[]","internalType":"address[]"}],"stateMutability":"view"},{"type":"function","name":"getParentIpsCount","inputs":[{"name":"ipId","type":"address","internalType":"address"}],"outputs":[{"name":"","type":"uint256","internalType":"uint256"}],"stateMutability":"view"},{"type":"function","name":"getRoyalty","inputs":[{"name":"ipId","type":"address","internalType":"address"},{"name":"ancestorIpId","type":"address","internalType":"address"},{"name":"policyKind","type":"uint256","internalType":"uint256"}],"outputs":[{"name":"","type":"uint256","internalType":"uint256"}],"stateMutability":"nonpayable"},{"type":"function","name":"getRoyaltyStack","inputs":[{"name":"ipId","type":"address","internalType":"address"},{"name":"policyKind","type":"uint256","internalType":"uint256"}],"outputs":[{"name":"","type":"uint256","internalType":"uint256"}],"stateMutability":"nonpayable"},{"type":"function","name":"hasAncestorIp","inputs":[{"name":"ipId","type":"address","internalType":"address"},{"name":"ancestor","type":"address","internalType":"address"}],"outputs":[{"name":"","type":"bool","internalType":"bool"}],"stateMutability":"nonpayable"},{"type":"function","name":"hasParentIp","inputs":[{"name":"ipId","type":"address","internalType":"address"},{"name":"parent","type":"address","internalType":"address"}],"outputs":[{"name":"","type":"bool","internalType":"bool"}],"stateMutability":"view"},{"type":"function","name":"setRoyalty","inputs":[{"name":"ipId","type":"address","internalType":"address"},{"name":"parentIpId","type":"address","internalType":"address"},{"name":"policyKind","type":"uint256","internalType":"uint256"},{"name":"royaltyPercentage","type":"uint256","internalType":"uint256"}],"outputs":[],"stateMutability":"nonpayable"}],"bytecode":{"object":"0x6080604052348015600e575f80fd5b506115398061001c5f395ff3fe608060405234801561000f575f80fd5b50600436106100da575f3560e01c806365b55e26116100885780638df52bc9116100635780638df52bc9146101dc5780639d66f786146101e4578063a987a481146101eb578063d9139f19146101fe575f80fd5b806365b55e26146101945780636ed93dd0146101a7578063762eca33146101c7575f80fd5b80631c486366116100b85780631c4863661461014d57806340e33d5b1461016e5780635a5f66a914610181575f80fd5b80630df2b879146100de57806310487a6c14610117578063152f6be91461013a575b5f80fd5b6101016100ec366004611213565b5050604080515f815260208101909152919050565b60405161010e9190611243565b60405180910390f35b61012a61012536600461129b565b610211565b604051901515815260200161010e565b61012a61014836600461129b565b610388565b61016061015b3660046112cc565b6103bd565b60405190815260200161010e565b61010161017c3660046112cc565b6104ef565b61016061018f3660046112cc565b61051f565b6101606101a23660046112e5565b61054c565b6101b26305f5e10081565b60405163ffffffff909116815260200161010e565b6101da6101d536600461130d565b610557565b005b610160600181565b6101605f81565b6101606101f936600461138e565b6105c4565b6101da61020c3660046113c8565b6105d8565b5f61021a6105e4565b61023d73ffffffffffffffffffffffffffffffffffffffff84165b600890610626565b5f6102776008546fffffffffffffffffffffffffffffffff8082167001000000000000000000000000000000009092048116919091031690565b111561037f575f61028e61028b60086106d5565b90565b90505f5b73ffffffffffffffffffffffffffffffffffffffff82165f9081526020819052604090206102bf90610770565b8110156103785773ffffffffffffffffffffffffffffffffffffffff82165f9081526020819052604081206102f49083610779565b90508473ffffffffffffffffffffffffffffffffffffffff168173ffffffffffffffffffffffffffffffffffffffff16036103355760019350505050610382565b610340600682610784565b61036f5761034f6006826107b2565b5061036f73ffffffffffffffffffffffffffffffffffffffff8216610235565b50600101610292565b505061023d565b505f5b92915050565b73ffffffffffffffffffffffffffffffffffffffff82165f9081526020819052604081206103b69083610784565b9392505050565b5f6103c66105e4565b6103e573ffffffffffffffffffffffffffffffffffffffff8316610235565b5f61041f6008546fffffffffffffffffffffffffffffffff8082167001000000000000000000000000000000009092048116919091031690565b11156104e5575f61043361028b60086106d5565b90505f5b73ffffffffffffffffffffffffffffffffffffffff82165f90815260208190526040902061046490610770565b8110156104de5773ffffffffffffffffffffffffffffffffffffffff82165f9081526020819052604081206104999083610779565b90506104a6600682610784565b6104d5576104b56006826107b2565b506104d573ffffffffffffffffffffffffffffffffffffffff8216610235565b50600101610437565b50506103e5565b6103826006610770565b73ffffffffffffffffffffffffffffffffffffffff81165f908152602081905260409020606090610382906107d3565b73ffffffffffffffffffffffffffffffffffffffff81165f90815260208190526040812061038290610770565b5f6103b683836107df565b5f5b818110156105be576105b583838381811061057657610576611407565b905060200201602081019061058b91906112cc565b73ffffffffffffffffffffffffffffffffffffffff86165f908152602081905260409020906107b2565b50600101610559565b50505050565b5f6105d0848484610803565b949350505050565b6105be84848484610832565b5f6105ef6006610770565b90505f5b8181101561061a5761061161060960065f610779565b6006906108ae565b506001016105f3565b505f600a555f60085550565b81546fffffffffffffffffffffffffffffffff8082167fffffffffffffffffffffffffffffffffffffffffffffffffffffffffffffffff019170010000000000000000000000000000000090048116908216036106875761068760416108cf565b6fffffffffffffffffffffffffffffffff165f81815260018401602052604090209190915581547fffffffffffffffffffffffffffffffff0000000000000000000000000000000016179055565b80545f906fffffffffffffffffffffffffffffffff8082169170010000000000000000000000000000000090041681036107135761071360316108cf565b6fffffffffffffffffffffffffffffffff8181165f908152600185810160205260408220805492905585547fffffffffffffffffffffffffffffffff00000000000000000000000000000000169301909116919091179092555090565b5f610382825490565b5f6103b683836108e0565b73ffffffffffffffffffffffffffffffffffffffff81165f90815260018301602052604081205415156103b6565b5f6103b68373ffffffffffffffffffffffffffffffffffffffff8416610906565b60605f6103b683610952565b5f80826107f2576107ef846109ab565b90505b600183036103b6576105d084610b12565b5f8082610817576108148585610bc9565b90505b600183036105d0576108298585610d64565b95945050505050565b8161086c5773ffffffffffffffffffffffffffffffffffffffff8085165f9081526002602090815260408083209387168352929052208190555b600182036105be5773ffffffffffffffffffffffffffffffffffffffff8085165f90815260036020908152604080832093871683529290522081905550505050565b5f6103b68373ffffffffffffffffffffffffffffffffffffffff8416611108565b634e487b715f52806020526024601cfd5b5f825f0182815481106108f5576108f5611407565b905f5260205f200154905092915050565b5f81815260018301602052604081205461094b57508154600181810184555f848152602080822090930184905584548482528286019093526040902091909155610382565b505f610382565b6060815f0180548060200260200160405190810160405280929190818152602001828054801561099f57602002820191905f5260205f20905b81548152602001906001019080831161098b575b50505050509050919050565b5f806109b56105e4565b6109d473ffffffffffffffffffffffffffffffffffffffff8416610235565b5f610a0e6008546fffffffffffffffffffffffffffffffff8082167001000000000000000000000000000000009092048116919091031690565b1115610382575f610a2261028b60086106d5565b90505f5b73ffffffffffffffffffffffffffffffffffffffff82165f908152602081905260409020610a5390610770565b811015610b0b5773ffffffffffffffffffffffffffffffffffffffff82165f908152602081905260408120610a889083610779565b9050610a95600682610784565b610ac457610aa46006826107b2565b50610ac473ffffffffffffffffffffffffffffffffffffffff8216610235565b73ffffffffffffffffffffffffffffffffffffffff8084165f90815260026020908152604080832093851683529290522054610b009085611461565b935050600101610a26565b50506109d4565b5f80805b73ffffffffffffffffffffffffffffffffffffffff84165f908152602081905260409020610b4390610770565b811015610bc25773ffffffffffffffffffffffffffffffffffffffff84165f908152602081905260408120610b789083610779565b73ffffffffffffffffffffffffffffffffffffffff8087165f90815260036020908152604080832093851683529290522054909150610bb79084611461565b925050600101610b16565b5092915050565b5f80610bd36105e4565b610bf273ffffffffffffffffffffffffffffffffffffffff8516610235565b5f610c2c6008546fffffffffffffffffffffffffffffffff8082167001000000000000000000000000000000009092048116919091031690565b11156103b6575f610c4061028b60086106d5565b90505f5b73ffffffffffffffffffffffffffffffffffffffff82165f908152602081905260409020610c7190610770565b811015610d5d5773ffffffffffffffffffffffffffffffffffffffff82165f908152602081905260408120610ca69083610779565b9050610cb3600682610784565b610ce257610cc26006826107b2565b50610ce273ffffffffffffffffffffffffffffffffffffffff8216610235565b8573ffffffffffffffffffffffffffffffffffffffff168173ffffffffffffffffffffffffffffffffffffffff1603610d545773ffffffffffffffffffffffffffffffffffffffff8084165f908152600260209081526040808320938a1683529290522054610d519085611461565b93505b50600101610c44565b5050610bf2565b5f610d6d6105e4565b610d8c73ffffffffffffffffffffffffffffffffffffffff8416610235565b5f610dc66008546fffffffffffffffffffffffffffffffff8082167001000000000000000000000000000000009092048116919091031690565b1115610f50575f610dda61028b60086106d5565b90508273ffffffffffffffffffffffffffffffffffffffff168173ffffffffffffffffffffffffffffffffffffffff1603610e155750610f50565b73ffffffffffffffffffffffffffffffffffffffff81165f908152602081905260409020610e4290610770565b5f03610e4e5750610d8c565b5f5b73ffffffffffffffffffffffffffffffffffffffff82165f908152602081905260409020610e7d90610770565b811015610f495773ffffffffffffffffffffffffffffffffffffffff82165f908152602081905260408120610eb29083610779565b73ffffffffffffffffffffffffffffffffffffffff8181165f90815260016020526040902080547fffffffffffffffffffffffff0000000000000000000000000000000000000000169186169190911790559050610f11600682610784565b610f4057610f206006826107b2565b50610f4073ffffffffffffffffffffffffffffffffffffffff8216610235565b50600101610e50565b5050610d8c565b815b8373ffffffffffffffffffffffffffffffffffffffff168173ffffffffffffffffffffffffffffffffffffffff1614610fd257610fa6600a73ffffffffffffffffffffffffffffffffffffffff8316610626565b73ffffffffffffffffffffffffffffffffffffffff9081165f9081526001602052604090205416610f52565b50825f61100e600a546fffffffffffffffffffffffffffffffff8082167001000000000000000000000000000000009092048116919091031690565b1115610bc2575f61102261028b600a6106d5565b73ffffffffffffffffffffffffffffffffffffffff9283165f9081526003602090815260408083209584168352949052929092205492508190505b5f611097600a546fffffffffffffffffffffffffffffffff8082167001000000000000000000000000000000009092048116919091031690565b1115611100576110aa61028b600a6106d5565b73ffffffffffffffffffffffffffffffffffffffff8084165f908152600360209081526040808320938516835292905220549091506305f5e100906110ef9085611474565b6110f9919061148b565b925061105d565b505092915050565b5f81815260018301602052604081205480156111e2575f61112a6001836114c3565b85549091505f9061113d906001906114c3565b905080821461119c575f865f01828154811061115b5761115b611407565b905f5260205f200154905080875f01848154811061117b5761117b611407565b5f918252602080832090910192909255918252600188019052604090208390555b85548690806111ad576111ad6114d6565b600190038181905f5260205f20015f90559055856001015f8681526020019081526020015f205f905560019350505050610382565b5f915050610382565b803573ffffffffffffffffffffffffffffffffffffffff8116811461120e575f80fd5b919050565b5f805f60608486031215611225575f80fd5b61122e846111eb565b95602085013595506040909401359392505050565b602080825282518282018190525f918401906040840190835b8181101561129057835173ffffffffffffffffffffffffffffffffffffffff1683526020938401939092019160010161125c565b509095945050505050565b5f80604083850312156112ac575f80fd5b6112b5836111eb565b91506112c3602084016111eb565b90509250929050565b5f602082840312156112dc575f80fd5b6103b6826111eb565b5f80604083850312156112f6575f80fd5b6112ff836111eb565b946020939093013593505050565b5f805f6040848603121561131f575f80fd5b611328846111eb565b9250602084013567ffffffffffffffff811115611343575f80fd5b8401601f81018613611353575f80fd5b803567ffffffffffffffff811115611369575f80fd5b8660208260051b840101111561137d575f80fd5b939660209190910195509293505050565b5f805f606084860312156113a0575f80fd5b6113a9846111eb565b92506113b7602085016111eb565b929592945050506040919091013590565b5f805f80608085870312156113db575f80fd5b6113e4856111eb565b93506113f2602086016111eb565b93969395505050506040820135916060013590565b7f4e487b71000000000000000000000000000000000000000000000000000000005f52603260045260245ffd5b7f4e487b71000000000000000000000000000000000000000000000000000000005f52601160045260245ffd5b8082018082111561038257610382611434565b808202811582820484141761038257610382611434565b5f826114be577f4e487b71000000000000000000000000000000000000000000000000000000005f52601260045260245ffd5b500490565b8181038181111561038257610382611434565b7f4e487b71000000000000000000000000000000000000000000000000000000005f52603160045260245ffdfea26469706673582212200992bfed57680f036189de3d0d9778606ad6116df7a965189aa22dbbb93ea9d164736f6c634300081a0033","linkReferences":{}},"methodIdentifiers":{"HUNDRED_PERCENT()":"6ed93dd0","POLICY_KIND_LAP()":"9d66f786","POLICY_KIND_LRP()":"8df52bc9","addParentIp(address,address[])":"762eca33","getAncestorIps(address,uint256,uint256)":"0df2b879","getAncestorIpsCount(address)":"1c486366","getParentIps(address)":"40e33d5b","getParentIpsCount(address)":"5a5f66a9","getRoyalty(address,address,uint256)":"a987a481","getRoyaltyStack(address,uint256)":"65b55e26","hasAncestorIp(address,address)":"10487a6c","hasParentIp(address,address)":"152f6be9","setRoyalty(address,address,uint256,uint256)":"d9139f19"},"id":125}