{"abi":[{"type":"constructor","inputs":[{"name":"ipAssetRegistry","type":"address","internalType":"address"},{"name":"licensingModule","type":"address","internalType":"address"},{"name":"pilTemplate","type":"address","internalType":"address"}],"stateMutability":"nonpayable"},{"type":"function","name":"IP_ASSET_REGISTRY","inputs":[],"outputs":[{"name":"","type":"address","internalType":"contract IPAssetRegistry"}],"stateMutability":"view"},{"type":"function","name":"LICENSING_MODULE","inputs":[],"outputs":[{"name":"","type":"address","internalType":"contract LicensingModule"}],"stateMutability":"view"},{"type":"function","name":"PIL_TEMPLATE","inputs":[],"outputs":[{"name":"","type":"address","internalType":"contract PILicenseTemplate"}],"stateMutability":"view"},{"type":"function","name":"SIMPLE_NFT","inputs":[],"outputs":[{"name":"","type":"address","internalType":"contract SimpleNFT"}],"stateMutability":"view"},{"type":"function","name":"getTokenPrompt","inputs":[{"name":"tokenId","type":"uint256","internalType":"uint256"}],"outputs":[{"name":"","type":"string","internalType":"string"}],"stateMutability":"view"},{"type":"function","name":"mintLicenseToken","inputs":[{"name":"ltAmount","type":"uint256","internalType":"uint256"},{"name":"ltRecipient","type":"address","internalType":"address"},{"name":"prompt","type":"string","internalType":"string"}],"outputs":[{"name":"ipId","type":"address","internalType":"address"},{"name":"tokenId","type":"uint256","internalType":"uint256"},{"name":"startLicenseTokenId","type":"uint256","internalType":"uint256"}],"stateMutability":"nonpayable"},{"type":"function","name":"tokenPrompts","inputs":[{"name":"","type":"uint256","internalType":"uint256"}],"outputs":[{"name":"","type":"string","internalType":"string"}],"stateMutability":"view"}],"bytecode":{"object":"0x610100604052348015610010575f80fd5b506040516126e43803806126e483398101604081905261002f916100ea565b6001600160a01b0380841660805282811660a052811660c052604051610054906100c2565b6040808252600d908201526c14da5b5c1b1948125408139195609a1b60608201526080602082018190526003908201526253494d60e81b60a082015260c001604051809103905ff0801580156100ac573d5f803e3d5ffd5b506001600160a01b031660e0525061012a915050565b611b2880610bbc83390190565b80516001600160a01b03811681146100e5575f80fd5b919050565b5f805f606084860312156100fc575f80fd5b610105846100cf565b9250610113602085016100cf565b9150610121604085016100cf565b90509250925092565b60805160a05160c05160e051610a376101855f395f81816101870152818161029c01528181610349015261053a01525f81816083015261044701525f8181610160015261049201525f818160d4015261037b0152610a375ff3fe608060405234801561000f575f80fd5b506004361061007a575f3560e01c80636395f42a116100585780636395f42a1461011657806365165aa51461015b578063658b890914610182578063c547c6fc146101a9575f80fd5b806312c4ce881461007e57806341c782c5146100cf57806357349a96146100f6575b5f80fd5b6100a57f000000000000000000000000000000000000000000000000000000000000000081565b60405173ffffffffffffffffffffffffffffffffffffffff90911681526020015b60405180910390f35b6100a57f000000000000000000000000000000000000000000000000000000000000000081565b61010961010436600461064e565b6101bc565b6040516100c69190610665565b610129610124366004610709565b610253565b6040805173ffffffffffffffffffffffffffffffffffffffff90941684526020840192909252908201526060016100c6565b6100a57f000000000000000000000000000000000000000000000000000000000000000081565b6100a57f000000000000000000000000000000000000000000000000000000000000000081565b6101096101b736600461064e565b6105af565b5f60208190529081526040902080546101d490610814565b80601f016020809104026020016040519081016040528092919081815260200182805461020090610814565b801561024b5780601f106102225761010080835404028352916020019161024b565b820191905f5260205f20905b81548152906001019060200180831161022e57829003601f168201915b505050505081565b6040517f6a6278420000000000000000000000000000000000000000000000000000000081523060048201525f908190819073ffffffffffffffffffffffffffffffffffffffff7f00000000000000000000000000000000000000000000000000000000000000001690636a627842906024016020604051808303815f875af11580156102e2573d5f803e3d5ffd5b505050506040513d601f19601f820116820180604052508101906103069190610865565b6040517ffca247ac00000000000000000000000000000000000000000000000000000000815246600482015273ffffffffffffffffffffffffffffffffffffffff7f000000000000000000000000000000000000000000000000000000000000000081166024830152604482018390529193507f00000000000000000000000000000000000000000000000000000000000000009091169063fca247ac906064016020604051808303815f875af11580156103c3573d5f803e3d5ffd5b505050506040513d601f19601f820116820180604052508101906103e7919061087c565b5f83815260208190526040902090935061040185826108ea565b506040517f0672a3bf00000000000000000000000000000000000000000000000000000000815273ffffffffffffffffffffffffffffffffffffffff84811660048301527f0000000000000000000000000000000000000000000000000000000000000000811660248301526002604483015260648201889052868116608483015260c060a48301525f60c48301527f00000000000000000000000000000000000000000000000000000000000000001690630672a3bf9060e4016020604051808303815f875af11580156104d8573d5f803e3d5ffd5b505050506040513d601f19601f820116820180604052508101906104fc9190610865565b6040517f23b872dd000000000000000000000000000000000000000000000000000000008152306004820152336024820152604481018490529091507f000000000000000000000000000000000000000000000000000000000000000073ffffffffffffffffffffffffffffffffffffffff16906323b872dd906064015f604051808303815f87803b158015610590575f80fd5b505af11580156105a2573d5f803e3d5ffd5b5050505093509350939050565b5f8181526020819052604090208054606091906105cb90610814565b80601f01602080910402602001604051908101604052809291908181526020018280546105f790610814565b80156106425780601f1061061957610100808354040283529160200191610642565b820191905f5260205f20905b81548152906001019060200180831161062557829003601f168201915b50505050509050919050565b5f6020828403121561065e575f80fd5b5035919050565b602081525f82518060208401528060208501604085015e5f6040828501015260407fffffffffffffffffffffffffffffffffffffffffffffffffffffffffffffffe0601f83011684010191505092915050565b73ffffffffffffffffffffffffffffffffffffffff811681146106d9575f80fd5b50565b7f4e487b71000000000000000000000000000000000000000000000000000000005f52604160045260245ffd5b5f805f6060848603121561071b575f80fd5b83359250602084013561072d816106b8565b9150604084013567ffffffffffffffff811115610748575f80fd5b8401601f81018613610758575f80fd5b803567ffffffffffffffff811115610772576107726106dc565b6040517fffffffffffffffffffffffffffffffffffffffffffffffffffffffffffffffe0603f7fffffffffffffffffffffffffffffffffffffffffffffffffffffffffffffffe0601f8501160116810181811067ffffffffffffffff821117156107de576107de6106dc565b6040528181528282016020018810156107f5575f80fd5b816020840160208301375f602083830101528093505050509250925092565b600181811c9082168061082857607f821691505b60208210810361085f577f4e487b71000000000000000000000000000000000000000000000000000000005f52602260045260245ffd5b50919050565b5f60208284031215610875575f80fd5b5051919050565b5f6020828403121561088c575f80fd5b8151610897816106b8565b9392505050565b601f8211156108e557805f5260205f20601f840160051c810160208510156108c35750805b601f840160051c820191505b818110156108e2575f81556001016108cf565b50505b505050565b815167ffffffffffffffff811115610904576109046106dc565b610918816109128454610814565b8461089e565b6020601f821160018114610969575f83156109335750848201515b7fffffffffffffffffffffffffffffffffffffffffffffffffffffffffffffffff600385901b1c1916600184901b1784556108e2565b5f848152602081207fffffffffffffffffffffffffffffffffffffffffffffffffffffffffffffffe08516915b828110156109b65787850151825560209485019460019092019101610996565b50848210156109f257868401517fffffffffffffffffffffffffffffffffffffffffffffffffffffffffffffffff600387901b60f8161c191681555b50505050600190811b0190555056fea2646970667358221220485d6758a6c77b2a328eaf348f7556e6bd66480102122996d4b70e9d67a1459064736f6c634300081a0033608060405234801561000f575f80fd5b50604051611b28380380611b2883398101604081905261002e91610178565b3382825f61003c8382610261565b5060016100498282610261565b5050506001600160a01b03811661007957604051631e4fbdf760e01b81525f600482015260240160405180910390fd5b6100828161008a565b50505061031b565b600680546001600160a01b038381166001600160a01b0319831681179093556040519116919082907f8be0079c531659141344cd1fd0a4f28419497f9722a3daafe3b4186f6b6457e0905f90a35050565b634e487b7160e01b5f52604160045260245ffd5b5f82601f8301126100fe575f80fd5b81516001600160401b03811115610117576101176100db565b604051601f8201601f19908116603f011681016001600160401b0381118282101715610145576101456100db565b60405281815283820160200185101561015c575f80fd5b8160208501602083015e5f918101602001919091529392505050565b5f8060408385031215610189575f80fd5b82516001600160401b0381111561019e575f80fd5b6101aa858286016100ef565b602085015190935090506001600160401b038111156101c7575f80fd5b6101d3858286016100ef565b9150509250929050565b600181811c908216806101f157607f821691505b60208210810361020f57634e487b7160e01b5f52602260045260245ffd5b50919050565b601f82111561025c57805f5260205f20601f840160051c8101602085101561023a5750805b601f840160051c820191505b81811015610259575f8155600101610246565b50505b505050565b81516001600160401b0381111561027a5761027a6100db565b61028e8161028884546101dd565b84610215565b6020601f8211600181146102c0575f83156102a95750848201515b5f19600385901b1c1916600184901b178455610259565b5f84815260208120601f198516915b828110156102ef57878501518255602094850194600190920191016102cf565b508482101561030c57868401515f19600387901b60f8161c191681555b50505050600190811b01905550565b611800806103285f395ff3fe608060405234801561000f575f80fd5b5060043610610149575f3560e01c806370a08231116100c7578063a22cb4651161007d578063c87b56dd11610063578063c87b56dd146102b4578063e985e9c5146102c7578063f2fde38b1461030f575f80fd5b8063a22cb4651461028e578063b88d4fde146102a1575f80fd5b806375794a3c116100ad57806375794a3c1461025f5780638da5cb5b1461026857806395d89b4114610286575f80fd5b806370a0823114610244578063715018a614610257575f80fd5b806323b872dd1161011c57806357349a961161010257806357349a96146101fd5780636352211e146102105780636a62784214610223575f80fd5b806323b872dd146101d757806342842e0e146101ea575f80fd5b806301ffc9a71461014d57806306fdde0314610175578063081812fc1461018a578063095ea7b3146101c2575b5f80fd5b61016061015b36600461139e565b610322565b60405190151581526020015b60405180910390f35b61017d610406565b60405161016c9190611405565b61019d610198366004611417565b610495565b60405173ffffffffffffffffffffffffffffffffffffffff909116815260200161016c565b6101d56101d0366004611451565b6104c9565b005b6101d56101e5366004611479565b6104d8565b6101d56101f8366004611479565b6105cc565b61017d61020b366004611417565b6105eb565b61019d61021e366004611417565b610682565b6102366102313660046114b3565b61068c565b60405190815260200161016c565b6102366102523660046114b3565b6106bd565b6101d5610735565b61023660075481565b60065473ffffffffffffffffffffffffffffffffffffffff1661019d565b61017d610748565b6101d561029c3660046114cc565b610757565b6101d56102af366004611532565b610762565b61017d6102c2366004611417565b61077a565b6101606102d536600461164c565b73ffffffffffffffffffffffffffffffffffffffff9182165f90815260056020908152604080832093909416825291909152205460ff1690565b6101d561031d3660046114b3565b6107eb565b5f7fffffffff0000000000000000000000000000000000000000000000000000000082167f80ac58cd0000000000000000000000000000000000000000000000000000000014806103b457507fffffffff0000000000000000000000000000000000000000000000000000000082167f5b5e139f00000000000000000000000000000000000000000000000000000000145b8061040057507f01ffc9a7000000000000000000000000000000000000000000000000000000007fffffffff000000000000000000000000000000000000000000000000000000008316145b92915050565b60605f80546104149061167d565b80601f01602080910402602001604051908101604052809291908181526020018280546104409061167d565b801561048b5780601f106104625761010080835404028352916020019161048b565b820191905f5260205f20905b81548152906001019060200180831161046e57829003601f168201915b5050505050905090565b5f61049f8261084e565b505f8281526004602052604090205473ffffffffffffffffffffffffffffffffffffffff16610400565b6104d48282336108ac565b5050565b73ffffffffffffffffffffffffffffffffffffffff821661052c576040517f64a0ae920000000000000000000000000000000000000000000000000000000081525f60048201526024015b60405180910390fd5b5f6105388383336108b9565b90508373ffffffffffffffffffffffffffffffffffffffff168173ffffffffffffffffffffffffffffffffffffffff16146105c6576040517f64283d7b00000000000000000000000000000000000000000000000000000000815273ffffffffffffffffffffffffffffffffffffffff80861660048301526024820184905282166044820152606401610523565b50505050565b6105e683838360405180602001604052805f815250610762565b505050565b60086020525f9081526040902080546106039061167d565b80601f016020809104026020016040519081016040528092919081815260200182805461062f9061167d565b801561067a5780601f106106515761010080835404028352916020019161067a565b820191905f5260205f20905b81548152906001019060200180831161065d57829003601f168201915b505050505081565b5f6104008261084e565b5f610695610a30565b600780545f91826106a5836116ce565b9190505590506106b58382610a83565b90505b919050565b5f73ffffffffffffffffffffffffffffffffffffffff821661070d576040517f89c62b640000000000000000000000000000000000000000000000000000000081525f6004820152602401610523565b5073ffffffffffffffffffffffffffffffffffffffff165f9081526003602052604090205490565b61073d610a30565b6107465f610b30565b565b6060600180546104149061167d565b6104d4338383610ba6565b61076d8484846104d8565b6105c63385858585610ca2565b60606107858261084e565b505f61079b60408051602081019091525f815290565b90505f8151116107b95760405180602001604052805f8152506107e4565b806107c384610e98565b6040516020016107d4929190611741565b6040516020818303038152906040525b9392505050565b6107f3610a30565b73ffffffffffffffffffffffffffffffffffffffff8116610842576040517f1e4fbdf70000000000000000000000000000000000000000000000000000000081525f6004820152602401610523565b61084b81610b30565b50565b5f8181526002602052604081205473ffffffffffffffffffffffffffffffffffffffff16806106b5576040517f7e27328900000000000000000000000000000000000000000000000000000000815260048101849052602401610523565b6105e68383836001610f54565b5f8281526002602052604081205473ffffffffffffffffffffffffffffffffffffffff908116908316156108f2576108f281848661111c565b73ffffffffffffffffffffffffffffffffffffffff8116156109655761091a5f855f80610f54565b73ffffffffffffffffffffffffffffffffffffffff81165f90815260036020526040902080547fffffffffffffffffffffffffffffffffffffffffffffffffffffffffffffffff0190555b73ffffffffffffffffffffffffffffffffffffffff8516156109ad5773ffffffffffffffffffffffffffffffffffffffff85165f908152600360205260409020805460010190555b5f8481526002602052604080822080547fffffffffffffffffffffffff00000000000000000000000000000000000000001673ffffffffffffffffffffffffffffffffffffffff89811691821790925591518793918516917fddf252ad1be2c89b69c2b068fc378daa952ba7f163c4a11628f55a4df523b3ef91a4949350505050565b60065473ffffffffffffffffffffffffffffffffffffffff163314610746576040517f118cdaa7000000000000000000000000000000000000000000000000000000008152336004820152602401610523565b73ffffffffffffffffffffffffffffffffffffffff8216610ad2576040517f64a0ae920000000000000000000000000000000000000000000000000000000081525f6004820152602401610523565b5f610ade83835f6108b9565b905073ffffffffffffffffffffffffffffffffffffffff8116156105e6576040517f73c6ac6e0000000000000000000000000000000000000000000000000000000081525f6004820152602401610523565b6006805473ffffffffffffffffffffffffffffffffffffffff8381167fffffffffffffffffffffffff0000000000000000000000000000000000000000831681179093556040519116919082907f8be0079c531659141344cd1fd0a4f28419497f9722a3daafe3b4186f6b6457e0905f90a35050565b73ffffffffffffffffffffffffffffffffffffffff8216610c0b576040517f5b08ba1800000000000000000000000000000000000000000000000000000000815273ffffffffffffffffffffffffffffffffffffffff83166004820152602401610523565b73ffffffffffffffffffffffffffffffffffffffff8381165f8181526005602090815260408083209487168084529482529182902080547fffffffffffffffffffffffffffffffffffffffffffffffffffffffffffffff001686151590811790915591519182527f17307eab39ab6107e8899845ad3d59bd9653f200f220920489ca2b5937696c31910160405180910390a3505050565b73ffffffffffffffffffffffffffffffffffffffff83163b15610e91576040517f150b7a0200000000000000000000000000000000000000000000000000000000815273ffffffffffffffffffffffffffffffffffffffff84169063150b7a0290610d17908890889087908790600401611755565b6020604051808303815f875af1925050508015610d6f575060408051601f3d9081017fffffffffffffffffffffffffffffffffffffffffffffffffffffffffffffffe0168201909252610d6c918101906117af565b60015b610dfc573d808015610d9c576040519150601f19603f3d011682016040523d82523d5f602084013e610da1565b606091505b5080515f03610df4576040517f64a0ae9200000000000000000000000000000000000000000000000000000000815273ffffffffffffffffffffffffffffffffffffffff85166004820152602401610523565b805181602001fd5b7fffffffff0000000000000000000000000000000000000000000000000000000081167f150b7a020000000000000000000000000000000000000000000000000000000014610e8f576040517f64a0ae9200000000000000000000000000000000000000000000000000000000815273ffffffffffffffffffffffffffffffffffffffff85166004820152602401610523565b505b5050505050565b60605f610ea4836111cc565b60010190505f8167ffffffffffffffff811115610ec357610ec3611505565b6040519080825280601f01601f191660200182016040528015610eed576020820181803683370190505b5090508181016020015b7fffffffffffffffffffffffffffffffffffffffffffffffffffffffffffffffff017f3031323334353637383961626364656600000000000000000000000000000000600a86061a8153600a8504945084610ef757509392505050565b8080610f75575073ffffffffffffffffffffffffffffffffffffffff821615155b156110c8575f610f848461084e565b905073ffffffffffffffffffffffffffffffffffffffff831615801590610fd757508273ffffffffffffffffffffffffffffffffffffffff168173ffffffffffffffffffffffffffffffffffffffff1614155b8015611015575073ffffffffffffffffffffffffffffffffffffffff8082165f9081526005602090815260408083209387168352929052205460ff16155b15611064576040517fa9fbf51f00000000000000000000000000000000000000000000000000000000815273ffffffffffffffffffffffffffffffffffffffff84166004820152602401610523565b81156110c657838573ffffffffffffffffffffffffffffffffffffffff168273ffffffffffffffffffffffffffffffffffffffff167f8c5be1e5ebec7d5bd14f71427d1e84f3dd0314c0f7b2291e5b200ac8c7c3b92560405160405180910390a45b505b50505f90815260046020526040902080547fffffffffffffffffffffffff00000000000000000000000000000000000000001673ffffffffffffffffffffffffffffffffffffffff92909216919091179055565b6111278383836112ad565b6105e65773ffffffffffffffffffffffffffffffffffffffff831661117b576040517f7e27328900000000000000000000000000000000000000000000000000000000815260048101829052602401610523565b6040517f177e802f00000000000000000000000000000000000000000000000000000000815273ffffffffffffffffffffffffffffffffffffffff8316600482015260248101829052604401610523565b5f807a184f03e93ff9f4daa797ed6e38ed64bf6a1f0100000000000000008310611214577a184f03e93ff9f4daa797ed6e38ed64bf6a1f010000000000000000830492506040015b6d04ee2d6d415b85acef81000000008310611240576d04ee2d6d415b85acef8100000000830492506020015b662386f26fc10000831061125e57662386f26fc10000830492506010015b6305f5e1008310611276576305f5e100830492506008015b612710831061128a57612710830492506004015b6064831061129c576064830492506002015b600a83106106b55760010192915050565b5f73ffffffffffffffffffffffffffffffffffffffff83161580159061136957508273ffffffffffffffffffffffffffffffffffffffff168473ffffffffffffffffffffffffffffffffffffffff161480611339575073ffffffffffffffffffffffffffffffffffffffff8085165f9081526005602090815260408083209387168352929052205460ff165b8061136957505f8281526004602052604090205473ffffffffffffffffffffffffffffffffffffffff8481169116145b949350505050565b7fffffffff000000000000000000000000000000000000000000000000000000008116811461084b575f80fd5b5f602082840312156113ae575f80fd5b81356107e481611371565b5f81518084528060208401602086015e5f6020828601015260207fffffffffffffffffffffffffffffffffffffffffffffffffffffffffffffffe0601f83011685010191505092915050565b602081525f6107e460208301846113b9565b5f60208284031215611427575f80fd5b5035919050565b803573ffffffffffffffffffffffffffffffffffffffff811681146106b8575f80fd5b5f8060408385031215611462575f80fd5b61146b8361142e565b946020939093013593505050565b5f805f6060848603121561148b575f80fd5b6114948461142e565b92506114a26020850161142e565b929592945050506040919091013590565b5f602082840312156114c3575f80fd5b6107e48261142e565b5f80604083850312156114dd575f80fd5b6114e68361142e565b9150602083013580151581146114fa575f80fd5b809150509250929050565b7f4e487b71000000000000000000000000000000000000000000000000000000005f52604160045260245ffd5b5f805f8060808587031215611545575f80fd5b61154e8561142e565b935061155c6020860161142e565b925060408501359150606085013567ffffffffffffffff81111561157e575f80fd5b8501601f8101871361158e575f80fd5b803567ffffffffffffffff8111156115a8576115a8611505565b6040517fffffffffffffffffffffffffffffffffffffffffffffffffffffffffffffffe0603f7fffffffffffffffffffffffffffffffffffffffffffffffffffffffffffffffe0601f8501160116810181811067ffffffffffffffff8211171561161457611614611505565b60405281815282820160200189101561162b575f80fd5b816020840160208301375f6020838301015280935050505092959194509250565b5f806040838503121561165d575f80fd5b6116668361142e565b91506116746020840161142e565b90509250929050565b600181811c9082168061169157607f821691505b6020821081036116c8577f4e487b71000000000000000000000000000000000000000000000000000000005f52602260045260245ffd5b50919050565b5f7fffffffffffffffffffffffffffffffffffffffffffffffffffffffffffffffff8203611723577f4e487b71000000000000000000000000000000000000000000000000000000005f52601160045260245ffd5b5060010190565b5f81518060208401855e5f93019283525090919050565b5f61136961174f838661172a565b8461172a565b73ffffffffffffffffffffffffffffffffffffffff8516815273ffffffffffffffffffffffffffffffffffffffff84166020820152826040820152608060608201525f6117a560808301846113b9565b9695505050505050565b5f602082840312156117bf575f80fd5b81516107e48161137156fea264697066735822122005033b1ba465e3a5e76977dfa2a1bd2ebffd053b4a7a7b33283746c2d03617ca64736f6c634300081a0033","linkReferences":{}},"methodIdentifiers":{"IP_ASSET_REGISTRY()":"41c782c5","LICENSING_MODULE()":"65165aa5","PIL_TEMPLATE()":"12c4ce88","SIMPLE_NFT()":"658b8909","getTokenPrompt(uint256)":"c547c6fc","mintLicenseToken(uint256,address,string)":"6395f42a","tokenPrompts(uint256)":"57349a96"},"id":2}