{"abi":[{"type":"constructor","inputs":[{"name":"accessController","type":"address","internalType":"address"},{"name":"ipAccountRegistry","type":"address","internalType":"address"},{"name":"moduleRegistry","type":"address","internalType":"address"},{"name":"royaltyModule","type":"address","internalType":"address"},{"name":"licenseRegistry","type":"address","internalType":"address"},{"name":"disputeModule","type":"address","internalType":"address"},{"name":"licenseToken","type":"address","internalType":"address"}],"stateMutability":"nonpayable"},{"type":"function","name":"ACCESS_CONTROLLER","inputs":[],"outputs":[{"name":"","type":"address","internalType":"contract IAccessController"}],"stateMutability":"view"},{"type":"function","name":"DISPUTE_MODULE","inputs":[],"outputs":[{"name":"","type":"address","internalType":"contract IDisputeModule"}],"stateMutability":"view"},{"type":"function","name":"IP_ACCOUNT_REGISTRY","inputs":[],"outputs":[{"name":"","type":"address","internalType":"contract IIPAccountRegistry"}],"stateMutability":"view"},{"type":"function","name":"LICENSE_NFT","inputs":[],"outputs":[{"name":"","type":"address","internalType":"contract ILicenseToken"}],"stateMutability":"view"},{"type":"function","name":"LICENSE_REGISTRY","inputs":[],"outputs":[{"name":"","type":"address","internalType":"contract ILicenseRegistry"}],"stateMutability":"view"},{"type":"function","name":"MODULE_REGISTRY","inputs":[],"outputs":[{"name":"","type":"address","internalType":"contract IModuleRegistry"}],"stateMutability":"view"},{"type":"function","name":"ROYALTY_MODULE","inputs":[],"outputs":[{"name":"","type":"address","internalType":"contract RoyaltyModule"}],"stateMutability":"view"},{"type":"function","name":"UPGRADE_INTERFACE_VERSION","inputs":[],"outputs":[{"name":"","type":"string","internalType":"string"}],"stateMutability":"view"},{"type":"function","name":"__ProtocolPausable_init","inputs":[{"name":"accessManager","type":"address","internalType":"address"}],"outputs":[],"stateMutability":"nonpayable"},{"type":"function","name":"attachLicenseTerms","inputs":[{"name":"ipId","type":"address","internalType":"address"},{"name":"licenseTemplate","type":"address","internalType":"address"},{"name":"licenseTermsId","type":"uint256","internalType":"uint256"}],"outputs":[],"stateMutability":"nonpayable"},{"type":"function","name":"authority","inputs":[],"outputs":[{"name":"","type":"address","internalType":"address"}],"stateMutability":"view"},{"type":"function","name":"initialize","inputs":[{"name":"accessManager","type":"address","internalType":"address"}],"outputs":[],"stateMutability":"nonpayable"},{"type":"function","name":"isConsumingScheduledOp","inputs":[],"outputs":[{"name":"","type":"bytes4","internalType":"bytes4"}],"stateMutability":"view"},{"type":"function","name":"mintLicenseTokens","inputs":[{"name":"licensorIpId","type":"address","internalType":"address"},{"name":"licenseTemplate","type":"address","internalType":"address"},{"name":"licenseTermsId","type":"uint256","internalType":"uint256"},{"name":"amount","type":"uint256","internalType":"uint256"},{"name":"receiver","type":"address","internalType":"address"},{"name":"royaltyContext","type":"bytes","internalType":"bytes"}],"outputs":[{"name":"startLicenseTokenId","type":"uint256","internalType":"uint256"}],"stateMutability":"nonpayable"},{"type":"function","name":"name","inputs":[],"outputs":[{"name":"","type":"string","internalType":"string"}],"stateMutability":"view"},{"type":"function","name":"pause","inputs":[],"outputs":[],"stateMutability":"nonpayable"},{"type":"function","name":"paused","inputs":[],"outputs":[{"name":"","type":"bool","internalType":"bool"}],"stateMutability":"view"},{"type":"function","name":"predictMintingLicenseFee","inputs":[{"name":"licensorIpId","type":"address","internalType":"address"},{"name":"licenseTemplate","type":"address","internalType":"address"},{"name":"licenseTermsId","type":"uint256","internalType":"uint256"},{"name":"amount","type":"uint256","internalType":"uint256"},{"name":"receiver","type":"address","internalType":"address"},{"name":"royaltyContext","type":"bytes","internalType":"bytes"}],"outputs":[{"name":"currencyToken","type":"address","internalType":"address"},{"name":"tokenAmount","type":"uint256","internalType":"uint256"}],"stateMutability":"view"},{"type":"function","name":"proxiableUUID","inputs":[],"outputs":[{"name":"","type":"bytes32","internalType":"bytes32"}],"stateMutability":"view"},{"type":"function","name":"registerDerivative","inputs":[{"name":"childIpId","type":"address","internalType":"address"},{"name":"parentIpIds","type":"address[]","internalType":"address[]"},{"name":"licenseTermsIds","type":"uint256[]","internalType":"uint256[]"},{"name":"licenseTemplate","type":"address","internalType":"address"},{"name":"royaltyContext","type":"bytes","internalType":"bytes"}],"outputs":[],"stateMutability":"nonpayable"},{"type":"function","name":"registerDerivativeWithLicenseTokens","inputs":[{"name":"childIpId","type":"address","internalType":"address"},{"name":"licenseTokenIds","type":"uint256[]","internalType":"uint256[]"},{"name":"royaltyContext","type":"bytes","internalType":"bytes"}],"outputs":[],"stateMutability":"nonpayable"},{"type":"function","name":"setAuthority","inputs":[{"name":"newAuthority","type":"address","internalType":"address"}],"outputs":[],"stateMutability":"nonpayable"},{"type":"function","name":"setLicensingConfig","inputs":[{"name":"ipId","type":"address","internalType":"address"},{"name":"licenseTemplate","type":"address","internalType":"address"},{"name":"licenseTermsId","type":"uint256","internalType":"uint256"},{"name":"licensingConfig","type":"tuple","internalType":"struct Licensing.LicensingConfig","components":[{"name":"isSet","type":"bool","internalType":"bool"},{"name":"mintingFee","type":"uint256","internalType":"uint256"},{"name":"licensingHook","type":"address","internalType":"address"},{"name":"hookData","type":"bytes","internalType":"bytes"}]}],"outputs":[],"stateMutability":"nonpayable"},{"type":"function","name":"supportsInterface","inputs":[{"name":"interfaceId","type":"bytes4","internalType":"bytes4"}],"outputs":[{"name":"","type":"bool","internalType":"bool"}],"stateMutability":"view"},{"type":"function","name":"unpause","inputs":[],"outputs":[],"stateMutability":"nonpayable"},{"type":"function","name":"upgradeToAndCall","inputs":[{"name":"newImplementation","type":"address","internalType":"address"},{"name":"data","type":"bytes","internalType":"bytes"}],"outputs":[],"stateMutability":"payable"},{"type":"event","name":"AuthorityUpdated","inputs":[{"name":"authority","type":"address","indexed":false,"internalType":"address"}],"anonymous":false},{"type":"event","name":"DerivativeRegistered","inputs":[{"name":"caller","type":"address","indexed":true,"internalType":"address"},{"name":"childIpId","type":"address","indexed":true,"internalType":"address"},{"name":"licenseTokenIds","type":"uint256[]","indexed":false,"internalType":"uint256[]"},{"name":"parentIpIds","type":"address[]","indexed":false,"internalType":"address[]"},{"name":"licenseTermsIds","type":"uint256[]","indexed":false,"internalType":"uint256[]"},{"name":"licenseTemplate","type":"address","indexed":false,"internalType":"address"}],"anonymous":false},{"type":"event","name":"Initialized","inputs":[{"name":"version","type":"uint64","indexed":false,"internalType":"uint64"}],"anonymous":false},{"type":"event","name":"LicenseTermsAttached","inputs":[{"name":"caller","type":"address","indexed":true,"internalType":"address"},{"name":"ipId","type":"address","indexed":true,"internalType":"address"},{"name":"licenseTemplate","type":"address","indexed":false,"internalType":"address"},{"name":"licenseTermsId","type":"uint256","indexed":false,"internalType":"uint256"}],"anonymous":false},{"type":"event","name":"LicenseTokensMinted","inputs":[{"name":"caller","type":"address","indexed":true,"internalType":"address"},{"name":"licensorIpId","type":"address","indexed":true,"internalType":"address"},{"name":"licenseTemplate","type":"address","indexed":false,"internalType":"address"},{"name":"licenseTermsId","type":"uint256","indexed":true,"internalType":"uint256"},{"name":"amount","type":"uint256","indexed":false,"internalType":"uint256"},{"name":"receiver","type":"address","indexed":false,"internalType":"address"},{"name":"startLicenseTokenId","type":"uint256","indexed":false,"internalType":"uint256"}],"anonymous":false},{"type":"event","name":"Paused","inputs":[{"name":"account","type":"address","indexed":false,"internalType":"address"}],"anonymous":false},{"type":"event","name":"Unpaused","inputs":[{"name":"account","type":"address","indexed":false,"internalType":"address"}],"anonymous":false},{"type":"event","name":"Upgraded","inputs":[{"name":"implementation","type":"address","indexed":true,"internalType":"address"}],"anonymous":false},{"type":"error","name":"AccessControlled__NotIpAccount","inputs":[{"name":"ipAccount","type":"address","internalType":"address"}]},{"type":"error","name":"AccessControlled__ZeroAddress","inputs":[]},{"type":"error","name":"AccessManagedInvalidAuthority","inputs":[{"name":"authority","type":"address","internalType":"address"}]},{"type":"error","name":"AccessManagedRequiredDelay","inputs":[{"name":"caller","type":"address","internalType":"address"},{"name":"delay","type":"uint32","internalType":"uint32"}]},{"type":"error","name":"AccessManagedUnauthorized","inputs":[{"name":"caller","type":"address","internalType":"address"}]},{"type":"error","name":"AddressEmptyCode","inputs":[{"name":"target","type":"address","internalType":"address"}]},{"type":"error","name":"ERC1967InvalidImplementation","inputs":[{"name":"implementation","type":"address","internalType":"address"}]},{"type":"error","name":"ERC1967NonPayable","inputs":[]},{"type":"error","name":"EnforcedPause","inputs":[]},{"type":"error","name":"ExpectedPause","inputs":[]},{"type":"error","name":"FailedCall","inputs":[]},{"type":"error","name":"InvalidInitialization","inputs":[]},{"type":"error","name":"LicensingModule__DisputedIpId","inputs":[]},{"type":"error","name":"LicensingModule__InvalidLicenseTermsId","inputs":[{"name":"licenseTemplate","type":"address","internalType":"address"},{"name":"licenseTermsId","type":"uint256","internalType":"uint256"}]},{"type":"error","name":"LicensingModule__InvalidLicensingHook","inputs":[{"name":"hook","type":"address","internalType":"address"}]},{"type":"error","name":"LicensingModule__LicenseDenyMintLicenseToken","inputs":[{"name":"licenseTemplate","type":"address","internalType":"address"},{"name":"licenseTermsId","type":"uint256","internalType":"uint256"},{"name":"licensorIpId","type":"address","internalType":"address"}]},{"type":"error","name":"LicensingModule__LicenseNotCompatibleForDerivative","inputs":[{"name":"childIpId","type":"address","internalType":"address"}]},{"type":"error","name":"LicensingModule__LicenseTermsLengthMismatch","inputs":[{"name":"ipLength","type":"uint256","internalType":"uint256"},{"name":"licenseTermsLength","type":"uint256","internalType":"uint256"}]},{"type":"error","name":"LicensingModule__LicenseTokenNotCompatibleForDerivative","inputs":[{"name":"childIpId","type":"address","internalType":"address"},{"name":"licenseTokenIds","type":"uint256[]","internalType":"uint256[]"}]},{"type":"error","name":"LicensingModule__LicensorIpNotRegistered","inputs":[]},{"type":"error","name":"LicensingModule__MintAmountZero","inputs":[]},{"type":"error","name":"LicensingModule__NoLicenseToken","inputs":[]},{"type":"error","name":"LicensingModule__NoParentIp","inputs":[]},{"type":"error","name":"LicensingModule__ReceiverZeroAddress","inputs":[]},{"type":"error","name":"LicensingModule__ZeroAccessManager","inputs":[]},{"type":"error","name":"LicensingModule__ZeroDisputeModule","inputs":[]},{"type":"error","name":"LicensingModule__ZeroLicenseRegistry","inputs":[]},{"type":"error","name":"LicensingModule__ZeroLicenseToken","inputs":[]},{"type":"error","name":"LicensingModule__ZeroModuleRegistry","inputs":[]},{"type":"error","name":"LicensingModule__ZeroRoyaltyModule","inputs":[]},{"type":"error","name":"NotInitializing","inputs":[]},{"type":"error","name":"ReentrancyGuardReentrantCall","inputs":[]},{"type":"error","name":"UUPSUnauthorizedCallContext","inputs":[]},{"type":"error","name":"UUPSUnsupportedProxiableUUID","inputs":[{"name":"slot","type":"bytes32","internalType":"bytes32"}]}],"bytecode":{"object":"0x6101806040523060c052348015610014575f80fd5b50604051614c59380380614c598339810160408190526100339161025a565b86866001600160a01b03821661005c576040516320a816ad60e01b815260040160405180910390fd5b6001600160a01b038116610083576040516320a816ad60e01b815260040160405180910390fd5b6001600160a01b03918216608052811660a05284166100b557604051630365cbe160e11b815260040160405180910390fd5b6001600160a01b0383166100dc57604051630320e2e760e31b815260040160405180910390fd5b6001600160a01b03821661010357604051631e56277960e01b815260040160405180910390fd5b6001600160a01b03811661012a5760405163dd8310ab60e01b815260040160405180910390fd5b6001600160a01b0385166101505760405162adff7560e01b815260040160405180910390fd5b6001600160a01b038086166101605284811660e052838116610100528281166101205281166101405261018161018d565b505050505050506102db565b7ff0c57e16840df040f15088dc2f81fe391c3923bec73e23a9662efc9c229c6a00805468010000000000000000900460ff16156101dd5760405163f92ee8a960e01b815260040160405180910390fd5b80546001600160401b039081161461023c5780546001600160401b0319166001600160401b0390811782556040519081527fc7f505b2f371ae2175ee4913f4499e1f2633a7b5936321eed1cdaeb6115181d29060200160405180910390a15b50565b80516001600160a01b0381168114610255575f80fd5b919050565b5f805f805f805f60e0888a031215610270575f80fd5b6102798861023f565b96506102876020890161023f565b95506102956040890161023f565b94506102a36060890161023f565b93506102b16080890161023f565b92506102bf60a0890161023f565b91506102cd60c0890161023f565b905092959891949750929550565b60805160a05160c05160e051610100516101205161014051610160516148746103e55f395f81816104f4015261151101525f818161042001528181610a7001528181610c2a015261107e01525f81816105f3015261244d01525f81816105c0015281816107ac01528181610dc30152818161136401528181611610015281816116c50152818161197b01528181611f29015261352901525f81816103ce01528181610ffa01528181611abf015281816126c201526127a301525f8181612bee01528181612c170152612dcd01525f818161037c0152818161074401528181611eca015281816124fe015261284001525f81816102a4015281816125b4015261292401526148745ff3fe608060405260043610610199575f3560e01c806371f6bea7116100dc578063ad3cb1cc11610087578063c4d66de811610062578063c4d66de814610552578063c918f3f214610571578063f0ebdc83146105af578063f943f090146105e2575f80fd5b8063ad3cb1cc1461049b578063b95ddb52146104e3578063bf7e214f14610516575f80fd5b806380ea3556116100b757806380ea35561461040f5780638456cb59146104425780638fb3603714610456575f80fd5b806371f6bea71461039e57806373b7ce28146103bd5780637a9e5e4b146103f0575f80fd5b80632a4130c01161014757806352d1902d1161012257806352d1902d1461032457806355b602d7146103385780635c975abb14610357578063702acd851461036b575f80fd5b80632a4130c0146102de5780633f4ba83a146102fd5780634f1ef28614610311575f80fd5b806312af7ef61161017757806312af7ef614610253578063198fdd98146102745780631b8b107314610293575f80fd5b806301ffc9a71461019d5780630672a3bf146101d157806306fdde03146101fe575b5f80fd5b3480156101a8575f80fd5b506101bc6101b7366004613862565b610615565b60405190151581526020015b60405180910390f35b3480156101dc575f80fd5b506101f06101eb3660046138fa565b6106ad565b6040519081526020016101c8565b348015610209575f80fd5b506102466040518060400160405280601081526020017f4c4943454e53494e475f4d4f44554c450000000000000000000000000000000081525081565b6040516101c891906139b1565b34801561025e575f80fd5b5061027261026d366004613a04565b610b6e565b005b34801561027f575f80fd5b5061027261028e366004613a86565b611184565b34801561029e575f80fd5b506102c67f000000000000000000000000000000000000000000000000000000000000000081565b6040516001600160a01b0390911681526020016101c8565b3480156102e9575f80fd5b506102726102f8366004613aa1565b61130a565b348015610308575f80fd5b50610272611409565b61027261031f366004613bdf565b61141f565b34801561032f575f80fd5b506101f061143e565b348015610343575f80fd5b50610272610352366004613c39565b61146c565b348015610362575f80fd5b506101bc611744565b348015610376575f80fd5b506102c67f000000000000000000000000000000000000000000000000000000000000000081565b3480156103a9575f80fd5b506102726103b8366004613d03565b611775565b3480156103c8575f80fd5b506102c67f000000000000000000000000000000000000000000000000000000000000000081565b3480156103fb575f80fd5b5061027261040a366004613a86565b611b7b565b34801561041a575f80fd5b506102c67f000000000000000000000000000000000000000000000000000000000000000081565b34801561044d575f80fd5b50610272611c59565b348015610461575f80fd5b5061046a611c6a565b6040517fffffffff0000000000000000000000000000000000000000000000000000000090911681526020016101c8565b3480156104a6575f80fd5b506102466040518060400160405280600581526020017f352e302e3000000000000000000000000000000000000000000000000000000081525081565b3480156104ee575f80fd5b506102c67f000000000000000000000000000000000000000000000000000000000000000081565b348015610521575f80fd5b507ff3177357ab46d8af007ab3fdb9af81da189e1068fefdc0073dca88a2cab40a00546001600160a01b03166102c6565b34801561055d575f80fd5b5061027261056c366004613a86565b611cdd565b34801561057c575f80fd5b5061059061058b3660046138fa565b611e42565b604080516001600160a01b0390931683526020830191909152016101c8565b3480156105ba575f80fd5b506102c67f000000000000000000000000000000000000000000000000000000000000000081565b3480156105ed575f80fd5b506102c67f000000000000000000000000000000000000000000000000000000000000000081565b5f7fffffffff0000000000000000000000000000000000000000000000000000000082167f06fdde030000000000000000000000000000000000000000000000000000000014806106a757507f01ffc9a7000000000000000000000000000000000000000000000000000000007fffffffff000000000000000000000000000000000000000000000000000000008316145b92915050565b5f6106b661215a565b6106be612199565b845f036106f7576040517f5c34661100000000000000000000000000000000000000000000000000000000815260040160405180910390fd5b6001600160a01b038416610737576040517fa01513a800000000000000000000000000000000000000000000000000000000815260040160405180910390fd5b61076a6001600160a01b037f0000000000000000000000000000000000000000000000000000000000000000168961221a565b6107a0576040517f51016fd800000000000000000000000000000000000000000000000000000000815260040160405180910390fd5b6107a988612415565b5f7f00000000000000000000000000000000000000000000000000000000000000006001600160a01b03166314cc96df8a8a8a6107e58e6124f0565b6040517fffffffff0000000000000000000000000000000000000000000000000000000060e087901b1681526001600160a01b0394851660048201529390921660248401526044830152151560648201526084015f60405180830381865afa158015610853573d5f803e3d5ffd5b505050506040513d5f823e601f3d908101601f1916820160405261087a9190810190613dc6565b60408101519091505f906001600160a01b0316156109155781604001516001600160a01b031663454915ab338c8c8c8c8c89606001516040518863ffffffff1660e01b81526004016108d29796959493929190613ea0565b6020604051808303815f875af11580156108ee573d5f803e3d5ffd5b505050506040513d601f19601f820116820180604052508101906109129190613f07565b90505b6109258a8a8a8a8989888861261d565b50506040517f34494a5c000000000000000000000000000000000000000000000000000000008152600481018990526001600160a01b0387811660248301528b81166044830152606482018990528a16906334494a5c906084016020604051808303815f875af115801561099b573d5f803e3d5ffd5b505050506040513d601f19601f820116820180604052508101906109bf9190613f1e565b610a14576040517fde5b37d80000000000000000000000000000000000000000000000000000000081526001600160a01b03808b166004830152602482018a90528b1660448201526064015b60405180910390fd5b6040517f8fdbea840000000000000000000000000000000000000000000000000000000081526001600160a01b038b811660048301528a81166024830152604482018a90526064820189905233608483015287811660a48301527f00000000000000000000000000000000000000000000000000000000000000001690638fdbea849060c4016020604051808303815f875af1158015610ab6573d5f803e3d5ffd5b505050506040513d601f19601f82011682018060405250810190610ada9190613f07565b604080516001600160a01b038c81168252602082018b9052898116828401526060820184905291519295508a92918d169133917f0d96f072d487d7f8b4891a4e4cf14e8cdad444a34248230085c20808d57caa1a919081900360800190a45050610b6360017f9b779b17422d0df92223018b32b4d1fa46e071723d6817e2486d003becc55f0055565b979650505050505050565b610b76612199565b610b7e61215a565b84610b8881612833565b5f849003610bc2576040517f1bec058400000000000000000000000000000000000000000000000000000000815260040160405180910390fd5b5f866001600160a01b0316638da5cb5b6040518163ffffffff1660e01b8152600401602060405180830381865afa158015610bff573d5f803e3d5ffd5b505050506040513d601f19601f82011682018060405250810190610c239190613f39565b90505f805f7f00000000000000000000000000000000000000000000000000000000000000006001600160a01b031663477fa8d1338c8c8c6040518563ffffffff1660e01b8152600401610c7a9493929190613f9d565b5f60405180830381865afa158015610c94573d5f803e3d5ffd5b505050506040513d5f823e601f3d908101601f19168201604052610cbb9190810190614060565b925092509250610cca8a612415565b6040517fd7031a8d00000000000000000000000000000000000000000000000000000000815283906001600160a01b0382169063d7031a8d90610d17908e90879087908b906004016141ac565b6020604051808303815f875af1158015610d33573d5f803e3d5ffd5b505050506040513d601f19601f82011682018060405250810190610d579190613f1e565b610d93578a8a8a6040517f061d131c000000000000000000000000000000000000000000000000000000008152600401610a0b939291906141fa565b6040517fc88cc6c80000000000000000000000000000000000000000000000000000000081526001600160a01b037f0000000000000000000000000000000000000000000000000000000000000000169063c88cc6c890610e01908e9087908990889060019060040161421c565b5f604051808303815f87803b158015610e18575f80fd5b505af1158015610e2a573d5f803e3d5ffd5b505050505f835167ffffffffffffffff811115610e4957610e49613adf565b604051908082528060200260200182016040528015610e72578160200160208202803683370190505b5090505f845167ffffffffffffffff811115610e9057610e90613adf565b604051908082528060200260200182016040528015610eb9578160200160208202803683370190505b5090505f5b8551811015610fb7575f80856001600160a01b03166360c2b0f8888581518110610eea57610eea614273565b60200260200101516040518263ffffffff1660e01b8152600401610f1091815260200190565b608060405180830381865afa158015610f2b573d5f803e3d5ffd5b505050506040513d601f19601f82011682018060405250810190610f4f91906142b3565b50509150915080848481518110610f6857610f68614273565b602002602001019063ffffffff16908163ffffffff168152505081858481518110610f9557610f95614273565b6001600160a01b03909216602092830291909101909101525050600101610ebe565b50815115801590610ff357505f6001600160a01b0316825f81518110610fdf57610fdf614273565b60200260200101516001600160a01b031614155b1561107c577f00000000000000000000000000000000000000000000000000000000000000006001600160a01b031663e9f899048e8785858f8f6040518763ffffffff1660e01b815260040161104e96959493929190614361565b5f604051808303815f87803b158015611065575f80fd5b505af1158015611077573d5f803e3d5ffd5b505050505b7f00000000000000000000000000000000000000000000000000000000000000006001600160a01b0316631eb5ce4e888e8e6040518463ffffffff1660e01b81526004016110cc939291906141fa565b5f604051808303815f87803b1580156110e3575f80fd5b505af11580156110f5573d5f803e3d5ffd5b505050508c6001600160a01b0316336001600160a01b03167f61fd21a7f55188eedf0350d3d5d208084941bfbf3dbf7b7e15760ff36b7d23558e8e89898c6040516111449594939291906143bd565b60405180910390a3505050505050505061117d60017f9b779b17422d0df92223018b32b4d1fa46e071723d6817e2486d003becc55f0055565b5050505050565b7ff0c57e16840df040f15088dc2f81fe391c3923bec73e23a9662efc9c229c6a00805468010000000000000000810460ff16159067ffffffffffffffff165f811580156111ce5750825b90505f8267ffffffffffffffff1660011480156111ea5750303b155b9050811580156111f8575080155b1561122f576040517ff92ee8a900000000000000000000000000000000000000000000000000000000815260040160405180910390fd5b84547fffffffffffffffffffffffffffffffffffffffffffffffff000000000000000016600117855583156112905784547fffffffffffffffffffffffffffffffffffffffffffffff00ffffffffffffffff16680100000000000000001785555b61129986612976565b6112a1612987565b83156113025784547fffffffffffffffffffffffffffffffffffffffffffffff00ffffffffffffffff168555604051600181527fc7f505b2f371ae2175ee4913f4499e1f2633a7b5936321eed1cdaeb6115181d29060200160405180910390a15b505050505050565b8261131481612833565b61131d84612415565b6040517f2cad22f80000000000000000000000000000000000000000000000000000000081526001600160a01b0385811660048301528481166024830152604482018490527f00000000000000000000000000000000000000000000000000000000000000001690632cad22f8906064015f604051808303815f87803b1580156113a5575f80fd5b505af11580156113b7573d5f803e3d5ffd5b5050604080516001600160a01b03878116825260208201879052881693503392507fb8d0577f110d8cf9f2c63ba14b0511362a85865bf03ea4f1c8a10ddc490244c7910160405180910390a350505050565b611415335b5f36612997565b61141d612b53565b565b611427612be3565b61143082612cb3565b61143a8282612cbc565b5050565b5f611447612dc2565b507f360894a13ba1a3210667c828492db98dca3e2076cc3735a920a3ca505d382bbc90565b8361147681612833565b61147e61215a565b60408201516001600160a01b03161580159061157e575060408201516114cd906001600160a01b03167f50b674fa00000000000000000000000000000000000000000000000000000000612e24565b158061157e575060408281015190517fc3c5a5470000000000000000000000000000000000000000000000000000000081526001600160a01b0391821660048201527f00000000000000000000000000000000000000000000000000000000000000009091169063c3c5a54790602401602060405180830381865afa158015611558573d5f803e3d5ffd5b505050506040513d601f19601f8201168201806040525081019061157c9190613f1e565b155b156115c65760408083015190517f4a4e4e200000000000000000000000000000000000000000000000000000000081526001600160a01b039091166004820152602401610a0b565b6001600160a01b0384161580156115db575082155b15611679576040517f3eabfc330000000000000000000000000000000000000000000000000000000081526001600160a01b037f00000000000000000000000000000000000000000000000000000000000000001690633eabfc3390611647908890869060040161444f565b5f604051808303815f87803b15801561165e575f80fd5b505af1158015611670573d5f803e3d5ffd5b5050505061117d565b6001600160a01b0384161580159061169057508215155b15611700576040517f938cd0400000000000000000000000000000000000000000000000000000000081526001600160a01b037f0000000000000000000000000000000000000000000000000000000000000000169063938cd04090611647908890889088908890600401614470565b6040517f7583aca00000000000000000000000000000000000000000000000000000000081526001600160a01b038516600482015260248101849052604401610a0b565b5f6117707fcd5ed15c6e187e77e9aee88184c21f4f2182ab5827cb3b7e07fbedcd63f033005460ff1690565b905090565b61177d61215a565b611785612199565b8761178f81612833565b8685146117d2576040517f0c7ac4ce0000000000000000000000000000000000000000000000000000000081526004810188905260248101869052604401610a0b565b5f87900361180c576040517fb86414d900000000000000000000000000000000000000000000000000000000815260040160405180910390fd5b61181589612415565b5f896001600160a01b0316638da5cb5b6040518163ffffffff1660e01b8152600401602060405180830381865afa158015611852573d5f803e3d5ffd5b505050506040513d601f19601f820116820180604052508101906118769190613f39565b6040517fd7031a8d00000000000000000000000000000000000000000000000000000000815290915085906001600160a01b0382169063d7031a8d906118ca908e908e908e908e908e908a906004016144e4565b6020604051808303815f875af11580156118e6573d5f803e3d5ffd5b505050506040513d601f19601f8201168201806040525081019061190a9190613f1e565b61194b576040517f4f7460bc0000000000000000000000000000000000000000000000000000000081526001600160a01b038c166004820152602401610a0b565b6040517fc88cc6c80000000000000000000000000000000000000000000000000000000081526001600160a01b037f0000000000000000000000000000000000000000000000000000000000000000169063c88cc6c8906119bc908e908e908e908c908f908f905f90600401614536565b5f604051808303815f87803b1580156119d3575f80fd5b505af11580156119e5573d5f803e3d5ffd5b505050505f806119fc8d8d8d8d8d8d8a8e8e612e46565b90925090506001600160a01b038d16337f61fd21a7f55188eedf0350d3d5d208084941bfbf3dbf7b7e15760ff36b7d23555f604051908082528060200260200182016040528015611a57578160200160208202803683370190505b508f8f8f8f8f604051611a6f96959493929190614591565b60405180910390a381511580611aaf57505f6001600160a01b0316825f81518110611a9c57611a9c614273565b60200260200101516001600160a01b0316145b15611abd5750505050611b47565b7f00000000000000000000000000000000000000000000000000000000000000006001600160a01b031663e9f899048e8e8e86868d8d6040518863ffffffff1660e01b8152600401611b1597969594939291906145cb565b5f604051808303815f87803b158015611b2c575f80fd5b505af1158015611b3e573d5f803e3d5ffd5b50505050505050505b50611b7160017f9b779b17422d0df92223018b32b4d1fa46e071723d6817e2486d003becc55f0055565b5050505050505050565b33611bad7ff3177357ab46d8af007ab3fdb9af81da189e1068fefdc0073dca88a2cab40a00546001600160a01b031690565b6001600160a01b0316816001600160a01b031614611c02576040517f068ca9d80000000000000000000000000000000000000000000000000000000081526001600160a01b0382166004820152602401610a0b565b816001600160a01b03163b5f03611c50576040517fc2f31e5e0000000000000000000000000000000000000000000000000000000081526001600160a01b0383166004820152602401610a0b565b61143a82612fa4565b611c623361140e565b61141d61302f565b7ff3177357ab46d8af007ab3fdb9af81da189e1068fefdc0073dca88a2cab40a0080545f919074010000000000000000000000000000000000000000900460ff16611cb5575f611cd7565b7f8fb36037000000000000000000000000000000000000000000000000000000005b91505090565b7ff0c57e16840df040f15088dc2f81fe391c3923bec73e23a9662efc9c229c6a00805468010000000000000000810460ff16159067ffffffffffffffff165f81158015611d275750825b90505f8267ffffffffffffffff166001148015611d435750303b155b905081158015611d51575080155b15611d88576040517ff92ee8a900000000000000000000000000000000000000000000000000000000815260040160405180910390fd5b84547fffffffffffffffffffffffffffffffffffffffffffffffff00000000000000001660011785558315611de95784547fffffffffffffffffffffffffffffffffffffffffffffff00ffffffffffffffff16680100000000000000001785555b6001600160a01b038616611e29576040517fd21152c400000000000000000000000000000000000000000000000000000000815260040160405180910390fd5b611e316130a8565b611e396130b8565b6112a186611184565b5f80858103611e7d576040517f5c34661100000000000000000000000000000000000000000000000000000000815260040160405180910390fd5b6001600160a01b038516611ebd576040517fa01513a800000000000000000000000000000000000000000000000000000000815260040160405180910390fd5b611ef06001600160a01b037f0000000000000000000000000000000000000000000000000000000000000000168a61221a565b611f26576040517f51016fd800000000000000000000000000000000000000000000000000000000815260040160405180910390fd5b5f7f00000000000000000000000000000000000000000000000000000000000000006001600160a01b03166314cc96df8b8b8b611f628f6124f0565b6040517fffffffff0000000000000000000000000000000000000000000000000000000060e087901b1681526001600160a01b0394851660048201529390921660248401526044830152151560648201526084015f60405180830381865afa158015611fd0573d5f803e3d5ffd5b505050506040513d5f823e601f3d908101601f19168201604052611ff79190810190613dc6565b90505f815f01518015612016575060408201516001600160a01b031615155b1561209d5781604001516001600160a01b0316632317dde4338d8d8d8d8d89606001516040518863ffffffff1660e01b815260040161205b9796959493929190613ea0565b602060405180830381865afa158015612076573d5f803e3d5ffd5b505050506040513d601f19601f8201168201806040525081019061209a9190613f07565b90505b6040517f60c2b0f8000000000000000000000000000000000000000000000000000000008152600481018a90528a905f9081906001600160a01b038416906360c2b0f890602401608060405180830381865afa1580156120ff573d5f803e3d5ffd5b505050506040513d601f19601f8201168201806040525081019061212391906142b3565b99509350909150506001600160a01b03811615612149576121468585848e6130c0565b95505b505050505097509795505050505050565b612162611744565b1561141d576040517fd93c066500000000000000000000000000000000000000000000000000000000815260040160405180910390fd5b7f9b779b17422d0df92223018b32b4d1fa46e071723d6817e2486d003becc55f0080547ffffffffffffffffffffffffffffffffffffffffffffffffffffffffffffffffe01612214576040517f3ee5aeb500000000000000000000000000000000000000000000000000000000815260040160405180910390fd5b60029055565b5f6001600160a01b03821661223057505f6106a7565b816001600160a01b03163b5f0361224857505f6106a7565b61225182613106565b61225c57505f6106a7565b612286827f6faff5f100000000000000000000000000000000000000000000000000000000612e24565b61229157505f6106a7565b6122bb827febe268b300000000000000000000000000000000000000000000000000000000612e24565b6122c657505f6106a7565b6122f0827f83c8dc8900000000000000000000000000000000000000000000000000000000612e24565b6122fb57505f6106a7565b5f805f846001600160a01b031663fc0c546a6040518163ffffffff1660e01b8152600401606060405180830381865afa15801561233a573d5f803e3d5ffd5b505050506040513d601f19601f8201168201806040525081019061235e9190614636565b6040517f87020f95000000000000000000000000000000000000000000000000000000008152600481018490526001600160a01b038084166024830152604482018390529396509194509250908716906387020f9590606401602060405180830381865afa1580156123d2573d5f803e3d5ffd5b505050506040513d601f19601f820116820180604052508101906123f69190613f39565b6001600160a01b0316856001600160a01b031614935050505092915050565b6040517f13f46c420000000000000000000000000000000000000000000000000000000081526001600160a01b0382811660048301527f000000000000000000000000000000000000000000000000000000000000000016906313f46c4290602401602060405180830381865afa158015612492573d5f803e3d5ffd5b505050506040513d601f19601f820116820180604052508101906124b69190613f1e565b156124ed576040517fd1fca29b00000000000000000000000000000000000000000000000000000000815260040160405180910390fd5b50565b5f6125246001600160a01b037f0000000000000000000000000000000000000000000000000000000000000000168361221a565b61252f57505f919050565b6001600160a01b038216330361254757506001919050565b6040517f7dfd0ddb0000000000000000000000000000000000000000000000000000000081526001600160a01b0383811660048301523360248301523060448301525f357fffffffff000000000000000000000000000000000000000000000000000000001660648301527f00000000000000000000000000000000000000000000000000000000000000001690637dfd0ddb906084015f6040518083038186803b1580156125f4575f80fd5b505afa925050508015612605575060015b61261057505f919050565b506001919050565b919050565b6040517f60c2b0f8000000000000000000000000000000000000000000000000000000008152600481018790525f9081908990829081906001600160a01b038416906360c2b0f890602401608060405180830381865afa158015612683573d5f803e3d5ffd5b505050506040513d601f19601f820116820180604052508101906126a791906142b3565b929750909550925090506001600160a01b038516156127fd577f00000000000000000000000000000000000000000000000000000000000000006001600160a01b03166341c70a218e87878d8d6040518663ffffffff1660e01b815260040161271495949392919061466e565b5f604051808303815f87803b15801561272b575f80fd5b505af115801561273d573d5f803e3d5ffd5b505050505f61274e8888858e6130c0565b905080156127fb576040517f41a03d5f0000000000000000000000000000000000000000000000000000000081526001600160a01b038f811660048301523360248301528381166044830152606482018390527f000000000000000000000000000000000000000000000000000000000000000016906341a03d5f906084015f604051808303815f87803b1580156127e4575f80fd5b505af11580156127f6573d5f803e3d5ffd5b505050505b505b5050509850989650505050505050565b60017f9b779b17422d0df92223018b32b4d1fa46e071723d6817e2486d003becc55f0055565b6128666001600160a01b037f0000000000000000000000000000000000000000000000000000000000000000168261221a565b6128a7576040517fd64edf900000000000000000000000000000000000000000000000000000000081526001600160a01b0382166004820152602401610a0b565b336001600160a01b038216146124ed576040517f7dfd0ddb0000000000000000000000000000000000000000000000000000000081526001600160a01b0382811660048301523360248301523060448301525f357fffffffff000000000000000000000000000000000000000000000000000000001660648301527f00000000000000000000000000000000000000000000000000000000000000001690637dfd0ddb906084015f6040518083038186803b158015612964575f80fd5b505afa15801561117d573d5f803e3d5ffd5b61297e613169565b6124ed816131d0565b61298f613169565b61141d6131e1565b7ff3177357ab46d8af007ab3fdb9af81da189e1068fefdc0073dca88a2cab40a005f80612a0b6129ee7ff3177357ab46d8af007ab3fdb9af81da189e1068fefdc0073dca88a2cab40a00546001600160a01b031690565b87306129fd60045f8a8c6146ab565b612a06916146d2565b613232565b91509150816113025763ffffffff811615612b165782547fffffffffffffffffffffff00ffffffffffffffffffffffffffffffffffffffff1674010000000000000000000000000000000000000000178355612a8e7ff3177357ab46d8af007ab3fdb9af81da189e1068fefdc0073dca88a2cab40a00546001600160a01b031690565b6001600160a01b03166394c7d7ee8787876040518463ffffffff1660e01b8152600401612abd93929190614737565b5f604051808303815f87803b158015612ad4575f80fd5b505af1158015612ae6573d5f803e3d5ffd5b505084547fffffffffffffffffffffff00ffffffffffffffffffffffffffffffffffffffff168555506113029050565b6040517f068ca9d80000000000000000000000000000000000000000000000000000000081526001600160a01b0387166004820152602401610a0b565b612b5b613380565b7fcd5ed15c6e187e77e9aee88184c21f4f2182ab5827cb3b7e07fbedcd63f0330080547fffffffffffffffffffffffffffffffffffffffffffffffffffffffffffffff001681557f5db9ee0a495bf2e6ff9c91a7834c1ba4fdd244a5e8aa4e537bd38aeae4b073aa335b6040516001600160a01b03909116815260200160405180910390a150565b306001600160a01b037f0000000000000000000000000000000000000000000000000000000000000000161480612c7c57507f00000000000000000000000000000000000000000000000000000000000000006001600160a01b0316612c707f360894a13ba1a3210667c828492db98dca3e2076cc3735a920a3ca505d382bbc546001600160a01b031690565b6001600160a01b031614155b1561141d576040517fe07c8dba00000000000000000000000000000000000000000000000000000000815260040160405180910390fd5b6124ed3361140e565b816001600160a01b03166352d1902d6040518163ffffffff1660e01b8152600401602060405180830381865afa925050508015612d16575060408051601f3d908101601f19168201909252612d1391810190613f07565b60015b612d57576040517f4c9c8ce30000000000000000000000000000000000000000000000000000000081526001600160a01b0383166004820152602401610a0b565b7f360894a13ba1a3210667c828492db98dca3e2076cc3735a920a3ca505d382bbc8114612db3576040517faa1d49a400000000000000000000000000000000000000000000000000000000815260048101829052602401610a0b565b612dbd83836133be565b505050565b306001600160a01b037f0000000000000000000000000000000000000000000000000000000000000000161461141d576040517fe07c8dba00000000000000000000000000000000000000000000000000000000815260040160405180910390fd5b5f612e2e83613106565b8015612e3f5750612e3f8383613413565b9392505050565b6060808667ffffffffffffffff811115612e6257612e62613adf565b604051908082528060200260200182016040528015612e8b578160200160208202803683370190505b5091508667ffffffffffffffff811115612ea757612ea7613adf565b604051908082528060200260200182016040528015612ed0578160200160208202803683370190505b5090505f5b89811015612f95575f80612f2c8e8e8e86818110612ef557612ef5614273565b9050602002016020810190612f0a9190613a86565b8b8e8e88818110612f1d57612f1d614273565b905060200201358c8c8c6134dc565b9150915081858481518110612f4357612f43614273565b60200260200101906001600160a01b031690816001600160a01b03168152505080848481518110612f7657612f76614273565b63ffffffff909216602092830291909101909101525050600101612ed5565b50995099975050505050505050565b7ff3177357ab46d8af007ab3fdb9af81da189e1068fefdc0073dca88a2cab40a0080546001600160a01b0383167fffffffffffffffffffffffff00000000000000000000000000000000000000009091168117825560408051918252517f2f658b440c35314f52658ea8a740e05b284cdc84dc9ae01e891f21b8933e7cad9181900360200190a15050565b61303761215a565b7fcd5ed15c6e187e77e9aee88184c21f4f2182ab5827cb3b7e07fbedcd63f0330080547fffffffffffffffffffffffffffffffffffffffffffffffffffffffffffffff001660011781557f62e78cea01bee320cd4e420270b5ea74000d11b0c9f74754ebdbfc544b05a25833612bc5565b6130b0613169565b61141d613652565b61141d613169565b83515f906130d9576130d28284614759565b90506130fe565b60408501516001600160a01b03166130fb578185602001516130d29190614759565b50825b949350505050565b5f613131827f01ffc9a700000000000000000000000000000000000000000000000000000000613413565b80156106a75750613162827fffffffff00000000000000000000000000000000000000000000000000000000613413565b1592915050565b7ff0c57e16840df040f15088dc2f81fe391c3923bec73e23a9662efc9c229c6a005468010000000000000000900460ff1661141d576040517fd7e6bcf800000000000000000000000000000000000000000000000000000000815260040160405180910390fd5b6131d8613169565b6124ed81612fa4565b6131e9613169565b7fcd5ed15c6e187e77e9aee88184c21f4f2182ab5827cb3b7e07fbedcd63f0330080547fffffffffffffffffffffffffffffffffffffffffffffffffffffffffffffff00169055565b6040516001600160a01b03848116602483015283811660448301527fffffffff00000000000000000000000000000000000000000000000000000000831660648301525f9182918291829189169060840160408051601f198184030181529181526020820180517bffffffffffffffffffffffffffffffffffffffffffffffffffffffff167fb700961300000000000000000000000000000000000000000000000000000000179052516132e69190614795565b5f60405180830381855afa9150503d805f811461331e576040519150601f19603f3d011682016040523d82523d5f602084013e613323565b606091505b50915091508115613375576040815110613355578080602001905181019061334b91906147ab565b9094509250613375565b602081511061337557808060200190518101906133729190613f1e565b93505b505094509492505050565b613388611744565b61141d576040517f8dfc202b00000000000000000000000000000000000000000000000000000000815260040160405180910390fd5b6133c78261365a565b6040516001600160a01b038316907fbc7cd75a20ee27fd9adebab32041f755214dbc6bffa90cc0225b39da2e5c2d3b905f90a280511561340b57612dbd8282613701565b61143a613773565b6040517fffffffff00000000000000000000000000000000000000000000000000000000821660248201525f90819060440160408051601f19818403018152919052602080820180517bffffffffffffffffffffffffffffffffffffffffffffffffffffffff167f01ffc9a70000000000000000000000000000000000000000000000000000000017815282519293505f9283928392909183918a617530fa92503d91505f5190508280156134c9575060208210155b8015610b63575015159695505050505050565b6040517f6e4d4d190000000000000000000000000000000000000000000000000000000081526001600160a01b0387811660048301528681166024830152604482018690525f91829182917f000000000000000000000000000000000000000000000000000000000000000090911690636e4d4d19906064015f60405180830381865afa15801561356f573d5f803e3d5ffd5b505050506040513d5f823e601f3d908101601f191682016040526135969190810190613dc6565b60408101519091505f906001600160a01b03161561362f5781604001516001600160a01b03166336e8bcb5338d8d8d8d88606001516040518763ffffffff1660e01b81526004016135ec969594939291906147de565b6020604051808303815f875af1158015613608573d5f803e3d5ffd5b505050506040513d601f19601f8201168201806040525081019061362c9190613f07565b90505b6136408a8a8a60018a8a888861261d565b909c909b509950505050505050505050565b61280d613169565b806001600160a01b03163b5f036136a8576040517f4c9c8ce30000000000000000000000000000000000000000000000000000000081526001600160a01b0382166004820152602401610a0b565b7f360894a13ba1a3210667c828492db98dca3e2076cc3735a920a3ca505d382bbc80547fffffffffffffffffffffffff0000000000000000000000000000000000000000166001600160a01b0392909216919091179055565b60605f80846001600160a01b03168460405161371d9190614795565b5f60405180830381855af49150503d805f8114613755576040519150601f19603f3d011682016040523d82523d5f602084013e61375a565b606091505b509150915061376a8583836137ab565b95945050505050565b341561141d576040517fb398979f00000000000000000000000000000000000000000000000000000000815260040160405180910390fd5b6060826137c0576137bb82613820565b612e3f565b81511580156137d757506001600160a01b0384163b155b15613819576040517f9996b3150000000000000000000000000000000000000000000000000000000081526001600160a01b0385166004820152602401610a0b565b5092915050565b8051156138305780518082602001fd5b6040517fd6bda27500000000000000000000000000000000000000000000000000000000815260040160405180910390fd5b5f60208284031215613872575f80fd5b81357fffffffff0000000000000000000000000000000000000000000000000000000081168114612e3f575f80fd5b6001600160a01b03811681146124ed575f80fd5b5f8083601f8401126138c5575f80fd5b50813567ffffffffffffffff8111156138dc575f80fd5b6020830191508360208285010111156138f3575f80fd5b9250929050565b5f805f805f805f60c0888a031215613910575f80fd5b873561391b816138a1565b9650602088013561392b816138a1565b955060408801359450606088013593506080880135613949816138a1565b925060a088013567ffffffffffffffff811115613964575f80fd5b6139708a828b016138b5565b989b979a50959850939692959293505050565b5f81518084528060208401602086015e5f602082860101526020601f19601f83011685010191505092915050565b602081525f612e3f6020830184613983565b5f8083601f8401126139d3575f80fd5b50813567ffffffffffffffff8111156139ea575f80fd5b6020830191508360208260051b85010111156138f3575f80fd5b5f805f805f60608688031215613a18575f80fd5b8535613a23816138a1565b9450602086013567ffffffffffffffff811115613a3e575f80fd5b613a4a888289016139c3565b909550935050604086013567ffffffffffffffff811115613a69575f80fd5b613a75888289016138b5565b969995985093965092949392505050565b5f60208284031215613a96575f80fd5b8135612e3f816138a1565b5f805f60608486031215613ab3575f80fd5b8335613abe816138a1565b92506020840135613ace816138a1565b929592945050506040919091013590565b7f4e487b71000000000000000000000000000000000000000000000000000000005f52604160045260245ffd5b6040516080810167ffffffffffffffff81118282101715613b2f57613b2f613adf565b60405290565b604051601f8201601f1916810167ffffffffffffffff81118282101715613b5e57613b5e613adf565b604052919050565b5f67ffffffffffffffff821115613b7f57613b7f613adf565b50601f01601f191660200190565b5f82601f830112613b9c575f80fd5b8135613baf613baa82613b66565b613b35565b818152846020838601011115613bc3575f80fd5b816020850160208301375f918101602001919091529392505050565b5f8060408385031215613bf0575f80fd5b8235613bfb816138a1565b9150602083013567ffffffffffffffff811115613c16575f80fd5b613c2285828601613b8d565b9150509250929050565b80151581146124ed575f80fd5b5f805f8060808587031215613c4c575f80fd5b8435613c57816138a1565b93506020850135613c67816138a1565b925060408501359150606085013567ffffffffffffffff811115613c89575f80fd5b850160808188031215613c9a575f80fd5b613ca2613b0c565b8135613cad81613c2c565b8152602082810135908201526040820135613cc7816138a1565b6040820152606082013567ffffffffffffffff811115613ce5575f80fd5b613cf189828501613b8d565b60608301525094979396509194505050565b5f805f805f805f8060a0898b031215613d1a575f80fd5b8835613d25816138a1565b9750602089013567ffffffffffffffff811115613d40575f80fd5b613d4c8b828c016139c3565b909850965050604089013567ffffffffffffffff811115613d6b575f80fd5b613d778b828c016139c3565b9096509450506060890135613d8b816138a1565b9250608089013567ffffffffffffffff811115613da6575f80fd5b613db28b828c016138b5565b999c989b5096995094979396929594505050565b5f60208284031215613dd6575f80fd5b815167ffffffffffffffff811115613dec575f80fd5b820160808185031215613dfd575f80fd5b613e05613b0c565b8151613e1081613c2c565b8152602082810151908201526040820151613e2a816138a1565b6040820152606082015167ffffffffffffffff811115613e48575f80fd5b80830192505084601f830112613e5c575f80fd5b8151613e6a613baa82613b66565b818152866020838601011115613e7e575f80fd5b8160208501602083015e5f918101602001919091526060820152949350505050565b6001600160a01b03881681526001600160a01b03871660208201526001600160a01b03861660408201528460608201528360808201526001600160a01b03831660a082015260e060c08201525f613efa60e0830184613983565b9998505050505050505050565b5f60208284031215613f17575f80fd5b5051919050565b5f60208284031215613f2e575f80fd5b8151612e3f81613c2c565b5f60208284031215613f49575f80fd5b8151612e3f816138a1565b8183525f7f07ffffffffffffffffffffffffffffffffffffffffffffffffffffffffffffff831115613f84575f80fd5b8260051b80836020870137939093016020019392505050565b6001600160a01b03851681526001600160a01b0384166020820152606060408201525f613fce606083018486613f54565b9695505050505050565b5f67ffffffffffffffff821115613ff157613ff1613adf565b5060051b60200190565b5f82601f83011261400a575f80fd5b8151614018613baa82613fd8565b8082825260208201915060208360051b860101925085831115614039575f80fd5b602085015b8381101561405657805183526020928301920161403e565b5095945050505050565b5f805f60608486031215614072575f80fd5b835161407d816138a1565b602085015190935067ffffffffffffffff811115614099575f80fd5b8401601f810186136140a9575f80fd5b80516140b7613baa82613fd8565b8082825260208201915060208360051b8501019250888311156140d8575f80fd5b6020840193505b828410156141035783516140f2816138a1565b8252602093840193909101906140df565b80955050505050604084015167ffffffffffffffff811115614123575f80fd5b61412f86828701613ffb565b9150509250925092565b5f8151808452602084019350602083015f5b828110156141725781516001600160a01b031686526020958601959091019060010161414b565b5093949350505050565b5f8151808452602084019350602083015f5b8281101561417257815186526020958601959091019060010161418e565b6001600160a01b0385168152608060208201525f6141cd6080830186614139565b82810360408401526141df818661417c565b9150506001600160a01b038316606083015295945050505050565b6001600160a01b0384168152604060208201525f61376a604083018486613f54565b6001600160a01b038616815260a060208201525f61423d60a0830187614139565b6001600160a01b0386166040840152828103606084015261425e818661417c565b91505082151560808301529695505050505050565b7f4e487b71000000000000000000000000000000000000000000000000000000005f52603260045260245ffd5b805163ffffffff81168114612618575f80fd5b5f805f80608085870312156142c6575f80fd5b84516142d1816138a1565b93506142df602086016142a0565b6040860151606087015191945092506142f7816138a1565b939692955090935050565b5f8151808452602084019350602083015f5b8281101561417257815163ffffffff16865260209586019590910190600101614314565b81835281816020850137505f602082840101525f6020601f19601f840116840101905092915050565b6001600160a01b038716815260a060208201525f61438260a0830188614139565b82810360408401526143948188614139565b905082810360608401526143a88187614302565b90508281036080840152613efa818587614338565b608081525f6143d0608083018789613f54565b82810360208401526143e28187614139565b905082810360408401526143f6818661417c565b9150506001600160a01b03831660608301529695505050505050565b805115158252602081015160208301526001600160a01b0360408201511660408301525f6060820151608060608501526130fe6080850182613983565b6001600160a01b0383168152604060208201525f6130fe6040830184614412565b6001600160a01b03851681526001600160a01b0384166020820152826040820152608060608201525f613fce6080830184614412565b8183526020830192505f815f5b848110156141725781356144c6816138a1565b6001600160a01b0316865260209586019591909101906001016144b3565b6001600160a01b0387168152608060208201525f6145066080830187896144a6565b8281036040840152614519818688613f54565b9150506001600160a01b0383166060830152979650505050505050565b6001600160a01b038816815260a060208201525f61455860a08301888a6144a6565b6001600160a01b0387166040840152828103606084015261457a818688613f54565b915050821515608083015298975050505050505050565b608081525f6145a3608083018961417c565b82810360208401526145b681888a6144a6565b90508281036040840152614519818688613f54565b6001600160a01b038816815260a060208201525f6145ed60a08301888a6144a6565b82810360408401526145ff8188614139565b905082810360608401526146138187614302565b90508281036080840152614628818587614338565b9a9950505050505050505050565b5f805f60608486031215614648575f80fd5b8351602085015190935061465b816138a1565b6040949094015192959394509192915050565b6001600160a01b03861681526001600160a01b038516602082015263ffffffff84166040820152608060608201525f610b63608083018486614338565b5f80858511156146b9575f80fd5b838611156146c5575f80fd5b5050820193919092039150565b80357fffffffff000000000000000000000000000000000000000000000000000000008116906004841015613819577fffffffff00000000000000000000000000000000000000000000000000000000808560040360031b1b82161691505092915050565b6001600160a01b0384168152604060208201525f61376a604083018486614338565b80820281158282048414176106a7577f4e487b71000000000000000000000000000000000000000000000000000000005f52601160045260245ffd5b5f82518060208501845e5f920191825250919050565b5f80604083850312156147bc575f80fd5b82516147c781613c2c565b91506147d5602084016142a0565b90509250929050565b6001600160a01b03871681526001600160a01b03861660208201526001600160a01b03851660408201526001600160a01b038416606082015282608082015260c060a08201525f61483260c0830184613983565b9897505050505050505056fea2646970667358221220f070c26cb51d1f720af88bbc610004ec006944929688757f7ccc42a76ebeec4e64736f6c634300081a0033","linkReferences":{}},"methodIdentifiers":{"ACCESS_CONTROLLER()":"1b8b1073","DISPUTE_MODULE()":"f943f090","IP_ACCOUNT_REGISTRY()":"702acd85","LICENSE_NFT()":"80ea3556","LICENSE_REGISTRY()":"f0ebdc83","MODULE_REGISTRY()":"b95ddb52","ROYALTY_MODULE()":"73b7ce28","UPGRADE_INTERFACE_VERSION()":"ad3cb1cc","__ProtocolPausable_init(address)":"198fdd98","attachLicenseTerms(address,address,uint256)":"2a4130c0","authority()":"bf7e214f","initialize(address)":"c4d66de8","isConsumingScheduledOp()":"8fb36037","mintLicenseTokens(address,address,uint256,uint256,address,bytes)":"0672a3bf","name()":"06fdde03","pause()":"8456cb59","paused()":"5c975abb","predictMintingLicenseFee(address,address,uint256,uint256,address,bytes)":"c918f3f2","proxiableUUID()":"52d1902d","registerDerivative(address,address[],uint256[],address,bytes)":"71f6bea7","registerDerivativeWithLicenseTokens(address,uint256[],bytes)":"12af7ef6","setAuthority(address)":"7a9e5e4b","setLicensingConfig(address,address,uint256,(bool,uint256,address,bytes))":"55b602d7","supportsInterface(bytes4)":"01ffc9a7","unpause()":"3f4ba83a","upgradeToAndCall(address,bytes)":"4f1ef286"},"id":118}