{"abi":[{"type":"constructor","inputs":[{"name":"ipAssetRegistry","type":"address","internalType":"address"},{"name":"registrationWorkflows","type":"address","internalType":"address"},{"name":"licensingModule","type":"address","internalType":"address"},{"name":"pilTemplate","type":"address","internalType":"address"},{"name":"royaltyModule","type":"address","internalType":"address"},{"name":"currency","type":"address","internalType":"address"}],"stateMutability":"nonpayable"},{"type":"function","name":"IP_ASSET_REGISTRY","inputs":[],"outputs":[{"name":"","type":"address","internalType":"contract IPAssetRegistry"}],"stateMutability":"view"},{"type":"function","name":"LICENSING_MODULE","inputs":[],"outputs":[{"name":"","type":"address","internalType":"contract LicensingModule"}],"stateMutability":"view"},{"type":"function","name":"PIL_TEMPLATE","inputs":[],"outputs":[{"name":"","type":"address","internalType":"contract PILicenseTemplate"}],"stateMutability":"view"},{"type":"function","name":"REGISTRATION_WORKFLOWS","inputs":[],"outputs":[{"name":"","type":"address","internalType":"contract RegistrationWorkflows"}],"stateMutability":"view"},{"type":"function","name":"ROYALTY_MODULE","inputs":[],"outputs":[{"name":"","type":"address","internalType":"contract RoyaltyModule"}],"stateMutability":"view"},{"type":"function","name":"SIMPLE_NFT","inputs":[],"outputs":[{"name":"","type":"address","internalType":"contract SimpleNFT"}],"stateMutability":"view"},{"type":"function","name":"SPG_NFT","inputs":[],"outputs":[{"name":"","type":"address","internalType":"contract ISPGNFT"}],"stateMutability":"view"},{"type":"function","name":"claimEarnings","inputs":[{"name":"ipId","type":"address","internalType":"address"}],"outputs":[],"stateMutability":"nonpayable"},{"type":"function","name":"getRoyaltyVault","inputs":[{"name":"ipId","type":"address","internalType":"address"}],"outputs":[{"name":"","type":"address","internalType":"address"}],"stateMutability":"view"},{"type":"function","name":"mintIp","inputs":[{"name":"prompt","type":"string","internalType":"string"}],"outputs":[{"name":"ipId","type":"address","internalType":"address"},{"name":"tokenId","type":"uint256","internalType":"uint256"}],"stateMutability":"nonpayable"},{"type":"function","name":"mintLicenseToken","inputs":[{"name":"ltAmount","type":"uint256","internalType":"uint256"},{"name":"ltRecipient","type":"address","internalType":"address"},{"name":"prompt","type":"string","internalType":"string"}],"outputs":[{"name":"ipId","type":"address","internalType":"address"},{"name":"tokenId","type":"uint256","internalType":"uint256"},{"name":"startLicenseTokenId","type":"uint256","internalType":"uint256"}],"stateMutability":"nonpayable"},{"type":"function","name":"mintLicenseTokenMin","inputs":[{"name":"ipId","type":"address","internalType":"address"},{"name":"tokenId","type":"uint256","internalType":"uint256"},{"name":"ltAmount","type":"uint256","internalType":"uint256"},{"name":"ltRecipient","type":"address","internalType":"address"}],"outputs":[{"name":"startLicenseTokenId","type":"uint256","internalType":"uint256"}],"stateMutability":"nonpayable"},{"type":"function","name":"sUSDC","inputs":[],"outputs":[{"name":"","type":"address","internalType":"contract MockERC20"}],"stateMutability":"view"},{"type":"function","name":"snapshotAndClaimByTokenBatch","inputs":[{"name":"ipId","type":"address","internalType":"address"}],"outputs":[{"name":"snapshotId","type":"uint256","internalType":"uint256"},{"name":"amountsClaimed","type":"uint256[]","internalType":"uint256[]"}],"stateMutability":"nonpayable"}],"bytecode":{"object":"0x6101806040525f80546001600160a01b0319167391f6f05b08c16769d3c85867548615d270c42fc7179055348015610035575f80fd5b506040516131b53803806131b583398101604081905261005491610307565b6001600160a01b038082166101605286811660805284811660a05282811661014052831660c052604051610087906102df565b6040808252600d908201526c14da5b5c1b1948125408139195609a1b60608201526080602082018190526003908201526253494d60e81b60a082015260c001604051809103905ff0801580156100df573d5f803e3d5ffd5b506001600160a01b0390811660e052851661012052604080516102208101825260018152734074cec2b3427f983d14d0c5e962a06b7162ab9260208201526064918101919091525f906060810161013a426301e13380610377565b81526001602080830182905260408084018390525f6060850181905281518084018352818152608086015261012c60a0860152620f424060c086015260e0850184905261010085018490526101208501819052610140808601949094526207a12061016080870191909152516001600160a01b03908116610180870152825180840184528481527f68747470733a2f2f6578616d706c652e636f6d2f70726f6d70742d7465726d73948101949094526101a09095019290925290549151905163095ea7b360e01b815290831660048201525f196024820152929350169063095ea7b3906044016020604051808303815f875af115801561023c573d5f803e3d5ffd5b505050506040513d601f19601f82011682018060405250810190610260919061039c565b5060c0516001600160a01b0316636e1b8d90826040518263ffffffff1660e01b815260040161028f91906103f0565b6020604051808303815f875af11580156102ab573d5f803e3d5ffd5b505050506040513d601f19601f820116820180604052508101906102cf9190610543565b6001555061055a95505050505050565b611db8806113fd83390190565b80516001600160a01b0381168114610302575f80fd5b919050565b5f805f805f8060c0878903121561031c575f80fd5b610325876102ec565b9550610333602088016102ec565b9450610341604088016102ec565b935061034f606088016102ec565b925061035d608088016102ec565b915061036b60a088016102ec565b90509295509295509295565b8082018082111561039657634e487b7160e01b5f52601160045260245ffd5b92915050565b5f602082840312156103ac575f80fd5b815180151581146103bb575f80fd5b9392505050565b5f81518084528060208401602086015e5f602082860101526020601f19601f83011685010191505092915050565b6020815261040360208201835115159052565b5f602083015161041e60408401826001600160a01b03169052565b506040830151606083015260608301516080830152608083015161044660a084018215159052565b5060a083015180151560c08401525060c08301516001600160a01b03811660e08401525060e08301516102206101008401526104866102408401826103c2565b90506101008401516104a161012085018263ffffffff169052565b506101208401516101408401526101408401516104c361016085018215159052565b50610160840151801515610180850152506101808401518015156101a0850152506101a08401518015156101c0850152506101c08401516101e08401526101e084015161051c6102008501826001600160a01b03169052565b50610200840151838203601f190161022085015261053a82826103c2565b95945050505050565b5f60208284031215610553575f80fd5b5051919050565b60805160a05160c05160e05161010051610120516101405161016051610dff6105fe5f395f50505f818161025701526106e601525f60ee01525f61031201525f81816102300152818161043b015281816104f5015281816108ed01526109c901525f818161013f015281816105db015261082701525f81816101f60152818161062a015261087601525f818161018a0152818161052701526109fb0152610dff5ff3fe608060405234801561000f575f80fd5b50600436106100e5575f3560e01c8063658b8909116100885780639ab891ba116100635780639ab891ba14610298578063bedf8dcc146102ad578063ca3db1cd146102ce578063e55ea4941461030d575f80fd5b8063658b89091461022b57806373b7ce28146102525780637c2e889a14610279575f80fd5b806341c782c5116100c357806341c782c5146101855780636395f42a146101ac57806365165aa5146101f157806365380b0114610218575f80fd5b80630e59bdd8146100e957806312c4ce881461013a5780631d77cc7614610161575b5f80fd5b6101107f000000000000000000000000000000000000000000000000000000000000000081565b60405173ffffffffffffffffffffffffffffffffffffffff90911681526020015b60405180910390f35b6101107f000000000000000000000000000000000000000000000000000000000000000081565b61017761016f366004610a92565b5f6060915091565b604051610131929190610ab4565b6101107f000000000000000000000000000000000000000000000000000000000000000081565b6101bf6101ba366004610bf6565b610334565b6040805173ffffffffffffffffffffffffffffffffffffffff9094168452602084019290925290820152606001610131565b6101107f000000000000000000000000000000000000000000000000000000000000000081565b610110610226366004610a92565b61069f565b6101107f000000000000000000000000000000000000000000000000000000000000000081565b6101107f000000000000000000000000000000000000000000000000000000000000000081565b5f546101109073ffffffffffffffffffffffffffffffffffffffff1681565b6102ab6102a6366004610a92565b610757565b005b6102c06102bb366004610c4b565b6107df565b604051908152602001610131565b6102e16102dc366004610c92565b6108e9565b6040805173ffffffffffffffffffffffffffffffffffffffff9093168352602083019190915201610131565b6101107f000000000000000000000000000000000000000000000000000000000000000081565b5f80548190819073ffffffffffffffffffffffffffffffffffffffff166323b872dd33306103638a6064610ccc565b6040517fffffffff0000000000000000000000000000000000000000000000000000000060e086901b16815273ffffffffffffffffffffffffffffffffffffffff938416600482015292909116602483015260448201526064016020604051808303815f875af11580156103d9573d5f803e3d5ffd5b505050506040513d601f19601f820116820180604052508101906103fd9190610d08565b506040517fd0def52100000000000000000000000000000000000000000000000000000000815273ffffffffffffffffffffffffffffffffffffffff7f0000000000000000000000000000000000000000000000000000000000000000169063d0def521906104729030908890600401610d27565b6020604051808303815f875af115801561048e573d5f803e3d5ffd5b505050506040513d601f19601f820116820180604052508101906104b29190610d97565b6040517ffca247ac00000000000000000000000000000000000000000000000000000000815246600482015273ffffffffffffffffffffffffffffffffffffffff7f000000000000000000000000000000000000000000000000000000000000000081166024830152604482018390529193507f00000000000000000000000000000000000000000000000000000000000000009091169063fca247ac906064016020604051808303815f875af115801561056f573d5f803e3d5ffd5b505050506040513d601f19601f820116820180604052508101906105939190610dae565b6001546040517f0672a3bf00000000000000000000000000000000000000000000000000000000815273ffffffffffffffffffffffffffffffffffffffff80841660048301527f000000000000000000000000000000000000000000000000000000000000000081166024830152604482019290925260648101899052878216608482015260c060a48201525f60c48201529194507f00000000000000000000000000000000000000000000000000000000000000001690630672a3bf9060e4016020604051808303815f875af1158015610670573d5f803e3d5ffd5b505050506040513d601f19601f820116820180604052508101906106949190610d97565b905093509350939050565b6040517f7a112e7900000000000000000000000000000000000000000000000000000000815273ffffffffffffffffffffffffffffffffffffffff82811660048301525f917f000000000000000000000000000000000000000000000000000000000000000090911690637a112e7990602401602060405180830381865afa15801561072d573d5f803e3d5ffd5b505050506040513d601f19601f820116820180604052508101906107519190610dae565b92915050565b5f546040517f40c10f190000000000000000000000000000000000000000000000000000000081523360048201526103e8602482015273ffffffffffffffffffffffffffffffffffffffff909116906340c10f19906044015f604051808303815f87803b1580156107c6575f80fd5b505af11580156107d8573d5f803e3d5ffd5b5050505050565b6001546040517f0672a3bf00000000000000000000000000000000000000000000000000000000815273ffffffffffffffffffffffffffffffffffffffff86811660048301527f000000000000000000000000000000000000000000000000000000000000000081166024830152604482019290925260648101849052828216608482015260c060a48201525f60c48201819052917f00000000000000000000000000000000000000000000000000000000000000001690630672a3bf9060e4016020604051808303815f875af11580156108bc573d5f803e3d5ffd5b505050506040513d601f19601f820116820180604052508101906108e09190610d97565b95945050505050565b5f807f000000000000000000000000000000000000000000000000000000000000000073ffffffffffffffffffffffffffffffffffffffff1663d0def52130856040518363ffffffff1660e01b8152600401610946929190610d27565b6020604051808303815f875af1158015610962573d5f803e3d5ffd5b505050506040513d601f19601f820116820180604052508101906109869190610d97565b6040517ffca247ac00000000000000000000000000000000000000000000000000000000815246600482015273ffffffffffffffffffffffffffffffffffffffff7f000000000000000000000000000000000000000000000000000000000000000081166024830152604482018390529192507f00000000000000000000000000000000000000000000000000000000000000009091169063fca247ac906064016020604051808303815f875af1158015610a43573d5f803e3d5ffd5b505050506040513d601f19601f82011682018060405250810190610a679190610dae565b9150915091565b73ffffffffffffffffffffffffffffffffffffffff81168114610a8f575f80fd5b50565b5f60208284031215610aa2575f80fd5b8135610aad81610a6e565b9392505050565b5f60408201848352604060208401528084518083526060850191506020860192505f5b81811015610af5578351835260209384019390920191600101610ad7565b50909695505050505050565b7f4e487b71000000000000000000000000000000000000000000000000000000005f52604160045260245ffd5b5f82601f830112610b3d575f80fd5b813567ffffffffffffffff811115610b5757610b57610b01565b6040517fffffffffffffffffffffffffffffffffffffffffffffffffffffffffffffffe0603f7fffffffffffffffffffffffffffffffffffffffffffffffffffffffffffffffe0601f8501160116810181811067ffffffffffffffff82111715610bc357610bc3610b01565b604052818152838201602001851015610bda575f80fd5b816020850160208301375f918101602001919091529392505050565b5f805f60608486031215610c08575f80fd5b833592506020840135610c1a81610a6e565b9150604084013567ffffffffffffffff811115610c35575f80fd5b610c4186828701610b2e565b9150509250925092565b5f805f8060808587031215610c5e575f80fd5b8435610c6981610a6e565b935060208501359250604085013591506060850135610c8781610a6e565b939692955090935050565b5f60208284031215610ca2575f80fd5b813567ffffffffffffffff811115610cb8575f80fd5b610cc484828501610b2e565b949350505050565b8082028115828204841417610751577f4e487b71000000000000000000000000000000000000000000000000000000005f52601160045260245ffd5b5f60208284031215610d18575f80fd5b81518015158114610aad575f80fd5b73ffffffffffffffffffffffffffffffffffffffff83168152604060208201525f82518060408401528060208501606085015e5f6060828501015260607fffffffffffffffffffffffffffffffffffffffffffffffffffffffffffffffe0601f8301168401019150509392505050565b5f60208284031215610da7575f80fd5b5051919050565b5f60208284031215610dbe575f80fd5b8151610aad81610a6e56fea264697066735822122063367e9b8c05ed220582ee170fab08d9972934f6b28c754d96b9bfec72fcc1af64736f6c634300081a0033608060405234801561000f575f80fd5b50604051611db8380380611db883398101604081905261002e91610178565b3382825f61003c8382610261565b5060016100498282610261565b5050506001600160a01b03811661007957604051631e4fbdf760e01b81525f600482015260240160405180910390fd5b6100828161008a565b50505061031b565b600680546001600160a01b038381166001600160a01b0319831681179093556040519116919082907f8be0079c531659141344cd1fd0a4f28419497f9722a3daafe3b4186f6b6457e0905f90a35050565b634e487b7160e01b5f52604160045260245ffd5b5f82601f8301126100fe575f80fd5b81516001600160401b03811115610117576101176100db565b604051601f8201601f19908116603f011681016001600160401b0381118282101715610145576101456100db565b60405281815283820160200185101561015c575f80fd5b8160208501602083015e5f918101602001919091529392505050565b5f8060408385031215610189575f80fd5b82516001600160401b0381111561019e575f80fd5b6101aa858286016100ef565b602085015190935090506001600160401b038111156101c7575f80fd5b6101d3858286016100ef565b9150509250929050565b600181811c908216806101f157607f821691505b60208210810361020f57634e487b7160e01b5f52602260045260245ffd5b50919050565b601f82111561025c57805f5260205f20601f840160051c8101602085101561023a5750805b601f840160051c820191505b81811015610259575f8155600101610246565b50505b505050565b81516001600160401b0381111561027a5761027a6100db565b61028e8161028884546101dd565b84610215565b6020601f8211600181146102c0575f83156102a95750848201515b5f19600385901b1c1916600184901b178455610259565b5f84815260208120601f198516915b828110156102ef57878501518255602094850194600190920191016102cf565b508482101561030c57868401515f19600387901b60f8161c191681555b50505050600190811b01905550565b611a90806103285f395ff3fe608060405234801561000f575f80fd5b5060043610610163575f3560e01c806375794a3c116100c7578063c87b56dd1161007d578063d0def52111610063578063d0def521146102e1578063e985e9c5146102f4578063f2fde38b1461033c575f80fd5b8063c87b56dd146102bb578063cf73cdd2146102ce575f80fd5b806395d89b41116100ad57806395d89b411461028d578063a22cb46514610295578063b88d4fde146102a8575f80fd5b806375794a3c146102665780638da5cb5b1461026f575f80fd5b806342842e0e1161011c5780636352211e116101025780636352211e1461022a57806370a082311461023d578063715018a61461025e575f80fd5b806342842e0e1461020457806357349a9614610217575f80fd5b8063081812fc1161014c578063081812fc146101a4578063095ea7b3146101dc57806323b872dd146101f1575f80fd5b806301ffc9a71461016757806306fdde031461018f575b5f80fd5b61017a61017536600461147e565b61034f565b60405190151581526020015b60405180910390f35b610197610433565b60405161018691906114e5565b6101b76101b23660046114f7565b6104c2565b60405173ffffffffffffffffffffffffffffffffffffffff9091168152602001610186565b6101ef6101ea366004611536565b6104f6565b005b6101ef6101ff36600461155e565b610505565b6101ef61021236600461155e565b6105f9565b6101976102253660046114f7565b610618565b6101b76102383660046114f7565b6106af565b61025061024b366004611598565b6106b9565b604051908152602001610186565b6101ef610731565b61025060075481565b60065473ffffffffffffffffffffffffffffffffffffffff166101b7565b610197610744565b6101ef6102a33660046115b1565b610753565b6101ef6102b63660046116ac565b61075e565b6101976102c93660046114f7565b610776565b6101976102dc3660046114f7565b6107e7565b6102506102ef366004611723565b610886565b61017a610302366004611781565b73ffffffffffffffffffffffffffffffffffffffff9182165f90815260056020908152604080832093909416825291909152205460ff1690565b6101ef61034a366004611598565b6108cb565b5f7fffffffff0000000000000000000000000000000000000000000000000000000082167f80ac58cd0000000000000000000000000000000000000000000000000000000014806103e157507fffffffff0000000000000000000000000000000000000000000000000000000082167f5b5e139f00000000000000000000000000000000000000000000000000000000145b8061042d57507f01ffc9a7000000000000000000000000000000000000000000000000000000007fffffffff000000000000000000000000000000000000000000000000000000008316145b92915050565b60605f8054610441906117b2565b80601f016020809104026020016040519081016040528092919081815260200182805461046d906117b2565b80156104b85780601f1061048f576101008083540402835291602001916104b8565b820191905f5260205f20905b81548152906001019060200180831161049b57829003601f168201915b5050505050905090565b5f6104cc8261092e565b505f8281526004602052604090205473ffffffffffffffffffffffffffffffffffffffff1661042d565b61050182823361098c565b5050565b73ffffffffffffffffffffffffffffffffffffffff8216610559576040517f64a0ae920000000000000000000000000000000000000000000000000000000081525f60048201526024015b60405180910390fd5b5f610565838333610999565b90508373ffffffffffffffffffffffffffffffffffffffff168173ffffffffffffffffffffffffffffffffffffffff16146105f3576040517f64283d7b00000000000000000000000000000000000000000000000000000000815273ffffffffffffffffffffffffffffffffffffffff80861660048301526024820184905282166044820152606401610550565b50505050565b61061383838360405180602001604052805f81525061075e565b505050565b60086020525f908152604090208054610630906117b2565b80601f016020809104026020016040519081016040528092919081815260200182805461065c906117b2565b80156106a75780601f1061067e576101008083540402835291602001916106a7565b820191905f5260205f20905b81548152906001019060200180831161068a57829003601f168201915b505050505081565b5f61042d8261092e565b5f73ffffffffffffffffffffffffffffffffffffffff8216610709576040517f89c62b640000000000000000000000000000000000000000000000000000000081525f6004820152602401610550565b5073ffffffffffffffffffffffffffffffffffffffff165f9081526003602052604090205490565b610739610b10565b6107425f610b63565b565b606060018054610441906117b2565b610501338383610bd9565b610769848484610505565b6105f33385858585610cd5565b60606107818261092e565b505f61079760408051602081019091525f815290565b90505f8151116107b55760405180602001604052805f8152506107e0565b806107bf84610ecb565b6040516020016107d092919061181a565b6040516020818303038152906040525b9392505050565b5f818152600860205260409020805460609190610803906117b2565b80601f016020809104026020016040519081016040528092919081815260200182805461082f906117b2565b801561087a5780601f106108515761010080835404028352916020019161087a565b820191905f5260205f20905b81548152906001019060200180831161085d57829003601f168201915b50505050509050919050565b5f61088f610b10565b600780545f918261089f8361182e565b909155506007545f9081526008602052604090209091506108c084826118ce565b506107e08482610f87565b6108d3610b10565b73ffffffffffffffffffffffffffffffffffffffff8116610922576040517f1e4fbdf70000000000000000000000000000000000000000000000000000000081525f6004820152602401610550565b61092b81610b63565b50565b5f8181526002602052604081205473ffffffffffffffffffffffffffffffffffffffff168061042d576040517f7e27328900000000000000000000000000000000000000000000000000000000815260048101849052602401610550565b6106138383836001611034565b5f8281526002602052604081205473ffffffffffffffffffffffffffffffffffffffff908116908316156109d2576109d28184866111fc565b73ffffffffffffffffffffffffffffffffffffffff811615610a45576109fa5f855f80611034565b73ffffffffffffffffffffffffffffffffffffffff81165f90815260036020526040902080547fffffffffffffffffffffffffffffffffffffffffffffffffffffffffffffffff0190555b73ffffffffffffffffffffffffffffffffffffffff851615610a8d5773ffffffffffffffffffffffffffffffffffffffff85165f908152600360205260409020805460010190555b5f8481526002602052604080822080547fffffffffffffffffffffffff00000000000000000000000000000000000000001673ffffffffffffffffffffffffffffffffffffffff89811691821790925591518793918516917fddf252ad1be2c89b69c2b068fc378daa952ba7f163c4a11628f55a4df523b3ef91a4949350505050565b60065473ffffffffffffffffffffffffffffffffffffffff163314610742576040517f118cdaa7000000000000000000000000000000000000000000000000000000008152336004820152602401610550565b6006805473ffffffffffffffffffffffffffffffffffffffff8381167fffffffffffffffffffffffff0000000000000000000000000000000000000000831681179093556040519116919082907f8be0079c531659141344cd1fd0a4f28419497f9722a3daafe3b4186f6b6457e0905f90a35050565b73ffffffffffffffffffffffffffffffffffffffff8216610c3e576040517f5b08ba1800000000000000000000000000000000000000000000000000000000815273ffffffffffffffffffffffffffffffffffffffff83166004820152602401610550565b73ffffffffffffffffffffffffffffffffffffffff8381165f8181526005602090815260408083209487168084529482529182902080547fffffffffffffffffffffffffffffffffffffffffffffffffffffffffffffff001686151590811790915591519182527f17307eab39ab6107e8899845ad3d59bd9653f200f220920489ca2b5937696c31910160405180910390a3505050565b73ffffffffffffffffffffffffffffffffffffffff83163b15610ec4576040517f150b7a0200000000000000000000000000000000000000000000000000000000815273ffffffffffffffffffffffffffffffffffffffff84169063150b7a0290610d4a9088908890879087906004016119e5565b6020604051808303815f875af1925050508015610da2575060408051601f3d9081017fffffffffffffffffffffffffffffffffffffffffffffffffffffffffffffffe0168201909252610d9f91810190611a3f565b60015b610e2f573d808015610dcf576040519150601f19603f3d011682016040523d82523d5f602084013e610dd4565b606091505b5080515f03610e27576040517f64a0ae9200000000000000000000000000000000000000000000000000000000815273ffffffffffffffffffffffffffffffffffffffff85166004820152602401610550565b805181602001fd5b7fffffffff0000000000000000000000000000000000000000000000000000000081167f150b7a020000000000000000000000000000000000000000000000000000000014610ec2576040517f64a0ae9200000000000000000000000000000000000000000000000000000000815273ffffffffffffffffffffffffffffffffffffffff85166004820152602401610550565b505b5050505050565b60605f610ed7836112ac565b60010190505f8167ffffffffffffffff811115610ef657610ef66115ea565b6040519080825280601f01601f191660200182016040528015610f20576020820181803683370190505b5090508181016020015b7fffffffffffffffffffffffffffffffffffffffffffffffffffffffffffffffff017f3031323334353637383961626364656600000000000000000000000000000000600a86061a8153600a8504945084610f2a57509392505050565b73ffffffffffffffffffffffffffffffffffffffff8216610fd6576040517f64a0ae920000000000000000000000000000000000000000000000000000000081525f6004820152602401610550565b5f610fe283835f610999565b905073ffffffffffffffffffffffffffffffffffffffff811615610613576040517f73c6ac6e0000000000000000000000000000000000000000000000000000000081525f6004820152602401610550565b8080611055575073ffffffffffffffffffffffffffffffffffffffff821615155b156111a8575f6110648461092e565b905073ffffffffffffffffffffffffffffffffffffffff8316158015906110b757508273ffffffffffffffffffffffffffffffffffffffff168173ffffffffffffffffffffffffffffffffffffffff1614155b80156110f5575073ffffffffffffffffffffffffffffffffffffffff8082165f9081526005602090815260408083209387168352929052205460ff16155b15611144576040517fa9fbf51f00000000000000000000000000000000000000000000000000000000815273ffffffffffffffffffffffffffffffffffffffff84166004820152602401610550565b81156111a657838573ffffffffffffffffffffffffffffffffffffffff168273ffffffffffffffffffffffffffffffffffffffff167f8c5be1e5ebec7d5bd14f71427d1e84f3dd0314c0f7b2291e5b200ac8c7c3b92560405160405180910390a45b505b50505f90815260046020526040902080547fffffffffffffffffffffffff00000000000000000000000000000000000000001673ffffffffffffffffffffffffffffffffffffffff92909216919091179055565b61120783838361138d565b6106135773ffffffffffffffffffffffffffffffffffffffff831661125b576040517f7e27328900000000000000000000000000000000000000000000000000000000815260048101829052602401610550565b6040517f177e802f00000000000000000000000000000000000000000000000000000000815273ffffffffffffffffffffffffffffffffffffffff8316600482015260248101829052604401610550565b5f807a184f03e93ff9f4daa797ed6e38ed64bf6a1f01000000000000000083106112f4577a184f03e93ff9f4daa797ed6e38ed64bf6a1f010000000000000000830492506040015b6d04ee2d6d415b85acef81000000008310611320576d04ee2d6d415b85acef8100000000830492506020015b662386f26fc10000831061133e57662386f26fc10000830492506010015b6305f5e1008310611356576305f5e100830492506008015b612710831061136a57612710830492506004015b6064831061137c576064830492506002015b600a831061042d5760010192915050565b5f73ffffffffffffffffffffffffffffffffffffffff83161580159061144957508273ffffffffffffffffffffffffffffffffffffffff168473ffffffffffffffffffffffffffffffffffffffff161480611419575073ffffffffffffffffffffffffffffffffffffffff8085165f9081526005602090815260408083209387168352929052205460ff165b8061144957505f8281526004602052604090205473ffffffffffffffffffffffffffffffffffffffff8481169116145b949350505050565b7fffffffff000000000000000000000000000000000000000000000000000000008116811461092b575f80fd5b5f6020828403121561148e575f80fd5b81356107e081611451565b5f81518084528060208401602086015e5f6020828601015260207fffffffffffffffffffffffffffffffffffffffffffffffffffffffffffffffe0601f83011685010191505092915050565b602081525f6107e06020830184611499565b5f60208284031215611507575f80fd5b5035919050565b803573ffffffffffffffffffffffffffffffffffffffff81168114611531575f80fd5b919050565b5f8060408385031215611547575f80fd5b6115508361150e565b946020939093013593505050565b5f805f60608486031215611570575f80fd5b6115798461150e565b92506115876020850161150e565b929592945050506040919091013590565b5f602082840312156115a8575f80fd5b6107e08261150e565b5f80604083850312156115c2575f80fd5b6115cb8361150e565b9150602083013580151581146115df575f80fd5b809150509250929050565b7f4e487b71000000000000000000000000000000000000000000000000000000005f52604160045260245ffd5b5f8067ffffffffffffffff841115611631576116316115ea565b506040517fffffffffffffffffffffffffffffffffffffffffffffffffffffffffffffffe0601f85018116603f0116810181811067ffffffffffffffff8211171561167e5761167e6115ea565b604052838152905080828401851015611695575f80fd5b838360208301375f60208583010152509392505050565b5f805f80608085870312156116bf575f80fd5b6116c88561150e565b93506116d66020860161150e565b925060408501359150606085013567ffffffffffffffff8111156116f8575f80fd5b8501601f81018713611708575f80fd5b61171787823560208401611617565b91505092959194509250565b5f8060408385031215611734575f80fd5b61173d8361150e565b9150602083013567ffffffffffffffff811115611758575f80fd5b8301601f81018513611768575f80fd5b61177785823560208401611617565b9150509250929050565b5f8060408385031215611792575f80fd5b61179b8361150e565b91506117a96020840161150e565b90509250929050565b600181811c908216806117c657607f821691505b6020821081036117fd577f4e487b71000000000000000000000000000000000000000000000000000000005f52602260045260245ffd5b50919050565b5f81518060208401855e5f93019283525090919050565b5f6114496118288386611803565b84611803565b5f7fffffffffffffffffffffffffffffffffffffffffffffffffffffffffffffffff8203611883577f4e487b71000000000000000000000000000000000000000000000000000000005f52601160045260245ffd5b5060010190565b601f82111561061357805f5260205f20601f840160051c810160208510156118af5750805b601f840160051c820191505b81811015610ec4575f81556001016118bb565b815167ffffffffffffffff8111156118e8576118e86115ea565b6118fc816118f684546117b2565b8461188a565b6020601f82116001811461194d575f83156119175750848201515b7fffffffffffffffffffffffffffffffffffffffffffffffffffffffffffffffff600385901b1c1916600184901b178455610ec4565b5f848152602081207fffffffffffffffffffffffffffffffffffffffffffffffffffffffffffffffe08516915b8281101561199a578785015182556020948501946001909201910161197a565b50848210156119d657868401517fffffffffffffffffffffffffffffffffffffffffffffffffffffffffffffffff600387901b60f8161c191681555b50505050600190811b01905550565b73ffffffffffffffffffffffffffffffffffffffff8516815273ffffffffffffffffffffffffffffffffffffffff84166020820152826040820152608060608201525f611a356080830184611499565b9695505050505050565b5f60208284031215611a4f575f80fd5b81516107e08161145156fea26469706673582212200fb7714b3836bc457cebfd4015b69b9397087c936fce40d8a273f600df6aa21664736f6c634300081a0033","linkReferences":{}},"methodIdentifiers":{"IP_ASSET_REGISTRY()":"41c782c5","LICENSING_MODULE()":"65165aa5","PIL_TEMPLATE()":"12c4ce88","REGISTRATION_WORKFLOWS()":"0e59bdd8","ROYALTY_MODULE()":"73b7ce28","SIMPLE_NFT()":"658b8909","SPG_NFT()":"e55ea494","claimEarnings(address)":"9ab891ba","getRoyaltyVault(address)":"65380b01","mintIp(string)":"ca3db1cd","mintLicenseToken(uint256,address,string)":"6395f42a","mintLicenseTokenMin(address,uint256,uint256,address)":"bedf8dcc","sUSDC()":"7c2e889a","snapshotAndClaimByTokenBatch(address)":"1d77cc76"},"id":1}