{"abi":[{"type":"constructor","inputs":[{"name":"accessController","type":"address","internalType":"address"},{"name":"coreMetadataModule","type":"address","internalType":"address"},{"name":"ipAssetRegistry","type":"address","internalType":"address"},{"name":"licenseRegistry","type":"address","internalType":"address"},{"name":"licensingModule","type":"address","internalType":"address"},{"name":"pilTemplate","type":"address","internalType":"address"}],"stateMutability":"nonpayable"},{"type":"function","name":"ACCESS_CONTROLLER","inputs":[],"outputs":[{"name":"","type":"address","internalType":"contract IAccessController"}],"stateMutability":"view"},{"type":"function","name":"CORE_METADATA_MODULE","inputs":[],"outputs":[{"name":"","type":"address","internalType":"contract ICoreMetadataModule"}],"stateMutability":"view"},{"type":"function","name":"IP_ASSET_REGISTRY","inputs":[],"outputs":[{"name":"","type":"address","internalType":"contract IIPAssetRegistry"}],"stateMutability":"view"},{"type":"function","name":"LICENSE_REGISTRY","inputs":[],"outputs":[{"name":"","type":"address","internalType":"contract ILicenseRegistry"}],"stateMutability":"view"},{"type":"function","name":"LICENSING_MODULE","inputs":[],"outputs":[{"name":"","type":"address","internalType":"contract ILicensingModule"}],"stateMutability":"view"},{"type":"function","name":"PIL_TEMPLATE","inputs":[],"outputs":[{"name":"","type":"address","internalType":"contract IPILicenseTemplate"}],"stateMutability":"view"},{"type":"function","name":"UPGRADE_INTERFACE_VERSION","inputs":[],"outputs":[{"name":"","type":"string","internalType":"string"}],"stateMutability":"view"},{"type":"function","name":"authority","inputs":[],"outputs":[{"name":"","type":"address","internalType":"address"}],"stateMutability":"view"},{"type":"function","name":"createCollection","inputs":[{"name":"spgNftInitParams","type":"tuple","internalType":"struct ISPGNFT.InitParams","components":[{"name":"name","type":"string","internalType":"string"},{"name":"symbol","type":"string","internalType":"string"},{"name":"baseURI","type":"string","internalType":"string"},{"name":"maxSupply","type":"uint32","internalType":"uint32"},{"name":"mintFee","type":"uint256","internalType":"uint256"},{"name":"mintFeeToken","type":"address","internalType":"address"},{"name":"mintFeeRecipient","type":"address","internalType":"address"},{"name":"owner","type":"address","internalType":"address"},{"name":"mintOpen","type":"bool","internalType":"bool"},{"name":"isPublicMinting","type":"bool","internalType":"bool"}]}],"outputs":[{"name":"spgNftContract","type":"address","internalType":"address"}],"stateMutability":"nonpayable"},{"type":"function","name":"initialize","inputs":[{"name":"accessManager","type":"address","internalType":"address"}],"outputs":[],"stateMutability":"nonpayable"},{"type":"function","name":"isConsumingScheduledOp","inputs":[],"outputs":[{"name":"","type":"bytes4","internalType":"bytes4"}],"stateMutability":"view"},{"type":"function","name":"mintAndRegisterIp","inputs":[{"name":"spgNftContract","type":"address","internalType":"address"},{"name":"recipient","type":"address","internalType":"address"},{"name":"ipMetadata","type":"tuple","internalType":"struct WorkflowStructs.IPMetadata","components":[{"name":"ipMetadataURI","type":"string","internalType":"string"},{"name":"ipMetadataHash","type":"bytes32","internalType":"bytes32"},{"name":"nftMetadataURI","type":"string","internalType":"string"},{"name":"nftMetadataHash","type":"bytes32","internalType":"bytes32"}]}],"outputs":[{"name":"ipId","type":"address","internalType":"address"},{"name":"tokenId","type":"uint256","internalType":"uint256"}],"stateMutability":"nonpayable"},{"type":"function","name":"multicall","inputs":[{"name":"data","type":"bytes[]","internalType":"bytes[]"}],"outputs":[{"name":"results","type":"bytes[]","internalType":"bytes[]"}],"stateMutability":"nonpayable"},{"type":"function","name":"proxiableUUID","inputs":[],"outputs":[{"name":"","type":"bytes32","internalType":"bytes32"}],"stateMutability":"view"},{"type":"function","name":"registerIp","inputs":[{"name":"nftContract","type":"address","internalType":"address"},{"name":"tokenId","type":"uint256","internalType":"uint256"},{"name":"ipMetadata","type":"tuple","internalType":"struct WorkflowStructs.IPMetadata","components":[{"name":"ipMetadataURI","type":"string","internalType":"string"},{"name":"ipMetadataHash","type":"bytes32","internalType":"bytes32"},{"name":"nftMetadataURI","type":"string","internalType":"string"},{"name":"nftMetadataHash","type":"bytes32","internalType":"bytes32"}]},{"name":"sigMetadata","type":"tuple","internalType":"struct WorkflowStructs.SignatureData","components":[{"name":"signer","type":"address","internalType":"address"},{"name":"deadline","type":"uint256","internalType":"uint256"},{"name":"signature","type":"bytes","internalType":"bytes"}]}],"outputs":[{"name":"ipId","type":"address","internalType":"address"}],"stateMutability":"nonpayable"},{"type":"function","name":"setAuthority","inputs":[{"name":"newAuthority","type":"address","internalType":"address"}],"outputs":[],"stateMutability":"nonpayable"},{"type":"function","name":"setNftContractBeacon","inputs":[{"name":"newNftContractBeacon","type":"address","internalType":"address"}],"outputs":[],"stateMutability":"nonpayable"},{"type":"function","name":"upgradeCollections","inputs":[{"name":"newNftContract","type":"address","internalType":"address"}],"outputs":[],"stateMutability":"nonpayable"},{"type":"function","name":"upgradeToAndCall","inputs":[{"name":"newImplementation","type":"address","internalType":"address"},{"name":"data","type":"bytes","internalType":"bytes"}],"outputs":[],"stateMutability":"payable"},{"type":"event","name":"AuthorityUpdated","inputs":[{"name":"authority","type":"address","indexed":false,"internalType":"address"}],"anonymous":false},{"type":"event","name":"CollectionCreated","inputs":[{"name":"spgNftContract","type":"address","indexed":true,"internalType":"address"}],"anonymous":false},{"type":"event","name":"Initialized","inputs":[{"name":"version","type":"uint64","indexed":false,"internalType":"uint64"}],"anonymous":false},{"type":"event","name":"Upgraded","inputs":[{"name":"implementation","type":"address","indexed":true,"internalType":"address"}],"anonymous":false},{"type":"error","name":"AccessManagedInvalidAuthority","inputs":[{"name":"authority","type":"address","internalType":"address"}]},{"type":"error","name":"AccessManagedRequiredDelay","inputs":[{"name":"caller","type":"address","internalType":"address"},{"name":"delay","type":"uint32","internalType":"uint32"}]},{"type":"error","name":"AccessManagedUnauthorized","inputs":[{"name":"caller","type":"address","internalType":"address"}]},{"type":"error","name":"AddressEmptyCode","inputs":[{"name":"target","type":"address","internalType":"address"}]},{"type":"error","name":"ERC1967InvalidImplementation","inputs":[{"name":"implementation","type":"address","internalType":"address"}]},{"type":"error","name":"ERC1967NonPayable","inputs":[]},{"type":"error","name":"FailedCall","inputs":[]},{"type":"error","name":"InvalidInitialization","inputs":[]},{"type":"error","name":"NotInitializing","inputs":[]},{"type":"error","name":"RegistrationWorkflows__ZeroAddressParam","inputs":[]},{"type":"error","name":"UUPSUnauthorizedCallContext","inputs":[]},{"type":"error","name":"UUPSUnsupportedProxiableUUID","inputs":[{"name":"slot","type":"bytes32","internalType":"bytes32"}]},{"type":"error","name":"Workflow__CallerNotAuthorizedToMint","inputs":[]}],"bytecode":{"object":"0x6101606040523061014052348015610015575f80fd5b5060405161306d38038061306d833981016040819052610034916101bd565b6001600160a01b03808716608081905281871660a05281861660c0528185166101005281841660e05290821661012052158061007757506001600160a01b038516155b8061008957506001600160a01b038416155b8061009b57506001600160a01b038316155b806100ad57506001600160a01b038216155b806100bf57506001600160a01b038116155b156100dd57604051630433d6d560e51b815260040160405180910390fd5b6100e56100f0565b50505050505061022d565b7ff0c57e16840df040f15088dc2f81fe391c3923bec73e23a9662efc9c229c6a00805468010000000000000000900460ff16156101405760405163f92ee8a960e01b815260040160405180910390fd5b80546001600160401b039081161461019f5780546001600160401b0319166001600160401b0390811782556040519081527fc7f505b2f371ae2175ee4913f4499e1f2633a7b5936321eed1cdaeb6115181d29060200160405180910390a15b50565b80516001600160a01b03811681146101b8575f80fd5b919050565b5f805f805f8060c087890312156101d2575f80fd5b6101db876101a2565b95506101e9602088016101a2565b94506101f7604088016101a2565b9350610205606088016101a2565b9250610213608088016101a2565b915061022160a088016101a2565b90509295509295509295565b60805160a05160c05160e051610100516101205161014051612dbe6102af5f395f81816111670152818161119001526115a701525f61019b01525f6104c601525f6102a901525f81816102010152818161068f0152610cd301525f81816102fb015281816107030152610d4701525f81816101ce01526107240152612dbe5ff3fe60806040526004361061013d575f3560e01c80637a9e5e4b116100bb578063ac9650d811610071578063bf7e214f11610057578063bf7e214f1461044d578063c4d66de814610496578063f0ebdc83146104b5575f80fd5b8063ac9650d8146103cc578063ad3cb1cc146103f8575f80fd5b8063845fd92b116100a1578063845fd92b1461031d5780638fb360371461033c578063a392aa8614610381575f80fd5b80637a9e5e4b146102cb5780637f586604146102ea575f80fd5b80634e8c4624116101105780634f775e16116100f65780634f775e161461025757806352d1902d1461027657806365165aa514610298575f80fd5b80634e8c4624146102235780634f1ef28614610242575f80fd5b80630f2a254d1461014157806312c4ce881461018a5780631b8b1073146101bd57806341c782c5146101f0575b5f80fd5b34801561014c575f80fd5b5061016061015b366004611dca565b6104e8565b60405173ffffffffffffffffffffffffffffffffffffffff90911681526020015b60405180910390f35b348015610195575f80fd5b506101607f000000000000000000000000000000000000000000000000000000000000000081565b3480156101c8575f80fd5b506101607f000000000000000000000000000000000000000000000000000000000000000081565b3480156101fb575f80fd5b506101607f000000000000000000000000000000000000000000000000000000000000000081565b34801561022e575f80fd5b5061016061023d366004611e49565b61063b565b610255610250366004611f8e565b610752565b005b348015610262575f80fd5b5061025561027136600461201b565b610771565b348015610281575f80fd5b5061028a610830565b604051908152602001610181565b3480156102a3575f80fd5b506101607f000000000000000000000000000000000000000000000000000000000000000081565b3480156102d6575f80fd5b506102556102e536600461201b565b61085e565b3480156102f5575f80fd5b506101607f000000000000000000000000000000000000000000000000000000000000000081565b348015610328575f80fd5b5061025561033736600461201b565b61098f565b348015610347575f80fd5b50610350610a3a565b6040517fffffffff000000000000000000000000000000000000000000000000000000009091168152602001610181565b34801561038c575f80fd5b506103a061039b366004612036565b610aad565b6040805173ffffffffffffffffffffffffffffffffffffffff9093168352602083019190915201610181565b3480156103d7575f80fd5b506103eb6103e6366004612094565b610e0b565b6040516101819190612151565b348015610403575f80fd5b506104406040518060400160405280600581526020017f352e302e3000000000000000000000000000000000000000000000000000000081525081565b60405161018191906121d2565b348015610458575f80fd5b507ff3177357ab46d8af007ab3fdb9af81da189e1068fefdc0073dca88a2cab40a005473ffffffffffffffffffffffffffffffffffffffff16610160565b3480156104a1575f80fd5b506102556104b036600461201b565b610ef1565b3480156104c0575f80fd5b506101607f000000000000000000000000000000000000000000000000000000000000000081565b7fc7b66cfa1bcdb9c30d9d3196622195473767c295d0a4fc11c6f9f5882f528900546040515f9173ffffffffffffffffffffffffffffffffffffffff169061052f90611dbd565b73ffffffffffffffffffffffffffffffffffffffff90911681526040602082018190525f90820152606001604051809103905ff080158015610573573d5f803e3d5ffd5b506040517fb96498f000000000000000000000000000000000000000000000000000000000815290915073ffffffffffffffffffffffffffffffffffffffff82169063b96498f0906105c99085906004016122c6565b5f604051808303815f87803b1580156105e0575f80fd5b505af11580156105f2573d5f803e3d5ffd5b505060405173ffffffffffffffffffffffffffffffffffffffff841692507f75432e2e509efcaf947efcc7a5a6b6b3562425b29e9725c7a4a5c652291ac35d91505f90a2919050565b6040517ffca247ac00000000000000000000000000000000000000000000000000000000815246600482015273ffffffffffffffffffffffffffffffffffffffff8581166024830152604482018590525f917f00000000000000000000000000000000000000000000000000000000000000009091169063fca247ac906064016020604051808303815f875af11580156106d7573d5f803e3d5ffd5b505050506040513d601f19601f820116820180604052508101906106fb9190612452565b905061074a817f00000000000000000000000000000000000000000000000000000000000000007f000000000000000000000000000000000000000000000000000000000000000086866110c4565b949350505050565b61075a61114f565b61076382611255565b61076d8282611261565b5050565b61077d335b5f3661139f565b73ffffffffffffffffffffffffffffffffffffffff81166107ca576040517f867adaa000000000000000000000000000000000000000000000000000000000815260040160405180910390fd5b7fc7b66cfa1bcdb9c30d9d3196622195473767c295d0a4fc11c6f9f5882f52890080547fffffffffffffffffffffffff00000000000000000000000000000000000000001673ffffffffffffffffffffffffffffffffffffffff92909216919091179055565b5f61083961158f565b507f360894a13ba1a3210667c828492db98dca3e2076cc3735a920a3ca505d382bbc90565b3361089d7ff3177357ab46d8af007ab3fdb9af81da189e1068fefdc0073dca88a2cab40a005473ffffffffffffffffffffffffffffffffffffffff1690565b73ffffffffffffffffffffffffffffffffffffffff168173ffffffffffffffffffffffffffffffffffffffff161461091e576040517f068ca9d800000000000000000000000000000000000000000000000000000000815273ffffffffffffffffffffffffffffffffffffffff821660048201526024015b60405180910390fd5b8173ffffffffffffffffffffffffffffffffffffffff163b5f03610986576040517fc2f31e5e00000000000000000000000000000000000000000000000000000000815273ffffffffffffffffffffffffffffffffffffffff83166004820152602401610915565b61076d826115fe565b61099833610776565b7fc7b66cfa1bcdb9c30d9d3196622195473767c295d0a4fc11c6f9f5882f528900546040517f3659cfe600000000000000000000000000000000000000000000000000000000815273ffffffffffffffffffffffffffffffffffffffff838116600483015290911690633659cfe6906024015f604051808303815f87803b158015610a21575f80fd5b505af1158015610a33573d5f803e3d5ffd5b5050505050565b7ff3177357ab46d8af007ab3fdb9af81da189e1068fefdc0073dca88a2cab40a0080545f919074010000000000000000000000000000000000000000900460ff16610a85575f610aa7565b7f8fb36037000000000000000000000000000000000000000000000000000000005b91505090565b6040517f91d14854000000000000000000000000000000000000000000000000000000008152600160048201523360248201525f908190859073ffffffffffffffffffffffffffffffffffffffff8216906391d1485490604401602060405180830381865afa158015610b22573d5f803e3d5ffd5b505050506040513d601f19601f82011682018060405250810190610b46919061246d565b158015610bbd57508073ffffffffffffffffffffffffffffffffffffffff166353ac010a6040518163ffffffff1660e01b8152600401602060405180830381865afa158015610b97573d5f803e3d5ffd5b505050506040513d601f19601f82011682018060405250810190610bbb919061246d565b155b15610bf4576040517f06b752de00000000000000000000000000000000000000000000000000000000815260040160405180910390fd5b73ffffffffffffffffffffffffffffffffffffffff8616635047a6a33033610c1f6040890189612488565b6040518563ffffffff1660e01b8152600401610c3e94939291906124e9565b6020604051808303815f875af1158015610c5a573d5f803e3d5ffd5b505050506040513d601f19601f82011682018060405250810190610c7e919061253e565b6040517ffca247ac00000000000000000000000000000000000000000000000000000000815246600482015273ffffffffffffffffffffffffffffffffffffffff8881166024830152604482018390529193507f00000000000000000000000000000000000000000000000000000000000000009091169063fca247ac906064016020604051808303815f875af1158015610d1b573d5f803e3d5ffd5b505050506040513d601f19601f82011682018060405250810190610d3f9190612452565b9250610d6c837f000000000000000000000000000000000000000000000000000000000000000086611696565b6040517fb88d4fde00000000000000000000000000000000000000000000000000000000815230600482015273ffffffffffffffffffffffffffffffffffffffff868116602483015260448201849052608060648301525f608483015287169063b88d4fde9060a4015f604051808303815f87803b158015610dec575f80fd5b505af1158015610dfe573d5f803e3d5ffd5b5050505050935093915050565b604080515f8152602081019091526060908267ffffffffffffffff811115610e3557610e35611ecd565b604051908082528060200260200182016040528015610e6857816020015b6060815260200190600190039081610e535790505b5091505f5b83811015610ee957610ec430868684818110610e8b57610e8b61257c565b9050602002810190610e9d9190612488565b85604051602001610eb0939291906125c0565b60405160208183030381529060405261178e565b838281518110610ed657610ed661257c565b6020908102919091010152600101610e6d565b505092915050565b7ff0c57e16840df040f15088dc2f81fe391c3923bec73e23a9662efc9c229c6a00805468010000000000000000810460ff16159067ffffffffffffffff165f81158015610f3b5750825b90505f8267ffffffffffffffff166001148015610f575750303b155b905081158015610f65575080155b15610f9c576040517ff92ee8a900000000000000000000000000000000000000000000000000000000815260040160405180910390fd5b84547fffffffffffffffffffffffffffffffffffffffffffffffff00000000000000001660011785558315610ffd5784547fffffffffffffffffffffffffffffffffffffffffffffff00ffffffffffffffff16680100000000000000001785555b73ffffffffffffffffffffffffffffffffffffffff861661104a576040517f867adaa000000000000000000000000000000000000000000000000000000000815260040160405180910390fd5b6110538661180d565b61105b61181e565b83156110bc5784547fffffffffffffffffffffffffffffffffffffffffffffff00ffffffffffffffff168555604051600181527fc7f505b2f371ae2175ee4913f4499e1f2633a7b5936321eed1cdaeb6115181d29060200160405180910390a15b505050505050565b5f6110d2602083018361201b565b73ffffffffffffffffffffffffffffffffffffffff16141580156110f95750602081013515155b8015611112575061110d6040820182612488565b151590505b15611144576111448585857fb76520c60000000000000000000000000000000000000000000000000000000085611826565b610a33858584611696565b3073ffffffffffffffffffffffffffffffffffffffff7f000000000000000000000000000000000000000000000000000000000000000016148061121c57507f000000000000000000000000000000000000000000000000000000000000000073ffffffffffffffffffffffffffffffffffffffff166112037f360894a13ba1a3210667c828492db98dca3e2076cc3735a920a3ca505d382bbc5473ffffffffffffffffffffffffffffffffffffffff1690565b73ffffffffffffffffffffffffffffffffffffffff1614155b15611253576040517fe07c8dba00000000000000000000000000000000000000000000000000000000815260040160405180910390fd5b565b61125e33610776565b50565b8173ffffffffffffffffffffffffffffffffffffffff166352d1902d6040518163ffffffff1660e01b8152600401602060405180830381865afa9250505080156112e6575060408051601f3d9081017fffffffffffffffffffffffffffffffffffffffffffffffffffffffffffffffe01682019092526112e39181019061253e565b60015b611334576040517f4c9c8ce300000000000000000000000000000000000000000000000000000000815273ffffffffffffffffffffffffffffffffffffffff83166004820152602401610915565b7f360894a13ba1a3210667c828492db98dca3e2076cc3735a920a3ca505d382bbc8114611390576040517faa1d49a400000000000000000000000000000000000000000000000000000000815260048101829052602401610915565b61139a8383611990565b505050565b7ff3177357ab46d8af007ab3fdb9af81da189e1068fefdc0073dca88a2cab40a005f806114206114037ff3177357ab46d8af007ab3fdb9af81da189e1068fefdc0073dca88a2cab40a005473ffffffffffffffffffffffffffffffffffffffff1690565b873061141260045f8a8c612555565b61141b916125d5565b6119f2565b91509150816110bc5763ffffffff8116156115455782547fffffffffffffffffffffff00ffffffffffffffffffffffffffffffffffffffff16740100000000000000000000000000000000000000001783556114b07ff3177357ab46d8af007ab3fdb9af81da189e1068fefdc0073dca88a2cab40a005473ffffffffffffffffffffffffffffffffffffffff1690565b73ffffffffffffffffffffffffffffffffffffffff166394c7d7ee8787876040518463ffffffff1660e01b81526004016114ec9392919061263b565b5f604051808303815f87803b158015611503575f80fd5b505af1158015611515573d5f803e3d5ffd5b505084547fffffffffffffffffffffff00ffffffffffffffffffffffffffffffffffffffff168555506110bc9050565b6040517f068ca9d800000000000000000000000000000000000000000000000000000000815273ffffffffffffffffffffffffffffffffffffffff87166004820152602401610915565b3073ffffffffffffffffffffffffffffffffffffffff7f00000000000000000000000000000000000000000000000000000000000000001614611253576040517fe07c8dba00000000000000000000000000000000000000000000000000000000815260040160405180910390fd5b7ff3177357ab46d8af007ab3fdb9af81da189e1068fefdc0073dca88a2cab40a00805473ffffffffffffffffffffffffffffffffffffffff83167fffffffffffffffffffffffff00000000000000000000000000000000000000009091168117825560408051918252517f2f658b440c35314f52658ea8a740e05b284cdc84dc9ae01e891f21b8933e7cad9181900360200190a15050565b7fc5d2460186f7233c927e7db2dcc703c0e500b653ca82273b7bfad8045d85a4706116c18280612488565b6040516020016116d292919061266a565b604051602081830303815290604052805190602001201415806116f85750602081013515155b806117065750606081013515155b1561139a5773ffffffffffffffffffffffffffffffffffffffff821663b76520c6846117328480612488565b856020013586606001356040518663ffffffff1660e01b815260040161175c959493929190612679565b5f604051808303815f87803b158015611773575f80fd5b505af1158015611785573d5f803e3d5ffd5b50505050505050565b60605f808473ffffffffffffffffffffffffffffffffffffffff16846040516117b791906126bc565b5f60405180830381855af49150503d805f81146117ef576040519150601f19603f3d011682016040523d82523d5f602084013e6117f4565b606091505b5091509150611804858383611b6b565b95945050505050565b611815611bfd565b61125e81611c64565b611253611bfd565b6040805173ffffffffffffffffffffffffffffffffffffffff8781166024830181905230604484015290871660648301527fffffffff0000000000000000000000000000000000000000000000000000000085166084830152600160a4808401919091528351808403909101815260c4909201909252602080820180517bffffffffffffffffffffffffffffffffffffffffffffffffffffffff167f7bac65fd0000000000000000000000000000000000000000000000000000000017905263bff571ef9186915f91906118fc9087018761201b565b602087013561190e6040890189612488565b6040518863ffffffff1660e01b815260040161193097969594939291906126c7565b5f604051808303815f875af115801561194b573d5f803e3d5ffd5b505050506040513d5f823e601f3d9081017fffffffffffffffffffffffffffffffffffffffffffffffffffffffffffffffe01682016040526110bc919081019061273e565b61199982611c75565b60405173ffffffffffffffffffffffffffffffffffffffff8316907fbc7cd75a20ee27fd9adebab32041f755214dbc6bffa90cc0225b39da2e5c2d3b905f90a28051156119ea5761139a828261178e565b61076d611d43565b60405173ffffffffffffffffffffffffffffffffffffffff848116602483015283811660448301527fffffffff00000000000000000000000000000000000000000000000000000000831660648301525f91829182918291891690608401604080517fffffffffffffffffffffffffffffffffffffffffffffffffffffffffffffffe08184030181529181526020820180517bffffffffffffffffffffffffffffffffffffffffffffffffffffffff167fb70096130000000000000000000000000000000000000000000000000000000017905251611ad191906126bc565b5f60405180830381855afa9150503d805f8114611b09576040519150601f19603f3d011682016040523d82523d5f602084013e611b0e565b606091505b50915091508115611b60576040815110611b405780806020019051810190611b3691906127b3565b9094509250611b60565b6020815110611b605780806020019051810190611b5d919061246d565b93505b505094509492505050565b606082611b8057611b7b82611d7b565b611bf6565b8151158015611ba4575073ffffffffffffffffffffffffffffffffffffffff84163b155b15611bf3576040517f9996b31500000000000000000000000000000000000000000000000000000000815273ffffffffffffffffffffffffffffffffffffffff85166004820152602401610915565b50805b9392505050565b7ff0c57e16840df040f15088dc2f81fe391c3923bec73e23a9662efc9c229c6a005468010000000000000000900460ff16611253576040517fd7e6bcf800000000000000000000000000000000000000000000000000000000815260040160405180910390fd5b611c6c611bfd565b61125e816115fe565b8073ffffffffffffffffffffffffffffffffffffffff163b5f03611cdd576040517f4c9c8ce300000000000000000000000000000000000000000000000000000000815273ffffffffffffffffffffffffffffffffffffffff82166004820152602401610915565b7f360894a13ba1a3210667c828492db98dca3e2076cc3735a920a3ca505d382bbc80547fffffffffffffffffffffffff00000000000000000000000000000000000000001673ffffffffffffffffffffffffffffffffffffffff92909216919091179055565b3415611253576040517fb398979f00000000000000000000000000000000000000000000000000000000815260040160405180910390fd5b805115611d8b5780518082602001fd5b6040517fd6bda27500000000000000000000000000000000000000000000000000000000815260040160405180910390fd5b61059d806127ec83390190565b5f60208284031215611dda575f80fd5b813567ffffffffffffffff811115611df0575f80fd5b82016101408185031215611bf6575f80fd5b73ffffffffffffffffffffffffffffffffffffffff8116811461125e575f80fd5b8035611e2e81611e02565b919050565b5f60808284031215611e43575f80fd5b50919050565b5f805f8060808587031215611e5c575f80fd5b8435611e6781611e02565b935060208501359250604085013567ffffffffffffffff811115611e89575f80fd5b611e9587828801611e33565b925050606085013567ffffffffffffffff811115611eb1575f80fd5b850160608188031215611ec2575f80fd5b939692955090935050565b7f4e487b71000000000000000000000000000000000000000000000000000000005f52604160045260245ffd5b604051601f82017fffffffffffffffffffffffffffffffffffffffffffffffffffffffffffffffe016810167ffffffffffffffff81118282101715611f4157611f41611ecd565b604052919050565b5f67ffffffffffffffff821115611f6257611f62611ecd565b50601f017fffffffffffffffffffffffffffffffffffffffffffffffffffffffffffffffe01660200190565b5f8060408385031215611f9f575f80fd5b8235611faa81611e02565b9150602083013567ffffffffffffffff811115611fc5575f80fd5b8301601f81018513611fd5575f80fd5b8035611fe8611fe382611f49565b611efa565b818152866020838501011115611ffc575f80fd5b816020840160208301375f602083830101528093505050509250929050565b5f6020828403121561202b575f80fd5b8135611bf681611e02565b5f805f60608486031215612048575f80fd5b833561205381611e02565b9250602084013561206381611e02565b9150604084013567ffffffffffffffff81111561207e575f80fd5b61208a86828701611e33565b9150509250925092565b5f80602083850312156120a5575f80fd5b823567ffffffffffffffff8111156120bb575f80fd5b8301601f810185136120cb575f80fd5b803567ffffffffffffffff8111156120e1575f80fd5b8560208260051b84010111156120f5575f80fd5b6020919091019590945092505050565b5f81518084528060208401602086015e5f6020828601015260207fffffffffffffffffffffffffffffffffffffffffffffffffffffffffffffffe0601f83011685010191505092915050565b5f602082016020835280845180835260408501915060408160051b8601019250602086015f5b828110156121c6577fffffffffffffffffffffffffffffffffffffffffffffffffffffffffffffffc08786030184526121b1858351612105565b94506020938401939190910190600101612177565b50929695505050505050565b602081525f611bf66020830184612105565b5f8083357fffffffffffffffffffffffffffffffffffffffffffffffffffffffffffffffe1843603018112612217575f80fd5b830160208101925035905067ffffffffffffffff811115612236575f80fd5b803603821315612244575f80fd5b9250929050565b81835281816020850137505f602082840101525f60207fffffffffffffffffffffffffffffffffffffffffffffffffffffffffffffffe0601f840116840101905092915050565b63ffffffff8116811461125e575f80fd5b8035611e2e81612292565b801515811461125e575f80fd5b8035611e2e816122ae565b602081525f6122d583846121e4565b61014060208501526122ec6101608501828461224b565b9150506122fc60208501856121e4565b7fffffffffffffffffffffffffffffffffffffffffffffffffffffffffffffffe085840301604086015261233183828461224b565b9250505061234260408501856121e4565b7fffffffffffffffffffffffffffffffffffffffffffffffffffffffffffffffe085840301606086015261237783828461224b565b92505050612387606085016122a3565b63ffffffff8116608085015250608084013560a0848101919091526123ad908501611e23565b73ffffffffffffffffffffffffffffffffffffffff811660c0850152506123d660c08501611e23565b73ffffffffffffffffffffffffffffffffffffffff811660e0850152506123ff60e08501611e23565b73ffffffffffffffffffffffffffffffffffffffff81166101008501525061242a61010085016122bb565b8015156101208501525061244161012085016122bb565b801515610140850152509392505050565b5f60208284031215612462575f80fd5b8151611bf681611e02565b5f6020828403121561247d575f80fd5b8151611bf6816122ae565b5f8083357fffffffffffffffffffffffffffffffffffffffffffffffffffffffffffffffe18436030181126124bb575f80fd5b83018035915067ffffffffffffffff8211156124d5575f80fd5b602001915036819003821315612244575f80fd5b73ffffffffffffffffffffffffffffffffffffffff8516815273ffffffffffffffffffffffffffffffffffffffff84166020820152606060408201525f61253460608301848661224b565b9695505050505050565b5f6020828403121561254e575f80fd5b5051919050565b5f8085851115612563575f80fd5b8386111561256f575f80fd5b5050820193919092039150565b7f4e487b71000000000000000000000000000000000000000000000000000000005f52603260045260245ffd5b5f81518060208401855e5f93019283525090919050565b828482375f8382015f815261253481856125a9565b80357fffffffff000000000000000000000000000000000000000000000000000000008116906004841015612634577fffffffff00000000000000000000000000000000000000000000000000000000808560040360031b1b82161691505b5092915050565b73ffffffffffffffffffffffffffffffffffffffff84168152604060208201525f61180460408301848661224b565b818382375f9101908152919050565b73ffffffffffffffffffffffffffffffffffffffff86168152608060208201525f6126a860808301868861224b565b604083019490945250606001529392505050565b5f611bf682846125a9565b73ffffffffffffffffffffffffffffffffffffffff8816815286602082015260c060408201525f6126fb60c0830188612105565b73ffffffffffffffffffffffffffffffffffffffff8716606084015285608084015282810360a084015261273081858761224b565b9a9950505050505050505050565b5f6020828403121561274e575f80fd5b815167ffffffffffffffff811115612764575f80fd5b8201601f81018413612774575f80fd5b8051612782611fe382611f49565b818152856020838501011115612796575f80fd5b8160208401602083015e5f91810160200191909152949350505050565b5f80604083850312156127c4575f80fd5b82516127cf816122ae565b60208401519092506127e081612292565b80915050925092905056fe60a060405260405161059d38038061059d83398101604081905261002291610354565b61002c828261003e565b506001600160a01b0316608052610445565b610047826100fb565b6040516001600160a01b038316907f1cf3b03a6cf19fa2baba4df148e9dcabedea7f8a5c07840e207e5c089be95d3e905f90a28051156100ef576100ea826001600160a01b0316635c60da1b6040518163ffffffff1660e01b8152600401602060405180830381865afa1580156100c0573d5f803e3d5ffd5b505050506040513d601f19601f820116820180604052508101906100e49190610416565b82610209565b505050565b6100f761027c565b5050565b806001600160a01b03163b5f0361013557604051631933b43b60e21b81526001600160a01b03821660048201526024015b60405180910390fd5b807fa3f0ad74e5423aebfd80d3ef4346578335a9a72aeaee59ff6cb3582b35133d5080546001600160a01b0319166001600160a01b0392831617905560408051635c60da1b60e01b815290515f92841691635c60da1b9160048083019260209291908290030181865afa1580156101ae573d5f803e3d5ffd5b505050506040513d601f19601f820116820180604052508101906101d29190610416565b9050806001600160a01b03163b5f036100f757604051634c9c8ce360e01b81526001600160a01b038216600482015260240161012c565b60605f80846001600160a01b031684604051610225919061042f565b5f60405180830381855af49150503d805f811461025d576040519150601f19603f3d011682016040523d82523d5f602084013e610262565b606091505b50909250905061027385838361029d565b95945050505050565b341561029b5760405163b398979f60e01b815260040160405180910390fd5b565b6060826102b2576102ad826102fc565b6102f5565b81511580156102c957506001600160a01b0384163b155b156102f257604051639996b31560e01b81526001600160a01b038516600482015260240161012c565b50805b9392505050565b80511561030c5780518082602001fd5b60405163d6bda27560e01b815260040160405180910390fd5b80516001600160a01b038116811461033b575f80fd5b919050565b634e487b7160e01b5f52604160045260245ffd5b5f8060408385031215610365575f80fd5b61036e83610325565b60208401519092506001600160401b03811115610389575f80fd5b8301601f81018513610399575f80fd5b80516001600160401b038111156103b2576103b2610340565b604051601f8201601f19908116603f011681016001600160401b03811182821017156103e0576103e0610340565b6040528181528282016020018710156103f7575f80fd5b8160208401602083015e5f602083830101528093505050509250929050565b5f60208284031215610426575f80fd5b6102f582610325565b5f82518060208501845e5f920191825250919050565b60805161014161045c5f395f602301526101415ff3fe608060405261000c61000e565b005b61001e610019610020565b6100b3565b565b5f7f000000000000000000000000000000000000000000000000000000000000000073ffffffffffffffffffffffffffffffffffffffff16635c60da1b6040518163ffffffff1660e01b8152600401602060405180830381865afa15801561008a573d5f803e3d5ffd5b505050506040513d601f19601f820116820180604052508101906100ae91906100d1565b905090565b365f80375f80365f845af43d5f803e8080156100cd573d5ff35b3d5ffd5b5f602082840312156100e1575f80fd5b815173ffffffffffffffffffffffffffffffffffffffff81168114610104575f80fd5b939250505056fea2646970667358221220b3b6bfd9b549cd2b19a52d4fa1288111f8901110c4aa7686184140e014c1f7c964736f6c634300081a0033a26469706673582212206029b7292314a9142d45244861661eaa13aa55f37edbdc882d04fef468576e9164736f6c634300081a0033","linkReferences":{}},"methodIdentifiers":{"ACCESS_CONTROLLER()":"1b8b1073","CORE_METADATA_MODULE()":"7f586604","IP_ASSET_REGISTRY()":"41c782c5","LICENSE_REGISTRY()":"f0ebdc83","LICENSING_MODULE()":"65165aa5","PIL_TEMPLATE()":"12c4ce88","UPGRADE_INTERFACE_VERSION()":"ad3cb1cc","authority()":"bf7e214f","createCollection((string,string,string,uint32,uint256,address,address,address,bool,bool))":"0f2a254d","initialize(address)":"c4d66de8","isConsumingScheduledOp()":"8fb36037","mintAndRegisterIp(address,address,(string,bytes32,string,bytes32))":"a392aa86","multicall(bytes[])":"ac9650d8","proxiableUUID()":"52d1902d","registerIp(address,uint256,(string,bytes32,string,bytes32),(address,uint256,bytes))":"4e8c4624","setAuthority(address)":"7a9e5e4b","setNftContractBeacon(address)":"4f775e16","upgradeCollections(address)":"845fd92b","upgradeToAndCall(address,bytes)":"4f1ef286"},"id":134}