{"abi":[{"type":"function","name":"termsToJson","inputs":[{"name":"terms","type":"tuple","internalType":"struct PILTerms","components":[{"name":"transferable","type":"bool","internalType":"bool"},{"name":"royaltyPolicy","type":"address","internalType":"address"},{"name":"defaultMintingFee","type":"uint256","internalType":"uint256"},{"name":"expiration","type":"uint256","internalType":"uint256"},{"name":"commercialUse","type":"bool","internalType":"bool"},{"name":"commercialAttribution","type":"bool","internalType":"bool"},{"name":"commercializerChecker","type":"address","internalType":"address"},{"name":"commercializerCheckerData","type":"bytes","internalType":"bytes"},{"name":"commercialRevShare","type":"uint32","internalType":"uint32"},{"name":"commercialRevCeiling","type":"uint256","internalType":"uint256"},{"name":"derivativesAllowed","type":"bool","internalType":"bool"},{"name":"derivativesAttribution","type":"bool","internalType":"bool"},{"name":"derivativesApproval","type":"bool","internalType":"bool"},{"name":"derivativesReciprocal","type":"bool","internalType":"bool"},{"name":"derivativeRevCeiling","type":"uint256","internalType":"uint256"},{"name":"currency","type":"address","internalType":"address"},{"name":"uri","type":"string","internalType":"string"}]}],"outputs":[{"name":"","type":"string","internalType":"string"}],"stateMutability":"pure"},{"type":"error","name":"StringsInsufficientHexLength","inputs":[{"name":"value","type":"uint256","internalType":"uint256"},{"name":"length","type":"uint256","internalType":"uint256"}]}],"bytecode":{"object":"0x6080604052348015600e575f80fd5b506113068061001c5f395ff3fe608060405234801561000f575f80fd5b5060043610610029575f3560e01c8063d42e54021461002d575b5f80fd5b61004061003b3660046109e7565b610056565b60405161004d9190610b72565b60405180910390f35b60605f82606001515f14610076576100718360600151610132565b6100ad565b6040518060400160405280600581526020017f6e657665720000000000000000000000000000000000000000000000000000008152505b6100d1846101e0015173ffffffffffffffffffffffffffffffffffffffff166101ee565b8461020001516100e086610217565b6100e98761037e565b6040516020016100fd959493929190610bdc565b604080517fffffffffffffffffffffffffffffffffffffffffffffffffffffffffffffffe08184030181529190529392505050565b60605f61013e83610592565b60010190505f8167ffffffffffffffff81111561015d5761015d610897565b6040519080825280601f01601f191660200182016040528015610187576020820181803683370190505b5090508181016020015b7fffffffffffffffffffffffffffffffffffffffffffffffffffffffffffffffff017f3031323334353637383961626364656600000000000000000000000000000000600a86061a8153600a850494508461019157509392505050565b606061021173ffffffffffffffffffffffffffffffffffffffff83166014610673565b92915050565b6060816080015161025d576040518060400160405280600581526020017f66616c7365000000000000000000000000000000000000000000000000000000815250610294565b6040518060400160405280600481526020017f74727565000000000000000000000000000000000000000000000000000000008152505b8260a001516102d8576040518060400160405280600581526020017f66616c736500000000000000000000000000000000000000000000000000000081525061030f565b6040518060400160405280600481526020017f74727565000000000000000000000000000000000000000000000000000000008152505b61032384610100015163ffffffff16610132565b610331856101200151610132565b6103548660c0015173ffffffffffffffffffffffffffffffffffffffff166101ee565b604051602001610368959493929190610d4e565b6040516020818303038152906040529050919050565b60608161014001516103c5576040518060400160405280600581526020017f66616c73650000000000000000000000000000000000000000000000000000008152506103fc565b6040518060400160405280600481526020017f74727565000000000000000000000000000000000000000000000000000000008152505b826101600151610441576040518060400160405280600581526020017f66616c7365000000000000000000000000000000000000000000000000000000815250610478565b6040518060400160405280600481526020017f74727565000000000000000000000000000000000000000000000000000000008152505b610486846101c00151610132565b8461018001516104cb576040518060400160405280600581526020017f66616c7365000000000000000000000000000000000000000000000000000000815250610502565b6040518060400160405280600481526020017f74727565000000000000000000000000000000000000000000000000000000008152505b856101a00151610547576040518060400160405280600581526020017f66616c736500000000000000000000000000000000000000000000000000000081525061057e565b6040518060400160405280600481526020017f74727565000000000000000000000000000000000000000000000000000000008152505b604051602001610368959493929190610fd6565b5f807a184f03e93ff9f4daa797ed6e38ed64bf6a1f01000000000000000083106105da577a184f03e93ff9f4daa797ed6e38ed64bf6a1f010000000000000000830492506040015b6d04ee2d6d415b85acef81000000008310610606576d04ee2d6d415b85acef8100000000830492506020015b662386f26fc10000831061062457662386f26fc10000830492506010015b6305f5e100831061063c576305f5e100830492506008015b612710831061065057612710830492506004015b60648310610662576064830492506002015b600a83106102115760010192915050565b6060825f610682846002611245565b61068d90600261125c565b67ffffffffffffffff8111156106a5576106a5610897565b6040519080825280601f01601f1916602001820160405280156106cf576020820181803683370190505b5090507f3000000000000000000000000000000000000000000000000000000000000000815f815181106107055761070561126f565b60200101907effffffffffffffffffffffffffffffffffffffffffffffffffffffffffffff191690815f1a9053507f7800000000000000000000000000000000000000000000000000000000000000816001815181106107675761076761126f565b60200101907effffffffffffffffffffffffffffffffffffffffffffffffffffffffffffff191690815f1a9053505f6107a1856002611245565b6107ac90600161125c565b90505b6001811115610848577f303132333435363738396162636465660000000000000000000000000000000083600f16601081106107ed576107ed61126f565b1a60f81b8282815181106108035761080361126f565b60200101907effffffffffffffffffffffffffffffffffffffffffffffffffffffffffffff191690815f1a90535060049290921c916108418161129c565b90506107af565b50811561088f576040517fe22e27eb000000000000000000000000000000000000000000000000000000008152600481018690526024810185905260440160405180910390fd5b949350505050565b7f4e487b71000000000000000000000000000000000000000000000000000000005f52604160045260245ffd5b604051610220810167ffffffffffffffff811182821017156108e8576108e8610897565b60405290565b803580151581146108fd575f80fd5b919050565b803573ffffffffffffffffffffffffffffffffffffffff811681146108fd575f80fd5b5f82601f830112610934575f80fd5b8135602083015f8067ffffffffffffffff84111561095457610954610897565b506040517fffffffffffffffffffffffffffffffffffffffffffffffffffffffffffffffe0601f85018116603f0116810181811067ffffffffffffffff821117156109a1576109a1610897565b6040528381529050808284018710156109b8575f80fd5b838360208301375f602085830101528094505050505092915050565b803563ffffffff811681146108fd575f80fd5b5f602082840312156109f7575f80fd5b813567ffffffffffffffff811115610a0d575f80fd5b82016102208185031215610a1f575f80fd5b610a276108c4565b610a30826108ee565b8152610a3e60208301610902565b60208201526040828101359082015260608083013590820152610a63608083016108ee565b6080820152610a7460a083016108ee565b60a0820152610a8560c08301610902565b60c082015260e082013567ffffffffffffffff811115610aa3575f80fd5b610aaf86828501610925565b60e083015250610ac261010083016109d4565b6101008201526101208281013590820152610ae061014083016108ee565b610140820152610af361016083016108ee565b610160820152610b0661018083016108ee565b610180820152610b196101a083016108ee565b6101a08201526101c08281013590820152610b376101e08301610902565b6101e082015261020082013567ffffffffffffffff811115610b57575f80fd5b610b6386828501610925565b61020083015250949350505050565b602081525f82518060208401528060208501604085015e5f6040828501015260407fffffffffffffffffffffffffffffffffffffffffffffffffffffffffffffffe0601f83011684010191505092915050565b5f81518060208401855e5f93019283525090919050565b7f7b2274726169745f74797065223a202245787069726174696f6e222c2022766181527f6c7565223a20220000000000000000000000000000000000000000000000000060208201525f610c336027830188610bc5565b7f227d2c000000000000000000000000000000000000000000000000000000000081527f7b2274726169745f74797065223a202243757272656e6379222c202276616c7560038201527f65223a20220000000000000000000000000000000000000000000000000000006023820152610caf6028820188610bc5565b90507f227d2c000000000000000000000000000000000000000000000000000000000081527f7b2274726169745f74797065223a2022555249222c202276616c7565223a20226003820152610d076023820187610bc5565b90507f227d2c00000000000000000000000000000000000000000000000000000000008152610d42610d3c6003830187610bc5565b85610bc5565b98975050505050505050565b7f7b2274726169745f74797065223a2022436f6d6d65726369616c20557365222c81527f202276616c7565223a202200000000000000000000000000000000000000000060208201525f610da5602b830188610bc5565b7f227d2c000000000000000000000000000000000000000000000000000000000081527f7b2274726169745f74797065223a2022436f6d6d65726369616c20417474726960038201527f627574696f6e222c202276616c7565223a2022000000000000000000000000006023820152610e216036820188610bc5565b90507f227d2c000000000000000000000000000000000000000000000000000000000081527f7b2274726169745f74797065223a2022436f6d6d65726369616c20526576656e60038201527f7565205368617265222c20226d61785f76616c7565223a20313030302c20227660238201527f616c7565223a20000000000000000000000000000000000000000000000000006043820152610d42610fad610fa7610f58610eda610f52610f03610eda604a89018e610bc5565b7f7d2c000000000000000000000000000000000000000000000000000000000000815260020190565b7f7b2274726169745f74797065223a2022436f6d6d65726369616c20526576656e81527f7565204365696c696e67222c202276616c7565223a2000000000000000000000602082015260360190565b8a610bc5565b7f7b2274726169745f74797065223a2022436f6d6d65726369616c697a6572204381527f6865636b222c202276616c7565223a2022000000000000000000000000000000602082015260310190565b86610bc5565b7f227d2c0000000000000000000000000000000000000000000000000000000000815260030190565b7f7b2274726169745f74797065223a2022446572697661746976657320416c6c6f81527f776564222c202276616c7565223a20220000000000000000000000000000000060208201525f61102d6030830188610bc5565b7f227d2c000000000000000000000000000000000000000000000000000000000081527f7b2274726169745f74797065223a20224465726976617469766573204174747260038201527f69627574696f6e222c202276616c7565223a202200000000000000000000000060238201526110a96037820188610bc5565b90507f227d2c000000000000000000000000000000000000000000000000000000000081527f7b2274726169745f74797065223a20224465726976617469766573205265766560038201527f6e7565204365696c696e67222c202276616c7565223a200000000000000000006023820152611127603a820187610bc5565b7f7d2c000000000000000000000000000000000000000000000000000000000000815290506002810161120b610fad6112056111b6826111b0867f7b2274726169745f74797065223a20224465726976617469766573204170707281527f6f76616c222c202276616c7565223a2022000000000000000000000000000000602082015260310190565b8b610bc5565b7f7b2274726169745f74797065223a20224465726976617469766573205265636981527f70726f63616c222c202276616c7565223a202200000000000000000000000000602082015260330190565b87610bc5565b9998505050505050505050565b7f4e487b71000000000000000000000000000000000000000000000000000000005f52601160045260245ffd5b808202811582820484141761021157610211611218565b8082018082111561021157610211611218565b7f4e487b71000000000000000000000000000000000000000000000000000000005f52603260045260245ffd5b5f816112aa576112aa611218565b507fffffffffffffffffffffffffffffffffffffffffffffffffffffffffffffffff019056fea2646970667358221220b90796a4465c8816b48d1a84ba4830130c3d0fef30798fa1527d2aaf2ca4270864736f6c634300081a0033","linkReferences":{}},"methodIdentifiers":{"termsToJson((bool,address,uint256,uint256,bool,bool,address,bytes,uint32,uint256,bool,bool,bool,bool,uint256,address,string))":"d42e5402"},"id":116}