{"abi":[{"type":"constructor","inputs":[{"name":"accessController","type":"address","internalType":"address"},{"name":"ipAccountRegistry","type":"address","internalType":"address"},{"name":"licenseRegistry","type":"address","internalType":"address"},{"name":"royaltyModule","type":"address","internalType":"address"}],"stateMutability":"nonpayable"},{"type":"function","name":"ACCESS_CONTROLLER","inputs":[],"outputs":[{"name":"","type":"address","internalType":"contract IAccessController"}],"stateMutability":"view"},{"type":"function","name":"IP_ACCOUNT_REGISTRY","inputs":[],"outputs":[{"name":"","type":"address","internalType":"contract IIPAccountRegistry"}],"stateMutability":"view"},{"type":"function","name":"LICENSE_REGISTRY","inputs":[],"outputs":[{"name":"","type":"address","internalType":"contract ILicenseRegistry"}],"stateMutability":"view"},{"type":"function","name":"ROYALTY_MODULE","inputs":[],"outputs":[{"name":"","type":"address","internalType":"contract IRoyaltyModule"}],"stateMutability":"view"},{"type":"function","name":"TERMS_RENDERER","inputs":[],"outputs":[{"name":"","type":"address","internalType":"contract PILTermsRenderer"}],"stateMutability":"view"},{"type":"function","name":"UPGRADE_INTERFACE_VERSION","inputs":[],"outputs":[{"name":"","type":"string","internalType":"string"}],"stateMutability":"view"},{"type":"function","name":"authority","inputs":[],"outputs":[{"name":"","type":"address","internalType":"address"}],"stateMutability":"view"},{"type":"function","name":"exists","inputs":[{"name":"licenseTermsId","type":"uint256","internalType":"uint256"}],"outputs":[{"name":"","type":"bool","internalType":"bool"}],"stateMutability":"view"},{"type":"function","name":"getEarlierExpireTime","inputs":[{"name":"licenseTermsIds","type":"uint256[]","internalType":"uint256[]"},{"name":"start","type":"uint256","internalType":"uint256"}],"outputs":[{"name":"","type":"uint256","internalType":"uint256"}],"stateMutability":"view"},{"type":"function","name":"getExpireTime","inputs":[{"name":"licenseTermsId","type":"uint256","internalType":"uint256"},{"name":"start","type":"uint256","internalType":"uint256"}],"outputs":[{"name":"","type":"uint256","internalType":"uint256"}],"stateMutability":"view"},{"type":"function","name":"getLicenseTerms","inputs":[{"name":"selectedLicenseTermsId","type":"uint256","internalType":"uint256"}],"outputs":[{"name":"terms","type":"tuple","internalType":"struct PILTerms","components":[{"name":"transferable","type":"bool","internalType":"bool"},{"name":"royaltyPolicy","type":"address","internalType":"address"},{"name":"defaultMintingFee","type":"uint256","internalType":"uint256"},{"name":"expiration","type":"uint256","internalType":"uint256"},{"name":"commercialUse","type":"bool","internalType":"bool"},{"name":"commercialAttribution","type":"bool","internalType":"bool"},{"name":"commercializerChecker","type":"address","internalType":"address"},{"name":"commercializerCheckerData","type":"bytes","internalType":"bytes"},{"name":"commercialRevShare","type":"uint32","internalType":"uint32"},{"name":"commercialRevCeiling","type":"uint256","internalType":"uint256"},{"name":"derivativesAllowed","type":"bool","internalType":"bool"},{"name":"derivativesAttribution","type":"bool","internalType":"bool"},{"name":"derivativesApproval","type":"bool","internalType":"bool"},{"name":"derivativesReciprocal","type":"bool","internalType":"bool"},{"name":"derivativeRevCeiling","type":"uint256","internalType":"uint256"},{"name":"currency","type":"address","internalType":"address"},{"name":"uri","type":"string","internalType":"string"}]}],"stateMutability":"view"},{"type":"function","name":"getLicenseTermsId","inputs":[{"name":"terms","type":"tuple","internalType":"struct PILTerms","components":[{"name":"transferable","type":"bool","internalType":"bool"},{"name":"royaltyPolicy","type":"address","internalType":"address"},{"name":"defaultMintingFee","type":"uint256","internalType":"uint256"},{"name":"expiration","type":"uint256","internalType":"uint256"},{"name":"commercialUse","type":"bool","internalType":"bool"},{"name":"commercialAttribution","type":"bool","internalType":"bool"},{"name":"commercializerChecker","type":"address","internalType":"address"},{"name":"commercializerCheckerData","type":"bytes","internalType":"bytes"},{"name":"commercialRevShare","type":"uint32","internalType":"uint32"},{"name":"commercialRevCeiling","type":"uint256","internalType":"uint256"},{"name":"derivativesAllowed","type":"bool","internalType":"bool"},{"name":"derivativesAttribution","type":"bool","internalType":"bool"},{"name":"derivativesApproval","type":"bool","internalType":"bool"},{"name":"derivativesReciprocal","type":"bool","internalType":"bool"},{"name":"derivativeRevCeiling","type":"uint256","internalType":"uint256"},{"name":"currency","type":"address","internalType":"address"},{"name":"uri","type":"string","internalType":"string"}]}],"outputs":[{"name":"selectedLicenseTermsId","type":"uint256","internalType":"uint256"}],"stateMutability":"view"},{"type":"function","name":"getLicenseTermsURI","inputs":[{"name":"licenseTermsId","type":"uint256","internalType":"uint256"}],"outputs":[{"name":"","type":"string","internalType":"string"}],"stateMutability":"view"},{"type":"function","name":"getMetadataURI","inputs":[],"outputs":[{"name":"","type":"string","internalType":"string"}],"stateMutability":"view"},{"type":"function","name":"getRoyaltyPolicy","inputs":[{"name":"licenseTermsId","type":"uint256","internalType":"uint256"}],"outputs":[{"name":"royaltyPolicy","type":"address","internalType":"address"},{"name":"royaltyPercent","type":"uint32","internalType":"uint32"},{"name":"mintingFee","type":"uint256","internalType":"uint256"},{"name":"currency","type":"address","internalType":"address"}],"stateMutability":"view"},{"type":"function","name":"initialize","inputs":[{"name":"accessManager","type":"address","internalType":"address"},{"name":"name","type":"string","internalType":"string"},{"name":"metadataURI","type":"string","internalType":"string"}],"outputs":[],"stateMutability":"nonpayable"},{"type":"function","name":"isConsumingScheduledOp","inputs":[],"outputs":[{"name":"","type":"bytes4","internalType":"bytes4"}],"stateMutability":"view"},{"type":"function","name":"isDerivativeApproved","inputs":[{"name":"parentIpId","type":"address","internalType":"address"},{"name":"licenseTermsId","type":"uint256","internalType":"uint256"},{"name":"childIpId","type":"address","internalType":"address"}],"outputs":[{"name":"","type":"bool","internalType":"bool"}],"stateMutability":"view"},{"type":"function","name":"isLicenseTransferable","inputs":[{"name":"licenseTermsId","type":"uint256","internalType":"uint256"}],"outputs":[{"name":"","type":"bool","internalType":"bool"}],"stateMutability":"view"},{"type":"function","name":"name","inputs":[],"outputs":[{"name":"","type":"string","internalType":"string"}],"stateMutability":"view"},{"type":"function","name":"proxiableUUID","inputs":[],"outputs":[{"name":"","type":"bytes32","internalType":"bytes32"}],"stateMutability":"view"},{"type":"function","name":"registerLicenseTerms","inputs":[{"name":"terms","type":"tuple","internalType":"struct PILTerms","components":[{"name":"transferable","type":"bool","internalType":"bool"},{"name":"royaltyPolicy","type":"address","internalType":"address"},{"name":"defaultMintingFee","type":"uint256","internalType":"uint256"},{"name":"expiration","type":"uint256","internalType":"uint256"},{"name":"commercialUse","type":"bool","internalType":"bool"},{"name":"commercialAttribution","type":"bool","internalType":"bool"},{"name":"commercializerChecker","type":"address","internalType":"address"},{"name":"commercializerCheckerData","type":"bytes","internalType":"bytes"},{"name":"commercialRevShare","type":"uint32","internalType":"uint32"},{"name":"commercialRevCeiling","type":"uint256","internalType":"uint256"},{"name":"derivativesAllowed","type":"bool","internalType":"bool"},{"name":"derivativesAttribution","type":"bool","internalType":"bool"},{"name":"derivativesApproval","type":"bool","internalType":"bool"},{"name":"derivativesReciprocal","type":"bool","internalType":"bool"},{"name":"derivativeRevCeiling","type":"uint256","internalType":"uint256"},{"name":"currency","type":"address","internalType":"address"},{"name":"uri","type":"string","internalType":"string"}]}],"outputs":[{"name":"id","type":"uint256","internalType":"uint256"}],"stateMutability":"nonpayable"},{"type":"function","name":"setApproval","inputs":[{"name":"parentIpId","type":"address","internalType":"address"},{"name":"licenseTermsId","type":"uint256","internalType":"uint256"},{"name":"childIpId","type":"address","internalType":"address"},{"name":"approved","type":"bool","internalType":"bool"}],"outputs":[],"stateMutability":"nonpayable"},{"type":"function","name":"setAuthority","inputs":[{"name":"newAuthority","type":"address","internalType":"address"}],"outputs":[],"stateMutability":"nonpayable"},{"type":"function","name":"supportsInterface","inputs":[{"name":"interfaceId","type":"bytes4","internalType":"bytes4"}],"outputs":[{"name":"","type":"bool","internalType":"bool"}],"stateMutability":"view"},{"type":"function","name":"toJson","inputs":[{"name":"licenseTermsId","type":"uint256","internalType":"uint256"}],"outputs":[{"name":"","type":"string","internalType":"string"}],"stateMutability":"view"},{"type":"function","name":"totalRegisteredLicenseTerms","inputs":[],"outputs":[{"name":"","type":"uint256","internalType":"uint256"}],"stateMutability":"view"},{"type":"function","name":"upgradeToAndCall","inputs":[{"name":"newImplementation","type":"address","internalType":"address"},{"name":"data","type":"bytes","internalType":"bytes"}],"outputs":[],"stateMutability":"payable"},{"type":"function","name":"verifyCompatibleLicenses","inputs":[{"name":"licenseTermsIds","type":"uint256[]","internalType":"uint256[]"}],"outputs":[{"name":"","type":"bool","internalType":"bool"}],"stateMutability":"view"},{"type":"function","name":"verifyMintLicenseToken","inputs":[{"name":"licenseTermsId","type":"uint256","internalType":"uint256"},{"name":"licensee","type":"address","internalType":"address"},{"name":"licensorIpId","type":"address","internalType":"address"},{"name":"","type":"uint256","internalType":"uint256"}],"outputs":[{"name":"","type":"bool","internalType":"bool"}],"stateMutability":"nonpayable"},{"type":"function","name":"verifyRegisterDerivative","inputs":[{"name":"childIpId","type":"address","internalType":"address"},{"name":"parentIpId","type":"address","internalType":"address"},{"name":"licenseTermsId","type":"uint256","internalType":"uint256"},{"name":"licensee","type":"address","internalType":"address"}],"outputs":[{"name":"","type":"bool","internalType":"bool"}],"stateMutability":"nonpayable"},{"type":"function","name":"verifyRegisterDerivativeForAllParents","inputs":[{"name":"childIpId","type":"address","internalType":"address"},{"name":"parentIpIds","type":"address[]","internalType":"address[]"},{"name":"licenseTermsIds","type":"uint256[]","internalType":"uint256[]"},{"name":"childIpOwner","type":"address","internalType":"address"}],"outputs":[{"name":"","type":"bool","internalType":"bool"}],"stateMutability":"nonpayable"},{"type":"event","name":"AuthorityUpdated","inputs":[{"name":"authority","type":"address","indexed":false,"internalType":"address"}],"anonymous":false},{"type":"event","name":"DerivativeApproved","inputs":[{"name":"licenseTermsId","type":"uint256","indexed":true,"internalType":"uint256"},{"name":"ipId","type":"address","indexed":true,"internalType":"address"},{"name":"caller","type":"address","indexed":true,"internalType":"address"},{"name":"approved","type":"bool","indexed":false,"internalType":"bool"}],"anonymous":false},{"type":"event","name":"Initialized","inputs":[{"name":"version","type":"uint64","indexed":false,"internalType":"uint64"}],"anonymous":false},{"type":"event","name":"LicenseTermsRegistered","inputs":[{"name":"licenseTermsId","type":"uint256","indexed":true,"internalType":"uint256"},{"name":"licenseTemplate","type":"address","indexed":true,"internalType":"address"},{"name":"licenseTerms","type":"bytes","indexed":false,"internalType":"bytes"}],"anonymous":false},{"type":"event","name":"Upgraded","inputs":[{"name":"implementation","type":"address","indexed":true,"internalType":"address"}],"anonymous":false},{"type":"error","name":"AccessControlled__NotIpAccount","inputs":[{"name":"ipAccount","type":"address","internalType":"address"}]},{"type":"error","name":"AccessControlled__ZeroAddress","inputs":[]},{"type":"error","name":"AccessManagedInvalidAuthority","inputs":[{"name":"authority","type":"address","internalType":"address"}]},{"type":"error","name":"AccessManagedRequiredDelay","inputs":[{"name":"caller","type":"address","internalType":"address"},{"name":"delay","type":"uint32","internalType":"uint32"}]},{"type":"error","name":"AccessManagedUnauthorized","inputs":[{"name":"caller","type":"address","internalType":"address"}]},{"type":"error","name":"AddressEmptyCode","inputs":[{"name":"target","type":"address","internalType":"address"}]},{"type":"error","name":"ERC1967InvalidImplementation","inputs":[{"name":"implementation","type":"address","internalType":"address"}]},{"type":"error","name":"ERC1967NonPayable","inputs":[]},{"type":"error","name":"FailedCall","inputs":[]},{"type":"error","name":"InvalidInitialization","inputs":[]},{"type":"error","name":"NotInitializing","inputs":[]},{"type":"error","name":"PILicenseTemplate__CommercialDisabled_CantAddAttribution","inputs":[]},{"type":"error","name":"PILicenseTemplate__CommercialDisabled_CantAddCommercializers","inputs":[]},{"type":"error","name":"PILicenseTemplate__CommercialDisabled_CantAddDerivativeRevCeiling","inputs":[]},{"type":"error","name":"PILicenseTemplate__CommercialDisabled_CantAddRevCeiling","inputs":[]},{"type":"error","name":"PILicenseTemplate__CommercialDisabled_CantAddRevShare","inputs":[]},{"type":"error","name":"PILicenseTemplate__CommercialDisabled_CantAddRoyaltyPolicy","inputs":[]},{"type":"error","name":"PILicenseTemplate__CommercialEnabled_RoyaltyPolicyRequired","inputs":[]},{"type":"error","name":"PILicenseTemplate__CommercializerCheckerDoesNotSupportHook","inputs":[{"name":"checker","type":"address","internalType":"address"}]},{"type":"error","name":"PILicenseTemplate__CurrencyTokenNotWhitelisted","inputs":[]},{"type":"error","name":"PILicenseTemplate__DerivativesDisabled_CantAddApproval","inputs":[]},{"type":"error","name":"PILicenseTemplate__DerivativesDisabled_CantAddAttribution","inputs":[]},{"type":"error","name":"PILicenseTemplate__DerivativesDisabled_CantAddDerivativeRevCeiling","inputs":[]},{"type":"error","name":"PILicenseTemplate__DerivativesDisabled_CantAddReciprocal","inputs":[]},{"type":"error","name":"PILicenseTemplate__RoyaltyPolicyNotWhitelisted","inputs":[]},{"type":"error","name":"PILicenseTemplate__RoyaltyPolicyRequiresCurrencyToken","inputs":[]},{"type":"error","name":"PILicenseTemplate__ZeroAccessManager","inputs":[]},{"type":"error","name":"PILicenseTemplate__ZeroLicenseRegistry","inputs":[]},{"type":"error","name":"PILicenseTemplate__ZeroRoyaltyModule","inputs":[]},{"type":"error","name":"ReentrancyGuardReentrantCall","inputs":[]},{"type":"error","name":"UUPSUnauthorizedCallContext","inputs":[]},{"type":"error","name":"UUPSUnsupportedProxiableUUID","inputs":[{"name":"slot","type":"bytes32","internalType":"bytes32"}]}],"bytecode":{"object":"0x6101406040523060c052348015610014575f80fd5b506040516169b23803806169b283398101604081905261003391610221565b838381816001600160a01b03821661005e576040516320a816ad60e01b815260040160405180910390fd5b6001600160a01b038116610085576040516320a816ad60e01b815260040160405180910390fd5b6001600160a01b039182166080521660a05261009f610147565b50506001600160a01b0382166100c857604051631a793bdf60e21b815260040160405180910390fd5b6001600160a01b0381166100ef5760405163b9237d6760e01b815260040160405180910390fd5b6001600160a01b0380831660e05281166101005260405161010f906101f9565b604051809103905ff080158015610128573d5f803e3d5ffd5b506001600160a01b03166101205261013e610147565b50505050610272565b7ff0c57e16840df040f15088dc2f81fe391c3923bec73e23a9662efc9c229c6a00805468010000000000000000900460ff16156101975760405163f92ee8a960e01b815260040160405180910390fd5b80546001600160401b03908116146101f65780546001600160401b0319166001600160401b0390811782556040519081527fc7f505b2f371ae2175ee4913f4499e1f2633a7b5936321eed1cdaeb6115181d29060200160405180910390a15b50565b6113228061569083390190565b80516001600160a01b038116811461021c575f80fd5b919050565b5f805f8060808587031215610234575f80fd5b61023d85610206565b935061024b60208601610206565b925061025960408601610206565b915061026760608601610206565b905092959194509250565b60805160a05160c05160e051610100516101205161538a6103065f395f81816103c1015261211701525f81816104460152818161117801528181611258015261139a01525f81816106f301528181610b9401528181610c5701526133a101525f8181612381015281816123aa01526125b501525f8181610413015261388901525f81816102450152613994015261538a5ff3fe6080604052600436106101db575f3560e01c80638dc5398b116100fd578063c32b6fcc11610092578063ef64776511610062578063ef647765146106c3578063f0ebdc83146106e2578063f47fe11714610715578063f6a76f7c1461078c575f80fd5b8063c32b6fcc1461060c578063d1908a9c14610659578063d7031a8d14610685578063d944a9bf146106a4575f80fd5b8063ad3cb1cc116100cd578063ad3cb1cc1461053d578063b6e70dc614610585578063bd24bb52146105a4578063bf7e214f146105c3575f80fd5b80638dc5398b1461049b5780638fb36037146104ba57806390657147146104ff5780639577ac091461051e575f80fd5b8063602f6b9b11610173578063702acd8511610143578063702acd851461040257806373b7ce28146104355780637a9e5e4b1461046857806386a92af714610487575f80fd5b8063602f6b9b1461033057806360c2b0f81461034f578063669be618146103b05780636e1b8d90146103e3575f80fd5b806334494a5c116101ae57806334494a5c146102c95780634f1ef286146102e85780634f558e79146102fd57806352d1902d1461031c575f80fd5b806301ffc9a7146101df57806306fdde03146102135780631b8b107314610234578063225b88f11461028c575b5f80fd5b3480156101ea575f80fd5b506101fe6101f93660046140e3565b6107ab565b60405190151581526020015b60405180910390f35b34801561021e575f80fd5b50610227610806565b60405161020a9190614150565b34801561023f575f80fd5b506102677f000000000000000000000000000000000000000000000000000000000000000081565b60405173ffffffffffffffffffffffffffffffffffffffff909116815260200161020a565b348015610297575f80fd5b507fc6c6991297bc120d0383f0017fab72b8ca34fd4849ed6478dbaac67a33c3a702545b60405190815260200161020a565b3480156102d4575f80fd5b506101fe6102e336600461418e565b6108b5565b6102fb6102f6366004614293565b610dc7565b005b348015610308575f80fd5b506101fe6103173660046142f3565b610de6565b348015610327575f80fd5b506102bb610e12565b34801561033b575f80fd5b506102bb61034a36600461430a565b610e40565b34801561035a575f80fd5b5061036e6103693660046142f3565b610ea2565b6040805173ffffffffffffffffffffffffffffffffffffffff958616815263ffffffff909416602085015283019190915291909116606082015260800161020a565b3480156103bb575f80fd5b506102677f000000000000000000000000000000000000000000000000000000000000000081565b3480156103ee575f80fd5b506102bb6103fd36600461430a565b611128565b34801561040d575f80fd5b506102677f000000000000000000000000000000000000000000000000000000000000000081565b348015610440575f80fd5b506102677f000000000000000000000000000000000000000000000000000000000000000081565b348015610473575f80fd5b506102fb610482366004614342565b61167c565b348015610492575f80fd5b506102276117ad565b3480156104a6575f80fd5b506102bb6104b536600461435d565b6117de565b3480156104c5575f80fd5b506104ce6117f0565b6040517fffffffff00000000000000000000000000000000000000000000000000000000909116815260200161020a565b34801561050a575f80fd5b506102fb61051936600461439b565b611863565b348015610529575f80fd5b506101fe610538366004614459565b611a4a565b348015610548575f80fd5b506102276040518060400160405280600581526020017f352e302e3000000000000000000000000000000000000000000000000000000081525081565b348015610590575f80fd5b506102fb61059f3660046144b0565b611a55565b3480156105af575f80fd5b506101fe6105be366004614500565b611a67565b3480156105ce575f80fd5b507ff3177357ab46d8af007ab3fdb9af81da189e1068fefdc0073dca88a2cab40a005473ffffffffffffffffffffffffffffffffffffffff16610267565b348015610617575f80fd5b506101fe6106263660046142f3565b5f9081527fc6c6991297bc120d0383f0017fab72b8ca34fd4849ed6478dbaac67a33c3a700602052604090205460ff1690565b348015610664575f80fd5b506106786106733660046142f3565b611a7d565b60405161020a9190614545565b348015610690575f80fd5b506101fe61069f3660046146b6565b611d67565b3480156106af575f80fd5b506102276106be3660046142f3565b611df6565b3480156106ce575f80fd5b506102276106dd3660046142f3565b611eb7565b3480156106ed575f80fd5b506102677f000000000000000000000000000000000000000000000000000000000000000081565b348015610720575f80fd5b506101fe61072f36600461474a565b5f9182527f7a71306cccadc52d66a0a466930bd537acf0ba900f21654919d58cece4cf95006020908152604080842073ffffffffffffffffffffffffffffffffffffffff9586168552825280842092909416835252205460ff1690565b348015610797575f80fd5b506102bb6107a6366004614789565b6121af565b5f7fffffffff0000000000000000000000000000000000000000000000000000000082167fdfa46c9700000000000000000000000000000000000000000000000000000000148061080057506108008261222c565b92915050565b60607f96c2f019b095cfe7c4d1f26aa9d2741961fe73294777688374a3299707c2fb008054610834906147d1565b80601f0160208091040260200160405190810160405280929190818152602001828054610860906147d1565b80156108ab5780601f10610882576101008083540402835291602001916108ab565b820191905f5260205f20905b81548152906001019060200180831161088e57829003601f168201915b5050505050905090565b5f6108be6122c2565b6108e9857fc6c6991297bc120d0383f0017fab72b8ca34fd4849ed6478dbaac67a33c3a70254101590565b6108f457505f610d96565b5f8581527fc6c6991297bc120d0383f0017fab72b8ca34fd4849ed6478dbaac67a33c3a70060209081526040808320815161022081018352815460ff8082161515835273ffffffffffffffffffffffffffffffffffffffff6101009283900481169684019690965260018401549483019490945260028301546060830152600383015480851615156080840152908104909316151560a08201526201000090920490921660c082015260048201805491929160e0840191906109b5906147d1565b80601f01602080910402602001604051908101604052809291908181526020018280546109e1906147d1565b8015610a2c5780601f10610a0357610100808354040283529160200191610a2c565b820191905f5260205f20905b815481529060010190602001808311610a0f57829003601f168201915b5050509183525050600582015463ffffffff16602082015260068201546040820152600782015460ff808216151560608401526101008083048216151560808501526201000083048216151560a0850152630100000090920416151560c0830152600883015460e0830152600983015473ffffffffffffffffffffffffffffffffffffffff1690820152600a8201805461012090920191610acc906147d1565b80601f0160208091040260200160405190810160405280929190818152602001828054610af8906147d1565b8015610b435780601f10610b1a57610100808354040283529160200191610b43565b820191905f5260205f20905b815481529060010190602001808311610b2657829003601f168201915b5050509190925250506040517f7280f24c00000000000000000000000000000000000000000000000000000000815273ffffffffffffffffffffffffffffffffffffffff87811660048301529293507f000000000000000000000000000000000000000000000000000000000000000090921691637280f24c9150602401602060405180830381865afa158015610bdc573d5f803e3d5ffd5b505050506040513d601f19601f82011682018060405250810190610c009190614822565b15610ce0576040517f7248024700000000000000000000000000000000000000000000000000000000815273ffffffffffffffffffffffffffffffffffffffff8581166004830152306024830152604482018890527f00000000000000000000000000000000000000000000000000000000000000001690637248024790606401602060405180830381865afa158015610c9c573d5f803e3d5ffd5b505050506040513d601f19601f82011682018060405250810190610cc09190614822565b610ccd575f915050610d96565b806101a00151610ce0575f915050610d96565b60c081015173ffffffffffffffffffffffffffffffffffffffff1615610d90578060c0015173ffffffffffffffffffffffffffffffffffffffff16634a41d1ac868360e001516040518363ffffffff1660e01b8152600401610d4392919061483d565b6020604051808303815f875af1158015610d5f573d5f803e3d5ffd5b505050506040513d601f19601f82011682018060405250810190610d839190614822565b610d90575f915050610d96565b60019150505b610dbf60017f9b779b17422d0df92223018b32b4d1fa46e071723d6817e2486d003becc55f0055565b949350505050565b610dcf612369565b610dd88261246f565b610de2828261247d565b5050565b5f610800827fc6c6991297bc120d0383f0017fab72b8ca34fd4849ed6478dbaac67a33c3a70254101590565b5f610e1b61259d565b507f360894a13ba1a3210667c828492db98dca3e2076cc3735a920a3ca505d382bbc90565b5f7fc6c6991297bc120d0383f0017fab72b8ca34fd4849ed6478dbaac67a33c3a7006001015f83604051602001610e779190614910565b6040516020818303038152906040528051906020012081526020019081526020015f20549050919050565b5f808080807fc6c6991297bc120d0383f0017fab72b8ca34fd4849ed6478dbaac67a33c3a7005f8781526020918252604090819020815161022081018352815460ff8082161515835273ffffffffffffffffffffffffffffffffffffffff6101009283900481169684019690965260018401549483019490945260028301546060830152600383015480851615156080840152908104909316151560a08201526201000090920490921660c082015260048201805491929160e084019190610f69906147d1565b80601f0160208091040260200160405190810160405280929190818152602001828054610f95906147d1565b8015610fe05780601f10610fb757610100808354040283529160200191610fe0565b820191905f5260205f20905b815481529060010190602001808311610fc357829003601f168201915b5050509183525050600582015463ffffffff16602082015260068201546040820152600782015460ff808216151560608401526101008083048216151560808501526201000083048216151560a0850152630100000090920416151560c0830152600883015460e0830152600983015473ffffffffffffffffffffffffffffffffffffffff1690820152600a8201805461012090920191611080906147d1565b80601f01602080910402602001604051908101604052809291908181526020018280546110ac906147d1565b80156110f75780601f106110ce576101008083540402835291602001916110f7565b820191905f5260205f20905b8154815290600101906020018083116110da57829003601f168201915b505050505081525050905080602001518161010001518260400151836101e001519450945094509450509193509193565b5f6111316122c2565b5f6111426040840160208501614342565b73ffffffffffffffffffffffffffffffffffffffff161415801561123a575073ffffffffffffffffffffffffffffffffffffffff7f00000000000000000000000000000000000000000000000000000000000000001663964678146111ad6040850160208601614342565b6040517fffffffff0000000000000000000000000000000000000000000000000000000060e084901b16815273ffffffffffffffffffffffffffffffffffffffff9091166004820152602401602060405180830381865afa158015611214573d5f803e3d5ffd5b505050506040513d601f19601f820116820180604052508101906112389190614822565b155b801561131a575073ffffffffffffffffffffffffffffffffffffffff7f0000000000000000000000000000000000000000000000000000000000000000166337143fb361128d6040850160208601614342565b6040517fffffffff0000000000000000000000000000000000000000000000000000000060e084901b16815273ffffffffffffffffffffffffffffffffffffffff9091166004820152602401602060405180830381865afa1580156112f4573d5f803e3d5ffd5b505050506040513d601f19601f820116820180604052508101906113189190614822565b155b15611351576040517ffe4338f100000000000000000000000000000000000000000000000000000000815260040160405180910390fd5b5f61136461020084016101e08501614342565b73ffffffffffffffffffffffffffffffffffffffff161415801561145e575073ffffffffffffffffffffffffffffffffffffffff7f00000000000000000000000000000000000000000000000000000000000000001663926e04fd6113d161020085016101e08601614342565b6040517fffffffff0000000000000000000000000000000000000000000000000000000060e084901b16815273ffffffffffffffffffffffffffffffffffffffff9091166004820152602401602060405180830381865afa158015611438573d5f803e3d5ffd5b505050506040513d601f19601f8201168201806040525081019061145c9190614822565b155b15611495576040517fbbec150e00000000000000000000000000000000000000000000000000000000815260040160405180910390fd5b5f6114a66040840160208501614342565b73ffffffffffffffffffffffffffffffffffffffff16141580156114f057505f6114d861020084016101e08501614342565b73ffffffffffffffffffffffffffffffffffffffff16145b15611527576040517f58d3449b00000000000000000000000000000000000000000000000000000000815260040160405180910390fd5b6115308261260c565b611539826129ab565b5f8260405160200161154b9190614910565b6040516020818303038152906040528051906020012090505f61158b7fc6c6991297bc120d0383f0017fab72b8ca34fd4849ed6478dbaac67a33c3a70090565b5f8381526001820160205260409020549350905082156115ac57505061164e565b806002015f81546115bc90614af9565b91829055505f81815260208390526040902090935084906115dd8282614cf1565b50505f8281526001820160209081526040918290208590559051309185917fc0cd215d0b608421b2e8018c8113a4b008ea0c6044fbc739df6dc79c3b4c42b89161162991899101614910565b60408051601f198184030181529082905261164391614150565b60405180910390a350505b61167760017f9b779b17422d0df92223018b32b4d1fa46e071723d6817e2486d003becc55f0055565b919050565b336116bb7ff3177357ab46d8af007ab3fdb9af81da189e1068fefdc0073dca88a2cab40a005473ffffffffffffffffffffffffffffffffffffffff1690565b73ffffffffffffffffffffffffffffffffffffffff168173ffffffffffffffffffffffffffffffffffffffff161461173c576040517f068ca9d800000000000000000000000000000000000000000000000000000000815273ffffffffffffffffffffffffffffffffffffffff821660048201526024015b60405180910390fd5b8173ffffffffffffffffffffffffffffffffffffffff163b5f036117a4576040517fc2f31e5e00000000000000000000000000000000000000000000000000000000815273ffffffffffffffffffffffffffffffffffffffff83166004820152602401611733565b610de282612ad9565b60607f96c2f019b095cfe7c4d1f26aa9d2741961fe73294777688374a3299707c2fb006001018054610834906147d1565b5f6117e98383612b71565b9392505050565b7ff3177357ab46d8af007ab3fdb9af81da189e1068fefdc0073dca88a2cab40a0080545f919074010000000000000000000000000000000000000000900460ff1661183b575f61185d565b7f8fb36037000000000000000000000000000000000000000000000000000000005b91505090565b7ff0c57e16840df040f15088dc2f81fe391c3923bec73e23a9662efc9c229c6a00805468010000000000000000810460ff16159067ffffffffffffffff165f811580156118ad5750825b90505f8267ffffffffffffffff1660011480156118c95750303b155b9050811580156118d7575080155b1561190e576040517ff92ee8a900000000000000000000000000000000000000000000000000000000815260040160405180910390fd5b84547fffffffffffffffffffffffffffffffffffffffffffffffff0000000000000000166001178555831561196f5784547fffffffffffffffffffffffffffffffffffffffffffffff00ffffffffffffffff16680100000000000000001785555b73ffffffffffffffffffffffffffffffffffffffff88166119bc576040517fcbca34a600000000000000000000000000000000000000000000000000000000815260040160405180910390fd5b6119c68787612ded565b6119cf88612e4c565b6119d7612e5d565b6119df612e6d565b8315611a405784547fffffffffffffffffffffffffffffffffffffffffffffff00ffffffffffffffff168555604051600181527fc7f505b2f371ae2175ee4913f4499e1f2633a7b5936321eed1cdaeb6115181d29060200160405180910390a15b5050505050505050565b5f6117e98383612e75565b611a618484848461301e565b50505050565b5f611a74858585856130f0565b95945050505050565b60408051610220810182525f8082526020820181905291810182905260608082018390526080820183905260a0820183905260c0820183905260e08201819052610100820183905261012082018390526101408201839052610160820183905261018082018390526101a082018390526101c082018390526101e08201929092526102008101919091527fc6c6991297bc120d0383f0017fab72b8ca34fd4849ed6478dbaac67a33c3a7005f8381526020918252604090819020815161022081018352815460ff8082161515835273ffffffffffffffffffffffffffffffffffffffff6101009283900481169684019690965260018401549483019490945260028301546060830152600383015480851615156080840152908104909316151560a08201526201000090920490921660c082015260048201805491929160e084019190611bc9906147d1565b80601f0160208091040260200160405190810160405280929190818152602001828054611bf5906147d1565b8015611c405780601f10611c1757610100808354040283529160200191611c40565b820191905f5260205f20905b815481529060010190602001808311611c2357829003601f168201915b5050509183525050600582015463ffffffff16602082015260068201546040820152600782015460ff808216151560608401526101008083048216151560808501526201000083048216151560a0850152630100000090920416151560c0830152600883015460e0830152600983015473ffffffffffffffffffffffffffffffffffffffff1690820152600a8201805461012090920191611ce0906147d1565b80601f0160208091040260200160405190810160405280929190818152602001828054611d0c906147d1565b8015611d575780601f10611d2e57610100808354040283529160200191611d57565b820191905f5260205f20905b815481529060010190602001808311611d3a57829003601f168201915b5050505050815250509050919050565b5f611d728484612e75565b611d7d57505f611dec565b5f5b83811015611de657611dd188888884818110611d9d57611d9d614fe9565b9050602002016020810190611db29190614342565b878785818110611dc457611dc4614fe9565b90506020020135866130f0565b611dde575f915050611dec565b600101611d7f565b50600190505b9695505050505050565b5f8181527fc6c6991297bc120d0383f0017fab72b8ca34fd4849ed6478dbaac67a33c3a70060205260409020600a01805460609190611e34906147d1565b80601f0160208091040260200160405190810160405280929190818152602001828054611e60906147d1565b8015611eab5780601f10611e8257610100808354040283529160200191611eab565b820191905f5260205f20905b815481529060010190602001808311611e8e57829003601f168201915b50505050509050919050565b60605f7fc6c6991297bc120d0383f0017fab72b8ca34fd4849ed6478dbaac67a33c3a7005f8481526020918252604090819020815161022081018352815460ff8082161515835273ffffffffffffffffffffffffffffffffffffffff6101009283900481169684019690965260018401549483019490945260028301546060830152600383015480851615156080840152908104909316151560a08201526201000090920490921660c082015260048201805491929160e084019190611f7c906147d1565b80601f0160208091040260200160405190810160405280929190818152602001828054611fa8906147d1565b8015611ff35780601f10611fca57610100808354040283529160200191611ff3565b820191905f5260205f20905b815481529060010190602001808311611fd657829003601f168201915b5050509183525050600582015463ffffffff16602082015260068201546040820152600782015460ff808216151560608401526101008083048216151560808501526201000083048216151560a0850152630100000090920416151560c0830152600883015460e0830152600983015473ffffffffffffffffffffffffffffffffffffffff1690820152600a8201805461012090920191612093906147d1565b80601f01602080910402602001604051908101604052809291908181526020018280546120bf906147d1565b801561210a5780601f106120e15761010080835404028352916020019161210a565b820191905f5260205f20905b8154815290600101906020018083116120ed57829003601f168201915b50505050508152505090507f000000000000000000000000000000000000000000000000000000000000000073ffffffffffffffffffffffffffffffffffffffff1663d42e5402826040518263ffffffff1660e01b815260040161216e9190614545565b5f60405180830381865afa158015612188573d5f803e3d5ffd5b505050506040513d5f823e601f3d908101601f191682016040526117e99190810190615016565b5f8281036121be57505f6117e9565b5f6121e185855f8181106121d4576121d4614fe9565b9050602002013584612b71565b905060015b84811015612223576122198261221488888581811061220757612207614fe9565b9050602002013587612b71565b613558565b91506001016121e6565b50949350505050565b5f7fffffffff0000000000000000000000000000000000000000000000000000000082167fc8e8e2ef00000000000000000000000000000000000000000000000000000000148061080057507f01ffc9a7000000000000000000000000000000000000000000000000000000007fffffffff00000000000000000000000000000000000000000000000000000000831614610800565b7f9b779b17422d0df92223018b32b4d1fa46e071723d6817e2486d003becc55f0080547ffffffffffffffffffffffffffffffffffffffffffffffffffffffffffffffffe0161233d576040517f3ee5aeb500000000000000000000000000000000000000000000000000000000815260040160405180910390fd5b60029055565b60017f9b779b17422d0df92223018b32b4d1fa46e071723d6817e2486d003becc55f0055565b3073ffffffffffffffffffffffffffffffffffffffff7f000000000000000000000000000000000000000000000000000000000000000016148061243657507f000000000000000000000000000000000000000000000000000000000000000073ffffffffffffffffffffffffffffffffffffffff1661241d7f360894a13ba1a3210667c828492db98dca3e2076cc3735a920a3ca505d382bbc5473ffffffffffffffffffffffffffffffffffffffff1690565b73ffffffffffffffffffffffffffffffffffffffff1614155b1561246d576040517fe07c8dba00000000000000000000000000000000000000000000000000000000815260040160405180910390fd5b565b61247a335f3661357a565b50565b8173ffffffffffffffffffffffffffffffffffffffff166352d1902d6040518163ffffffff1660e01b8152600401602060405180830381865afa9250505080156124e4575060408051601f3d908101601f191682019092526124e19181019061508b565b60015b612532576040517f4c9c8ce300000000000000000000000000000000000000000000000000000000815273ffffffffffffffffffffffffffffffffffffffff83166004820152602401611733565b7f360894a13ba1a3210667c828492db98dca3e2076cc3735a920a3ca505d382bbc811461258e576040517faa1d49a400000000000000000000000000000000000000000000000000000000815260048101829052602401611733565b6125988383613772565b505050565b3073ffffffffffffffffffffffffffffffffffffffff7f0000000000000000000000000000000000000000000000000000000000000000161461246d576040517fe07c8dba00000000000000000000000000000000000000000000000000000000815260040160405180910390fd5b61261c60a08201608083016150a2565b6127ee5761263060c0820160a083016150a2565b15612667576040517f9b8f435a00000000000000000000000000000000000000000000000000000000815260040160405180910390fd5b5f61267860e0830160c08401614342565b73ffffffffffffffffffffffffffffffffffffffff16146126c5576040517f468df12f00000000000000000000000000000000000000000000000000000000815260040160405180910390fd5b5f6126d8610120830161010084016150bd565b63ffffffff161115612716576040517ff42a3af600000000000000000000000000000000000000000000000000000000815260040160405180910390fd5b61012081013515612753576040517fcba03ca400000000000000000000000000000000000000000000000000000000815260040160405180910390fd5b6101c081013515612790576040517fe468a05d00000000000000000000000000000000000000000000000000000000815260040160405180910390fd5b5f6127a16040830160208401614342565b73ffffffffffffffffffffffffffffffffffffffff161461247a576040517f0d45b09400000000000000000000000000000000000000000000000000000000815260040160405180910390fd5b5f6127ff6040830160208401614342565b73ffffffffffffffffffffffffffffffffffffffff160361284c576040517f344d1f1d00000000000000000000000000000000000000000000000000000000815260040160405180910390fd5b5f61285d60e0830160c08401614342565b73ffffffffffffffffffffffffffffffffffffffff161461247a576128c87fe352692d000000000000000000000000000000000000000000000000000000006128ac60e0840160c08501614342565b73ffffffffffffffffffffffffffffffffffffffff16906137d4565b612927576128dc60e0820160c08301614342565b6040517fc82dba1800000000000000000000000000000000000000000000000000000000815273ffffffffffffffffffffffffffffffffffffffff9091166004820152602401611733565b61293760e0820160c08301614342565b73ffffffffffffffffffffffffffffffffffffffff1663a913b88161295f60e0840184614b48565b6040518363ffffffff1660e01b815260040161297c9291906150d8565b5f6040518083038186803b158015612992575f80fd5b505afa1580156129a4573d5f803e3d5ffd5b5050505050565b6129bd610160820161014083016150a2565b61247a576129d3610180820161016083016150a2565b15612a0a576040517f8f44bda500000000000000000000000000000000000000000000000000000000815260040160405180910390fd5b612a1c6101a0820161018083016150a2565b15612a53576040517f04e8712200000000000000000000000000000000000000000000000000000000815260040160405180910390fd5b612a656101c082016101a083016150a2565b15612a9c576040517f4d3cd15000000000000000000000000000000000000000000000000000000000815260040160405180910390fd5b6101c08101351561247a576040517f9dc7783200000000000000000000000000000000000000000000000000000000815260040160405180910390fd5b7ff3177357ab46d8af007ab3fdb9af81da189e1068fefdc0073dca88a2cab40a00805473ffffffffffffffffffffffffffffffffffffffff83167fffffffffffffffffffffffff00000000000000000000000000000000000000009091168117825560408051918252517f2f658b440c35314f52658ea8a740e05b284cdc84dc9ae01e891f21b8933e7cad9181900360200190a15050565b5f8281527fc6c6991297bc120d0383f0017fab72b8ca34fd4849ed6478dbaac67a33c3a70060209081526040808320815161022081018352815460ff8082161515835273ffffffffffffffffffffffffffffffffffffffff6101009283900481169684019690965260018401549483019490945260028301546060830152600383015480851615156080840152908104909316151560a08201526201000090920490921660c082015260048201805484939160e0840191612c31906147d1565b80601f0160208091040260200160405190810160405280929190818152602001828054612c5d906147d1565b8015612ca85780601f10612c7f57610100808354040283529160200191612ca8565b820191905f5260205f20905b815481529060010190602001808311612c8b57829003601f168201915b5050509183525050600582015463ffffffff16602082015260068201546040820152600782015460ff808216151560608401526101008083048216151560808501526201000083048216151560a0850152630100000090920416151560c0830152600883015460e0830152600983015473ffffffffffffffffffffffffffffffffffffffff1690820152600a8201805461012090920191612d48906147d1565b80601f0160208091040260200160405190810160405280929190818152602001828054612d74906147d1565b8015612dbf5780601f10612d9657610100808354040283529160200191612dbf565b820191905f5260205f20905b815481529060010190602001808311612da257829003601f168201915b505050505081525050905080606001515f03612dde575f915050610800565b6060810151610dbf90846150eb565b612df56137ef565b7f96c2f019b095cfe7c4d1f26aa9d2741961fe73294777688374a3299707c2fb00612e2083826150fe565b507f96c2f019b095cfe7c4d1f26aa9d2741961fe73294777688374a3299707c2fb0161259882826150fe565b612e546137ef565b61247a81613856565b612e656137ef565b61246d613867565b61246d6137ef565b5f6002821015612e8757506001610800565b7fc6c6991297bc120d0383f0017fab72b8ca34fd4849ed6478dbaac67a33c3a7005f818186868281612ebb57612ebb614fe9565b602090810292909201358352508101919091526040015f9081206003015460ff169150828187878281612ef057612ef0614fe9565b602090810292909201358352508101919091526040015f20600701546301000000900460ff16905060015b8581101561301157821515845f898985818110612f3a57612f3a614fe9565b602090810292909201358352508101919091526040015f206003015460ff16151514612f6c575f945050505050610800565b811515845f898985818110612f8357612f83614fe9565b9050602002013581526020019081526020015f2060070160039054906101000a900460ff16151514612fbb575f945050505050610800565b818015612ff85750868682818110612fd557612fd5614fe9565b9050602002013587875f818110612fee57612fee614fe9565b9050602002013514155b15613009575f945050505050610800565b600101612f1b565b5060019695505050505050565b836130288161386f565b5f7f7a71306cccadc52d66a0a466930bd537acf0ba900f21654919d58cece4cf95005f8681526020828152604080832073ffffffffffffffffffffffffffffffffffffffff8b8116808652918452828520908a16855283529281902080547fffffffffffffffffffffffffffffffffffffffffffffffffffffffffffffff00168815159081179091559051908152929350339288917f436fd071b1745141646f97213ec7dd4b24e735af0c49bd6d047186c995cc10cc910160405180910390a4505050505050565b5f8281527fc6c6991297bc120d0383f0017fab72b8ca34fd4849ed6478dbaac67a33c3a70060209081526040808320815161022081018352815460ff8082161515835273ffffffffffffffffffffffffffffffffffffffff6101009283900481169684019690965260018401549483019490945260028301546060830152600383015480851615156080840152908104909316151560a08201526201000090920490921660c082015260048201805484939160e08401916131b0906147d1565b80601f01602080910402602001604051908101604052809291908181526020018280546131dc906147d1565b80156132275780601f106131fe57610100808354040283529160200191613227565b820191905f5260205f20905b81548152906001019060200180831161320a57829003601f168201915b5050509183525050600582015463ffffffff16602082015260068201546040820152600782015460ff808216151560608401526101008083048216151560808501526201000083048216151560a0850152630100000090920416151560c0830152600883015460e0830152600983015473ffffffffffffffffffffffffffffffffffffffff1690820152600a82018054610120909201916132c7906147d1565b80601f01602080910402602001604051908101604052809291908181526020018280546132f3906147d1565b801561333e5780601f106133155761010080835404028352916020019161333e565b820191905f5260205f20905b81548152906001019060200180831161332157829003601f168201915b505050505081525050905080610140015161335c575f915050610dbf565b6040517f7280f24c00000000000000000000000000000000000000000000000000000000815273ffffffffffffffffffffffffffffffffffffffff86811660048301527f00000000000000000000000000000000000000000000000000000000000000001690637280f24c90602401602060405180830381865afa1580156133e6573d5f803e3d5ffd5b505050506040513d601f19601f8201168201806040525081019061340a9190614822565b1561342257806101a00151613422575f915050610dbf565b806101800151801561348e57505f8481527f7a71306cccadc52d66a0a466930bd537acf0ba900f21654919d58cece4cf95006020908152604080832073ffffffffffffffffffffffffffffffffffffffff808a168552908352818420908a16845290915290205460ff16155b1561349c575f915050610dbf565b60c081015173ffffffffffffffffffffffffffffffffffffffff161561354c578060c0015173ffffffffffffffffffffffffffffffffffffffff16634a41d1ac848360e001516040518363ffffffff1660e01b81526004016134ff92919061483d565b6020604051808303815f875af115801561351b573d5f803e3d5ffd5b505050506040513d601f19601f8201168201806040525081019061353f9190614822565b61354c575f915050610dbf565b50600195945050505050565b81811580159061356f57508082108061356f575080155b156108005750919050565b7ff3177357ab46d8af007ab3fdb9af81da189e1068fefdc0073dca88a2cab40a005f806135fb6135de7ff3177357ab46d8af007ab3fdb9af81da189e1068fefdc0073dca88a2cab40a005473ffffffffffffffffffffffffffffffffffffffff1690565b87306135ed60045f8a8c6151f7565b6135f69161521e565b6139c3565b915091508161376a5763ffffffff8116156137205782547fffffffffffffffffffffff00ffffffffffffffffffffffffffffffffffffffff167401000000000000000000000000000000000000000017835561368b7ff3177357ab46d8af007ab3fdb9af81da189e1068fefdc0073dca88a2cab40a005473ffffffffffffffffffffffffffffffffffffffff1690565b73ffffffffffffffffffffffffffffffffffffffff166394c7d7ee8787876040518463ffffffff1660e01b81526004016136c793929190615284565b5f604051808303815f87803b1580156136de575f80fd5b505af11580156136f0573d5f803e3d5ffd5b505084547fffffffffffffffffffffff00ffffffffffffffffffffffffffffffffffffffff1685555061376a9050565b6040517f068ca9d800000000000000000000000000000000000000000000000000000000815273ffffffffffffffffffffffffffffffffffffffff87166004820152602401611733565b505050505050565b61377b82613b1e565b60405173ffffffffffffffffffffffffffffffffffffffff8316907fbc7cd75a20ee27fd9adebab32041f755214dbc6bffa90cc0225b39da2e5c2d3b905f90a28051156137cc576125988282613bec565b610de2613c62565b5f6137de83613c9a565b80156117e957506117e98383613cfd565b7ff0c57e16840df040f15088dc2f81fe391c3923bec73e23a9662efc9c229c6a005468010000000000000000900460ff1661246d576040517fd7e6bcf800000000000000000000000000000000000000000000000000000000815260040160405180910390fd5b61385e6137ef565b61247a81612ad9565b6123436137ef565b6138af73ffffffffffffffffffffffffffffffffffffffff7f00000000000000000000000000000000000000000000000000000000000000001682613dc9565b6138fd576040517fd64edf9000000000000000000000000000000000000000000000000000000000815273ffffffffffffffffffffffffffffffffffffffff82166004820152602401611733565b3373ffffffffffffffffffffffffffffffffffffffff82161461247a576040517f7dfd0ddb00000000000000000000000000000000000000000000000000000000815273ffffffffffffffffffffffffffffffffffffffff82811660048301523360248301523060448301525f357fffffffff000000000000000000000000000000000000000000000000000000001660648301527f00000000000000000000000000000000000000000000000000000000000000001690637dfd0ddb9060840161297c565b60405173ffffffffffffffffffffffffffffffffffffffff848116602483015283811660448301527fffffffff00000000000000000000000000000000000000000000000000000000831660648301525f9182918291829189169060840160408051601f198184030181529181526020820180517bffffffffffffffffffffffffffffffffffffffffffffffffffffffff167fb70096130000000000000000000000000000000000000000000000000000000017905251613a8491906152b3565b5f60405180830381855afa9150503d805f8114613abc576040519150601f19603f3d011682016040523d82523d5f602084013e613ac1565b606091505b50915091508115613b13576040815110613af35780806020019051810190613ae991906152c9565b9094509250613b13565b6020815110613b135780806020019051810190613b109190614822565b93505b505094509492505050565b8073ffffffffffffffffffffffffffffffffffffffff163b5f03613b86576040517f4c9c8ce300000000000000000000000000000000000000000000000000000000815273ffffffffffffffffffffffffffffffffffffffff82166004820152602401611733565b7f360894a13ba1a3210667c828492db98dca3e2076cc3735a920a3ca505d382bbc80547fffffffffffffffffffffffff00000000000000000000000000000000000000001673ffffffffffffffffffffffffffffffffffffffff92909216919091179055565b60605f808473ffffffffffffffffffffffffffffffffffffffff1684604051613c1591906152b3565b5f60405180830381855af49150503d805f8114613c4d576040519150601f19603f3d011682016040523d82523d5f602084013e613c52565b606091505b5091509150611a74858383614012565b341561246d576040517fb398979f00000000000000000000000000000000000000000000000000000000815260040160405180910390fd5b5f613cc5827f01ffc9a700000000000000000000000000000000000000000000000000000000613cfd565b80156108005750613cf6827fffffffff00000000000000000000000000000000000000000000000000000000613cfd565b1592915050565b6040517fffffffff00000000000000000000000000000000000000000000000000000000821660248201525f90819060440160408051601f19818403018152919052602080820180517bffffffffffffffffffffffffffffffffffffffffffffffffffffffff167f01ffc9a70000000000000000000000000000000000000000000000000000000017815282519293505f9283928392909183918a617530fa92503d91505f519050828015613db3575060208210155b8015613dbe57505f81115b979650505050505050565b5f73ffffffffffffffffffffffffffffffffffffffff8216613dec57505f610800565b8173ffffffffffffffffffffffffffffffffffffffff163b5f03613e1157505f610800565b613e1a82613c9a565b613e2557505f610800565b613e4f827f6faff5f1000000000000000000000000000000000000000000000000000000006137d4565b613e5a57505f610800565b613e84827febe268b3000000000000000000000000000000000000000000000000000000006137d4565b613e8f57505f610800565b613eb9827f83c8dc89000000000000000000000000000000000000000000000000000000006137d4565b613ec457505f610800565b5f805f8473ffffffffffffffffffffffffffffffffffffffff1663fc0c546a6040518163ffffffff1660e01b8152600401606060405180830381865afa158015613f10573d5f803e3d5ffd5b505050506040513d601f19601f82011682018060405250810190613f349190615301565b6040517f87020f950000000000000000000000000000000000000000000000000000000081526004810184905273ffffffffffffffffffffffffffffffffffffffff8084166024830152604482018390529396509194509250908716906387020f9590606401602060405180830381865afa158015613fb5573d5f803e3d5ffd5b505050506040513d601f19601f82011682018060405250810190613fd99190615339565b73ffffffffffffffffffffffffffffffffffffffff168573ffffffffffffffffffffffffffffffffffffffff1614935050505092915050565b60608261402757614022826140a1565b6117e9565b815115801561404b575073ffffffffffffffffffffffffffffffffffffffff84163b155b1561409a576040517f9996b31500000000000000000000000000000000000000000000000000000000815273ffffffffffffffffffffffffffffffffffffffff85166004820152602401611733565b50806117e9565b8051156140b15780518082602001fd5b6040517fd6bda27500000000000000000000000000000000000000000000000000000000815260040160405180910390fd5b5f602082840312156140f3575f80fd5b81357fffffffff00000000000000000000000000000000000000000000000000000000811681146117e9575f80fd5b5f81518084528060208401602086015e5f602082860101526020601f19601f83011685010191505092915050565b602081525f6117e96020830184614122565b73ffffffffffffffffffffffffffffffffffffffff8116811461247a575f80fd5b803561167781614162565b5f805f80608085870312156141a1575f80fd5b8435935060208501356141b381614162565b925060408501356141c381614162565b9396929550929360600135925050565b7f4e487b71000000000000000000000000000000000000000000000000000000005f52604160045260245ffd5b604051601f8201601f1916810167ffffffffffffffff81118282101715614229576142296141d3565b604052919050565b5f67ffffffffffffffff82111561424a5761424a6141d3565b50601f01601f191660200190565b5f61426a61426584614231565b614200565b905082815283838301111561427d575f80fd5b828260208301375f602084830101529392505050565b5f80604083850312156142a4575f80fd5b82356142af81614162565b9150602083013567ffffffffffffffff8111156142ca575f80fd5b8301601f810185136142da575f80fd5b6142e985823560208401614258565b9150509250929050565b5f60208284031215614303575f80fd5b5035919050565b5f6020828403121561431a575f80fd5b813567ffffffffffffffff811115614330575f80fd5b820161022081850312156117e9575f80fd5b5f60208284031215614352575f80fd5b81356117e981614162565b5f806040838503121561436e575f80fd5b50508035926020909101359150565b5f82601f83011261438c575f80fd5b6117e983833560208501614258565b5f805f606084860312156143ad575f80fd5b83356143b881614162565b9250602084013567ffffffffffffffff8111156143d3575f80fd5b6143df8682870161437d565b925050604084013567ffffffffffffffff8111156143fb575f80fd5b6144078682870161437d565b9150509250925092565b5f8083601f840112614421575f80fd5b50813567ffffffffffffffff811115614438575f80fd5b6020830191508360208260051b8501011115614452575f80fd5b9250929050565b5f806020838503121561446a575f80fd5b823567ffffffffffffffff811115614480575f80fd5b61448c85828601614411565b90969095509350505050565b801515811461247a575f80fd5b803561167781614498565b5f805f80608085870312156144c3575f80fd5b84356144ce81614162565b93506020850135925060408501356144e581614162565b915060608501356144f581614498565b939692955090935050565b5f805f8060808587031215614513575f80fd5b843561451e81614162565b9350602085013561452e81614162565b92506040850135915060608501356144f581614162565b6020815261455860208201835115159052565b5f6020830151614580604084018273ffffffffffffffffffffffffffffffffffffffff169052565b50604083015160608301526060830151608083015260808301516145a860a084018215159052565b5060a083015180151560c08401525060c083015173ffffffffffffffffffffffffffffffffffffffff811660e08401525060e08301516102206101008401526145f5610240840182614122565b905061010084015161461061012085018263ffffffff169052565b5061012084015161014084015261014084015161463261016085018215159052565b50610160840151801515610180850152506101808401518015156101a0850152506101a08401518015156101c0850152506101c08401516101e08401526101e084015161469861020085018273ffffffffffffffffffffffffffffffffffffffff169052565b50610200840151601f1984830301610220850152611a748282614122565b5f805f805f80608087890312156146cb575f80fd5b86356146d681614162565b9550602087013567ffffffffffffffff8111156146f1575f80fd5b6146fd89828a01614411565b909650945050604087013567ffffffffffffffff81111561471c575f80fd5b61472889828a01614411565b909450925050606087013561473c81614162565b809150509295509295509295565b5f805f6060848603121561475c575f80fd5b833561476781614162565b925060208401359150604084013561477e81614162565b809150509250925092565b5f805f6040848603121561479b575f80fd5b833567ffffffffffffffff8111156147b1575f80fd5b6147bd86828701614411565b909790965060209590950135949350505050565b600181811c908216806147e557607f821691505b60208210810361481c577f4e487b71000000000000000000000000000000000000000000000000000000005f52602260045260245ffd5b50919050565b5f60208284031215614832575f80fd5b81516117e981614498565b73ffffffffffffffffffffffffffffffffffffffff83168152604060208201525f610dbf6040830184614122565b5f8083357fffffffffffffffffffffffffffffffffffffffffffffffffffffffffffffffe184360301811261489e575f80fd5b830160208101925035905067ffffffffffffffff8111156148bd575f80fd5b803603821315614452575f80fd5b81835281816020850137505f602082840101525f6020601f19601f840116840101905092915050565b63ffffffff8116811461247a575f80fd5b8035611677816148f4565b6020815261492a60208201614924846144a5565b15159052565b5f61493760208401614183565b73ffffffffffffffffffffffffffffffffffffffff811660408401525060408301356060838101919091528301356080808401919091526149799084016144a5565b80151560a08401525061498e60a084016144a5565b80151560c0840152506149a360c08401614183565b73ffffffffffffffffffffffffffffffffffffffff811660e0840152506149cd60e084018461486b565b6102206101008501526149e5610240850182846148cb565b9150506149f56101008501614905565b63ffffffff81166101208501525061012084013561014084810191909152614a1e9085016144a5565b80151561016085015250614a3561016085016144a5565b80151561018085015250614a4c61018085016144a5565b8015156101a085015250614a636101a085016144a5565b8015156101c0850152506101c08401356101e084810191909152614a88908501614183565b73ffffffffffffffffffffffffffffffffffffffff811661020085015250614ab461020085018561486b565b601f1985840301610220860152611dec8382846148cb565b7f4e487b71000000000000000000000000000000000000000000000000000000005f52601160045260245ffd5b5f7fffffffffffffffffffffffffffffffffffffffffffffffffffffffffffffffff8203614b2957614b29614acc565b5060010190565b5f813561080081614498565b5f813561080081614162565b5f8083357fffffffffffffffffffffffffffffffffffffffffffffffffffffffffffffffe1843603018112614b7b575f80fd5b83018035915067ffffffffffffffff821115614b95575f80fd5b602001915036819003821315614452575f80fd5b601f82111561259857805f5260205f20601f840160051c81016020851015614bce5750805b601f840160051c820191505b818110156129a4575f8155600101614bda565b67ffffffffffffffff831115614c0557614c056141d3565b614c1983614c1383546147d1565b83614ba9565b5f601f841160018114614c69575f8515614c335750838201355b7fffffffffffffffffffffffffffffffffffffffffffffffffffffffffffffffff600387901b1c1916600186901b1783556129a4565b5f83815260208120601f198716915b82811015614c985786850135825560209485019460019092019101614c78565b5086821015614cd3577fffffffffffffffffffffffffffffffffffffffffffffffffffffffffffffffff60f88860031b161c19848701351681555b505060018560011b0183555050505050565b5f8135610800816148f4565b614d2f614cfd83614b30565b825490151560ff167fffffffffffffffffffffffffffffffffffffffffffffffffffffffffffffff0091909116178255565b614d84614d3e60208401614b3c565b82547fffffffffffffffffffffff0000000000000000000000000000000000000000ff1660089190911b74ffffffffffffffffffffffffffffffffffffffff0016178255565b604082013560018201556060820135600282015560038101614dab614cfd60808501614b30565b614df1614dba60a08501614b30565b8280547fffffffffffffffffffffffffffffffffffffffffffffffffffffffffffff00ff1691151560081b61ff0016919091179055565b614e47614e0060c08501614b3c565b82547fffffffffffffffffffff0000000000000000000000000000000000000000ffff1660109190911b75ffffffffffffffffffffffffffffffffffffffff000016178255565b50614e5560e0830183614b48565b614e63818360048601614bed565b5050614eab614e756101008401614ce5565b6005830163ffffffff82167fffffffffffffffffffffffffffffffffffffffffffffffffffffffff000000008254161781555050565b610120820135600682015560078101614eca614cfd6101408501614b30565b614eda614dba6101608501614b30565b614f22614eea6101808501614b30565b8280547fffffffffffffffffffffffffffffffffffffffffffffffffffffffffff00ffff1691151560101b62ff000016919091179055565b614f6b614f326101a08501614b30565b8280547fffffffffffffffffffffffffffffffffffffffffffffffffffffffff00ffffff1691151560181b63ff00000016919091179055565b506101c08201356008820155614fcd614f876101e08401614b3c565b6009830173ffffffffffffffffffffffffffffffffffffffff82167fffffffffffffffffffffffff00000000000000000000000000000000000000008254161781555050565b614fdb610200830183614b48565b611a618183600a8601614bed565b7f4e487b71000000000000000000000000000000000000000000000000000000005f52603260045260245ffd5b5f60208284031215615026575f80fd5b815167ffffffffffffffff81111561503c575f80fd5b8201601f8101841361504c575f80fd5b805161505a61426582614231565b81815285602083850101111561506e575f80fd5b8160208401602083015e5f91810160200191909152949350505050565b5f6020828403121561509b575f80fd5b5051919050565b5f602082840312156150b2575f80fd5b81356117e981614498565b5f602082840312156150cd575f80fd5b81356117e9816148f4565b602081525f610dbf6020830184866148cb565b8082018082111561080057610800614acc565b815167ffffffffffffffff811115615118576151186141d3565b61512c8161512684546147d1565b84614ba9565b6020601f82116001811461517d575f83156151475750848201515b7fffffffffffffffffffffffffffffffffffffffffffffffffffffffffffffffff600385901b1c1916600184901b1784556129a4565b5f84815260208120601f198516915b828110156151ac578785015182556020948501946001909201910161518c565b50848210156151e857868401517fffffffffffffffffffffffffffffffffffffffffffffffffffffffffffffffff600387901b60f8161c191681555b50505050600190811b01905550565b5f8085851115615205575f80fd5b83861115615211575f80fd5b5050820193919092039150565b80357fffffffff00000000000000000000000000000000000000000000000000000000811690600484101561527d577fffffffff00000000000000000000000000000000000000000000000000000000808560040360031b1b82161691505b5092915050565b73ffffffffffffffffffffffffffffffffffffffff84168152604060208201525f611a746040830184866148cb565b5f82518060208501845e5f920191825250919050565b5f80604083850312156152da575f80fd5b82516152e581614498565b60208401519092506152f6816148f4565b809150509250929050565b5f805f60608486031215615313575f80fd5b8351602085015190935061532681614162565b6040949094015192959394509192915050565b5f60208284031215615349575f80fd5b81516117e98161416256fea2646970667358221220beb7acf279ea6e07a61c453b07efdf251bd1de747a402d353a8592e7331bd34864736f6c634300081a00336080604052348015600e575f80fd5b506113068061001c5f395ff3fe608060405234801561000f575f80fd5b5060043610610029575f3560e01c8063d42e54021461002d575b5f80fd5b61004061003b3660046109e7565b610056565b60405161004d9190610b72565b60405180910390f35b60605f82606001515f14610076576100718360600151610132565b6100ad565b6040518060400160405280600581526020017f6e657665720000000000000000000000000000000000000000000000000000008152505b6100d1846101e0015173ffffffffffffffffffffffffffffffffffffffff166101ee565b8461020001516100e086610217565b6100e98761037e565b6040516020016100fd959493929190610bdc565b604080517fffffffffffffffffffffffffffffffffffffffffffffffffffffffffffffffe08184030181529190529392505050565b60605f61013e83610592565b60010190505f8167ffffffffffffffff81111561015d5761015d610897565b6040519080825280601f01601f191660200182016040528015610187576020820181803683370190505b5090508181016020015b7fffffffffffffffffffffffffffffffffffffffffffffffffffffffffffffffff017f3031323334353637383961626364656600000000000000000000000000000000600a86061a8153600a850494508461019157509392505050565b606061021173ffffffffffffffffffffffffffffffffffffffff83166014610673565b92915050565b6060816080015161025d576040518060400160405280600581526020017f66616c7365000000000000000000000000000000000000000000000000000000815250610294565b6040518060400160405280600481526020017f74727565000000000000000000000000000000000000000000000000000000008152505b8260a001516102d8576040518060400160405280600581526020017f66616c736500000000000000000000000000000000000000000000000000000081525061030f565b6040518060400160405280600481526020017f74727565000000000000000000000000000000000000000000000000000000008152505b61032384610100015163ffffffff16610132565b610331856101200151610132565b6103548660c0015173ffffffffffffffffffffffffffffffffffffffff166101ee565b604051602001610368959493929190610d4e565b6040516020818303038152906040529050919050565b60608161014001516103c5576040518060400160405280600581526020017f66616c73650000000000000000000000000000000000000000000000000000008152506103fc565b6040518060400160405280600481526020017f74727565000000000000000000000000000000000000000000000000000000008152505b826101600151610441576040518060400160405280600581526020017f66616c7365000000000000000000000000000000000000000000000000000000815250610478565b6040518060400160405280600481526020017f74727565000000000000000000000000000000000000000000000000000000008152505b610486846101c00151610132565b8461018001516104cb576040518060400160405280600581526020017f66616c7365000000000000000000000000000000000000000000000000000000815250610502565b6040518060400160405280600481526020017f74727565000000000000000000000000000000000000000000000000000000008152505b856101a00151610547576040518060400160405280600581526020017f66616c736500000000000000000000000000000000000000000000000000000081525061057e565b6040518060400160405280600481526020017f74727565000000000000000000000000000000000000000000000000000000008152505b604051602001610368959493929190610fd6565b5f807a184f03e93ff9f4daa797ed6e38ed64bf6a1f01000000000000000083106105da577a184f03e93ff9f4daa797ed6e38ed64bf6a1f010000000000000000830492506040015b6d04ee2d6d415b85acef81000000008310610606576d04ee2d6d415b85acef8100000000830492506020015b662386f26fc10000831061062457662386f26fc10000830492506010015b6305f5e100831061063c576305f5e100830492506008015b612710831061065057612710830492506004015b60648310610662576064830492506002015b600a83106102115760010192915050565b6060825f610682846002611245565b61068d90600261125c565b67ffffffffffffffff8111156106a5576106a5610897565b6040519080825280601f01601f1916602001820160405280156106cf576020820181803683370190505b5090507f3000000000000000000000000000000000000000000000000000000000000000815f815181106107055761070561126f565b60200101907effffffffffffffffffffffffffffffffffffffffffffffffffffffffffffff191690815f1a9053507f7800000000000000000000000000000000000000000000000000000000000000816001815181106107675761076761126f565b60200101907effffffffffffffffffffffffffffffffffffffffffffffffffffffffffffff191690815f1a9053505f6107a1856002611245565b6107ac90600161125c565b90505b6001811115610848577f303132333435363738396162636465660000000000000000000000000000000083600f16601081106107ed576107ed61126f565b1a60f81b8282815181106108035761080361126f565b60200101907effffffffffffffffffffffffffffffffffffffffffffffffffffffffffffff191690815f1a90535060049290921c916108418161129c565b90506107af565b50811561088f576040517fe22e27eb000000000000000000000000000000000000000000000000000000008152600481018690526024810185905260440160405180910390fd5b949350505050565b7f4e487b71000000000000000000000000000000000000000000000000000000005f52604160045260245ffd5b604051610220810167ffffffffffffffff811182821017156108e8576108e8610897565b60405290565b803580151581146108fd575f80fd5b919050565b803573ffffffffffffffffffffffffffffffffffffffff811681146108fd575f80fd5b5f82601f830112610934575f80fd5b8135602083015f8067ffffffffffffffff84111561095457610954610897565b506040517fffffffffffffffffffffffffffffffffffffffffffffffffffffffffffffffe0601f85018116603f0116810181811067ffffffffffffffff821117156109a1576109a1610897565b6040528381529050808284018710156109b8575f80fd5b838360208301375f602085830101528094505050505092915050565b803563ffffffff811681146108fd575f80fd5b5f602082840312156109f7575f80fd5b813567ffffffffffffffff811115610a0d575f80fd5b82016102208185031215610a1f575f80fd5b610a276108c4565b610a30826108ee565b8152610a3e60208301610902565b60208201526040828101359082015260608083013590820152610a63608083016108ee565b6080820152610a7460a083016108ee565b60a0820152610a8560c08301610902565b60c082015260e082013567ffffffffffffffff811115610aa3575f80fd5b610aaf86828501610925565b60e083015250610ac261010083016109d4565b6101008201526101208281013590820152610ae061014083016108ee565b610140820152610af361016083016108ee565b610160820152610b0661018083016108ee565b610180820152610b196101a083016108ee565b6101a08201526101c08281013590820152610b376101e08301610902565b6101e082015261020082013567ffffffffffffffff811115610b57575f80fd5b610b6386828501610925565b61020083015250949350505050565b602081525f82518060208401528060208501604085015e5f6040828501015260407fffffffffffffffffffffffffffffffffffffffffffffffffffffffffffffffe0601f83011684010191505092915050565b5f81518060208401855e5f93019283525090919050565b7f7b2274726169745f74797065223a202245787069726174696f6e222c2022766181527f6c7565223a20220000000000000000000000000000000000000000000000000060208201525f610c336027830188610bc5565b7f227d2c000000000000000000000000000000000000000000000000000000000081527f7b2274726169745f74797065223a202243757272656e6379222c202276616c7560038201527f65223a20220000000000000000000000000000000000000000000000000000006023820152610caf6028820188610bc5565b90507f227d2c000000000000000000000000000000000000000000000000000000000081527f7b2274726169745f74797065223a2022555249222c202276616c7565223a20226003820152610d076023820187610bc5565b90507f227d2c00000000000000000000000000000000000000000000000000000000008152610d42610d3c6003830187610bc5565b85610bc5565b98975050505050505050565b7f7b2274726169745f74797065223a2022436f6d6d65726369616c20557365222c81527f202276616c7565223a202200000000000000000000000000000000000000000060208201525f610da5602b830188610bc5565b7f227d2c000000000000000000000000000000000000000000000000000000000081527f7b2274726169745f74797065223a2022436f6d6d65726369616c20417474726960038201527f627574696f6e222c202276616c7565223a2022000000000000000000000000006023820152610e216036820188610bc5565b90507f227d2c000000000000000000000000000000000000000000000000000000000081527f7b2274726169745f74797065223a2022436f6d6d65726369616c20526576656e60038201527f7565205368617265222c20226d61785f76616c7565223a20313030302c20227660238201527f616c7565223a20000000000000000000000000000000000000000000000000006043820152610d42610fad610fa7610f58610eda610f52610f03610eda604a89018e610bc5565b7f7d2c000000000000000000000000000000000000000000000000000000000000815260020190565b7f7b2274726169745f74797065223a2022436f6d6d65726369616c20526576656e81527f7565204365696c696e67222c202276616c7565223a2000000000000000000000602082015260360190565b8a610bc5565b7f7b2274726169745f74797065223a2022436f6d6d65726369616c697a6572204381527f6865636b222c202276616c7565223a2022000000000000000000000000000000602082015260310190565b86610bc5565b7f227d2c0000000000000000000000000000000000000000000000000000000000815260030190565b7f7b2274726169745f74797065223a2022446572697661746976657320416c6c6f81527f776564222c202276616c7565223a20220000000000000000000000000000000060208201525f61102d6030830188610bc5565b7f227d2c000000000000000000000000000000000000000000000000000000000081527f7b2274726169745f74797065223a20224465726976617469766573204174747260038201527f69627574696f6e222c202276616c7565223a202200000000000000000000000060238201526110a96037820188610bc5565b90507f227d2c000000000000000000000000000000000000000000000000000000000081527f7b2274726169745f74797065223a20224465726976617469766573205265766560038201527f6e7565204365696c696e67222c202276616c7565223a200000000000000000006023820152611127603a820187610bc5565b7f7d2c000000000000000000000000000000000000000000000000000000000000815290506002810161120b610fad6112056111b6826111b0867f7b2274726169745f74797065223a20224465726976617469766573204170707281527f6f76616c222c202276616c7565223a2022000000000000000000000000000000602082015260310190565b8b610bc5565b7f7b2274726169745f74797065223a20224465726976617469766573205265636981527f70726f63616c222c202276616c7565223a202200000000000000000000000000602082015260330190565b87610bc5565b9998505050505050505050565b7f4e487b71000000000000000000000000000000000000000000000000000000005f52601160045260245ffd5b808202811582820484141761021157610211611218565b8082018082111561021157610211611218565b7f4e487b71000000000000000000000000000000000000000000000000000000005f52603260045260245ffd5b5f816112aa576112aa611218565b507fffffffffffffffffffffffffffffffffffffffffffffffffffffffffffffffff019056fea2646970667358221220b90796a4465c8816b48d1a84ba4830130c3d0fef30798fa1527d2aaf2ca4270864736f6c634300081a0033","linkReferences":{}},"methodIdentifiers":{"ACCESS_CONTROLLER()":"1b8b1073","IP_ACCOUNT_REGISTRY()":"702acd85","LICENSE_REGISTRY()":"f0ebdc83","ROYALTY_MODULE()":"73b7ce28","TERMS_RENDERER()":"669be618","UPGRADE_INTERFACE_VERSION()":"ad3cb1cc","authority()":"bf7e214f","exists(uint256)":"4f558e79","getEarlierExpireTime(uint256[],uint256)":"f6a76f7c","getExpireTime(uint256,uint256)":"8dc5398b","getLicenseTerms(uint256)":"d1908a9c","getLicenseTermsId((bool,address,uint256,uint256,bool,bool,address,bytes,uint32,uint256,bool,bool,bool,bool,uint256,address,string))":"602f6b9b","getLicenseTermsURI(uint256)":"d944a9bf","getMetadataURI()":"86a92af7","getRoyaltyPolicy(uint256)":"60c2b0f8","initialize(address,string,string)":"90657147","isConsumingScheduledOp()":"8fb36037","isDerivativeApproved(address,uint256,address)":"f47fe117","isLicenseTransferable(uint256)":"c32b6fcc","name()":"06fdde03","proxiableUUID()":"52d1902d","registerLicenseTerms((bool,address,uint256,uint256,bool,bool,address,bytes,uint32,uint256,bool,bool,bool,bool,uint256,address,string))":"6e1b8d90","setApproval(address,uint256,address,bool)":"b6e70dc6","setAuthority(address)":"7a9e5e4b","supportsInterface(bytes4)":"01ffc9a7","toJson(uint256)":"ef647765","totalRegisteredLicenseTerms()":"225b88f1","upgradeToAndCall(address,bytes)":"4f1ef286","verifyCompatibleLicenses(uint256[])":"9577ac09","verifyMintLicenseToken(uint256,address,address,uint256)":"34494a5c","verifyRegisterDerivative(address,address,uint256,address)":"bd24bb52","verifyRegisterDerivativeForAllParents(address,address[],uint256[],address)":"d7031a8d"},"id":120}