{"abi":[{"type":"constructor","inputs":[{"name":"name","type":"string","internalType":"string"},{"name":"symbol","type":"string","internalType":"string"}],"stateMutability":"nonpayable"},{"type":"function","name":"approve","inputs":[{"name":"to","type":"address","internalType":"address"},{"name":"tokenId","type":"uint256","internalType":"uint256"}],"outputs":[],"stateMutability":"nonpayable"},{"type":"function","name":"balanceOf","inputs":[{"name":"owner","type":"address","internalType":"address"}],"outputs":[{"name":"","type":"uint256","internalType":"uint256"}],"stateMutability":"view"},{"type":"function","name":"getApproved","inputs":[{"name":"tokenId","type":"uint256","internalType":"uint256"}],"outputs":[{"name":"","type":"address","internalType":"address"}],"stateMutability":"view"},{"type":"function","name":"getPrompt","inputs":[{"name":"tokenId","type":"uint256","internalType":"uint256"}],"outputs":[{"name":"","type":"string","internalType":"string"}],"stateMutability":"view"},{"type":"function","name":"isApprovedForAll","inputs":[{"name":"owner","type":"address","internalType":"address"},{"name":"operator","type":"address","internalType":"address"}],"outputs":[{"name":"","type":"bool","internalType":"bool"}],"stateMutability":"view"},{"type":"function","name":"mint","inputs":[{"name":"to","type":"address","internalType":"address"},{"name":"prompt","type":"string","internalType":"string"}],"outputs":[{"name":"","type":"uint256","internalType":"uint256"}],"stateMutability":"nonpayable"},{"type":"function","name":"name","inputs":[],"outputs":[{"name":"","type":"string","internalType":"string"}],"stateMutability":"view"},{"type":"function","name":"nextTokenId","inputs":[],"outputs":[{"name":"","type":"uint256","internalType":"uint256"}],"stateMutability":"view"},{"type":"function","name":"owner","inputs":[],"outputs":[{"name":"","type":"address","internalType":"address"}],"stateMutability":"view"},{"type":"function","name":"ownerOf","inputs":[{"name":"tokenId","type":"uint256","internalType":"uint256"}],"outputs":[{"name":"","type":"address","internalType":"address"}],"stateMutability":"view"},{"type":"function","name":"renounceOwnership","inputs":[],"outputs":[],"stateMutability":"nonpayable"},{"type":"function","name":"safeTransferFrom","inputs":[{"name":"from","type":"address","internalType":"address"},{"name":"to","type":"address","internalType":"address"},{"name":"tokenId","type":"uint256","internalType":"uint256"}],"outputs":[],"stateMutability":"nonpayable"},{"type":"function","name":"safeTransferFrom","inputs":[{"name":"from","type":"address","internalType":"address"},{"name":"to","type":"address","internalType":"address"},{"name":"tokenId","type":"uint256","internalType":"uint256"},{"name":"data","type":"bytes","internalType":"bytes"}],"outputs":[],"stateMutability":"nonpayable"},{"type":"function","name":"setApprovalForAll","inputs":[{"name":"operator","type":"address","internalType":"address"},{"name":"approved","type":"bool","internalType":"bool"}],"outputs":[],"stateMutability":"nonpayable"},{"type":"function","name":"supportsInterface","inputs":[{"name":"interfaceId","type":"bytes4","internalType":"bytes4"}],"outputs":[{"name":"","type":"bool","internalType":"bool"}],"stateMutability":"view"},{"type":"function","name":"symbol","inputs":[],"outputs":[{"name":"","type":"string","internalType":"string"}],"stateMutability":"view"},{"type":"function","name":"tokenPrompts","inputs":[{"name":"","type":"uint256","internalType":"uint256"}],"outputs":[{"name":"","type":"string","internalType":"string"}],"stateMutability":"view"},{"type":"function","name":"tokenURI","inputs":[{"name":"tokenId","type":"uint256","internalType":"uint256"}],"outputs":[{"name":"","type":"string","internalType":"string"}],"stateMutability":"view"},{"type":"function","name":"transferFrom","inputs":[{"name":"from","type":"address","internalType":"address"},{"name":"to","type":"address","internalType":"address"},{"name":"tokenId","type":"uint256","internalType":"uint256"}],"outputs":[],"stateMutability":"nonpayable"},{"type":"function","name":"transferOwnership","inputs":[{"name":"newOwner","type":"address","internalType":"address"}],"outputs":[],"stateMutability":"nonpayable"},{"type":"event","name":"Approval","inputs":[{"name":"owner","type":"address","indexed":true,"internalType":"address"},{"name":"approved","type":"address","indexed":true,"internalType":"address"},{"name":"tokenId","type":"uint256","indexed":true,"internalType":"uint256"}],"anonymous":false},{"type":"event","name":"ApprovalForAll","inputs":[{"name":"owner","type":"address","indexed":true,"internalType":"address"},{"name":"operator","type":"address","indexed":true,"internalType":"address"},{"name":"approved","type":"bool","indexed":false,"internalType":"bool"}],"anonymous":false},{"type":"event","name":"OwnershipTransferred","inputs":[{"name":"previousOwner","type":"address","indexed":true,"internalType":"address"},{"name":"newOwner","type":"address","indexed":true,"internalType":"address"}],"anonymous":false},{"type":"event","name":"Transfer","inputs":[{"name":"from","type":"address","indexed":true,"internalType":"address"},{"name":"to","type":"address","indexed":true,"internalType":"address"},{"name":"tokenId","type":"uint256","indexed":true,"internalType":"uint256"}],"anonymous":false},{"type":"error","name":"ERC721IncorrectOwner","inputs":[{"name":"sender","type":"address","internalType":"address"},{"name":"tokenId","type":"uint256","internalType":"uint256"},{"name":"owner","type":"address","internalType":"address"}]},{"type":"error","name":"ERC721InsufficientApproval","inputs":[{"name":"operator","type":"address","internalType":"address"},{"name":"tokenId","type":"uint256","internalType":"uint256"}]},{"type":"error","name":"ERC721InvalidApprover","inputs":[{"name":"approver","type":"address","internalType":"address"}]},{"type":"error","name":"ERC721InvalidOperator","inputs":[{"name":"operator","type":"address","internalType":"address"}]},{"type":"error","name":"ERC721InvalidOwner","inputs":[{"name":"owner","type":"address","internalType":"address"}]},{"type":"error","name":"ERC721InvalidReceiver","inputs":[{"name":"receiver","type":"address","internalType":"address"}]},{"type":"error","name":"ERC721InvalidSender","inputs":[{"name":"sender","type":"address","internalType":"address"}]},{"type":"error","name":"ERC721NonexistentToken","inputs":[{"name":"tokenId","type":"uint256","internalType":"uint256"}]},{"type":"error","name":"OwnableInvalidOwner","inputs":[{"name":"owner","type":"address","internalType":"address"}]},{"type":"error","name":"OwnableUnauthorizedAccount","inputs":[{"name":"account","type":"address","internalType":"address"}]}],"bytecode":{"object":"0x608060405234801561000f575f80fd5b50604051611db8380380611db883398101604081905261002e91610178565b3382825f61003c8382610261565b5060016100498282610261565b5050506001600160a01b03811661007957604051631e4fbdf760e01b81525f600482015260240160405180910390fd5b6100828161008a565b50505061031b565b600680546001600160a01b038381166001600160a01b0319831681179093556040519116919082907f8be0079c531659141344cd1fd0a4f28419497f9722a3daafe3b4186f6b6457e0905f90a35050565b634e487b7160e01b5f52604160045260245ffd5b5f82601f8301126100fe575f80fd5b81516001600160401b03811115610117576101176100db565b604051601f8201601f19908116603f011681016001600160401b0381118282101715610145576101456100db565b60405281815283820160200185101561015c575f80fd5b8160208501602083015e5f918101602001919091529392505050565b5f8060408385031215610189575f80fd5b82516001600160401b0381111561019e575f80fd5b6101aa858286016100ef565b602085015190935090506001600160401b038111156101c7575f80fd5b6101d3858286016100ef565b9150509250929050565b600181811c908216806101f157607f821691505b60208210810361020f57634e487b7160e01b5f52602260045260245ffd5b50919050565b601f82111561025c57805f5260205f20601f840160051c8101602085101561023a5750805b601f840160051c820191505b81811015610259575f8155600101610246565b50505b505050565b81516001600160401b0381111561027a5761027a6100db565b61028e8161028884546101dd565b84610215565b6020601f8211600181146102c0575f83156102a95750848201515b5f19600385901b1c1916600184901b178455610259565b5f84815260208120601f198516915b828110156102ef57878501518255602094850194600190920191016102cf565b508482101561030c57868401515f19600387901b60f8161c191681555b50505050600190811b01905550565b611a90806103285f395ff3fe608060405234801561000f575f80fd5b5060043610610163575f3560e01c806375794a3c116100c7578063c87b56dd1161007d578063d0def52111610063578063d0def521146102e1578063e985e9c5146102f4578063f2fde38b1461033c575f80fd5b8063c87b56dd146102bb578063cf73cdd2146102ce575f80fd5b806395d89b41116100ad57806395d89b411461028d578063a22cb46514610295578063b88d4fde146102a8575f80fd5b806375794a3c146102665780638da5cb5b1461026f575f80fd5b806342842e0e1161011c5780636352211e116101025780636352211e1461022a57806370a082311461023d578063715018a61461025e575f80fd5b806342842e0e1461020457806357349a9614610217575f80fd5b8063081812fc1161014c578063081812fc146101a4578063095ea7b3146101dc57806323b872dd146101f1575f80fd5b806301ffc9a71461016757806306fdde031461018f575b5f80fd5b61017a61017536600461147e565b61034f565b60405190151581526020015b60405180910390f35b610197610433565b60405161018691906114e5565b6101b76101b23660046114f7565b6104c2565b60405173ffffffffffffffffffffffffffffffffffffffff9091168152602001610186565b6101ef6101ea366004611536565b6104f6565b005b6101ef6101ff36600461155e565b610505565b6101ef61021236600461155e565b6105f9565b6101976102253660046114f7565b610618565b6101b76102383660046114f7565b6106af565b61025061024b366004611598565b6106b9565b604051908152602001610186565b6101ef610731565b61025060075481565b60065473ffffffffffffffffffffffffffffffffffffffff166101b7565b610197610744565b6101ef6102a33660046115b1565b610753565b6101ef6102b63660046116ac565b61075e565b6101976102c93660046114f7565b610776565b6101976102dc3660046114f7565b6107e7565b6102506102ef366004611723565b610886565b61017a610302366004611781565b73ffffffffffffffffffffffffffffffffffffffff9182165f90815260056020908152604080832093909416825291909152205460ff1690565b6101ef61034a366004611598565b6108cb565b5f7fffffffff0000000000000000000000000000000000000000000000000000000082167f80ac58cd0000000000000000000000000000000000000000000000000000000014806103e157507fffffffff0000000000000000000000000000000000000000000000000000000082167f5b5e139f00000000000000000000000000000000000000000000000000000000145b8061042d57507f01ffc9a7000000000000000000000000000000000000000000000000000000007fffffffff000000000000000000000000000000000000000000000000000000008316145b92915050565b60605f8054610441906117b2565b80601f016020809104026020016040519081016040528092919081815260200182805461046d906117b2565b80156104b85780601f1061048f576101008083540402835291602001916104b8565b820191905f5260205f20905b81548152906001019060200180831161049b57829003601f168201915b5050505050905090565b5f6104cc8261092e565b505f8281526004602052604090205473ffffffffffffffffffffffffffffffffffffffff1661042d565b61050182823361098c565b5050565b73ffffffffffffffffffffffffffffffffffffffff8216610559576040517f64a0ae920000000000000000000000000000000000000000000000000000000081525f60048201526024015b60405180910390fd5b5f610565838333610999565b90508373ffffffffffffffffffffffffffffffffffffffff168173ffffffffffffffffffffffffffffffffffffffff16146105f3576040517f64283d7b00000000000000000000000000000000000000000000000000000000815273ffffffffffffffffffffffffffffffffffffffff80861660048301526024820184905282166044820152606401610550565b50505050565b61061383838360405180602001604052805f81525061075e565b505050565b60086020525f908152604090208054610630906117b2565b80601f016020809104026020016040519081016040528092919081815260200182805461065c906117b2565b80156106a75780601f1061067e576101008083540402835291602001916106a7565b820191905f5260205f20905b81548152906001019060200180831161068a57829003601f168201915b505050505081565b5f61042d8261092e565b5f73ffffffffffffffffffffffffffffffffffffffff8216610709576040517f89c62b640000000000000000000000000000000000000000000000000000000081525f6004820152602401610550565b5073ffffffffffffffffffffffffffffffffffffffff165f9081526003602052604090205490565b610739610b10565b6107425f610b63565b565b606060018054610441906117b2565b610501338383610bd9565b610769848484610505565b6105f33385858585610cd5565b60606107818261092e565b505f61079760408051602081019091525f815290565b90505f8151116107b55760405180602001604052805f8152506107e0565b806107bf84610ecb565b6040516020016107d092919061181a565b6040516020818303038152906040525b9392505050565b5f818152600860205260409020805460609190610803906117b2565b80601f016020809104026020016040519081016040528092919081815260200182805461082f906117b2565b801561087a5780601f106108515761010080835404028352916020019161087a565b820191905f5260205f20905b81548152906001019060200180831161085d57829003601f168201915b50505050509050919050565b5f61088f610b10565b600780545f918261089f8361182e565b909155506007545f9081526008602052604090209091506108c084826118ce565b506107e08482610f87565b6108d3610b10565b73ffffffffffffffffffffffffffffffffffffffff8116610922576040517f1e4fbdf70000000000000000000000000000000000000000000000000000000081525f6004820152602401610550565b61092b81610b63565b50565b5f8181526002602052604081205473ffffffffffffffffffffffffffffffffffffffff168061042d576040517f7e27328900000000000000000000000000000000000000000000000000000000815260048101849052602401610550565b6106138383836001611034565b5f8281526002602052604081205473ffffffffffffffffffffffffffffffffffffffff908116908316156109d2576109d28184866111fc565b73ffffffffffffffffffffffffffffffffffffffff811615610a45576109fa5f855f80611034565b73ffffffffffffffffffffffffffffffffffffffff81165f90815260036020526040902080547fffffffffffffffffffffffffffffffffffffffffffffffffffffffffffffffff0190555b73ffffffffffffffffffffffffffffffffffffffff851615610a8d5773ffffffffffffffffffffffffffffffffffffffff85165f908152600360205260409020805460010190555b5f8481526002602052604080822080547fffffffffffffffffffffffff00000000000000000000000000000000000000001673ffffffffffffffffffffffffffffffffffffffff89811691821790925591518793918516917fddf252ad1be2c89b69c2b068fc378daa952ba7f163c4a11628f55a4df523b3ef91a4949350505050565b60065473ffffffffffffffffffffffffffffffffffffffff163314610742576040517f118cdaa7000000000000000000000000000000000000000000000000000000008152336004820152602401610550565b6006805473ffffffffffffffffffffffffffffffffffffffff8381167fffffffffffffffffffffffff0000000000000000000000000000000000000000831681179093556040519116919082907f8be0079c531659141344cd1fd0a4f28419497f9722a3daafe3b4186f6b6457e0905f90a35050565b73ffffffffffffffffffffffffffffffffffffffff8216610c3e576040517f5b08ba1800000000000000000000000000000000000000000000000000000000815273ffffffffffffffffffffffffffffffffffffffff83166004820152602401610550565b73ffffffffffffffffffffffffffffffffffffffff8381165f8181526005602090815260408083209487168084529482529182902080547fffffffffffffffffffffffffffffffffffffffffffffffffffffffffffffff001686151590811790915591519182527f17307eab39ab6107e8899845ad3d59bd9653f200f220920489ca2b5937696c31910160405180910390a3505050565b73ffffffffffffffffffffffffffffffffffffffff83163b15610ec4576040517f150b7a0200000000000000000000000000000000000000000000000000000000815273ffffffffffffffffffffffffffffffffffffffff84169063150b7a0290610d4a9088908890879087906004016119e5565b6020604051808303815f875af1925050508015610da2575060408051601f3d9081017fffffffffffffffffffffffffffffffffffffffffffffffffffffffffffffffe0168201909252610d9f91810190611a3f565b60015b610e2f573d808015610dcf576040519150601f19603f3d011682016040523d82523d5f602084013e610dd4565b606091505b5080515f03610e27576040517f64a0ae9200000000000000000000000000000000000000000000000000000000815273ffffffffffffffffffffffffffffffffffffffff85166004820152602401610550565b805181602001fd5b7fffffffff0000000000000000000000000000000000000000000000000000000081167f150b7a020000000000000000000000000000000000000000000000000000000014610ec2576040517f64a0ae9200000000000000000000000000000000000000000000000000000000815273ffffffffffffffffffffffffffffffffffffffff85166004820152602401610550565b505b5050505050565b60605f610ed7836112ac565b60010190505f8167ffffffffffffffff811115610ef657610ef66115ea565b6040519080825280601f01601f191660200182016040528015610f20576020820181803683370190505b5090508181016020015b7fffffffffffffffffffffffffffffffffffffffffffffffffffffffffffffffff017f3031323334353637383961626364656600000000000000000000000000000000600a86061a8153600a8504945084610f2a57509392505050565b73ffffffffffffffffffffffffffffffffffffffff8216610fd6576040517f64a0ae920000000000000000000000000000000000000000000000000000000081525f6004820152602401610550565b5f610fe283835f610999565b905073ffffffffffffffffffffffffffffffffffffffff811615610613576040517f73c6ac6e0000000000000000000000000000000000000000000000000000000081525f6004820152602401610550565b8080611055575073ffffffffffffffffffffffffffffffffffffffff821615155b156111a8575f6110648461092e565b905073ffffffffffffffffffffffffffffffffffffffff8316158015906110b757508273ffffffffffffffffffffffffffffffffffffffff168173ffffffffffffffffffffffffffffffffffffffff1614155b80156110f5575073ffffffffffffffffffffffffffffffffffffffff8082165f9081526005602090815260408083209387168352929052205460ff16155b15611144576040517fa9fbf51f00000000000000000000000000000000000000000000000000000000815273ffffffffffffffffffffffffffffffffffffffff84166004820152602401610550565b81156111a657838573ffffffffffffffffffffffffffffffffffffffff168273ffffffffffffffffffffffffffffffffffffffff167f8c5be1e5ebec7d5bd14f71427d1e84f3dd0314c0f7b2291e5b200ac8c7c3b92560405160405180910390a45b505b50505f90815260046020526040902080547fffffffffffffffffffffffff00000000000000000000000000000000000000001673ffffffffffffffffffffffffffffffffffffffff92909216919091179055565b61120783838361138d565b6106135773ffffffffffffffffffffffffffffffffffffffff831661125b576040517f7e27328900000000000000000000000000000000000000000000000000000000815260048101829052602401610550565b6040517f177e802f00000000000000000000000000000000000000000000000000000000815273ffffffffffffffffffffffffffffffffffffffff8316600482015260248101829052604401610550565b5f807a184f03e93ff9f4daa797ed6e38ed64bf6a1f01000000000000000083106112f4577a184f03e93ff9f4daa797ed6e38ed64bf6a1f010000000000000000830492506040015b6d04ee2d6d415b85acef81000000008310611320576d04ee2d6d415b85acef8100000000830492506020015b662386f26fc10000831061133e57662386f26fc10000830492506010015b6305f5e1008310611356576305f5e100830492506008015b612710831061136a57612710830492506004015b6064831061137c576064830492506002015b600a831061042d5760010192915050565b5f73ffffffffffffffffffffffffffffffffffffffff83161580159061144957508273ffffffffffffffffffffffffffffffffffffffff168473ffffffffffffffffffffffffffffffffffffffff161480611419575073ffffffffffffffffffffffffffffffffffffffff8085165f9081526005602090815260408083209387168352929052205460ff165b8061144957505f8281526004602052604090205473ffffffffffffffffffffffffffffffffffffffff8481169116145b949350505050565b7fffffffff000000000000000000000000000000000000000000000000000000008116811461092b575f80fd5b5f6020828403121561148e575f80fd5b81356107e081611451565b5f81518084528060208401602086015e5f6020828601015260207fffffffffffffffffffffffffffffffffffffffffffffffffffffffffffffffe0601f83011685010191505092915050565b602081525f6107e06020830184611499565b5f60208284031215611507575f80fd5b5035919050565b803573ffffffffffffffffffffffffffffffffffffffff81168114611531575f80fd5b919050565b5f8060408385031215611547575f80fd5b6115508361150e565b946020939093013593505050565b5f805f60608486031215611570575f80fd5b6115798461150e565b92506115876020850161150e565b929592945050506040919091013590565b5f602082840312156115a8575f80fd5b6107e08261150e565b5f80604083850312156115c2575f80fd5b6115cb8361150e565b9150602083013580151581146115df575f80fd5b809150509250929050565b7f4e487b71000000000000000000000000000000000000000000000000000000005f52604160045260245ffd5b5f8067ffffffffffffffff841115611631576116316115ea565b506040517fffffffffffffffffffffffffffffffffffffffffffffffffffffffffffffffe0601f85018116603f0116810181811067ffffffffffffffff8211171561167e5761167e6115ea565b604052838152905080828401851015611695575f80fd5b838360208301375f60208583010152509392505050565b5f805f80608085870312156116bf575f80fd5b6116c88561150e565b93506116d66020860161150e565b925060408501359150606085013567ffffffffffffffff8111156116f8575f80fd5b8501601f81018713611708575f80fd5b61171787823560208401611617565b91505092959194509250565b5f8060408385031215611734575f80fd5b61173d8361150e565b9150602083013567ffffffffffffffff811115611758575f80fd5b8301601f81018513611768575f80fd5b61177785823560208401611617565b9150509250929050565b5f8060408385031215611792575f80fd5b61179b8361150e565b91506117a96020840161150e565b90509250929050565b600181811c908216806117c657607f821691505b6020821081036117fd577f4e487b71000000000000000000000000000000000000000000000000000000005f52602260045260245ffd5b50919050565b5f81518060208401855e5f93019283525090919050565b5f6114496118288386611803565b84611803565b5f7fffffffffffffffffffffffffffffffffffffffffffffffffffffffffffffffff8203611883577f4e487b71000000000000000000000000000000000000000000000000000000005f52601160045260245ffd5b5060010190565b601f82111561061357805f5260205f20601f840160051c810160208510156118af5750805b601f840160051c820191505b81811015610ec4575f81556001016118bb565b815167ffffffffffffffff8111156118e8576118e86115ea565b6118fc816118f684546117b2565b8461188a565b6020601f82116001811461194d575f83156119175750848201515b7fffffffffffffffffffffffffffffffffffffffffffffffffffffffffffffffff600385901b1c1916600184901b178455610ec4565b5f848152602081207fffffffffffffffffffffffffffffffffffffffffffffffffffffffffffffffe08516915b8281101561199a578785015182556020948501946001909201910161197a565b50848210156119d657868401517fffffffffffffffffffffffffffffffffffffffffffffffffffffffffffffffff600387901b60f8161c191681555b50505050600190811b01905550565b73ffffffffffffffffffffffffffffffffffffffff8516815273ffffffffffffffffffffffffffffffffffffffff84166020820152826040820152608060608201525f611a356080830184611499565b9695505050505050565b5f60208284031215611a4f575f80fd5b81516107e08161145156fea2646970667358221220b82747e3a414a1777d1b9b4eb4feb3ac158b3f1ab44430dee499648d74a16cad64736f6c634300081a0033","linkReferences":{}},"methodIdentifiers":{"approve(address,uint256)":"095ea7b3","balanceOf(address)":"70a08231","getApproved(uint256)":"081812fc","getPrompt(uint256)":"cf73cdd2","isApprovedForAll(address,address)":"e985e9c5","mint(address,string)":"d0def521","name()":"06fdde03","nextTokenId()":"75794a3c","owner()":"8da5cb5b","ownerOf(uint256)":"6352211e","renounceOwnership()":"715018a6","safeTransferFrom(address,address,uint256)":"42842e0e","safeTransferFrom(address,address,uint256,bytes)":"b88d4fde","setApprovalForAll(address,bool)":"a22cb465","supportsInterface(bytes4)":"01ffc9a7","symbol()":"95d89b41","tokenPrompts(uint256)":"57349a96","tokenURI(uint256)":"c87b56dd","transferFrom(address,address,uint256)":"23b872dd","transferOwnership(address)":"f2fde38b"},"id":4}