{"abi":[{"type":"constructor","inputs":[{"name":"_tokenAddress","type":"address","internalType":"address"}],"stateMutability":"nonpayable"},{"type":"function","name":"alreadyTransfer","inputs":[{"name":"","type":"uint256","internalType":"uint256"}],"outputs":[{"name":"","type":"bool","internalType":"bool"}],"stateMutability":"view"},{"type":"function","name":"checkSwap","inputs":[{"name":"_transferId","type":"uint256","internalType":"uint256"},{"name":"_amount","type":"uint256","internalType":"uint256"}],"outputs":[{"name":"","type":"bool","internalType":"bool"}],"stateMutability":"view"},{"type":"function","name":"createTransfer","inputs":[{"name":"transferID","type":"uint256","internalType":"uint256"},{"name":"_amount","type":"uint256","internalType":"uint256"},{"name":"_minDesiredAmount","type":"uint256","internalType":"uint256"},{"name":"_expiration","type":"uint256","internalType":"uint256"}],"outputs":[],"stateMutability":"nonpayable"},{"type":"function","name":"fulfillTransfer","inputs":[{"name":"_transferId","type":"uint256","internalType":"uint256"},{"name":"minAmount","type":"uint256","internalType":"uint256"},{"name":"_to","type":"address","internalType":"address"}],"outputs":[],"stateMutability":"nonpayable"},{"type":"function","name":"getData","inputs":[{"name":"_transferId","type":"uint256","internalType":"uint256"}],"outputs":[{"name":"","type":"tuple","internalType":"struct Escrow.Transfer","components":[{"name":"sender","type":"address","internalType":"address"},{"name":"amount","type":"uint256","internalType":"uint256"},{"name":"minDesiredAmount","type":"uint256","internalType":"uint256"},{"name":"expiration","type":"uint256","internalType":"uint256"},{"name":"fulfilled","type":"bool","internalType":"bool"}]}],"stateMutability":"view"},{"type":"function","name":"isTransferActive","inputs":[{"name":"_transferId","type":"uint256","internalType":"uint256"}],"outputs":[{"name":"","type":"bool","internalType":"bool"}],"stateMutability":"view"},{"type":"function","name":"owner","inputs":[],"outputs":[{"name":"","type":"address","internalType":"address"}],"stateMutability":"view"},{"type":"function","name":"renounceOwnership","inputs":[],"outputs":[],"stateMutability":"nonpayable"},{"type":"function","name":"targetTransfer","inputs":[{"name":"transferID","type":"uint256","internalType":"uint256"},{"name":"_amount","type":"uint256","internalType":"uint256"},{"name":"_expiration","type":"uint256","internalType":"uint256"}],"outputs":[],"stateMutability":"nonpayable"},{"type":"function","name":"token","inputs":[],"outputs":[{"name":"","type":"address","internalType":"contract IERC20"}],"stateMutability":"view"},{"type":"function","name":"transferCount","inputs":[],"outputs":[{"name":"","type":"uint256","internalType":"uint256"}],"stateMutability":"view"},{"type":"function","name":"transferOwnership","inputs":[{"name":"newOwner","type":"address","internalType":"address"}],"outputs":[],"stateMutability":"nonpayable"},{"type":"function","name":"transfers","inputs":[{"name":"","type":"uint256","internalType":"uint256"}],"outputs":[{"name":"sender","type":"address","internalType":"address"},{"name":"amount","type":"uint256","internalType":"uint256"},{"name":"minDesiredAmount","type":"uint256","internalType":"uint256"},{"name":"expiration","type":"uint256","internalType":"uint256"},{"name":"fulfilled","type":"bool","internalType":"bool"}],"stateMutability":"view"},{"type":"event","name":"OwnershipTransferred","inputs":[{"name":"previousOwner","type":"address","indexed":true,"internalType":"address"},{"name":"newOwner","type":"address","indexed":true,"internalType":"address"}],"anonymous":false},{"type":"event","name":"TransferCreated","inputs":[{"name":"transferId","type":"uint256","indexed":false,"internalType":"uint256"},{"name":"sender","type":"address","indexed":true,"internalType":"address"},{"name":"amount","type":"uint256","indexed":false,"internalType":"uint256"},{"name":"expiration","type":"uint256","indexed":false,"internalType":"uint256"}],"anonymous":false},{"type":"event","name":"TransferFulfilled","inputs":[{"name":"transferId","type":"uint256","indexed":false,"internalType":"uint256"},{"name":"sender","type":"address","indexed":true,"internalType":"address"}],"anonymous":false},{"type":"error","name":"OwnableInvalidOwner","inputs":[{"name":"owner","type":"address","internalType":"address"}]},{"type":"error","name":"OwnableUnauthorizedAccount","inputs":[{"name":"account","type":"address","internalType":"address"}]}],"bytecode":{"object":"0x608060405234801561000f575f80fd5b5060405161133838038061133883398101604081905261002e916100d1565b338061005357604051631e4fbdf760e01b81525f600482015260240160405180910390fd5b61005c81610082565b50600180546001600160a01b0319166001600160a01b03929092169190911790556100fe565b5f80546001600160a01b038381166001600160a01b0319831681178455604051919092169283917f8be0079c531659141344cd1fd0a4f28419497f9722a3daafe3b4186f6b6457e09190a35050565b5f602082840312156100e1575f80fd5b81516001600160a01b03811681146100f7575f80fd5b9392505050565b61122d8061010b5f395ff3fe608060405234801561000f575f80fd5b50600436106100da575f3560e01c80639377d71111610088578063d031b02011610063578063d031b020146102a2578063e3d33fc9146102c4578063f2fde38b146102db578063fc0c546a146102ee575f80fd5b80639377d711146101e4578063aca634dd1461027c578063b542c0fa1461028f575f80fd5b806371777dd5116100b857806371777dd51461017057806383f17150146101935780638da5cb5b146101a6575f80fd5b80630178fe3f146100de5780633faa5aad14610153578063715018a614610168575b5f80fd5b6100f16100ec366004611073565b61030e565b60405161014a91905f60a08201905073ffffffffffffffffffffffffffffffffffffffff835116825260208301516020830152604083015160408301526060830151606083015260808301511515608083015292915050565b60405180910390f35b61016661016136600461108a565b6103b9565b005b6101666106f4565b61018361017e3660046110b9565b610707565b604051901515815260200161014a565b6101666101a13660046110d9565b61085a565b5f5473ffffffffffffffffffffffffffffffffffffffff165b60405173ffffffffffffffffffffffffffffffffffffffff909116815260200161014a565b61023b6101f2366004611073565b600460208190525f91825260409091208054600182015460028301546003840154939094015473ffffffffffffffffffffffffffffffffffffffff909216939092909160ff1685565b6040805173ffffffffffffffffffffffffffffffffffffffff909616865260208601949094529284019190915260608301521515608082015260a00161014a565b61018361028a366004611073565b610b72565b61016661029d36600461112a565b610c59565b6101836102b0366004611073565b60036020525f908152604090205460ff1681565b6102cd60025481565b60405190815260200161014a565b6101666102e936600461115c565b610f4a565b6001546101bf9073ffffffffffffffffffffffffffffffffffffffff1681565b6103536040518060a001604052805f73ffffffffffffffffffffffffffffffffffffffff1681526020015f81526020015f81526020015f81526020015f151581525090565b505f90815260046020818152604092839020835160a081018552815473ffffffffffffffffffffffffffffffffffffffff1681526001820154928101929092526002810154938201939093526003830154606082015291015460ff161515608082015290565b428111610427576040517f08c379a000000000000000000000000000000000000000000000000000000000815260206004820181905260248201527f45787069726174696f6e206d75737420626520696e207468652066757475726560448201526064015b60405180910390fd5b6001546040517f23b872dd0000000000000000000000000000000000000000000000000000000081523360048201523060248201526044810185905273ffffffffffffffffffffffffffffffffffffffff909116906323b872dd906064016020604051808303815f875af11580156104a1573d5f803e3d5ffd5b505050506040513d601f19601f820116820180604052508101906104c5919061117c565b61052b576040517f08c379a000000000000000000000000000000000000000000000000000000000815260206004820152601560248201527f546f6b656e207472616e73666572206661696c65640000000000000000000000604482015260640161041e565b5f8481526003602052604090205460ff16156105a3576040517f08c379a000000000000000000000000000000000000000000000000000000000815260206004820152601760248201527f5472616e7366657220616c726561647920657869737473000000000000000000604482015260640161041e565b5f84815260036020818152604080842080547fffffffffffffffffffffffffffffffffffffffffffffffffffffffffffffff009081166001908117909255825160a081018452338082528186018b81528286018b8152606084018b8152608085018b81528f8c526004998a90529a8890209451855473ffffffffffffffffffffffffffffffffffffffff919091167fffffffffffffffffffffffff00000000000000000000000000000000000000009091161785559151958401959095559351600280840191909155935196820196909655955195909301805495151595909316949094179091559154915190917f0657dd0c155a7829fcb444ed581b8b7d20c207686dad52aa09ec5000e2fe0f90916106d29190879086909283526020830191909152604082015260600190565b60405180910390a260028054905f6106e98361119b565b919050555050505050565b6106fc610fad565b6107055f610fff565b565b5f826002548110610774576040517f08c379a000000000000000000000000000000000000000000000000000000000815260206004820152601760248201527f5472616e7366657220646f6573206e6f74206578697374000000000000000000604482015260640161041e565b5f84815260046020526040902060030154849042106107ef576040517f08c379a000000000000000000000000000000000000000000000000000000000815260206004820152601460248201527f5472616e73666572206861732065787069726564000000000000000000000000604482015260640161041e565b5050505f91825260046020818152604093849020845160a081018652815473ffffffffffffffffffffffffffffffffffffffff1681526001820154928101929092526002810154948201859052600381015460608301529091015460ff161515608090910152101590565b4281116108c3576040517f08c379a000000000000000000000000000000000000000000000000000000000815260206004820181905260248201527f45787069726174696f6e206d75737420626520696e2074686520667574757265604482015260640161041e565b6001546040517f23b872dd0000000000000000000000000000000000000000000000000000000081523360048201523060248201526044810184905273ffffffffffffffffffffffffffffffffffffffff909116906323b872dd906064016020604051808303815f875af115801561093d573d5f803e3d5ffd5b505050506040513d601f19601f82011682018060405250810190610961919061117c565b6109c7576040517f08c379a000000000000000000000000000000000000000000000000000000000815260206004820152601560248201527f546f6b656e207472616e73666572206661696c65640000000000000000000000604482015260640161041e565b5f8381526003602052604090205460ff1615610a3f576040517f08c379a000000000000000000000000000000000000000000000000000000000815260206004820152601760248201527f5472616e7366657220616c726561647920657869737473000000000000000000604482015260640161041e565b5f838152600360208181526040808420805460017fffffffffffffffffffffffffffffffffffffffffffffffffffffffffffffff009182168117909255825160a081018452338082528186018a815282860189815260608085018c8152608086018c81528f8d526004808c529c8a9020965187547fffffffffffffffffffffffff00000000000000000000000000000000000000001673ffffffffffffffffffffffffffffffffffffffff90911617875593519786019790975590516002808601919091559551988401989098555191909701805490921690151517905554815190815291820186905281018490527f0657dd0c155a7829fcb444ed581b8b7d20c207686dad52aa09ec5000e2fe0f90910160405180910390a260028054905f610b688361119b565b9190505550505050565b5f816002548110610bdf576040517f08c379a000000000000000000000000000000000000000000000000000000000815260206004820152601760248201527f5472616e7366657220646f6573206e6f74206578697374000000000000000000604482015260640161041e565b5f83815260046020818152604092839020835160a081018552815473ffffffffffffffffffffffffffffffffffffffff1681526001820154928101929092526002810154938201939093526003830154606082015291015460ff1615801560808301819052610c515750806060015142105b949350505050565b826002548110610cc5576040517f08c379a000000000000000000000000000000000000000000000000000000000815260206004820152601760248201527f5472616e7366657220646f6573206e6f74206578697374000000000000000000604482015260640161041e565b5f8481526004602052604090206003015484904210610d40576040517f08c379a000000000000000000000000000000000000000000000000000000000815260206004820152601460248201527f5472616e73666572206861732065787069726564000000000000000000000000604482015260640161041e565b5f8581526004602081905260409091209081015460ff1615610dbe576040517f08c379a000000000000000000000000000000000000000000000000000000000815260206004820152601a60248201527f5472616e7366657220616c72656164792066756c66696c6c6564000000000000604482015260640161041e565b600481810180547fffffffffffffffffffffffffffffffffffffffffffffffffffffffffffffff001660019081179091558054908301546040517fa9059cbb00000000000000000000000000000000000000000000000000000000815273ffffffffffffffffffffffffffffffffffffffff88811694820194909452602481019190915291169063a9059cbb906044016020604051808303815f875af1158015610e6a573d5f803e3d5ffd5b505050506040513d601f19601f82011682018060405250810190610e8e919061117c565b610ef4576040517f08c379a000000000000000000000000000000000000000000000000000000000815260206004820152601560248201527f546f6b656e207472616e73666572206661696c65640000000000000000000000604482015260640161041e565b805460405187815273ffffffffffffffffffffffffffffffffffffffff909116907f9429823c7443c0ce7939ee01becd29e8c844e71677508608f4ba880b7176eb9b9060200160405180910390a2505050505050565b610f52610fad565b73ffffffffffffffffffffffffffffffffffffffff8116610fa1576040517f1e4fbdf70000000000000000000000000000000000000000000000000000000081525f600482015260240161041e565b610faa81610fff565b50565b5f5473ffffffffffffffffffffffffffffffffffffffff163314610705576040517f118cdaa700000000000000000000000000000000000000000000000000000000815233600482015260240161041e565b5f805473ffffffffffffffffffffffffffffffffffffffff8381167fffffffffffffffffffffffff0000000000000000000000000000000000000000831681178455604051919092169283917f8be0079c531659141344cd1fd0a4f28419497f9722a3daafe3b4186f6b6457e09190a35050565b5f60208284031215611083575f80fd5b5035919050565b5f805f806080858703121561109d575f80fd5b5050823594602084013594506040840135936060013592509050565b5f80604083850312156110ca575f80fd5b50508035926020909101359150565b5f805f606084860312156110eb575f80fd5b505081359360208301359350604090920135919050565b803573ffffffffffffffffffffffffffffffffffffffff81168114611125575f80fd5b919050565b5f805f6060848603121561113c575f80fd5b833592506020840135915061115360408501611102565b90509250925092565b5f6020828403121561116c575f80fd5b61117582611102565b9392505050565b5f6020828403121561118c575f80fd5b81518015158114611175575f80fd5b5f7fffffffffffffffffffffffffffffffffffffffffffffffffffffffffffffffff82036111f0577f4e487b71000000000000000000000000000000000000000000000000000000005f52601160045260245ffd5b506001019056fea2646970667358221220d247da82ed5790b79f2ce7560c2612ca85651f0e3881e3b416cf4722d8c0ffbf64736f6c634300081a0033","linkReferences":{}},"methodIdentifiers":{"alreadyTransfer(uint256)":"d031b020","checkSwap(uint256,uint256)":"71777dd5","createTransfer(uint256,uint256,uint256,uint256)":"3faa5aad","fulfillTransfer(uint256,uint256,address)":"b542c0fa","getData(uint256)":"0178fe3f","isTransferActive(uint256)":"aca634dd","owner()":"8da5cb5b","renounceOwnership()":"715018a6","targetTransfer(uint256,uint256,uint256)":"83f17150","token()":"fc0c546a","transferCount()":"e3d33fc9","transferOwnership(address)":"f2fde38b","transfers(uint256)":"9377d711"},"id":0}