{"abi":[{"type":"constructor","inputs":[{"name":"erc6551Registry","type":"address","internalType":"address"},{"name":"ipAccountImpl","type":"address","internalType":"address"},{"name":"groupingModule","type":"address","internalType":"address"}],"stateMutability":"nonpayable"},{"type":"function","name":"ERC6551_PUBLIC_REGISTRY","inputs":[],"outputs":[{"name":"","type":"address","internalType":"address"}],"stateMutability":"view"},{"type":"function","name":"GROUPING_MODULE","inputs":[],"outputs":[{"name":"","type":"address","internalType":"contract IGroupingModule"}],"stateMutability":"view"},{"type":"function","name":"IP_ACCOUNT_IMPL","inputs":[],"outputs":[{"name":"","type":"address","internalType":"address"}],"stateMutability":"view"},{"type":"function","name":"IP_ACCOUNT_SALT","inputs":[],"outputs":[{"name":"","type":"bytes32","internalType":"bytes32"}],"stateMutability":"view"},{"type":"function","name":"UPGRADE_INTERFACE_VERSION","inputs":[],"outputs":[{"name":"","type":"string","internalType":"string"}],"stateMutability":"view"},{"type":"function","name":"__ProtocolPausable_init","inputs":[{"name":"accessManager","type":"address","internalType":"address"}],"outputs":[],"stateMutability":"nonpayable"},{"type":"function","name":"addGroupMember","inputs":[{"name":"groupId","type":"address","internalType":"address"},{"name":"ipIds","type":"address[]","internalType":"address[]"}],"outputs":[],"stateMutability":"nonpayable"},{"type":"function","name":"authority","inputs":[],"outputs":[{"name":"","type":"address","internalType":"address"}],"stateMutability":"view"},{"type":"function","name":"containsIp","inputs":[{"name":"groupId","type":"address","internalType":"address"},{"name":"ipId","type":"address","internalType":"address"}],"outputs":[{"name":"","type":"bool","internalType":"bool"}],"stateMutability":"view"},{"type":"function","name":"getGroupMembers","inputs":[{"name":"groupId","type":"address","internalType":"address"},{"name":"startIndex","type":"uint256","internalType":"uint256"},{"name":"size","type":"uint256","internalType":"uint256"}],"outputs":[{"name":"results","type":"address[]","internalType":"address[]"}],"stateMutability":"view"},{"type":"function","name":"getGroupRewardPool","inputs":[{"name":"groupId","type":"address","internalType":"address"}],"outputs":[{"name":"","type":"address","internalType":"address"}],"stateMutability":"view"},{"type":"function","name":"getIPAccountImpl","inputs":[],"outputs":[{"name":"","type":"address","internalType":"address"}],"stateMutability":"view"},{"type":"function","name":"initialize","inputs":[{"name":"accessManager","type":"address","internalType":"address"}],"outputs":[],"stateMutability":"nonpayable"},{"type":"function","name":"ipAccount","inputs":[{"name":"chainId","type":"uint256","internalType":"uint256"},{"name":"tokenContract","type":"address","internalType":"address"},{"name":"tokenId","type":"uint256","internalType":"uint256"}],"outputs":[{"name":"","type":"address","internalType":"address"}],"stateMutability":"view"},{"type":"function","name":"ipId","inputs":[{"name":"chainId","type":"uint256","internalType":"uint256"},{"name":"tokenContract","type":"address","internalType":"address"},{"name":"tokenId","type":"uint256","internalType":"uint256"}],"outputs":[{"name":"","type":"address","internalType":"address"}],"stateMutability":"view"},{"type":"function","name":"isConsumingScheduledOp","inputs":[],"outputs":[{"name":"","type":"bytes4","internalType":"bytes4"}],"stateMutability":"view"},{"type":"function","name":"isRegistered","inputs":[{"name":"id","type":"address","internalType":"address"}],"outputs":[{"name":"","type":"bool","internalType":"bool"}],"stateMutability":"view"},{"type":"function","name":"isRegisteredGroup","inputs":[{"name":"groupId","type":"address","internalType":"address"}],"outputs":[{"name":"","type":"bool","internalType":"bool"}],"stateMutability":"view"},{"type":"function","name":"pause","inputs":[],"outputs":[],"stateMutability":"nonpayable"},{"type":"function","name":"paused","inputs":[],"outputs":[{"name":"","type":"bool","internalType":"bool"}],"stateMutability":"view"},{"type":"function","name":"proxiableUUID","inputs":[],"outputs":[{"name":"","type":"bytes32","internalType":"bytes32"}],"stateMutability":"view"},{"type":"function","name":"register","inputs":[{"name":"chainid","type":"uint256","internalType":"uint256"},{"name":"tokenContract","type":"address","internalType":"address"},{"name":"tokenId","type":"uint256","internalType":"uint256"}],"outputs":[{"name":"id","type":"address","internalType":"address"}],"stateMutability":"nonpayable"},{"type":"function","name":"registerGroup","inputs":[{"name":"groupNft","type":"address","internalType":"address"},{"name":"groupNftId","type":"uint256","internalType":"uint256"},{"name":"rewardPool","type":"address","internalType":"address"}],"outputs":[{"name":"groupId","type":"address","internalType":"address"}],"stateMutability":"nonpayable"},{"type":"function","name":"removeGroupMember","inputs":[{"name":"groupId","type":"address","internalType":"address"},{"name":"ipIds","type":"address[]","internalType":"address[]"}],"outputs":[],"stateMutability":"nonpayable"},{"type":"function","name":"setAuthority","inputs":[{"name":"newAuthority","type":"address","internalType":"address"}],"outputs":[],"stateMutability":"nonpayable"},{"type":"function","name":"totalMembers","inputs":[{"name":"groupId","type":"address","internalType":"address"}],"outputs":[{"name":"","type":"uint256","internalType":"uint256"}],"stateMutability":"view"},{"type":"function","name":"totalSupply","inputs":[],"outputs":[{"name":"","type":"uint256","internalType":"uint256"}],"stateMutability":"view"},{"type":"function","name":"unpause","inputs":[],"outputs":[],"stateMutability":"nonpayable"},{"type":"function","name":"upgradeToAndCall","inputs":[{"name":"newImplementation","type":"address","internalType":"address"},{"name":"data","type":"bytes","internalType":"bytes"}],"outputs":[],"stateMutability":"payable"},{"type":"function","name":"whitelistGroupRewardPool","inputs":[{"name":"rewardPool","type":"address","internalType":"address"}],"outputs":[],"stateMutability":"nonpayable"},{"type":"event","name":"AuthorityUpdated","inputs":[{"name":"authority","type":"address","indexed":false,"internalType":"address"}],"anonymous":false},{"type":"event","name":"IPAccountRegistered","inputs":[{"name":"account","type":"address","indexed":true,"internalType":"address"},{"name":"implementation","type":"address","indexed":true,"internalType":"address"},{"name":"chainId","type":"uint256","indexed":true,"internalType":"uint256"},{"name":"tokenContract","type":"address","indexed":false,"internalType":"address"},{"name":"tokenId","type":"uint256","indexed":false,"internalType":"uint256"}],"anonymous":false},{"type":"event","name":"IPRegistered","inputs":[{"name":"ipId","type":"address","indexed":false,"internalType":"address"},{"name":"chainId","type":"uint256","indexed":true,"internalType":"uint256"},{"name":"tokenContract","type":"address","indexed":true,"internalType":"address"},{"name":"tokenId","type":"uint256","indexed":true,"internalType":"uint256"},{"name":"name","type":"string","indexed":false,"internalType":"string"},{"name":"uri","type":"string","indexed":false,"internalType":"string"},{"name":"registrationDate","type":"uint256","indexed":false,"internalType":"uint256"}],"anonymous":false},{"type":"event","name":"Initialized","inputs":[{"name":"version","type":"uint64","indexed":false,"internalType":"uint64"}],"anonymous":false},{"type":"event","name":"Paused","inputs":[{"name":"account","type":"address","indexed":false,"internalType":"address"}],"anonymous":false},{"type":"event","name":"Unpaused","inputs":[{"name":"account","type":"address","indexed":false,"internalType":"address"}],"anonymous":false},{"type":"event","name":"Upgraded","inputs":[{"name":"implementation","type":"address","indexed":true,"internalType":"address"}],"anonymous":false},{"type":"error","name":"AccessManagedInvalidAuthority","inputs":[{"name":"authority","type":"address","internalType":"address"}]},{"type":"error","name":"AccessManagedRequiredDelay","inputs":[{"name":"caller","type":"address","internalType":"address"},{"name":"delay","type":"uint32","internalType":"uint32"}]},{"type":"error","name":"AccessManagedUnauthorized","inputs":[{"name":"caller","type":"address","internalType":"address"}]},{"type":"error","name":"AddressEmptyCode","inputs":[{"name":"target","type":"address","internalType":"address"}]},{"type":"error","name":"ERC1967InvalidImplementation","inputs":[{"name":"implementation","type":"address","internalType":"address"}]},{"type":"error","name":"ERC1967NonPayable","inputs":[]},{"type":"error","name":"EnforcedPause","inputs":[]},{"type":"error","name":"ExpectedPause","inputs":[]},{"type":"error","name":"FailedCall","inputs":[]},{"type":"error","name":"GroupIPAssetRegistry__CallerIsNotGroupingModule","inputs":[{"name":"caller","type":"address","internalType":"address"}]},{"type":"error","name":"GroupIPAssetRegistry__GroupRewardPoolNotRegistered","inputs":[{"name":"groupPool","type":"address","internalType":"address"}]},{"type":"error","name":"GroupIPAssetRegistry__InvalidGroupRewardPool","inputs":[{"name":"rewardPool","type":"address","internalType":"address"}]},{"type":"error","name":"GroupIPAssetRegistry__NotRegisteredGroupIP","inputs":[{"name":"groupId","type":"address","internalType":"address"}]},{"type":"error","name":"GroupIPAssetRegistry__NotRegisteredIP","inputs":[{"name":"ipId","type":"address","internalType":"address"}]},{"type":"error","name":"IPAccountRegistry_ZeroERC6551Registry","inputs":[]},{"type":"error","name":"IPAccountRegistry_ZeroIpAccountImpl","inputs":[]},{"type":"error","name":"IPAssetRegistry__AlreadyRegistered","inputs":[]},{"type":"error","name":"IPAssetRegistry__InvalidToken","inputs":[{"name":"contractAddress","type":"address","internalType":"address"},{"name":"tokenId","type":"uint256","internalType":"uint256"}]},{"type":"error","name":"IPAssetRegistry__UnsupportedIERC721","inputs":[{"name":"contractAddress","type":"address","internalType":"address"}]},{"type":"error","name":"IPAssetRegistry__UnsupportedIERC721Metadata","inputs":[{"name":"contractAddress","type":"address","internalType":"address"}]},{"type":"error","name":"IPAssetRegistry__ZeroAccessManager","inputs":[]},{"type":"error","name":"InvalidInitialization","inputs":[]},{"type":"error","name":"NotInitializing","inputs":[]},{"type":"error","name":"StringsInsufficientHexLength","inputs":[{"name":"value","type":"uint256","internalType":"uint256"},{"name":"length","type":"uint256","internalType":"uint256"}]},{"type":"error","name":"UUPSUnauthorizedCallContext","inputs":[]},{"type":"error","name":"UUPSUnsupportedProxiableUUID","inputs":[{"name":"slot","type":"bytes32","internalType":"bytes32"}]}],"bytecode":{"object":"0x6101206040523061010052348015610015575f80fd5b50604051613e3b380380613e3b83398101604081905261003491610188565b8083836001600160a01b03811661005e5760405163532538cf60e01b815260040160405180910390fd5b6001600160a01b03821661008557604051632bdbe33b60e01b815260040160405180910390fd5b6001600160a01b039081166080525f60a05290811660c052811660e0526100aa6100bb565b506100b36100bb565b5050506101c8565b7ff0c57e16840df040f15088dc2f81fe391c3923bec73e23a9662efc9c229c6a00805468010000000000000000900460ff161561010b5760405163f92ee8a960e01b815260040160405180910390fd5b80546001600160401b039081161461016a5780546001600160401b0319166001600160401b0390811782556040519081527fc7f505b2f371ae2175ee4913f4499e1f2633a7b5936321eed1cdaeb6115181d29060200160405180910390a15b50565b80516001600160a01b0381168114610183575f80fd5b919050565b5f805f6060848603121561019a575f80fd5b6101a38461016d565b92506101b16020850161016d565b91506101bf6040850161016d565b90509250925092565b60805160a05160c05160e05161010051613bd46102675f395f8181611c0f01528181611c380152611ed401525f818161041a0152818161087b01528181610a8001528181610ed1015261120e01525f81816101da0152818161212e01526125af01525f8181610295015281816120f0015261257101525f81816103d30152818161051f015281816120c80152818161254901526126200152613bd45ff3fe6080604052600436106101c5575f3560e01c80637d294b40116100f2578063ad3cb1cc11610092578063c3c5a54711610062578063c3c5a5471461064b578063c4d66de81461066a578063d26bb83f14610689578063fca247ac146106a8575f80fd5b8063ad3cb1cc14610562578063be68d9d7146105b7578063bf7e214f146105e3578063c1c9faa01461062c575f80fd5b806387020f95116100cd57806387020f95146104ad5780638fb36037146104cc57806395a3dfb214610511578063a32a054e14610543575f80fd5b80637d294b401461045b57806381fdafa01461047a5780638456cb5914610499575f80fd5b806343aeb836116101685780635796ffbc116101385780635796ffbc146103c25780635c975abb146103f55780635ee5e32a146104095780637a9e5e4b1461043c575f80fd5b806343aeb8361461034d5780634f1ef2861461036c57806351eee2761461037f57806352d1902d146103ae575f80fd5b80631a8bb07b116101a35780631a8bb07b1461028457806330d63280146102b75780633f4ba83a1461031a5780634094f4ed1461032e575f80fd5b80630c3c7264146101c957806318160ddd14610226578063198fdd9814610263575b5f80fd5b3480156101d4575f80fd5b506101fc7f000000000000000000000000000000000000000000000000000000000000000081565b60405173ffffffffffffffffffffffffffffffffffffffff90911681526020015b60405180910390f35b348015610231575f80fd5b507f987c61809af5a42943abd137c7acff8426aab6f7a1f5c967a03d1d718ba5cf00545b60405190815260200161021d565b34801561026e575f80fd5b5061028261027d36600461342c565b6106c7565b005b34801561028f575f80fd5b506102557f000000000000000000000000000000000000000000000000000000000000000081565b3480156102c2575f80fd5b506101fc6102d136600461342c565b73ffffffffffffffffffffffffffffffffffffffff9081165f9081527f34c89140582ad641fa679f955c67d1a82028bef0953ade7c28b8194cf080d60160205260409020541690565b348015610325575f80fd5b5061028261084d565b348015610339575f80fd5b50610282610348366004613447565b610863565b348015610358575f80fd5b506101fc6103673660046134ca565b610a67565b61028261037a36600461358e565b610c60565b34801561038a575f80fd5b5061039e61039936600461342c565b610c7f565b604051901515815260200161021d565b3480156103b9575f80fd5b50610255610cda565b3480156103cd575f80fd5b506101fc7f000000000000000000000000000000000000000000000000000000000000000081565b348015610400575f80fd5b5061039e610d08565b348015610414575f80fd5b506101fc7f000000000000000000000000000000000000000000000000000000000000000081565b348015610447575f80fd5b5061028261045636600461342c565b610d39565b348015610466575f80fd5b5061039e61047536600461361b565b610e65565b348015610485575f80fd5b50610282610494366004613447565b610eb9565b3480156104a4575f80fd5b50610282611013565b3480156104b8575f80fd5b506101fc6104c7366004613652565b611024565b3480156104d7575f80fd5b506104e0611038565b6040517fffffffff00000000000000000000000000000000000000000000000000000000909116815260200161021d565b34801561051c575f80fd5b507f00000000000000000000000000000000000000000000000000000000000000006101fc565b34801561054e575f80fd5b5061025561055d36600461342c565b6110ab565b34801561056d575f80fd5b506105aa6040518060400160405280600581526020017f352e302e3000000000000000000000000000000000000000000000000000000081525081565b60405161021d91906136b5565b3480156105c2575f80fd5b506105d66105d13660046136c7565b6110f7565b60405161021d91906136f9565b3480156105ee575f80fd5b507ff3177357ab46d8af007ab3fdb9af81da189e1068fefdc0073dca88a2cab40a005473ffffffffffffffffffffffffffffffffffffffff166101fc565b348015610637575f80fd5b5061028261064636600461342c565b6111f6565b348015610656575f80fd5b5061039e61066536600461342c565b611341565b348015610675575f80fd5b5061028261068436600461342c565b61134b565b348015610694575f80fd5b506101fc6106a3366004613652565b6114b5565b3480156106b3575f80fd5b506101fc6106c2366004613652565b6114c1565b7ff0c57e16840df040f15088dc2f81fe391c3923bec73e23a9662efc9c229c6a00805468010000000000000000810460ff16159067ffffffffffffffff165f811580156107115750825b90505f8267ffffffffffffffff16600114801561072d5750303b155b90508115801561073b575080155b15610772576040517ff92ee8a900000000000000000000000000000000000000000000000000000000815260040160405180910390fd5b84547fffffffffffffffffffffffffffffffffffffffffffffffff000000000000000016600117855583156107d35784547fffffffffffffffffffffffffffffffffffffffffffffff00ffffffffffffffff16680100000000000000001785555b6107dc866114d5565b6107e46114e9565b83156108455784547fffffffffffffffffffffffffffffffffffffffffffffff00ffffffffffffffff168555604051600181527fc7f505b2f371ae2175ee4913f4499e1f2633a7b5936321eed1cdaeb6115181d29060200160405180910390a15b505050505050565b610859335b5f366114f9565b6108616116e9565b565b3373ffffffffffffffffffffffffffffffffffffffff7f000000000000000000000000000000000000000000000000000000000000000016146108d9576040517f658938d50000000000000000000000000000000000000000000000000000000081523360048201526024015b60405180910390fd5b6108e1611786565b6108ea83610c7f565b610938576040517fa2a8cf1b00000000000000000000000000000000000000000000000000000000815273ffffffffffffffffffffffffffffffffffffffff841660048201526024016108d0565b73ffffffffffffffffffffffffffffffffffffffff83165f9081527f34c89140582ad641fa679f955c67d1a82028bef0953ade7c28b8194cf080d60060208190526040822090915b83811015610845576109b785858381811061099d5761099d613751565b90506020020160208101906109b2919061342c565b6117c5565b610a2d578484828181106109cd576109cd613751565b90506020020160208101906109e2919061342c565b6040517f6951fb0000000000000000000000000000000000000000000000000000000000815273ffffffffffffffffffffffffffffffffffffffff90911660048201526024016108d0565b610a5e858583818110610a4257610a42613751565b9050602002016020810190610a57919061342c565b839061194b565b50600101610980565b5f3373ffffffffffffffffffffffffffffffffffffffff7f00000000000000000000000000000000000000000000000000000000000000001614610ad9576040517f658938d50000000000000000000000000000000000000000000000000000000081523360048201526024016108d0565b610ae1611786565b610aec46858561196c565b9050610b3073ffffffffffffffffffffffffffffffffffffffff82167f47524f55505f49504100000000000000000000000000000000000000000000006001611b5d565b73ffffffffffffffffffffffffffffffffffffffff82165f9081527f34c89140582ad641fa679f955c67d1a82028bef0953ade7c28b8194cf080d60260205260409020547f34c89140582ad641fa679f955c67d1a82028bef0953ade7c28b8194cf080d6009060ff16610be7576040517f1b53453300000000000000000000000000000000000000000000000000000000815273ffffffffffffffffffffffffffffffffffffffff841660048201526024016108d0565b5073ffffffffffffffffffffffffffffffffffffffff8181165f9081527f34c89140582ad641fa679f955c67d1a82028bef0953ade7c28b8194cf080d601602052604090208054919093167fffffffffffffffffffffffff00000000000000000000000000000000000000009091161790915592915050565b610c68611bf7565b610c7182611cfb565b610c7b8282611d04565b5050565b5f610c89826117c5565b610c9457505f919050565b610cd473ffffffffffffffffffffffffffffffffffffffff83167f47524f55505f4950410000000000000000000000000000000000000000000000611e24565b92915050565b5f610ce3611ebc565b507f360894a13ba1a3210667c828492db98dca3e2076cc3735a920a3ca505d382bbc90565b5f610d347fcd5ed15c6e187e77e9aee88184c21f4f2182ab5827cb3b7e07fbedcd63f033005460ff1690565b905090565b33610d787ff3177357ab46d8af007ab3fdb9af81da189e1068fefdc0073dca88a2cab40a005473ffffffffffffffffffffffffffffffffffffffff1690565b73ffffffffffffffffffffffffffffffffffffffff168173ffffffffffffffffffffffffffffffffffffffff1614610df4576040517f068ca9d800000000000000000000000000000000000000000000000000000000815273ffffffffffffffffffffffffffffffffffffffff821660048201526024016108d0565b8173ffffffffffffffffffffffffffffffffffffffff163b5f03610e5c576040517fc2f31e5e00000000000000000000000000000000000000000000000000000000815273ffffffffffffffffffffffffffffffffffffffff831660048201526024016108d0565b610c7b82611f2b565b73ffffffffffffffffffffffffffffffffffffffff82165f9081527f34c89140582ad641fa679f955c67d1a82028bef0953ade7c28b8194cf080d60060205260408120610eb29083611fc3565b9392505050565b3373ffffffffffffffffffffffffffffffffffffffff7f00000000000000000000000000000000000000000000000000000000000000001614610f2a576040517f658938d50000000000000000000000000000000000000000000000000000000081523360048201526024016108d0565b610f32611786565b610f3b83610c7f565b610f89576040517fa2a8cf1b00000000000000000000000000000000000000000000000000000000815273ffffffffffffffffffffffffffffffffffffffff841660048201526024016108d0565b73ffffffffffffffffffffffffffffffffffffffff83165f9081527f34c89140582ad641fa679f955c67d1a82028bef0953ade7c28b8194cf080d60060208190526040822090915b838110156108455761100a858583818110610fee57610fee613751565b9050602002016020810190611003919061342c565b8390611ff1565b50600101610fd1565b61101c33610852565b610861612012565b5f61103084848461208b565b949350505050565b7ff3177357ab46d8af007ab3fdb9af81da189e1068fefdc0073dca88a2cab40a0080545f919074010000000000000000000000000000000000000000900460ff16611083575f6110a5565b7f8fb36037000000000000000000000000000000000000000000000000000000005b91505090565b73ffffffffffffffffffffffffffffffffffffffff81165f9081527f34c89140582ad641fa679f955c67d1a82028bef0953ade7c28b8194cf080d60060205260408120610cd490612199565b73ffffffffffffffffffffffffffffffffffffffff83165f9081527f34c89140582ad641fa679f955c67d1a82028bef0953ade7c28b8194cf080d6006020526040812060609161114682612199565b9050808510611156575050610eb2565b5f8161116286886137ab565b1161116d578461118c565b8161117886886137ab565b61118291906137be565b61118c90866137be565b90505f5b818110156111eb576111ac6111a582896137ab565b85906121a2565b8582815181106111be576111be613751565b73ffffffffffffffffffffffffffffffffffffffff90921660209283029190910190910152600101611190565b505050509392505050565b3373ffffffffffffffffffffffffffffffffffffffff7f00000000000000000000000000000000000000000000000000000000000000001614611267576040517f658938d50000000000000000000000000000000000000000000000000000000081523360048201526024016108d0565b61126f611786565b73ffffffffffffffffffffffffffffffffffffffff81166112d4576040517f865c825b00000000000000000000000000000000000000000000000000000000815273ffffffffffffffffffffffffffffffffffffffff821660048201526024016108d0565b73ffffffffffffffffffffffffffffffffffffffff165f9081527f34c89140582ad641fa679f955c67d1a82028bef0953ade7c28b8194cf080d6026020526040902080547fffffffffffffffffffffffffffffffffffffffffffffffffffffffffffffff00166001179055565b5f610cd4826117c5565b7ff0c57e16840df040f15088dc2f81fe391c3923bec73e23a9662efc9c229c6a00805468010000000000000000810460ff16159067ffffffffffffffff165f811580156113955750825b90505f8267ffffffffffffffff1660011480156113b15750303b155b9050811580156113bf575080155b156113f6576040517ff92ee8a900000000000000000000000000000000000000000000000000000000815260040160405180910390fd5b84547fffffffffffffffffffffffffffffffffffffffffffffffff000000000000000016600117855583156114575784547fffffffffffffffffffffffffffffffffffffffffffffff00ffffffffffffffff16680100000000000000001785555b73ffffffffffffffffffffffffffffffffffffffff86166114a4576040517fb40f363000000000000000000000000000000000000000000000000000000000815260040160405180910390fd5b6114ad866106c7565b6107e46121ad565b5f611030848484611024565b5f6114ca611786565b61103084848461196c565b6114dd6121b1565b6114e681612218565b50565b6114f16121b1565b610861612229565b7ff3177357ab46d8af007ab3fdb9af81da189e1068fefdc0073dca88a2cab40a005f8061157a61155d7ff3177357ab46d8af007ab3fdb9af81da189e1068fefdc0073dca88a2cab40a005473ffffffffffffffffffffffffffffffffffffffff1690565b873061156c60045f8a8c6137d1565b611575916137f8565b61227a565b91509150816108455763ffffffff81161561169f5782547fffffffffffffffffffffff00ffffffffffffffffffffffffffffffffffffffff167401000000000000000000000000000000000000000017835561160a7ff3177357ab46d8af007ab3fdb9af81da189e1068fefdc0073dca88a2cab40a005473ffffffffffffffffffffffffffffffffffffffff1690565b73ffffffffffffffffffffffffffffffffffffffff166394c7d7ee8787876040518463ffffffff1660e01b81526004016116469392919061385d565b5f604051808303815f87803b15801561165d575f80fd5b505af115801561166f573d5f803e3d5ffd5b505084547fffffffffffffffffffffff00ffffffffffffffffffffffffffffffffffffffff168555506108459050565b6040517f068ca9d800000000000000000000000000000000000000000000000000000000815273ffffffffffffffffffffffffffffffffffffffff871660048201526024016108d0565b6116f16123d5565b7fcd5ed15c6e187e77e9aee88184c21f4f2182ab5827cb3b7e07fbedcd63f0330080547fffffffffffffffffffffffffffffffffffffffffffffffffffffffffffffff001681557f5db9ee0a495bf2e6ff9c91a7834c1ba4fdd244a5e8aa4e537bd38aeae4b073aa335b60405173ffffffffffffffffffffffffffffffffffffffff909116815260200160405180910390a150565b61178e610d08565b15610861576040517fd93c066500000000000000000000000000000000000000000000000000000000815260040160405180910390fd5b5f73ffffffffffffffffffffffffffffffffffffffff82166117e857505f919050565b8173ffffffffffffffffffffffffffffffffffffffff163b5f0361180d57505f919050565b611837827febe268b300000000000000000000000000000000000000000000000000000000612413565b61184257505f919050565b5f805f8473ffffffffffffffffffffffffffffffffffffffff1663fc0c546a6040518163ffffffff1660e01b8152600401606060405180830381865afa15801561188e573d5f803e3d5ffd5b505050506040513d601f19601f820116820180604052508101906118b291906138a8565b9250925092506118c3838383611024565b73ffffffffffffffffffffffffffffffffffffffff168573ffffffffffffffffffffffffffffffffffffffff16146118ff57505f949350505050565b61193f73ffffffffffffffffffffffffffffffffffffffff86167f4e414d450000000000000000000000000000000000000000000000000000000061242e565b51151595945050505050565b5f610eb28373ffffffffffffffffffffffffffffffffffffffff84166124c0565b5f61197884848461250c565b9050806119bb73ffffffffffffffffffffffffffffffffffffffff82167f4e414d450000000000000000000000000000000000000000000000000000000061242e565b51156119f3576040517f8325658800000000000000000000000000000000000000000000000000000000815260040160405180910390fd5b5f80611a008787876126cd565b909250905042611a4773ffffffffffffffffffffffffffffffffffffffff85167f4e414d450000000000000000000000000000000000000000000000000000000085612a8e565b611a8873ffffffffffffffffffffffffffffffffffffffff85167f555249000000000000000000000000000000000000000000000000000000000084612a8e565b611ac973ffffffffffffffffffffffffffffffffffffffff85167f524547495354524154494f4e5f4441544500000000000000000000000000000083612ae2565b7f987c61809af5a42943abd137c7acff8426aab6f7a1f5c967a03d1d718ba5cf008054905f611af7836138e0565b9190505550858773ffffffffffffffffffffffffffffffffffffffff16897f02ad3a2e0356b65fdfe4a73c825b78071ae469db35162978518b8c258abb376788878787604051611b4a9493929190613917565b60405180910390a4505050509392505050565b8273ffffffffffffffffffffffffffffffffffffffff16634e91db088383611b85575f611b88565b60015b6040517fffffffff0000000000000000000000000000000000000000000000000000000060e085901b168152600481019290925260248201526044015b5f604051808303815f87803b158015611bdc575f80fd5b505af1158015611bee573d5f803e3d5ffd5b50505050505050565b3073ffffffffffffffffffffffffffffffffffffffff7f0000000000000000000000000000000000000000000000000000000000000000161480611cc457507f000000000000000000000000000000000000000000000000000000000000000073ffffffffffffffffffffffffffffffffffffffff16611cab7f360894a13ba1a3210667c828492db98dca3e2076cc3735a920a3ca505d382bbc5473ffffffffffffffffffffffffffffffffffffffff1690565b73ffffffffffffffffffffffffffffffffffffffff1614155b15610861576040517fe07c8dba00000000000000000000000000000000000000000000000000000000815260040160405180910390fd5b6114e633610852565b8173ffffffffffffffffffffffffffffffffffffffff166352d1902d6040518163ffffffff1660e01b8152600401602060405180830381865afa925050508015611d6b575060408051601f3d908101601f19168201909252611d6891810190613969565b60015b611db9576040517f4c9c8ce300000000000000000000000000000000000000000000000000000000815273ffffffffffffffffffffffffffffffffffffffff831660048201526024016108d0565b7f360894a13ba1a3210667c828492db98dca3e2076cc3735a920a3ca505d382bbc8114611e15576040517faa1d49a4000000000000000000000000000000000000000000000000000000008152600481018290526024016108d0565b611e1f8383612b3c565b505050565b6040517fa6ed563e000000000000000000000000000000000000000000000000000000008152600481018290525f9073ffffffffffffffffffffffffffffffffffffffff84169063a6ed563e90602401602060405180830381865afa158015611e8f573d5f803e3d5ffd5b505050506040513d601f19601f82011682018060405250810190611eb39190613969565b15159392505050565b3073ffffffffffffffffffffffffffffffffffffffff7f00000000000000000000000000000000000000000000000000000000000000001614610861576040517fe07c8dba00000000000000000000000000000000000000000000000000000000815260040160405180910390fd5b7ff3177357ab46d8af007ab3fdb9af81da189e1068fefdc0073dca88a2cab40a00805473ffffffffffffffffffffffffffffffffffffffff83167fffffffffffffffffffffffff00000000000000000000000000000000000000009091168117825560408051918252517f2f658b440c35314f52658ea8a740e05b284cdc84dc9ae01e891f21b8933e7cad9181900360200190a15050565b73ffffffffffffffffffffffffffffffffffffffff81165f9081526001830160205260408120541515610eb2565b5f610eb28373ffffffffffffffffffffffffffffffffffffffff8416612b9e565b61201a611786565b7fcd5ed15c6e187e77e9aee88184c21f4f2182ab5827cb3b7e07fbedcd63f0330080547fffffffffffffffffffffffffffffffffffffffffffffffffffffffffffffff001660011781557f62e78cea01bee320cd4e420270b5ea74000d11b0c9f74754ebdbfc544b05a2583361175b565b6040517f246a002100000000000000000000000000000000000000000000000000000000815273ffffffffffffffffffffffffffffffffffffffff7f0000000000000000000000000000000000000000000000000000000000000000811660048301527f00000000000000000000000000000000000000000000000000000000000000006024830152604482018590528381166064830152608482018390525f917f00000000000000000000000000000000000000000000000000000000000000009091169063246a00219060a401602060405180830381865afa158015612175573d5f803e3d5ffd5b505050506040513d601f19601f820116820180604052508101906110309190613980565b5f610cd4825490565b5f610eb28383612c88565b6108615b7ff0c57e16840df040f15088dc2f81fe391c3923bec73e23a9662efc9c229c6a005468010000000000000000900460ff16610861576040517fd7e6bcf800000000000000000000000000000000000000000000000000000000815260040160405180910390fd5b6122206121b1565b6114e681611f2b565b6122316121b1565b7fcd5ed15c6e187e77e9aee88184c21f4f2182ab5827cb3b7e07fbedcd63f0330080547fffffffffffffffffffffffffffffffffffffffffffffffffffffffffffffff00169055565b60405173ffffffffffffffffffffffffffffffffffffffff848116602483015283811660448301527fffffffff00000000000000000000000000000000000000000000000000000000831660648301525f9182918291829189169060840160408051601f198184030181529181526020820180517bffffffffffffffffffffffffffffffffffffffffffffffffffffffff167fb7009613000000000000000000000000000000000000000000000000000000001790525161233b91906139b2565b5f60405180830381855afa9150503d805f8114612373576040519150601f19603f3d011682016040523d82523d5f602084013e612378565b606091505b509150915081156123ca5760408151106123aa57808060200190518101906123a091906139d1565b90945092506123ca565b60208151106123ca57808060200190518101906123c79190613a03565b93505b505094509492505050565b6123dd610d08565b610861576040517f8dfc202b00000000000000000000000000000000000000000000000000000000815260040160405180910390fd5b5f61241d83612cae565b8015610eb25750610eb28383612d11565b6040517fc031a1800000000000000000000000000000000000000000000000000000000081526004810182905260609073ffffffffffffffffffffffffffffffffffffffff84169063c031a180906024015f60405180830381865afa158015612499573d5f803e3d5ffd5b505050506040513d5f823e601f3d908101601f19168201604052610eb29190810190613a52565b5f81815260018301602052604081205461250557508154600181810184555f848152602080822090930184905584548482528286019093526040902091909155610cd4565b505f610cd4565b6040517f8a54c52f00000000000000000000000000000000000000000000000000000000815273ffffffffffffffffffffffffffffffffffffffff7f0000000000000000000000000000000000000000000000000000000000000000811660048301527f00000000000000000000000000000000000000000000000000000000000000006024830152604482018590528381166064830152608482018390525f917f000000000000000000000000000000000000000000000000000000000000000090911690638a54c52f9060a4016020604051808303815f875af11580156125f7573d5f803e3d5ffd5b505050506040513d601f19601f8201168201806040525081019061261b9190613980565b9050837f000000000000000000000000000000000000000000000000000000000000000073ffffffffffffffffffffffffffffffffffffffff168273ffffffffffffffffffffffffffffffffffffffff167f5be70b68c8361762980ec7d425d79fd33f6d49cac8a498e6ddf514f995b987f786866040516126be92919073ffffffffffffffffffffffffffffffffffffffff929092168252602082015260400190565b60405180910390a49392505050565b60608046851461273a576126e085612ddd565b6126ff8573ffffffffffffffffffffffffffffffffffffffff16612e99565b61270885612ddd565b60405160200161271a93929190613a97565b60408051601f19818403018152602083019091525f825292509050612a86565b61277a73ffffffffffffffffffffffffffffffffffffffff85167f80ac58cd00000000000000000000000000000000000000000000000000000000612413565b6127c8576040517f1033cd8800000000000000000000000000000000000000000000000000000000815273ffffffffffffffffffffffffffffffffffffffff851660048201526024016108d0565b6040517f6352211e000000000000000000000000000000000000000000000000000000008152600481018490525f9073ffffffffffffffffffffffffffffffffffffffff861690636352211e90602401602060405180830381865afa158015612833573d5f803e3d5ffd5b505050506040513d601f19601f820116820180604052508101906128579190613980565b73ffffffffffffffffffffffffffffffffffffffff16036128c3576040517f4bc7306e00000000000000000000000000000000000000000000000000000000815273ffffffffffffffffffffffffffffffffffffffff85166004820152602481018490526044016108d0565b61290373ffffffffffffffffffffffffffffffffffffffff85167f5b5e139f00000000000000000000000000000000000000000000000000000000612413565b612951576040517f3aad847200000000000000000000000000000000000000000000000000000000815273ffffffffffffffffffffffffffffffffffffffff851660048201526024016108d0565b61295a46612ddd565b8473ffffffffffffffffffffffffffffffffffffffff166306fdde036040518163ffffffff1660e01b81526004015f60405180830381865afa1580156129a2573d5f803e3d5ffd5b505050506040513d5f823e601f3d908101601f191682016040526129c99190810190613a52565b6129d285612ddd565b6040516020016129e493929190613a97565b60408051808303601f19018152908290527fc87b56dd00000000000000000000000000000000000000000000000000000000825260048201859052925073ffffffffffffffffffffffffffffffffffffffff85169063c87b56dd906024015f60405180830381865afa158015612a5c573d5f803e3d5ffd5b505050506040513d5f823e601f3d908101601f19168201604052612a839190810190613a52565b90505b935093915050565b6040517f2e28d08400000000000000000000000000000000000000000000000000000000815273ffffffffffffffffffffffffffffffffffffffff841690632e28d08490611bc59085908590600401613b0e565b6040517f4e91db08000000000000000000000000000000000000000000000000000000008152600481018390526024810182905273ffffffffffffffffffffffffffffffffffffffff841690634e91db0890604401611bc5565b612b4582612ebc565b60405173ffffffffffffffffffffffffffffffffffffffff8316907fbc7cd75a20ee27fd9adebab32041f755214dbc6bffa90cc0225b39da2e5c2d3b905f90a2805115612b9657611e1f8282612f8a565b610c7b613009565b5f8181526001830160205260408120548015612c78575f612bc06001836137be565b85549091505f90612bd3906001906137be565b9050808214612c32575f865f018281548110612bf157612bf1613751565b905f5260205f200154905080875f018481548110612c1157612c11613751565b5f918252602080832090910192909255918252600188019052604090208390555b8554869080612c4357612c43613b26565b600190038181905f5260205f20015f90559055856001015f8681526020019081526020015f205f905560019350505050610cd4565b5f915050610cd4565b5092915050565b5f825f018281548110612c9d57612c9d613751565b905f5260205f200154905092915050565b5f612cd9827f01ffc9a700000000000000000000000000000000000000000000000000000000612d11565b8015610cd45750612d0a827fffffffff00000000000000000000000000000000000000000000000000000000612d11565b1592915050565b6040517fffffffff00000000000000000000000000000000000000000000000000000000821660248201525f90819060440160408051601f19818403018152919052602080820180517bffffffffffffffffffffffffffffffffffffffffffffffffffffffff167f01ffc9a70000000000000000000000000000000000000000000000000000000017815282519293505f9283928392909183918a617530fa92503d91505f519050828015612dc7575060208210155b8015612dd257505f81115b979650505050505050565b60605f612de983613041565b60010190505f8167ffffffffffffffff811115612e0857612e08613509565b6040519080825280601f01601f191660200182016040528015612e32576020820181803683370190505b5090508181016020015b7fffffffffffffffffffffffffffffffffffffffffffffffffffffffffffffffff017f3031323334353637383961626364656600000000000000000000000000000000600a86061a8153600a8504945084612e3c57509392505050565b6060610cd473ffffffffffffffffffffffffffffffffffffffff83166014613122565b8073ffffffffffffffffffffffffffffffffffffffff163b5f03612f24576040517f4c9c8ce300000000000000000000000000000000000000000000000000000000815273ffffffffffffffffffffffffffffffffffffffff821660048201526024016108d0565b7f360894a13ba1a3210667c828492db98dca3e2076cc3735a920a3ca505d382bbc80547fffffffffffffffffffffffff00000000000000000000000000000000000000001673ffffffffffffffffffffffffffffffffffffffff92909216919091179055565b60605f808473ffffffffffffffffffffffffffffffffffffffff1684604051612fb391906139b2565b5f60405180830381855af49150503d805f8114612feb576040519150601f19603f3d011682016040523d82523d5f602084013e612ff0565b606091505b509150915061300085838361333a565b95945050505050565b3415610861576040517fb398979f00000000000000000000000000000000000000000000000000000000815260040160405180910390fd5b5f807a184f03e93ff9f4daa797ed6e38ed64bf6a1f0100000000000000008310613089577a184f03e93ff9f4daa797ed6e38ed64bf6a1f010000000000000000830492506040015b6d04ee2d6d415b85acef810000000083106130b5576d04ee2d6d415b85acef8100000000830492506020015b662386f26fc1000083106130d357662386f26fc10000830492506010015b6305f5e10083106130eb576305f5e100830492506008015b61271083106130ff57612710830492506004015b60648310613111576064830492506002015b600a8310610cd45760010192915050565b6060825f613131846002613b53565b61313c9060026137ab565b67ffffffffffffffff81111561315457613154613509565b6040519080825280601f01601f19166020018201604052801561317e576020820181803683370190505b5090507f3000000000000000000000000000000000000000000000000000000000000000815f815181106131b4576131b4613751565b60200101907effffffffffffffffffffffffffffffffffffffffffffffffffffffffffffff191690815f1a9053507f78000000000000000000000000000000000000000000000000000000000000008160018151811061321657613216613751565b60200101907effffffffffffffffffffffffffffffffffffffffffffffffffffffffffffff191690815f1a9053505f613250856002613b53565b61325b9060016137ab565b90505b60018111156132f7577f303132333435363738396162636465660000000000000000000000000000000083600f166010811061329c5761329c613751565b1a60f81b8282815181106132b2576132b2613751565b60200101907effffffffffffffffffffffffffffffffffffffffffffffffffffffffffffff191690815f1a90535060049290921c916132f081613b6a565b905061325e565b508115611030576040517fe22e27eb00000000000000000000000000000000000000000000000000000000815260048101869052602481018590526044016108d0565b60608261334f5761334a826133c9565b610eb2565b8151158015613373575073ffffffffffffffffffffffffffffffffffffffff84163b155b156133c2576040517f9996b31500000000000000000000000000000000000000000000000000000000815273ffffffffffffffffffffffffffffffffffffffff851660048201526024016108d0565b5080610eb2565b8051156133d95780518082602001fd5b6040517fd6bda27500000000000000000000000000000000000000000000000000000000815260040160405180910390fd5b73ffffffffffffffffffffffffffffffffffffffff811681146114e6575f80fd5b5f6020828403121561343c575f80fd5b8135610eb28161340b565b5f805f60408486031215613459575f80fd5b83356134648161340b565b9250602084013567ffffffffffffffff81111561347f575f80fd5b8401601f8101861361348f575f80fd5b803567ffffffffffffffff8111156134a5575f80fd5b8660208260051b84010111156134b9575f80fd5b939660209190910195509293505050565b5f805f606084860312156134dc575f80fd5b83356134e78161340b565b92506020840135915060408401356134fe8161340b565b809150509250925092565b7f4e487b71000000000000000000000000000000000000000000000000000000005f52604160045260245ffd5b604051601f8201601f1916810167ffffffffffffffff8111828210171561355f5761355f613509565b604052919050565b5f67ffffffffffffffff82111561358057613580613509565b50601f01601f191660200190565b5f806040838503121561359f575f80fd5b82356135aa8161340b565b9150602083013567ffffffffffffffff8111156135c5575f80fd5b8301601f810185136135d5575f80fd5b80356135e86135e382613567565b613536565b8181528660208385010111156135fc575f80fd5b816020840160208301375f602083830101528093505050509250929050565b5f806040838503121561362c575f80fd5b82356136378161340b565b915060208301356136478161340b565b809150509250929050565b5f805f60608486031215613664575f80fd5b8335925060208401356136768161340b565b929592945050506040919091013590565b5f81518084528060208401602086015e5f602082860101526020601f19601f83011685010191505092915050565b602081525f610eb26020830184613687565b5f805f606084860312156136d9575f80fd5b83356136e48161340b565b95602085013595506040909401359392505050565b602080825282518282018190525f918401906040840190835b8181101561374657835173ffffffffffffffffffffffffffffffffffffffff16835260209384019390920191600101613712565b509095945050505050565b7f4e487b71000000000000000000000000000000000000000000000000000000005f52603260045260245ffd5b7f4e487b71000000000000000000000000000000000000000000000000000000005f52601160045260245ffd5b80820180821115610cd457610cd461377e565b81810381811115610cd457610cd461377e565b5f80858511156137df575f80fd5b838611156137eb575f80fd5b5050820193919092039150565b80357fffffffff000000000000000000000000000000000000000000000000000000008116906004841015612c81577fffffffff00000000000000000000000000000000000000000000000000000000808560040360031b1b82161691505092915050565b73ffffffffffffffffffffffffffffffffffffffff8416815260406020820152816040820152818360608301375f818301606090810191909152601f909201601f1916010192915050565b5f805f606084860312156138ba575f80fd5b835160208501519093506138cd8161340b565b6040949094015192959394509192915050565b5f7fffffffffffffffffffffffffffffffffffffffffffffffffffffffffffffffff82036139105761391061377e565b5060010190565b73ffffffffffffffffffffffffffffffffffffffff85168152608060208201525f6139456080830186613687565b82810360408401526139578186613687565b91505082606083015295945050505050565b5f60208284031215613979575f80fd5b5051919050565b5f60208284031215613990575f80fd5b8151610eb28161340b565b5f81518060208401855e5f93019283525090919050565b5f610eb2828461399b565b805180151581146139cc575f80fd5b919050565b5f80604083850312156139e2575f80fd5b6139eb836139bd565b9150602083015163ffffffff81168114613647575f80fd5b5f60208284031215613a13575f80fd5b610eb2826139bd565b5f613a296135e384613567565b9050828152838383011115613a3c575f80fd5b8282602083015e5f602084830101529392505050565b5f60208284031215613a62575f80fd5b815167ffffffffffffffff811115613a78575f80fd5b8201601f81018413613a88575f80fd5b61103084825160208401613a1c565b5f613aa2828661399b565b7f3a200000000000000000000000000000000000000000000000000000000000008152613ad2600282018661399b565b90507f20230000000000000000000000000000000000000000000000000000000000008152613b04600282018561399b565b9695505050505050565b828152604060208201525f6110306040830184613687565b7f4e487b71000000000000000000000000000000000000000000000000000000005f52603160045260245ffd5b8082028115828204841417610cd457610cd461377e565b5f81613b7857613b7861377e565b507fffffffffffffffffffffffffffffffffffffffffffffffffffffffffffffffff019056fea26469706673582212201ac8f76c93c576fe922e3c5175622d9de73abad7fac2b3a3fb3419b1c756774764736f6c634300081a0033","linkReferences":{}},"methodIdentifiers":{"ERC6551_PUBLIC_REGISTRY()":"0c3c7264","GROUPING_MODULE()":"5ee5e32a","IP_ACCOUNT_IMPL()":"5796ffbc","IP_ACCOUNT_SALT()":"1a8bb07b","UPGRADE_INTERFACE_VERSION()":"ad3cb1cc","__ProtocolPausable_init(address)":"198fdd98","addGroupMember(address,address[])":"4094f4ed","authority()":"bf7e214f","containsIp(address,address)":"7d294b40","getGroupMembers(address,uint256,uint256)":"be68d9d7","getGroupRewardPool(address)":"30d63280","getIPAccountImpl()":"95a3dfb2","initialize(address)":"c4d66de8","ipAccount(uint256,address,uint256)":"87020f95","ipId(uint256,address,uint256)":"d26bb83f","isConsumingScheduledOp()":"8fb36037","isRegistered(address)":"c3c5a547","isRegisteredGroup(address)":"51eee276","pause()":"8456cb59","paused()":"5c975abb","proxiableUUID()":"52d1902d","register(uint256,address,uint256)":"fca247ac","registerGroup(address,uint256,address)":"43aeb836","removeGroupMember(address,address[])":"81fdafa0","setAuthority(address)":"7a9e5e4b","totalMembers(address)":"a32a054e","totalSupply()":"18160ddd","unpause()":"3f4ba83a","upgradeToAndCall(address,bytes)":"4f1ef286","whitelistGroupRewardPool(address)":"c1c9faa0"},"id":127}