{"abi":[{"type":"function","name":"num","inputs":[],"outputs":[{"name":"","type":"uint256","internalType":"uint256"}],"stateMutability":"view"},{"type":"function","name":"setNum","inputs":[{"name":"x","type":"uint256","internalType":"uint256"}],"outputs":[],"stateMutability":"nonpayable"}],"bytecode":{"object":"0x6080604052348015600e575f80fd5b5060aa80601a5f395ff3fe6080604052348015600e575f80fd5b50600436106030575f3560e01c80634e70b1dc146034578063cd16ecbf14604d575b5f80fd5b603b5f5481565b60405190815260200160405180910390f35b605c6058366004605e565b5f55565b005b5f60208284031215606d575f80fd5b503591905056fea2646970667358221220d039f1ba00f5818b10d97cd47720d7063fe78d1764564777c3be19f1ad6233fc64736f6c634300081a0033","linkReferences":{}},"methodIdentifiers":{"num()":"4e70b1dc","setNum(uint256)":"cd16ecbf"},"id":0}