{"abi":[{"type":"constructor","inputs":[{"name":"ipAssetRegistry","type":"address","internalType":"address"},{"name":"registrationWorkflows","type":"address","internalType":"address"},{"name":"licensingModule","type":"address","internalType":"address"},{"name":"pilTemplate","type":"address","internalType":"address"}],"stateMutability":"nonpayable"},{"type":"function","name":"IP_ASSET_REGISTRY","inputs":[],"outputs":[{"name":"","type":"address","internalType":"contract IPAssetRegistry"}],"stateMutability":"view"},{"type":"function","name":"REGISTRATION_WORKFLOWS","inputs":[],"outputs":[{"name":"","type":"address","internalType":"contract RegistrationWorkflows"}],"stateMutability":"view"},{"type":"function","name":"SIMPLE_NFT","inputs":[],"outputs":[{"name":"","type":"address","internalType":"contract SimpleNFT"}],"stateMutability":"view"},{"type":"function","name":"SPG_NFT","inputs":[],"outputs":[{"name":"","type":"address","internalType":"contract ISPGNFT"}],"stateMutability":"view"},{"type":"function","name":"mintIp","inputs":[],"outputs":[{"name":"ipId","type":"address","internalType":"address"},{"name":"tokenId","type":"uint256","internalType":"uint256"}],"stateMutability":"nonpayable"},{"type":"function","name":"spgMintIp","inputs":[],"outputs":[{"name":"ipId","type":"address","internalType":"address"},{"name":"tokenId","type":"uint256","internalType":"uint256"}],"stateMutability":"nonpayable"}],"bytecode":{"object":"0x610100604052348015610010575f80fd5b50604051612a31380380612a3183398101604081905261002f9161021b565b6001600160a01b03808516608052831660a05260405161004e906101f3565b6040808252600d908201526c14da5b5c1b1948125408139195609a1b60608201526080602082018190526003908201526253494d60e81b60a082015260c001604051809103905ff0801580156100a6573d5f803e3d5ffd5b506001600160a01b0390811660c090815260a080516040805161018081018252600f61014082019081526e2a32b9ba1021b7b63632b1ba34b7b760891b610160830152815281518083018352600480825263151154d560e21b6020838101919091528084019290925283518085018552601a81527f68747470733a2f2f746573742d626173652d7572692e636f6d2f0000000000009281019290925282840191909152606460608301525f608083018190529482018590523095820186905260e0820195909552600161010082015261012081019390935251630f2a254d60e01b8152931692630f2a254d9261019d92910161029a565b6020604051808303815f875af11580156101b9573d5f803e3d5ffd5b505050506040513d601f19601f820116820180604052508101906101dd9190610384565b6001600160a01b031660e052506103a492505050565b611db880610c7983390190565b80516001600160a01b0381168114610216575f80fd5b919050565b5f805f806080858703121561022e575f80fd5b61023785610200565b935061024560208601610200565b925061025360408601610200565b915061026160608601610200565b905092959194509250565b5f81518084528060208401602086015e5f602082860101526020601f19601f83011685010191505092915050565b602081525f825161014060208401526102b761016084018261026c565b90506020840151601f198483030160408501526102d4828261026c565b9150506040840151601f198483030160608501526102f2828261026c565b915050606084015161030c608085018263ffffffff169052565b50608084015160a084015260a084015161033160c08501826001600160a01b03169052565b5060c08401516001600160a01b03811660e08501525060e08401516001600160a01b0381166101008501525061010084015180151561012085015250610120840151801515610140850152509392505050565b5f60208284031215610394575f80fd5b61039d82610200565b9392505050565b60805160a05160c05160e0516108826103f75f395f8181610153015261038301525f818160f0015281816101f2015261029f01525f81816078015261034701525f818160c901526102d101526108825ff3fe608060405234801561000f575f80fd5b506004361061006f575f3560e01c8063984b70931161004d578063984b709314610112578063a3378ca614610146578063e55ea4941461014e575f80fd5b80630e59bdd81461007357806341c782c5146100c4578063658b8909146100eb575b5f80fd5b61009a7f000000000000000000000000000000000000000000000000000000000000000081565b60405173ffffffffffffffffffffffffffffffffffffffff90911681526020015b60405180910390f35b61009a7f000000000000000000000000000000000000000000000000000000000000000081565b61009a7f000000000000000000000000000000000000000000000000000000000000000081565b61011a610175565b6040805173ffffffffffffffffffffffffffffffffffffffff90931683526020830191909152016100bb565b61011a610343565b61009a7f000000000000000000000000000000000000000000000000000000000000000081565b604080517fd0def5210000000000000000000000000000000000000000000000000000000081523360048201526024810191909152600f60448201527f412073696d706c65204950204e4654000000000000000000000000000000000060648201525f90819073ffffffffffffffffffffffffffffffffffffffff7f0000000000000000000000000000000000000000000000000000000000000000169063d0def521906084016020604051808303815f875af1158015610238573d5f803e3d5ffd5b505050506040513d601f19601f8201168201806040525081019061025c9190610640565b6040517ffca247ac00000000000000000000000000000000000000000000000000000000815246600482015273ffffffffffffffffffffffffffffffffffffffff7f000000000000000000000000000000000000000000000000000000000000000081166024830152604482018390529192507f00000000000000000000000000000000000000000000000000000000000000009091169063fca247ac906064016020604051808303815f875af1158015610319573d5f803e3d5ffd5b505050506040513d601f19601f8201168201806040525081019061033d919061067f565b91509091565b5f807f000000000000000000000000000000000000000000000000000000000000000073ffffffffffffffffffffffffffffffffffffffff1663a392aa867f00000000000000000000000000000000000000000000000000000000000000003360405180608001604052806040518060800160405280604381526020016107c7604391398152602001604051602001610509907f7b277469746c65273a274d79204950204173736574272c27646573637269707481527f696f6e273a275468697320697320612074657374204950206173736574272c2760208201527f697054797065273a27272c2772656c6174696f6e7368697073273a5b5d2c276360408201527f7265617465644174273a27272c2777617465726d61726b496d67273a2768747460608201527f70733a2f2f70696373756d2e70686f746f732f323030272c2763726561746f7260808201527f73273a5b5d2c276d65646961273a5b5d2c2761747472696275746573273a5b7b60a08201527f276b6579273a27526172697479272c2776616c7565273a274c6567656e64617260c08201527f79277d5d2c2774616773273a5b5d7d000000000000000000000000000000000060e082015260ef0190565b60405160208183030381529060405280519060200120815260200160405180608001604052806043815260200161080a6043913981526020016040516020016105c1907f7b276e616d65273a2754657374204e4654272c276465736372697074696f6e2781527f3a275468697320697320612074657374204e4654272c27696d616765273a276860208201527f747470733a2f2f70696373756d2e70686f746f732f323030277d0000000000006040820152605a0190565b604051602081830303815290604052805190602001208152506040518463ffffffff1660e01b81526004016105f8939291906106eb565b60408051808303815f875af1158015610613573d5f803e3d5ffd5b505050506040513d601f19601f82011682018060405250810190610637919061079c565b90939092509050565b5f60208284031215610650575f80fd5b5051919050565b805173ffffffffffffffffffffffffffffffffffffffff8116811461067a575f80fd5b919050565b5f6020828403121561068f575f80fd5b61069882610657565b9392505050565b5f81518084528060208401602086015e5f6020828601015260207fffffffffffffffffffffffffffffffffffffffffffffffffffffffffffffffe0601f83011685010191505092915050565b73ffffffffffffffffffffffffffffffffffffffff8416815273ffffffffffffffffffffffffffffffffffffffff83166020820152606060408201525f82516080606084015261073e60e084018261069f565b90506020840151608084015260408401517fffffffffffffffffffffffffffffffffffffffffffffffffffffffffffffffa08483030160a0850152610783828261069f565b915050606084015160c084015280915050949350505050565b5f80604083850312156107ad575f80fd5b6107b683610657565b602093909301519294929350505056fe68747470733a2f2f697066732e696f2f697066732f516d5a486651644641326362334153646d654753354b36725a6a7a36356f73556464594d5552447832316254373368747470733a2f2f697066732e696f2f697066732f516d524c3550634b36364a316d6274545a5377316e7756717247787439386f6e537478364c676548544462456579a2646970667358221220f80e8c576977b6a877cb9e7ff6e65590961f609e66c491ed42bc21e700d32f2664736f6c634300081a0033608060405234801561000f575f80fd5b50604051611db8380380611db883398101604081905261002e91610178565b3382825f61003c8382610261565b5060016100498282610261565b5050506001600160a01b03811661007957604051631e4fbdf760e01b81525f600482015260240160405180910390fd5b6100828161008a565b50505061031b565b600680546001600160a01b038381166001600160a01b0319831681179093556040519116919082907f8be0079c531659141344cd1fd0a4f28419497f9722a3daafe3b4186f6b6457e0905f90a35050565b634e487b7160e01b5f52604160045260245ffd5b5f82601f8301126100fe575f80fd5b81516001600160401b03811115610117576101176100db565b604051601f8201601f19908116603f011681016001600160401b0381118282101715610145576101456100db565b60405281815283820160200185101561015c575f80fd5b8160208501602083015e5f918101602001919091529392505050565b5f8060408385031215610189575f80fd5b82516001600160401b0381111561019e575f80fd5b6101aa858286016100ef565b602085015190935090506001600160401b038111156101c7575f80fd5b6101d3858286016100ef565b9150509250929050565b600181811c908216806101f157607f821691505b60208210810361020f57634e487b7160e01b5f52602260045260245ffd5b50919050565b601f82111561025c57805f5260205f20601f840160051c8101602085101561023a5750805b601f840160051c820191505b81811015610259575f8155600101610246565b50505b505050565b81516001600160401b0381111561027a5761027a6100db565b61028e8161028884546101dd565b84610215565b6020601f8211600181146102c0575f83156102a95750848201515b5f19600385901b1c1916600184901b178455610259565b5f84815260208120601f198516915b828110156102ef57878501518255602094850194600190920191016102cf565b508482101561030c57868401515f19600387901b60f8161c191681555b50505050600190811b01905550565b611a90806103285f395ff3fe608060405234801561000f575f80fd5b5060043610610163575f3560e01c806375794a3c116100c7578063c87b56dd1161007d578063d0def52111610063578063d0def521146102e1578063e985e9c5146102f4578063f2fde38b1461033c575f80fd5b8063c87b56dd146102bb578063cf73cdd2146102ce575f80fd5b806395d89b41116100ad57806395d89b411461028d578063a22cb46514610295578063b88d4fde146102a8575f80fd5b806375794a3c146102665780638da5cb5b1461026f575f80fd5b806342842e0e1161011c5780636352211e116101025780636352211e1461022a57806370a082311461023d578063715018a61461025e575f80fd5b806342842e0e1461020457806357349a9614610217575f80fd5b8063081812fc1161014c578063081812fc146101a4578063095ea7b3146101dc57806323b872dd146101f1575f80fd5b806301ffc9a71461016757806306fdde031461018f575b5f80fd5b61017a61017536600461147e565b61034f565b60405190151581526020015b60405180910390f35b610197610433565b60405161018691906114e5565b6101b76101b23660046114f7565b6104c2565b60405173ffffffffffffffffffffffffffffffffffffffff9091168152602001610186565b6101ef6101ea366004611536565b6104f6565b005b6101ef6101ff36600461155e565b610505565b6101ef61021236600461155e565b6105f9565b6101976102253660046114f7565b610618565b6101b76102383660046114f7565b6106af565b61025061024b366004611598565b6106b9565b604051908152602001610186565b6101ef610731565b61025060075481565b60065473ffffffffffffffffffffffffffffffffffffffff166101b7565b610197610744565b6101ef6102a33660046115b1565b610753565b6101ef6102b63660046116ac565b61075e565b6101976102c93660046114f7565b610776565b6101976102dc3660046114f7565b6107e7565b6102506102ef366004611723565b610886565b61017a610302366004611781565b73ffffffffffffffffffffffffffffffffffffffff9182165f90815260056020908152604080832093909416825291909152205460ff1690565b6101ef61034a366004611598565b6108cb565b5f7fffffffff0000000000000000000000000000000000000000000000000000000082167f80ac58cd0000000000000000000000000000000000000000000000000000000014806103e157507fffffffff0000000000000000000000000000000000000000000000000000000082167f5b5e139f00000000000000000000000000000000000000000000000000000000145b8061042d57507f01ffc9a7000000000000000000000000000000000000000000000000000000007fffffffff000000000000000000000000000000000000000000000000000000008316145b92915050565b60605f8054610441906117b2565b80601f016020809104026020016040519081016040528092919081815260200182805461046d906117b2565b80156104b85780601f1061048f576101008083540402835291602001916104b8565b820191905f5260205f20905b81548152906001019060200180831161049b57829003601f168201915b5050505050905090565b5f6104cc8261092e565b505f8281526004602052604090205473ffffffffffffffffffffffffffffffffffffffff1661042d565b61050182823361098c565b5050565b73ffffffffffffffffffffffffffffffffffffffff8216610559576040517f64a0ae920000000000000000000000000000000000000000000000000000000081525f60048201526024015b60405180910390fd5b5f610565838333610999565b90508373ffffffffffffffffffffffffffffffffffffffff168173ffffffffffffffffffffffffffffffffffffffff16146105f3576040517f64283d7b00000000000000000000000000000000000000000000000000000000815273ffffffffffffffffffffffffffffffffffffffff80861660048301526024820184905282166044820152606401610550565b50505050565b61061383838360405180602001604052805f81525061075e565b505050565b60086020525f908152604090208054610630906117b2565b80601f016020809104026020016040519081016040528092919081815260200182805461065c906117b2565b80156106a75780601f1061067e576101008083540402835291602001916106a7565b820191905f5260205f20905b81548152906001019060200180831161068a57829003601f168201915b505050505081565b5f61042d8261092e565b5f73ffffffffffffffffffffffffffffffffffffffff8216610709576040517f89c62b640000000000000000000000000000000000000000000000000000000081525f6004820152602401610550565b5073ffffffffffffffffffffffffffffffffffffffff165f9081526003602052604090205490565b610739610b10565b6107425f610b63565b565b606060018054610441906117b2565b610501338383610bd9565b610769848484610505565b6105f33385858585610cd5565b60606107818261092e565b505f61079760408051602081019091525f815290565b90505f8151116107b55760405180602001604052805f8152506107e0565b806107bf84610ecb565b6040516020016107d092919061181a565b6040516020818303038152906040525b9392505050565b5f818152600860205260409020805460609190610803906117b2565b80601f016020809104026020016040519081016040528092919081815260200182805461082f906117b2565b801561087a5780601f106108515761010080835404028352916020019161087a565b820191905f5260205f20905b81548152906001019060200180831161085d57829003601f168201915b50505050509050919050565b5f61088f610b10565b600780545f918261089f8361182e565b909155506007545f9081526008602052604090209091506108c084826118ce565b506107e08482610f87565b6108d3610b10565b73ffffffffffffffffffffffffffffffffffffffff8116610922576040517f1e4fbdf70000000000000000000000000000000000000000000000000000000081525f6004820152602401610550565b61092b81610b63565b50565b5f8181526002602052604081205473ffffffffffffffffffffffffffffffffffffffff168061042d576040517f7e27328900000000000000000000000000000000000000000000000000000000815260048101849052602401610550565b6106138383836001611034565b5f8281526002602052604081205473ffffffffffffffffffffffffffffffffffffffff908116908316156109d2576109d28184866111fc565b73ffffffffffffffffffffffffffffffffffffffff811615610a45576109fa5f855f80611034565b73ffffffffffffffffffffffffffffffffffffffff81165f90815260036020526040902080547fffffffffffffffffffffffffffffffffffffffffffffffffffffffffffffffff0190555b73ffffffffffffffffffffffffffffffffffffffff851615610a8d5773ffffffffffffffffffffffffffffffffffffffff85165f908152600360205260409020805460010190555b5f8481526002602052604080822080547fffffffffffffffffffffffff00000000000000000000000000000000000000001673ffffffffffffffffffffffffffffffffffffffff89811691821790925591518793918516917fddf252ad1be2c89b69c2b068fc378daa952ba7f163c4a11628f55a4df523b3ef91a4949350505050565b60065473ffffffffffffffffffffffffffffffffffffffff163314610742576040517f118cdaa7000000000000000000000000000000000000000000000000000000008152336004820152602401610550565b6006805473ffffffffffffffffffffffffffffffffffffffff8381167fffffffffffffffffffffffff0000000000000000000000000000000000000000831681179093556040519116919082907f8be0079c531659141344cd1fd0a4f28419497f9722a3daafe3b4186f6b6457e0905f90a35050565b73ffffffffffffffffffffffffffffffffffffffff8216610c3e576040517f5b08ba1800000000000000000000000000000000000000000000000000000000815273ffffffffffffffffffffffffffffffffffffffff83166004820152602401610550565b73ffffffffffffffffffffffffffffffffffffffff8381165f8181526005602090815260408083209487168084529482529182902080547fffffffffffffffffffffffffffffffffffffffffffffffffffffffffffffff001686151590811790915591519182527f17307eab39ab6107e8899845ad3d59bd9653f200f220920489ca2b5937696c31910160405180910390a3505050565b73ffffffffffffffffffffffffffffffffffffffff83163b15610ec4576040517f150b7a0200000000000000000000000000000000000000000000000000000000815273ffffffffffffffffffffffffffffffffffffffff84169063150b7a0290610d4a9088908890879087906004016119e5565b6020604051808303815f875af1925050508015610da2575060408051601f3d9081017fffffffffffffffffffffffffffffffffffffffffffffffffffffffffffffffe0168201909252610d9f91810190611a3f565b60015b610e2f573d808015610dcf576040519150601f19603f3d011682016040523d82523d5f602084013e610dd4565b606091505b5080515f03610e27576040517f64a0ae9200000000000000000000000000000000000000000000000000000000815273ffffffffffffffffffffffffffffffffffffffff85166004820152602401610550565b805181602001fd5b7fffffffff0000000000000000000000000000000000000000000000000000000081167f150b7a020000000000000000000000000000000000000000000000000000000014610ec2576040517f64a0ae9200000000000000000000000000000000000000000000000000000000815273ffffffffffffffffffffffffffffffffffffffff85166004820152602401610550565b505b5050505050565b60605f610ed7836112ac565b60010190505f8167ffffffffffffffff811115610ef657610ef66115ea565b6040519080825280601f01601f191660200182016040528015610f20576020820181803683370190505b5090508181016020015b7fffffffffffffffffffffffffffffffffffffffffffffffffffffffffffffffff017f3031323334353637383961626364656600000000000000000000000000000000600a86061a8153600a8504945084610f2a57509392505050565b73ffffffffffffffffffffffffffffffffffffffff8216610fd6576040517f64a0ae920000000000000000000000000000000000000000000000000000000081525f6004820152602401610550565b5f610fe283835f610999565b905073ffffffffffffffffffffffffffffffffffffffff811615610613576040517f73c6ac6e0000000000000000000000000000000000000000000000000000000081525f6004820152602401610550565b8080611055575073ffffffffffffffffffffffffffffffffffffffff821615155b156111a8575f6110648461092e565b905073ffffffffffffffffffffffffffffffffffffffff8316158015906110b757508273ffffffffffffffffffffffffffffffffffffffff168173ffffffffffffffffffffffffffffffffffffffff1614155b80156110f5575073ffffffffffffffffffffffffffffffffffffffff8082165f9081526005602090815260408083209387168352929052205460ff16155b15611144576040517fa9fbf51f00000000000000000000000000000000000000000000000000000000815273ffffffffffffffffffffffffffffffffffffffff84166004820152602401610550565b81156111a657838573ffffffffffffffffffffffffffffffffffffffff168273ffffffffffffffffffffffffffffffffffffffff167f8c5be1e5ebec7d5bd14f71427d1e84f3dd0314c0f7b2291e5b200ac8c7c3b92560405160405180910390a45b505b50505f90815260046020526040902080547fffffffffffffffffffffffff00000000000000000000000000000000000000001673ffffffffffffffffffffffffffffffffffffffff92909216919091179055565b61120783838361138d565b6106135773ffffffffffffffffffffffffffffffffffffffff831661125b576040517f7e27328900000000000000000000000000000000000000000000000000000000815260048101829052602401610550565b6040517f177e802f00000000000000000000000000000000000000000000000000000000815273ffffffffffffffffffffffffffffffffffffffff8316600482015260248101829052604401610550565b5f807a184f03e93ff9f4daa797ed6e38ed64bf6a1f01000000000000000083106112f4577a184f03e93ff9f4daa797ed6e38ed64bf6a1f010000000000000000830492506040015b6d04ee2d6d415b85acef81000000008310611320576d04ee2d6d415b85acef8100000000830492506020015b662386f26fc10000831061133e57662386f26fc10000830492506010015b6305f5e1008310611356576305f5e100830492506008015b612710831061136a57612710830492506004015b6064831061137c576064830492506002015b600a831061042d5760010192915050565b5f73ffffffffffffffffffffffffffffffffffffffff83161580159061144957508273ffffffffffffffffffffffffffffffffffffffff168473ffffffffffffffffffffffffffffffffffffffff161480611419575073ffffffffffffffffffffffffffffffffffffffff8085165f9081526005602090815260408083209387168352929052205460ff165b8061144957505f8281526004602052604090205473ffffffffffffffffffffffffffffffffffffffff8481169116145b949350505050565b7fffffffff000000000000000000000000000000000000000000000000000000008116811461092b575f80fd5b5f6020828403121561148e575f80fd5b81356107e081611451565b5f81518084528060208401602086015e5f6020828601015260207fffffffffffffffffffffffffffffffffffffffffffffffffffffffffffffffe0601f83011685010191505092915050565b602081525f6107e06020830184611499565b5f60208284031215611507575f80fd5b5035919050565b803573ffffffffffffffffffffffffffffffffffffffff81168114611531575f80fd5b919050565b5f8060408385031215611547575f80fd5b6115508361150e565b946020939093013593505050565b5f805f60608486031215611570575f80fd5b6115798461150e565b92506115876020850161150e565b929592945050506040919091013590565b5f602082840312156115a8575f80fd5b6107e08261150e565b5f80604083850312156115c2575f80fd5b6115cb8361150e565b9150602083013580151581146115df575f80fd5b809150509250929050565b7f4e487b71000000000000000000000000000000000000000000000000000000005f52604160045260245ffd5b5f8067ffffffffffffffff841115611631576116316115ea565b506040517fffffffffffffffffffffffffffffffffffffffffffffffffffffffffffffffe0601f85018116603f0116810181811067ffffffffffffffff8211171561167e5761167e6115ea565b604052838152905080828401851015611695575f80fd5b838360208301375f60208583010152509392505050565b5f805f80608085870312156116bf575f80fd5b6116c88561150e565b93506116d66020860161150e565b925060408501359150606085013567ffffffffffffffff8111156116f8575f80fd5b8501601f81018713611708575f80fd5b61171787823560208401611617565b91505092959194509250565b5f8060408385031215611734575f80fd5b61173d8361150e565b9150602083013567ffffffffffffffff811115611758575f80fd5b8301601f81018513611768575f80fd5b61177785823560208401611617565b9150509250929050565b5f8060408385031215611792575f80fd5b61179b8361150e565b91506117a96020840161150e565b90509250929050565b600181811c908216806117c657607f821691505b6020821081036117fd577f4e487b71000000000000000000000000000000000000000000000000000000005f52602260045260245ffd5b50919050565b5f81518060208401855e5f93019283525090919050565b5f6114496118288386611803565b84611803565b5f7fffffffffffffffffffffffffffffffffffffffffffffffffffffffffffffffff8203611883577f4e487b71000000000000000000000000000000000000000000000000000000005f52601160045260245ffd5b5060010190565b601f82111561061357805f5260205f20601f840160051c810160208510156118af5750805b601f840160051c820191505b81811015610ec4575f81556001016118bb565b815167ffffffffffffffff8111156118e8576118e86115ea565b6118fc816118f684546117b2565b8461188a565b6020601f82116001811461194d575f83156119175750848201515b7fffffffffffffffffffffffffffffffffffffffffffffffffffffffffffffffff600385901b1c1916600184901b178455610ec4565b5f848152602081207fffffffffffffffffffffffffffffffffffffffffffffffffffffffffffffffe08516915b8281101561199a578785015182556020948501946001909201910161197a565b50848210156119d657868401517fffffffffffffffffffffffffffffffffffffffffffffffffffffffffffffffff600387901b60f8161c191681555b50505050600190811b01905550565b73ffffffffffffffffffffffffffffffffffffffff8516815273ffffffffffffffffffffffffffffffffffffffff84166020820152826040820152608060608201525f611a356080830184611499565b9695505050505050565b5f60208284031215611a4f575f80fd5b81516107e08161145156fea2646970667358221220b82747e3a414a1777d1b9b4eb4feb3ac158b3f1ab44430dee499648d74a16cad64736f6c634300081a0033","linkReferences":{}},"methodIdentifiers":{"IP_ASSET_REGISTRY()":"41c782c5","REGISTRATION_WORKFLOWS()":"0e59bdd8","SIMPLE_NFT()":"658b8909","SPG_NFT()":"e55ea494","mintIp()":"984b7093","spgMintIp()":"a3378ca6"},"id":2}