{"abi":[{"type":"constructor","inputs":[{"name":"licensingModule","type":"address","internalType":"address"},{"name":"disputeModule","type":"address","internalType":"address"},{"name":"licenseRegistry","type":"address","internalType":"address"},{"name":"ipAssetRegistry","type":"address","internalType":"address"}],"stateMutability":"nonpayable"},{"type":"function","name":"DISPUTE_MODULE","inputs":[],"outputs":[{"name":"","type":"address","internalType":"contract IDisputeModule"}],"stateMutability":"view"},{"type":"function","name":"IP_ASSET_REGISTRY","inputs":[],"outputs":[{"name":"","type":"address","internalType":"contract IGroupIPAssetRegistry"}],"stateMutability":"view"},{"type":"function","name":"IP_GRAPH","inputs":[],"outputs":[{"name":"","type":"address","internalType":"address"}],"stateMutability":"view"},{"type":"function","name":"LICENSE_REGISTRY","inputs":[],"outputs":[{"name":"","type":"address","internalType":"contract ILicenseRegistry"}],"stateMutability":"view"},{"type":"function","name":"LICENSING_MODULE","inputs":[],"outputs":[{"name":"","type":"address","internalType":"contract ILicensingModule"}],"stateMutability":"view"},{"type":"function","name":"MAX_PERCENT","inputs":[],"outputs":[{"name":"","type":"uint32","internalType":"uint32"}],"stateMutability":"view"},{"type":"function","name":"UPGRADE_INTERFACE_VERSION","inputs":[],"outputs":[{"name":"","type":"string","internalType":"string"}],"stateMutability":"view"},{"type":"function","name":"__ProtocolPausable_init","inputs":[{"name":"accessManager","type":"address","internalType":"address"}],"outputs":[],"stateMutability":"nonpayable"},{"type":"function","name":"accumulatedRoyaltyPolicies","inputs":[{"name":"ipId","type":"address","internalType":"address"}],"outputs":[{"name":"","type":"address[]","internalType":"address[]"}],"stateMutability":"view"},{"type":"function","name":"authority","inputs":[],"outputs":[{"name":"","type":"address","internalType":"address"}],"stateMutability":"view"},{"type":"function","name":"getAncestorsCount","inputs":[{"name":"ipId","type":"address","internalType":"address"}],"outputs":[{"name":"","type":"uint256","internalType":"uint256"}],"stateMutability":"nonpayable"},{"type":"function","name":"globalRoyaltyStack","inputs":[{"name":"ipId","type":"address","internalType":"address"}],"outputs":[{"name":"","type":"uint32","internalType":"uint32"}],"stateMutability":"view"},{"type":"function","name":"hasAncestorIp","inputs":[{"name":"ipId","type":"address","internalType":"address"},{"name":"ancestorIpId","type":"address","internalType":"address"}],"outputs":[{"name":"","type":"bool","internalType":"bool"}],"stateMutability":"nonpayable"},{"type":"function","name":"initialize","inputs":[{"name":"accessManager","type":"address","internalType":"address"},{"name":"parentLimit","type":"uint256","internalType":"uint256"},{"name":"ancestorLimit","type":"uint256","internalType":"uint256"},{"name":"accumulatedRoyaltyPoliciesLimit","type":"uint256","internalType":"uint256"}],"outputs":[],"stateMutability":"nonpayable"},{"type":"function","name":"ipRoyaltyVaultBeacon","inputs":[],"outputs":[{"name":"","type":"address","internalType":"address"}],"stateMutability":"view"},{"type":"function","name":"ipRoyaltyVaults","inputs":[{"name":"ipId","type":"address","internalType":"address"}],"outputs":[{"name":"","type":"address","internalType":"address"}],"stateMutability":"view"},{"type":"function","name":"isConsumingScheduledOp","inputs":[],"outputs":[{"name":"","type":"bytes4","internalType":"bytes4"}],"stateMutability":"view"},{"type":"function","name":"isIpRoyaltyVault","inputs":[{"name":"ipRoyaltyVault","type":"address","internalType":"address"}],"outputs":[{"name":"","type":"bool","internalType":"bool"}],"stateMutability":"view"},{"type":"function","name":"isRegisteredExternalRoyaltyPolicy","inputs":[{"name":"externalRoyaltyPolicy","type":"address","internalType":"address"}],"outputs":[{"name":"","type":"bool","internalType":"bool"}],"stateMutability":"view"},{"type":"function","name":"isWhitelistedRoyaltyPolicy","inputs":[{"name":"royaltyPolicy","type":"address","internalType":"address"}],"outputs":[{"name":"","type":"bool","internalType":"bool"}],"stateMutability":"view"},{"type":"function","name":"isWhitelistedRoyaltyToken","inputs":[{"name":"token","type":"address","internalType":"address"}],"outputs":[{"name":"","type":"bool","internalType":"bool"}],"stateMutability":"view"},{"type":"function","name":"maxAccumulatedRoyaltyPolicies","inputs":[],"outputs":[{"name":"","type":"uint256","internalType":"uint256"}],"stateMutability":"view"},{"type":"function","name":"maxAncestors","inputs":[],"outputs":[{"name":"","type":"uint256","internalType":"uint256"}],"stateMutability":"view"},{"type":"function","name":"maxParents","inputs":[],"outputs":[{"name":"","type":"uint256","internalType":"uint256"}],"stateMutability":"view"},{"type":"function","name":"maxPercent","inputs":[],"outputs":[{"name":"","type":"uint32","internalType":"uint32"}],"stateMutability":"pure"},{"type":"function","name":"name","inputs":[],"outputs":[{"name":"","type":"string","internalType":"string"}],"stateMutability":"view"},{"type":"function","name":"onLicenseMinting","inputs":[{"name":"ipId","type":"address","internalType":"address"},{"name":"royaltyPolicy","type":"address","internalType":"address"},{"name":"licensePercent","type":"uint32","internalType":"uint32"},{"name":"externalData","type":"bytes","internalType":"bytes"}],"outputs":[],"stateMutability":"nonpayable"},{"type":"function","name":"onLinkToParents","inputs":[{"name":"ipId","type":"address","internalType":"address"},{"name":"parentIpIds","type":"address[]","internalType":"address[]"},{"name":"licenseRoyaltyPolicies","type":"address[]","internalType":"address[]"},{"name":"licensesPercent","type":"uint32[]","internalType":"uint32[]"},{"name":"externalData","type":"bytes","internalType":"bytes"}],"outputs":[],"stateMutability":"nonpayable"},{"type":"function","name":"pause","inputs":[],"outputs":[],"stateMutability":"nonpayable"},{"type":"function","name":"paused","inputs":[],"outputs":[{"name":"","type":"bool","internalType":"bool"}],"stateMutability":"view"},{"type":"function","name":"payLicenseMintingFee","inputs":[{"name":"receiverIpId","type":"address","internalType":"address"},{"name":"payerAddress","type":"address","internalType":"address"},{"name":"token","type":"address","internalType":"address"},{"name":"amount","type":"uint256","internalType":"uint256"}],"outputs":[],"stateMutability":"nonpayable"},{"type":"function","name":"payRoyaltyOnBehalf","inputs":[{"name":"receiverIpId","type":"address","internalType":"address"},{"name":"payerIpId","type":"address","internalType":"address"},{"name":"token","type":"address","internalType":"address"},{"name":"amount","type":"uint256","internalType":"uint256"}],"outputs":[],"stateMutability":"nonpayable"},{"type":"function","name":"proxiableUUID","inputs":[],"outputs":[{"name":"","type":"bytes32","internalType":"bytes32"}],"stateMutability":"view"},{"type":"function","name":"registerExternalRoyaltyPolicy","inputs":[{"name":"externalRoyaltyPolicy","type":"address","internalType":"address"}],"outputs":[],"stateMutability":"nonpayable"},{"type":"function","name":"royaltyFeePercent","inputs":[],"outputs":[{"name":"","type":"uint32","internalType":"uint32"}],"stateMutability":"view"},{"type":"function","name":"setAuthority","inputs":[{"name":"newAuthority","type":"address","internalType":"address"}],"outputs":[],"stateMutability":"nonpayable"},{"type":"function","name":"setIpGraphLimits","inputs":[{"name":"parentLimit","type":"uint256","internalType":"uint256"},{"name":"ancestorLimit","type":"uint256","internalType":"uint256"},{"name":"accumulatedRoyaltyPoliciesLimit","type":"uint256","internalType":"uint256"}],"outputs":[],"stateMutability":"nonpayable"},{"type":"function","name":"setIpRoyaltyVaultBeacon","inputs":[{"name":"beacon","type":"address","internalType":"address"}],"outputs":[],"stateMutability":"nonpayable"},{"type":"function","name":"setRoyaltyFeePercent","inputs":[{"name":"royaltyFeePercent","type":"uint32","internalType":"uint32"}],"outputs":[],"stateMutability":"nonpayable"},{"type":"function","name":"setSnapshotInterval","inputs":[{"name":"timestampInterval","type":"uint256","internalType":"uint256"}],"outputs":[],"stateMutability":"nonpayable"},{"type":"function","name":"setTreasury","inputs":[{"name":"treasury","type":"address","internalType":"address"}],"outputs":[],"stateMutability":"nonpayable"},{"type":"function","name":"snapshotInterval","inputs":[],"outputs":[{"name":"","type":"uint256","internalType":"uint256"}],"stateMutability":"view"},{"type":"function","name":"supportsInterface","inputs":[{"name":"interfaceId","type":"bytes4","internalType":"bytes4"}],"outputs":[{"name":"","type":"bool","internalType":"bool"}],"stateMutability":"view"},{"type":"function","name":"totalRevenueTokensReceived","inputs":[{"name":"ipId","type":"address","internalType":"address"},{"name":"token","type":"address","internalType":"address"}],"outputs":[{"name":"","type":"uint256","internalType":"uint256"}],"stateMutability":"view"},{"type":"function","name":"treasury","inputs":[],"outputs":[{"name":"","type":"address","internalType":"address"}],"stateMutability":"view"},{"type":"function","name":"unpause","inputs":[],"outputs":[],"stateMutability":"nonpayable"},{"type":"function","name":"upgradeToAndCall","inputs":[{"name":"newImplementation","type":"address","internalType":"address"},{"name":"data","type":"bytes","internalType":"bytes"}],"outputs":[],"stateMutability":"payable"},{"type":"function","name":"upgradeVaults","inputs":[{"name":"newVault","type":"address","internalType":"address"}],"outputs":[],"stateMutability":"nonpayable"},{"type":"function","name":"whitelistRoyaltyPolicy","inputs":[{"name":"royaltyPolicy","type":"address","internalType":"address"},{"name":"allowed","type":"bool","internalType":"bool"}],"outputs":[],"stateMutability":"nonpayable"},{"type":"function","name":"whitelistRoyaltyToken","inputs":[{"name":"token","type":"address","internalType":"address"},{"name":"allowed","type":"bool","internalType":"bool"}],"outputs":[],"stateMutability":"nonpayable"},{"type":"event","name":"AuthorityUpdated","inputs":[{"name":"authority","type":"address","indexed":false,"internalType":"address"}],"anonymous":false},{"type":"event","name":"ExternalRoyaltyPolicyRegistered","inputs":[{"name":"externalRoyaltyPolicy","type":"address","indexed":false,"internalType":"address"}],"anonymous":false},{"type":"event","name":"Initialized","inputs":[{"name":"version","type":"uint64","indexed":false,"internalType":"uint64"}],"anonymous":false},{"type":"event","name":"IpGraphLimitsUpdated","inputs":[{"name":"maxParents","type":"uint256","indexed":false,"internalType":"uint256"},{"name":"maxAncestors","type":"uint256","indexed":false,"internalType":"uint256"},{"name":"accumulatedRoyaltyPoliciesLimit","type":"uint256","indexed":false,"internalType":"uint256"}],"anonymous":false},{"type":"event","name":"LicenseMintingFeePaid","inputs":[{"name":"receiverIpId","type":"address","indexed":false,"internalType":"address"},{"name":"payerAddress","type":"address","indexed":false,"internalType":"address"},{"name":"token","type":"address","indexed":false,"internalType":"address"},{"name":"amount","type":"uint256","indexed":false,"internalType":"uint256"}],"anonymous":false},{"type":"event","name":"LicensedWithRoyalty","inputs":[{"name":"ipId","type":"address","indexed":false,"internalType":"address"},{"name":"royaltyPolicy","type":"address","indexed":false,"internalType":"address"},{"name":"licensePercent","type":"uint32","indexed":false,"internalType":"uint32"},{"name":"externalData","type":"bytes","indexed":false,"internalType":"bytes"}],"anonymous":false},{"type":"event","name":"LinkedToParents","inputs":[{"name":"ipId","type":"address","indexed":false,"internalType":"address"},{"name":"parentIpIds","type":"address[]","indexed":false,"internalType":"address[]"},{"name":"licenseRoyaltyPolicies","type":"address[]","indexed":false,"internalType":"address[]"},{"name":"licensesPercent","type":"uint32[]","indexed":false,"internalType":"uint32[]"},{"name":"externalData","type":"bytes","indexed":false,"internalType":"bytes"}],"anonymous":false},{"type":"event","name":"Paused","inputs":[{"name":"account","type":"address","indexed":false,"internalType":"address"}],"anonymous":false},{"type":"event","name":"RoyaltyFeePercentSet","inputs":[{"name":"royaltyFeePercent","type":"uint256","indexed":false,"internalType":"uint256"}],"anonymous":false},{"type":"event","name":"RoyaltyPaid","inputs":[{"name":"receiverIpId","type":"address","indexed":false,"internalType":"address"},{"name":"payerIpId","type":"address","indexed":false,"internalType":"address"},{"name":"sender","type":"address","indexed":false,"internalType":"address"},{"name":"token","type":"address","indexed":false,"internalType":"address"},{"name":"amount","type":"uint256","indexed":false,"internalType":"uint256"}],"anonymous":false},{"type":"event","name":"RoyaltyPolicyWhitelistUpdated","inputs":[{"name":"royaltyPolicy","type":"address","indexed":false,"internalType":"address"},{"name":"allowed","type":"bool","indexed":false,"internalType":"bool"}],"anonymous":false},{"type":"event","name":"RoyaltyTokenWhitelistUpdated","inputs":[{"name":"token","type":"address","indexed":false,"internalType":"address"},{"name":"allowed","type":"bool","indexed":false,"internalType":"bool"}],"anonymous":false},{"type":"event","name":"TreasurySet","inputs":[{"name":"treasury","type":"address","indexed":false,"internalType":"address"}],"anonymous":false},{"type":"event","name":"Unpaused","inputs":[{"name":"account","type":"address","indexed":false,"internalType":"address"}],"anonymous":false},{"type":"event","name":"Upgraded","inputs":[{"name":"implementation","type":"address","indexed":true,"internalType":"address"}],"anonymous":false},{"type":"error","name":"AccessManagedInvalidAuthority","inputs":[{"name":"authority","type":"address","internalType":"address"}]},{"type":"error","name":"AccessManagedRequiredDelay","inputs":[{"name":"caller","type":"address","internalType":"address"},{"name":"delay","type":"uint32","internalType":"uint32"}]},{"type":"error","name":"AccessManagedUnauthorized","inputs":[{"name":"caller","type":"address","internalType":"address"}]},{"type":"error","name":"AddressEmptyCode","inputs":[{"name":"target","type":"address","internalType":"address"}]},{"type":"error","name":"ERC1967InvalidImplementation","inputs":[{"name":"implementation","type":"address","internalType":"address"}]},{"type":"error","name":"ERC1967NonPayable","inputs":[]},{"type":"error","name":"EnforcedPause","inputs":[]},{"type":"error","name":"ExpectedPause","inputs":[]},{"type":"error","name":"FailedCall","inputs":[]},{"type":"error","name":"InvalidInitialization","inputs":[]},{"type":"error","name":"NotInitializing","inputs":[]},{"type":"error","name":"ReentrancyGuardReentrantCall","inputs":[]},{"type":"error","name":"RoyaltyModule__AboveAccumulatedRoyaltyPoliciesLimit","inputs":[]},{"type":"error","name":"RoyaltyModule__AboveAncestorsLimit","inputs":[]},{"type":"error","name":"RoyaltyModule__AboveMaxPercent","inputs":[]},{"type":"error","name":"RoyaltyModule__AboveParentLimit","inputs":[]},{"type":"error","name":"RoyaltyModule__IpIsTagged","inputs":[]},{"type":"error","name":"RoyaltyModule__LastPositionNotAbleToMintLicense","inputs":[]},{"type":"error","name":"RoyaltyModule__NoParentsOnLinking","inputs":[]},{"type":"error","name":"RoyaltyModule__NotAllowedCaller","inputs":[]},{"type":"error","name":"RoyaltyModule__NotWhitelistedOrRegisteredRoyaltyPolicy","inputs":[]},{"type":"error","name":"RoyaltyModule__NotWhitelistedRoyaltyToken","inputs":[]},{"type":"error","name":"RoyaltyModule__PolicyAlreadyWhitelistedOrRegistered","inputs":[]},{"type":"error","name":"RoyaltyModule__UnlinkableToParents","inputs":[]},{"type":"error","name":"RoyaltyModule__ZeroAccessManager","inputs":[]},{"type":"error","name":"RoyaltyModule__ZeroAccumulatedRoyaltyPoliciesLimit","inputs":[]},{"type":"error","name":"RoyaltyModule__ZeroAmount","inputs":[]},{"type":"error","name":"RoyaltyModule__ZeroDisputeModule","inputs":[]},{"type":"error","name":"RoyaltyModule__ZeroIpAssetRegistry","inputs":[]},{"type":"error","name":"RoyaltyModule__ZeroLicenseRegistry","inputs":[]},{"type":"error","name":"RoyaltyModule__ZeroLicensingModule","inputs":[]},{"type":"error","name":"RoyaltyModule__ZeroMaxAncestors","inputs":[]},{"type":"error","name":"RoyaltyModule__ZeroMaxParents","inputs":[]},{"type":"error","name":"RoyaltyModule__ZeroParentIpId","inputs":[]},{"type":"error","name":"RoyaltyModule__ZeroReceiverVault","inputs":[]},{"type":"error","name":"RoyaltyModule__ZeroRoyaltyPolicy","inputs":[]},{"type":"error","name":"RoyaltyModule__ZeroRoyaltyToken","inputs":[]},{"type":"error","name":"RoyaltyModule__ZeroTreasury","inputs":[]},{"type":"error","name":"SafeERC20FailedOperation","inputs":[{"name":"token","type":"address","internalType":"address"}]},{"type":"error","name":"UUPSUnauthorizedCallContext","inputs":[]},{"type":"error","name":"UUPSUnsupportedProxiableUUID","inputs":[{"name":"slot","type":"bytes32","internalType":"bytes32"}]},{"type":"error","name":"VaultController__ZeroIpRoyaltyVaultBeacon","inputs":[]}],"bytecode":{"object":"0x61012060405230608052348015610014575f80fd5b5060405161571d38038061571d833981016040819052610033916101cd565b6001600160a01b03841661005a57604051631f17bb8960e21b815260040160405180910390fd5b6001600160a01b03831661008157604051631c4f53d960e21b815260040160405180910390fd5b6001600160a01b0382166100a857604051633c00bfed60e11b815260040160405180910390fd5b6001600160a01b0381166100cf57604051631333a86360e21b815260040160405180910390fd5b6001600160a01b0380851660a05283811660c05282811660e0528116610100526100f7610100565b5050505061021e565b7ff0c57e16840df040f15088dc2f81fe391c3923bec73e23a9662efc9c229c6a00805468010000000000000000900460ff16156101505760405163f92ee8a960e01b815260040160405180910390fd5b80546001600160401b03908116146101af5780546001600160401b0319166001600160401b0390811782556040519081527fc7f505b2f371ae2175ee4913f4499e1f2633a7b5936321eed1cdaeb6115181d29060200160405180910390a15b50565b80516001600160a01b03811681146101c8575f80fd5b919050565b5f805f80608085870312156101e0575f80fd5b6101e9856101b2565b93506101f7602086016101b2565b9250610205604086016101b2565b9150610213606086016101b2565b905092959194509250565b60805160a05160c05160e0516101005161547c6102a15f395f81816105da0152818161148601528181611533015281816139b60152613a6301525f610b6801525f8181610bce0152612cd901525f818161073b0152818161119d0152818161127001526120e901525f81816131da0152818161320301526133ae015261547c5ff3fe608060405260043610610319575f3560e01c80636b9ea4f61161019c578063becfc917116100e7578063dca615ed11610092578063f0f442601161006d578063f0f4426014610b8a578063f37a6e1514610ba9578063f943f09014610bbd578063fc76191914610bf0575f80fd5b8063dca615ed14610ae7578063e9f8990414610b38578063f0ebdc8314610b57575f80fd5b8063d2577f3b116100c2578063d2577f3b14610a76578063d589a20a14610a95578063dae82ae614610ac8575f80fd5b8063becfc917146109e8578063bf7e214f14610a07578063c4a3df1014610a43575f80fd5b80638fb3603711610147578063996ff67111610122578063996ff6711461091e578063ad3cb1cc1461093d578063ba85fc0614610985575f80fd5b80638fb360371461082d578063926e04fd1461087257806396467814146108c8575f80fd5b80637a9e5e4b116101775780637a9e5e4b146107e65780638456cb59146108055780638d3b4f5914610819575f80fd5b80636b9ea4f61461075d578063764e57fe146107715780637a112e7914610790575f80fd5b806341a03d5f116102675780634f1ef2861161021257806359a153ba116101ed57806359a153ba146106c45780635c975abb146106da57806361d027b3146106ee57806365165aa51461072a575f80fd5b80634f1ef2861461067e578063520cbac61461069157806352d1902d146106b0575f80fd5b80634811920211610242578063481192021461061457806349fb4615146106405780634ec81af11461065f575f80fd5b806341a03d5f1461058b57806341c70a21146105aa57806341c782c5146105c9575f80fd5b8063198fdd98116102c757806337143fb3116102a257806337143fb3146104cb5780633f4ba83a146105215780633f7aef8c14610535575f80fd5b8063198fdd98146104345780631b785d76146104535780632d4a93e8146104ac575f80fd5b80631036bbe2116102f75780631036bbe2146103c857806310487a6c146103f4578063154cf6d114610413575f80fd5b806301ffc9a71461031d57806306fdde031461035157806307d0413c146103a6575b5f80fd5b348015610328575f80fd5b5061033c610337366004614523565b610c0f565b60405190151581526020015b60405180910390f35b34801561035c575f80fd5b506103996040518060400160405280600e81526020017f524f59414c54595f4d4f44554c4500000000000000000000000000000000000081525081565b6040516103489190614562565b3480156103b1575f80fd5b506103ba610c6a565b604051908152602001610348565b3480156103d3575f80fd5b506103df6305f5e10081565b60405163ffffffff9091168152602001610348565b3480156103ff575f80fd5b5061033c61040e3660046145c9565b610c96565b34801561041e575f80fd5b5061043261042d366004614611565b610ca8565b005b34801561043f575f80fd5b5061043261044e36600461462c565b610e02565b34801561045e575f80fd5b506103df61046d36600461462c565b6001600160a01b03165f9081527f98dd2c34f21d19fd1d178ed731f3db3d03e0b4e39f02dbeb040e80c9427a0308602052604090205463ffffffff1690565b3480156104b7575f80fd5b506104326104c636600461462c565b610f88565b3480156104d6575f80fd5b5061033c6104e536600461462c565b6001600160a01b03165f9081527f98dd2c34f21d19fd1d178ed731f3db3d03e0b4e39f02dbeb040e80c9427a0305602052604090205460ff1690565b34801561052c575f80fd5b5061043261117f565b348015610540575f80fd5b5061033c61054f36600461462c565b6001600160a01b03165f9081527f98dd2c34f21d19fd1d178ed731f3db3d03e0b4e39f02dbeb040e80c9427a0307602052604090205460ff1690565b348015610596575f80fd5b506104326105a5366004614647565b611192565b3480156105b5575f80fd5b506104326105c43660046146da565b61125d565b3480156105d4575f80fd5b506105fc7f000000000000000000000000000000000000000000000000000000000000000081565b6040516001600160a01b039091168152602001610348565b34801561061f575f80fd5b5061063361062e36600461462c565b6116b6565b6040516103489190614751565b34801561064b575f80fd5b5061043261065a3660046147a9565b6116f8565b34801561066a575f80fd5b506104326106793660046147d5565b611804565b61043261068c36600461483a565b611aed565b34801561069c575f80fd5b506104326106ab3660046147a9565b611b0c565b3480156106bb575f80fd5b506103ba611c0f565b3480156106cf575f80fd5b506305f5e1006103df565b3480156106e5575f80fd5b5061033c611c3d565b3480156106f9575f80fd5b507f98dd2c34f21d19fd1d178ed731f3db3d03e0b4e39f02dbeb040e80c9427a030b546001600160a01b03166105fc565b348015610735575f80fd5b506105fc7f000000000000000000000000000000000000000000000000000000000000000081565b348015610768575f80fd5b506105fc601b81565b34801561077c575f80fd5b5061043261078b36600461493d565b611c6e565b34801561079b575f80fd5b506105fc6107aa36600461462c565b6001600160a01b039081165f9081527f98dd2c34f21d19fd1d178ed731f3db3d03e0b4e39f02dbeb040e80c9427a030660205260409020541690565b3480156107f1575f80fd5b5061043261080036600461462c565b611c9b565b348015610810575f80fd5b50610432611d7e565b348015610824575f80fd5b506103ba611d8f565b348015610838575f80fd5b50610841611db6565b6040517fffffffff000000000000000000000000000000000000000000000000000000009091168152602001610348565b34801561087d575f80fd5b5061033c61088c36600461462c565b6001600160a01b03165f9081527f98dd2c34f21d19fd1d178ed731f3db3d03e0b4e39f02dbeb040e80c9427a0304602052604090205460ff1690565b3480156108d3575f80fd5b5061033c6108e236600461462c565b6001600160a01b03165f9081527f98dd2c34f21d19fd1d178ed731f3db3d03e0b4e39f02dbeb040e80c9427a0303602052604090205460ff1690565b348015610929575f80fd5b50610432610938366004614954565b611e29565b348015610948575f80fd5b506103996040518060400160405280600581526020017f352e302e3000000000000000000000000000000000000000000000000000000081525081565b348015610990575f80fd5b506103ba61099f3660046145c9565b6001600160a01b039182165f9081527f98dd2c34f21d19fd1d178ed731f3db3d03e0b4e39f02dbeb040e80c9427a030a6020908152604080832093909416825291909152205490565b3480156109f3575f80fd5b50610432610a0236600461462c565b611f87565b348015610a12575f80fd5b507ff3177357ab46d8af007ab3fdb9af81da189e1068fefdc0073dca88a2cab40a00546001600160a01b03166105fc565b348015610a4e575f80fd5b507f98dd2c34f21d19fd1d178ed731f3db3d03e0b4e39f02dbeb040e80c9427a0300546103ba565b348015610a81575f80fd5b50610432610a90366004614647565b612029565b348015610aa0575f80fd5b507f98dd2c34f21d19fd1d178ed731f3db3d03e0b4e39f02dbeb040e80c9427a0302546103ba565b348015610ad3575f80fd5b506103ba610ae236600461462c565b6120cc565b348015610af2575f80fd5b507f98dd2c34f21d19fd1d178ed731f3db3d03e0b4e39f02dbeb040e80c9427a030b5474010000000000000000000000000000000000000000900463ffffffff166103df565b348015610b43575f80fd5b50610432610b523660046149be565b6120d6565b348015610b62575f80fd5b506105fc7f000000000000000000000000000000000000000000000000000000000000000081565b348015610b95575f80fd5b50610432610ba436600461462c565b61253f565b348015610bb4575f80fd5b506105fc612614565b348015610bc8575f80fd5b506105fc7f000000000000000000000000000000000000000000000000000000000000000081565b348015610bfb575f80fd5b50610432610c0a36600461462c565b612646565b5f7fffffffff0000000000000000000000000000000000000000000000000000000082167f5c7f4e4a000000000000000000000000000000000000000000000000000000001480610c645750610c64826126e1565b92915050565b5f7f88cf5a7bd03e240c4fc740fb2d1a8664ec6fa4816f867d60f968080755fb17005b60010154905090565b5f610ca18383612777565b9392505050565b610cb4335b5f366128e5565b6305f5e10063ffffffff82161115610cf8576040517f39759b1400000000000000000000000000000000000000000000000000000000815260040160405180910390fd5b7f98dd2c34f21d19fd1d178ed731f3db3d03e0b4e39f02dbeb040e80c9427a030b547f98dd2c34f21d19fd1d178ed731f3db3d03e0b4e39f02dbeb040e80c9427a0300906001600160a01b0316610d7b576040517f2b04663c00000000000000000000000000000000000000000000000000000000815260040160405180910390fd5b600b810180547fffffffffffffffff00000000ffffffffffffffffffffffffffffffffffffffff167401000000000000000000000000000000000000000063ffffffff8516908102919091179091556040519081527f0e8d42b18fa91cb0cd713489a7b41ca90f87662117bffa53be0b80b24968ffa1906020015b60405180910390a15050565b7ff0c57e16840df040f15088dc2f81fe391c3923bec73e23a9662efc9c229c6a00805468010000000000000000810460ff16159067ffffffffffffffff165f81158015610e4c5750825b90505f8267ffffffffffffffff166001148015610e685750303b155b905081158015610e76575080155b15610ead576040517ff92ee8a900000000000000000000000000000000000000000000000000000000815260040160405180910390fd5b84547fffffffffffffffffffffffffffffffffffffffffffffffff00000000000000001660011785558315610f0e5784547fffffffffffffffffffffffffffffffffffffffffffffff00ffffffffffffffff16680100000000000000001785555b610f1786612aa1565b610f1f612ab2565b8315610f805784547fffffffffffffffffffffffffffffffffffffffffffffff00ffffffffffffffff168555604051600181527fc7f505b2f371ae2175ee4913f4499e1f2633a7b5936321eed1cdaeb6115181d29060200160405180910390a15b505050505050565b610f90612ac2565b6001600160a01b0381165f9081527f98dd2c34f21d19fd1d178ed731f3db3d03e0b4e39f02dbeb040e80c9427a030360205260409020547f98dd2c34f21d19fd1d178ed731f3db3d03e0b4e39f02dbeb040e80c9427a03009060ff168061101057506001600160a01b0382165f90815260058201602052604090205460ff165b15611047576040517f18ed4e4600000000000000000000000000000000000000000000000000000000815260040160405180910390fd5b6040517ff2197fae0000000000000000000000000000000000000000000000000000000081525f6004820181905260248201819052906001600160a01b0384169063f2197fae90604401602060405180830381865afa1580156110ac573d5f803e3d5ffd5b505050506040513d601f19601f820116820180604052508101906110d09190614aa0565b63ffffffff1610611152576001600160a01b0382165f81815260058301602090815260409182902080547fffffffffffffffffffffffffffffffffffffffffffffffffffffffffffffff0016600117905590519182527ffa27155b112ae3035c7727699f07f42a76b80abcd0631933e8b802c6665ea34c910160405180910390a15b5061117c60017f9b779b17422d0df92223018b32b4d1fa46e071723d6817e2486d003becc55f0055565b50565b61118833610cad565b611190612b69565b565b336001600160a01b037f000000000000000000000000000000000000000000000000000000000000000016146111f4576040517f6f34205e00000000000000000000000000000000000000000000000000000000815260040160405180910390fd5b61120084848484612bf3565b604080516001600160a01b0380871682528086166020830152841691810191909152606081018290527f6d0da56cef79c5ded8a144464d37388ba6113852dd5c33ad704b258a371a4e8a906080015b60405180910390a150505050565b611265612ac2565b336001600160a01b037f000000000000000000000000000000000000000000000000000000000000000016146112c7576040517f6f34205e00000000000000000000000000000000000000000000000000000000815260040160405180910390fd5b7f98dd2c34f21d19fd1d178ed731f3db3d03e0b4e39f02dbeb040e80c9427a03006001600160a01b038516611328576040517fb3c4f5c500000000000000000000000000000000000000000000000000000000815260040160405180910390fd5b6305f5e10063ffffffff8516111561136c576040517f39759b1400000000000000000000000000000000000000000000000000000000815260040160405180910390fd5b6001600160a01b0385165f90815260038201602052604090205460ff161580156113b057506001600160a01b0385165f90815260058201602052604090205460ff16155b156113e7576040517f93c5644900000000000000000000000000000000000000000000000000000000815260040160405180910390fd5b80600101546113f587612e61565b1061142c576040517f854388a900000000000000000000000000000000000000000000000000000000815260040160405180910390fd5b6001600160a01b038681165f908152600683016020526040902054166115ab576040517f51eee2760000000000000000000000000000000000000000000000000000000081526001600160a01b0387811660048301525f917f0000000000000000000000000000000000000000000000000000000000000000909116906351eee27690602401602060405180830381865afa1580156114cd573d5f803e3d5ffd5b505050506040513d601f19601f820116820180604052508101906114f19190614abb565b6114fb578661159c565b6040517f30d632800000000000000000000000000000000000000000000000000000000081526001600160a01b0388811660048301527f000000000000000000000000000000000000000000000000000000000000000016906330d6328090602401602060405180830381865afa158015611578573d5f803e3d5ffd5b505050506040513d601f19601f8201168201806040525081019061159c9190614ad6565b90506115a88782612fc6565b50505b6001600160a01b0385165f90815260038201602052604090205460ff1615611646576040517f4b02e1c00000000000000000000000000000000000000000000000000000000081526001600160a01b03861690634b02e1c090611618908990889088908890600401614b38565b5f604051808303815f87803b15801561162f575f80fd5b505af1158015611641573d5f803e3d5ffd5b505050505b7f5d287c3eae6c46e39c7ca4220cb6cc34d8a8730ce37321b07068a141e222ca1c868686868660405161167d959493929190614b70565b60405180910390a1506116af60017f9b779b17422d0df92223018b32b4d1fa46e071723d6817e2486d003becc55f0055565b5050505050565b6001600160a01b0381165f9081527f98dd2c34f21d19fd1d178ed731f3db3d03e0b4e39f02dbeb040e80c9427a030960205260409020606090610c64906131ab565b61170133610cad565b6001600160a01b038216611741576040517fb3c4f5c500000000000000000000000000000000000000000000000000000000815260040160405180910390fd5b6001600160a01b0382165f8181527f98dd2c34f21d19fd1d178ed731f3db3d03e0b4e39f02dbeb040e80c9427a0303602090815260409182902080547fffffffffffffffffffffffffffffffffffffffffffffffffffffffffffffff00168515159081179091558251938452908301527f98dd2c34f21d19fd1d178ed731f3db3d03e0b4e39f02dbeb040e80c9427a0300917f1f584640e1aae6441a6deba8d18148f5c9fb11a0bd7640e4b2808383a966269091015b60405180910390a1505050565b7ff0c57e16840df040f15088dc2f81fe391c3923bec73e23a9662efc9c229c6a00805468010000000000000000810460ff16159067ffffffffffffffff165f8115801561184e5750825b90505f8267ffffffffffffffff16600114801561186a5750303b155b905081158015611878575080155b156118af576040517ff92ee8a900000000000000000000000000000000000000000000000000000000815260040160405180910390fd5b84547fffffffffffffffffffffffffffffffffffffffffffffffff000000000000000016600117855583156119105784547fffffffffffffffffffffffffffffffffffffffffffffff00ffffffffffffffff16680100000000000000001785555b6001600160a01b038916611950576040517fe13287ed00000000000000000000000000000000000000000000000000000000815260040160405180910390fd5b875f03611989576040517f8d7c57b500000000000000000000000000000000000000000000000000000000815260040160405180910390fd5b865f036119c2576040517fe30b89db00000000000000000000000000000000000000000000000000000000815260040160405180910390fd5b855f036119fb576040517fddaf76e700000000000000000000000000000000000000000000000000000000815260040160405180910390fd5b7f98dd2c34f21d19fd1d178ed731f3db3d03e0b4e39f02dbeb040e80c9427a03008881557f98dd2c34f21d19fd1d178ed731f3db3d03e0b4e39f02dbeb040e80c9427a03018890557f98dd2c34f21d19fd1d178ed731f3db3d03e0b4e39f02dbeb040e80c9427a0302879055611a708a610e02565b611a786131b7565b611a806131c7565b508315611ae25784547fffffffffffffffffffffffffffffffffffffffffffffff00ffffffffffffffff168555604051600181527fc7f505b2f371ae2175ee4913f4499e1f2633a7b5936321eed1cdaeb6115181d29060200160405180910390a15b505050505050505050565b611af56131cf565b611afe82613276565b611b08828261327f565b5050565b611b1533610cad565b6001600160a01b038216611b55576040517f6bed9b9600000000000000000000000000000000000000000000000000000000815260040160405180910390fd5b6001600160a01b0382165f8181527f98dd2c34f21d19fd1d178ed731f3db3d03e0b4e39f02dbeb040e80c9427a0304602090815260409182902080547fffffffffffffffffffffffffffffffffffffffffffffffffffffffffffffff00168515159081179091558251938452908301527f98dd2c34f21d19fd1d178ed731f3db3d03e0b4e39f02dbeb040e80c9427a0300917fb40e5b8c4310e269d81608ec0e28372febb69a03ed8ace904c86459366cc362791016117f7565b5f611c186133a3565b507f360894a13ba1a3210667c828492db98dca3e2076cc3735a920a3ca505d382bbc90565b5f611c697fcd5ed15c6e187e77e9aee88184c21f4f2182ab5827cb3b7e07fbedcd63f033005460ff1690565b905090565b611c7733610cad565b7f88cf5a7bd03e240c4fc740fb2d1a8664ec6fa4816f867d60f968080755fb170155565b33611ccd7ff3177357ab46d8af007ab3fdb9af81da189e1068fefdc0073dca88a2cab40a00546001600160a01b031690565b6001600160a01b0316816001600160a01b031614611d27576040517f068ca9d80000000000000000000000000000000000000000000000000000000081526001600160a01b03821660048201526024015b60405180910390fd5b816001600160a01b03163b5f03611d75576040517fc2f31e5e0000000000000000000000000000000000000000000000000000000081526001600160a01b0383166004820152602401611d1e565b611b0882613405565b611d8733610cad565b611190613489565b5f7f98dd2c34f21d19fd1d178ed731f3db3d03e0b4e39f02dbeb040e80c9427a0300610c8d565b7ff3177357ab46d8af007ab3fdb9af81da189e1068fefdc0073dca88a2cab40a0080545f919074010000000000000000000000000000000000000000900460ff16611e01575f611e23565b7f8fb36037000000000000000000000000000000000000000000000000000000005b91505090565b611e3233610cad565b825f03611e6b576040517f8d7c57b500000000000000000000000000000000000000000000000000000000815260040160405180910390fd5b815f03611ea4576040517fe30b89db00000000000000000000000000000000000000000000000000000000815260040160405180910390fd5b805f03611edd576040517fddaf76e700000000000000000000000000000000000000000000000000000000815260040160405180910390fd5b7f98dd2c34f21d19fd1d178ed731f3db3d03e0b4e39f02dbeb040e80c9427a03008381557f98dd2c34f21d19fd1d178ed731f3db3d03e0b4e39f02dbeb040e80c9427a03018390557f98dd2c34f21d19fd1d178ed731f3db3d03e0b4e39f02dbeb040e80c9427a030282905560408051858152602081018590529081018390527ffbaf8b310f110352a40baeac4bd35ff64db9d1457cd60b094f46a30bd1b998189060600161124f565b611f9033610cad565b6001600160a01b038116611fd0576040517f82c6483500000000000000000000000000000000000000000000000000000000815260040160405180910390fd5b7f88cf5a7bd03e240c4fc740fb2d1a8664ec6fa4816f867d60f968080755fb170080547fffffffffffffffffffffffff0000000000000000000000000000000000000000166001600160a01b0392909216919091179055565b612031612ac2565b612039613502565b61204584338484612bf3565b604080516001600160a01b03868116825285811660208301523382840152841660608201526080810183905290517fe0ee75d70c5bcafc95db3e81961af1375efcd0e19fbfd7cae8a85f41c68e2d2d9181900360a00190a16120c660017f9b779b17422d0df92223018b32b4d1fa46e071723d6817e2486d003becc55f0055565b50505050565b5f610c6482612e61565b6120de612ac2565b336001600160a01b037f00000000000000000000000000000000000000000000000000000000000000001614612140576040517f6f34205e00000000000000000000000000000000000000000000000000000000815260040160405180910390fd5b6001600160a01b038981165f9081527f98dd2c34f21d19fd1d178ed731f3db3d03e0b4e39f02dbeb040e80c9427a030660205260409020547f98dd2c34f21d19fd1d178ed731f3db3d03e0b4e39f02dbeb040e80c9427a03009116156121d2576040517ffda4a08400000000000000000000000000000000000000000000000000000000815260040160405180910390fd5b5f88900361220c576040517f0ba6c89a00000000000000000000000000000000000000000000000000000000815260040160405180910390fd5b8054881115612247576040517f983c214300000000000000000000000000000000000000000000000000000000815260040160405180910390fd5b80600101546122558b612e61565b111561228d576040517f7fb2de5a00000000000000000000000000000000000000000000000000000000815260040160405180910390fd5b5f6122988b30612fc6565b90506122aa8b8b8b8b8b8b8b88613541565b6001600160a01b038b165f908152600983016020526040812081906122ce906131ab565b90505f5b815181101561243e57846003015f8383815181106122f2576122f2614bb8565b6020908102919091018101516001600160a01b031682528101919091526040015f205460ff16156123c35781818151811061232f5761232f614bb8565b60200260200101516001600160a01b031663e9f899048f8f8f8f8f8f8f8f8f6040518a63ffffffff1660e01b815260040161237299989796959493929190614c2d565b6020604051808303815f875af115801561238e573d5f803e3d5ffd5b505050506040513d601f19601f820116820180604052508101906123b29190614aa0565b6123bc9084614cf4565b9250612436565b846005015f8383815181106123da576123da614bb8565b6020908102919091018101516001600160a01b031682528101919091526040015f205460ff16612436576040517f93c5644900000000000000000000000000000000000000000000000000000000815260040160405180910390fd5b6001016122d2565b506305f5e10063ffffffff83161115612483576040517f39759b1400000000000000000000000000000000000000000000000000000000815260040160405180910390fd5b6001600160a01b038d165f9081526008850160205260409081902080547fffffffffffffffffffffffffffffffffffffffffffffffffffffffff000000001663ffffffff8516179055517fe48d15d99d7597f19b7957921e1ee75084e8e0e4cd8fb1e3d863dcd8a14a00199061250a908f908f908f908f908f908f908f908f908f90614c2d565b60405180910390a150505050611ae260017f9b779b17422d0df92223018b32b4d1fa46e071723d6817e2486d003becc55f0055565b61254833610cad565b6001600160a01b038116612588576040517f2b04663c00000000000000000000000000000000000000000000000000000000815260040160405180910390fd5b7f98dd2c34f21d19fd1d178ed731f3db3d03e0b4e39f02dbeb040e80c9427a030b80547fffffffffffffffffffffffff0000000000000000000000000000000000000000166001600160a01b0383169081179091556040519081527f3c864541ef71378c6229510ed90f376565ee42d9c5e0904a984a9e863e6db44f906020015b60405180910390a150565b5f7f88cf5a7bd03e240c4fc740fb2d1a8664ec6fa4816f867d60f968080755fb17005b546001600160a01b0316919050565b61264f33610cad565b5f7f88cf5a7bd03e240c4fc740fb2d1a8664ec6fa4816f867d60f968080755fb170080546040517f3659cfe60000000000000000000000000000000000000000000000000000000081526001600160a01b038581166004830152929350911690633659cfe6906024015f604051808303815f87803b1580156126cf575f80fd5b505af1158015610f80573d5f803e3d5ffd5b5f7fffffffff0000000000000000000000000000000000000000000000000000000082167f06fdde03000000000000000000000000000000000000000000000000000000001480610c6457507f01ffc9a7000000000000000000000000000000000000000000000000000000007fffffffff00000000000000000000000000000000000000000000000000000000831614610c64565b6040516001600160a01b038381166024830152821660448201525f9081908190601b90606401604080517fffffffffffffffffffffffffffffffffffffffffffffffffffffffffffffffe08184030181529181526020820180517bffffffffffffffffffffffffffffffffffffffffffffffffffffffff167f10487a6c000000000000000000000000000000000000000000000000000000001790525161281e9190614d10565b5f604051808303815f865af19150503d805f8114612857576040519150601f19603f3d011682016040523d82523d5f602084013e61285c565b606091505b5091509150816128c8576040517f08c379a000000000000000000000000000000000000000000000000000000000815260206004820152600b60248201527f43616c6c206661696c65640000000000000000000000000000000000000000006044820152606401611d1e565b808060200190518101906128dc9190614abb565b95945050505050565b7ff3177357ab46d8af007ab3fdb9af81da189e1068fefdc0073dca88a2cab40a005f8061295961293c7ff3177357ab46d8af007ab3fdb9af81da189e1068fefdc0073dca88a2cab40a00546001600160a01b031690565b873061294b60045f8a8c614d26565b61295491614d4d565b613b0c565b9150915081610f805763ffffffff811615612a645782547fffffffffffffffffffffff00ffffffffffffffffffffffffffffffffffffffff16740100000000000000000000000000000000000000001783556129dc7ff3177357ab46d8af007ab3fdb9af81da189e1068fefdc0073dca88a2cab40a00546001600160a01b031690565b6001600160a01b03166394c7d7ee8787876040518463ffffffff1660e01b8152600401612a0b93929190614db2565b5f604051808303815f87803b158015612a22575f80fd5b505af1158015612a34573d5f803e3d5ffd5b505084547fffffffffffffffffffffff00ffffffffffffffffffffffffffffffffffffffff16855550610f809050565b6040517f068ca9d80000000000000000000000000000000000000000000000000000000081526001600160a01b0387166004820152602401611d1e565b612aa9613c78565b61117c81613cdf565b612aba613c78565b611190613cf0565b7f9b779b17422d0df92223018b32b4d1fa46e071723d6817e2486d003becc55f0080547ffffffffffffffffffffffffffffffffffffffffffffffffffffffffffffffffe01612b3d576040517f3ee5aeb500000000000000000000000000000000000000000000000000000000815260040160405180910390fd5b60029055565b60017f9b779b17422d0df92223018b32b4d1fa46e071723d6817e2486d003becc55f0055565b612b71613d41565b7fcd5ed15c6e187e77e9aee88184c21f4f2182ab5827cb3b7e07fbedcd63f0330080547fffffffffffffffffffffffffffffffffffffffffffffffffffffffffffffff001681557f5db9ee0a495bf2e6ff9c91a7834c1ba4fdd244a5e8aa4e537bd38aeae4b073aa335b6040516001600160a01b039091168152602001612609565b7f98dd2c34f21d19fd1d178ed731f3db3d03e0b4e39f02dbeb040e80c9427a03005f829003612c4e576040517f4c9a3f2800000000000000000000000000000000000000000000000000000000815260040160405180910390fd5b6001600160a01b0383165f90815260048201602052604090205460ff16612ca1576040517f7227c77800000000000000000000000000000000000000000000000000000000815260040160405180910390fd5b6040517f13f46c420000000000000000000000000000000000000000000000000000000081526001600160a01b0386811660048301527f000000000000000000000000000000000000000000000000000000000000000016906313f46c4290602401602060405180830381865afa158015612d1e573d5f803e3d5ffd5b505050506040513d601f19601f82011682018060405250810190612d429190614abb565b15612d79576040517f5ffb0c9900000000000000000000000000000000000000000000000000000000815260040160405180910390fd5b600b8101545f906305f5e10090612dae9074010000000000000000000000000000000000000000900463ffffffff1685614dd4565b612db89190614deb565b90508015612dde57600b820154612dde906001600160a01b038681169188911684613d7f565b5f612de98285614e23565b90505f612df888888885613dfb565b90505f612e058284614e23565b90508015612e1957612e1989898984613fdf565b6001600160a01b03808a165f908152600a870160209081526040808320938b1683529290529081208054859290612e51908490614e36565b9091555050505050505050505050565b6040516001600160a01b03821660248201525f9081908190601b90604401604080517fffffffffffffffffffffffffffffffffffffffffffffffffffffffffffffffe08184030181529181526020820180517bffffffffffffffffffffffffffffffffffffffffffffffffffffffff167f1c4863660000000000000000000000000000000000000000000000000000000017905251612f009190614d10565b5f604051808303815f865af19150503d805f8114612f39576040519150601f19603f3d011682016040523d82523d5f602084013e612f3e565b606091505b509150915081612faa576040517f08c379a000000000000000000000000000000000000000000000000000000000815260206004820152600b60248201527f43616c6c206661696c65640000000000000000000000000000000000000000006044820152606401611d1e565b80806020019051810190612fbe9190614e49565b949350505050565b5f7f98dd2c34f21d19fd1d178ed731f3db3d03e0b4e39f02dbeb040e80c9427a030081612ff1612614565b604051612ffd90614516565b6001600160a01b0390911681526040602082018190525f90820152606001604051809103905ff080158015613034573d5f803e3d5ffd5b506040517f621f621000000000000000000000000000000000000000000000000000000000815260a06004820152600d60a48201527f526f79616c747920546f6b656e0000000000000000000000000000000000000060c482015260e06024820152600260e48201527f52540000000000000000000000000000000000000000000000000000000000006101048201526305f5e10060448201526001600160a01b03878116606483015286811660848301529192509082169063621f621090610124015f604051808303815f87803b15801561310e575f80fd5b505af1158015613120573d5f803e3d5ffd5b505050506001600160a01b039485165f908152600683016020908152604080832080547fffffffffffffffffffffffff0000000000000000000000000000000000000000169885169889179055968252600790930190925293902080547fffffffffffffffffffffffffffffffffffffffffffffffffffffffffffffff001660011790555090919050565b60605f610ca1836140db565b6131bf613c78565b611190614134565b611190613c78565b306001600160a01b037f000000000000000000000000000000000000000000000000000000000000000016148061323f57507f00000000000000000000000000000000000000000000000000000000000000006001600160a01b031661323361413c565b6001600160a01b031614155b15611190576040517fe07c8dba00000000000000000000000000000000000000000000000000000000815260040160405180910390fd5b61117c33610cad565b816001600160a01b03166352d1902d6040518163ffffffff1660e01b8152600401602060405180830381865afa9250505080156132f7575060408051601f3d9081017fffffffffffffffffffffffffffffffffffffffffffffffffffffffffffffffe01682019092526132f491810190614e49565b60015b613338576040517f4c9c8ce30000000000000000000000000000000000000000000000000000000081526001600160a01b0383166004820152602401611d1e565b7f360894a13ba1a3210667c828492db98dca3e2076cc3735a920a3ca505d382bbc8114613394576040517faa1d49a400000000000000000000000000000000000000000000000000000000815260048101829052602401611d1e565b61339e8383614163565b505050565b306001600160a01b037f00000000000000000000000000000000000000000000000000000000000000001614611190576040517fe07c8dba00000000000000000000000000000000000000000000000000000000815260040160405180910390fd5b7ff3177357ab46d8af007ab3fdb9af81da189e1068fefdc0073dca88a2cab40a0080547fffffffffffffffffffffffff0000000000000000000000000000000000000000166001600160a01b03831690811782556040519081527f2f658b440c35314f52658ea8a740e05b284cdc84dc9ae01e891f21b8933e7cad90602001610df6565b613491613502565b7fcd5ed15c6e187e77e9aee88184c21f4f2182ab5827cb3b7e07fbedcd63f0330080547fffffffffffffffffffffffffffffffffffffffffffffffffffffffffffffff001660011781557f62e78cea01bee320cd4e420270b5ea74000d11b0c9f74754ebdbfc544b05a25833612bdb565b61350a611c3d565b15611190576040517fd93c066500000000000000000000000000000000000000000000000000000000815260040160405180910390fd5b7f98dd2c34f21d19fd1d178ed731f3db3d03e0b4e39f02dbeb040e80c9427a03005f805b8881101561391c575f8a8a8381811061358057613580614bb8565b9050602002016020810190613595919061462c565b6001600160a01b0316036135d5576040517f89bd1b4200000000000000000000000000000000000000000000000000000000815260040160405180910390fd5b5f8888838181106135e8576135e8614bb8565b90506020020160208101906135fd919061462c565b6001600160a01b03160361363d576040517fb3c4f5c500000000000000000000000000000000000000000000000000000000815260040160405180910390fd5b6136938a8a8381811061365257613652614bb8565b9050602002016020810190613667919061462c565b89898481811061367957613679614bb8565b905060200201602081019061368e919061462c565b6141b8565b5f6136e7846009015f8d8d868181106136ae576136ae614bb8565b90506020020160208101906136c3919061462c565b6001600160a01b03166001600160a01b031681526020019081526020015f206131ab565b90505f5b8151811015613912576137178d83838151811061370a5761370a614bb8565b60200260200101516141b8565b5f8a8a8581811061372a5761372a614bb8565b905060200201602081019061373f919061462c565b6001600160a01b031683838151811061375a5761375a614bb8565b60200260200101516001600160a01b031614613776575f61379d565b88888581811061378857613788614bb8565b905060200201602081019061379d9190614611565b90505f8383815181106137b2576137b2614bb8565b60200260200101516001600160a01b031663f2197fae8f8f888181106137da576137da614bb8565b90506020020160208101906137ef919061462c565b6040517fffffffff0000000000000000000000000000000000000000000000000000000060e084901b1681526001600160a01b03909116600482015263ffffffff85166024820152604401602060405180830381865afa158015613855573d5f803e3d5ffd5b505050506040513d601f19601f820116820180604052508101906138799190614aa0565b90506138858187614cf4565b95506305f5e10063ffffffff871611156138cb576040517f39759b1400000000000000000000000000000000000000000000000000000000815260040160405180910390fd5b6139088484815181106138e0576138e0614bb8565b60200260200101518263ffffffff168a6001600160a01b03166141f89092919063ffffffff16565b50506001016136eb565b5050600101613565565b5060028201546001600160a01b038b165f908152600984016020526040902061394490614229565b111561397c576040517f97689e9a00000000000000000000000000000000000000000000000000000000815260040160405180910390fd5b6040517f51eee2760000000000000000000000000000000000000000000000000000000081526001600160a01b038b811660048301525f917f0000000000000000000000000000000000000000000000000000000000000000909116906351eee27690602401602060405180830381865afa1580156139fd573d5f803e3d5ffd5b505050506040513d601f19601f82011682018060405250810190613a219190614abb565b613a2b578a613acc565b6040517f30d632800000000000000000000000000000000000000000000000000000000081526001600160a01b038c811660048301527f000000000000000000000000000000000000000000000000000000000000000016906330d6328090602401602060405180830381865afa158015613aa8573d5f803e3d5ffd5b505050506040513d601f19601f82011682018060405250810190613acc9190614ad6565b9050613aff81613ae0846305f5e100614e60565b63ffffffff16866001600160a01b03166141f89092919063ffffffff16565b5050505050505050505050565b6040516001600160a01b03848116602483015283811660448301527fffffffff00000000000000000000000000000000000000000000000000000000831660648301525f91829182918291891690608401604080517fffffffffffffffffffffffffffffffffffffffffffffffffffffffffffffffe08184030181529181526020820180517bffffffffffffffffffffffffffffffffffffffffffffffffffffffff167fb70096130000000000000000000000000000000000000000000000000000000017905251613bde9190614d10565b5f60405180830381855afa9150503d805f8114613c16576040519150601f19603f3d011682016040523d82523d5f602084013e613c1b565b606091505b50915091508115613c6d576040815110613c4d5780806020019051810190613c439190614e7c565b9094509250613c6d565b6020815110613c6d5780806020019051810190613c6a9190614abb565b93505b505094509492505050565b7ff0c57e16840df040f15088dc2f81fe391c3923bec73e23a9662efc9c229c6a005468010000000000000000900460ff16611190576040517fd7e6bcf800000000000000000000000000000000000000000000000000000000815260040160405180910390fd5b613ce7613c78565b61117c81613405565b613cf8613c78565b7fcd5ed15c6e187e77e9aee88184c21f4f2182ab5827cb3b7e07fbedcd63f0330080547fffffffffffffffffffffffffffffffffffffffffffffffffffffffffffffff00169055565b613d49611c3d565b611190576040517f8dfc202b00000000000000000000000000000000000000000000000000000000815260040160405180910390fd5b6040516001600160a01b0384811660248301528381166044830152606482018390526120c69186918216906323b872dd906084015b604051602081830303815290604052915060e01b6020820180517bffffffffffffffffffffffffffffffffffffffffffffffffffffffff8381831617835250505050614232565b6001600160a01b0384165f9081527f98dd2c34f21d19fd1d178ed731f3db3d03e0b4e39f02dbeb040e80c9427a0309602052604081207f98dd2c34f21d19fd1d178ed731f3db3d03e0b4e39f02dbeb040e80c9427a0300908290613e5e906131ab565b90505f5b8151811015613fd457826003015f838381518110613e8257613e82614bb8565b6020908102919091018101516001600160a01b031682528101919091526040015f205460ff1615613fcc575f828281518110613ec057613ec0614bb8565b60209081029190910101516040517f093f30a20000000000000000000000000000000000000000000000000000000081526001600160a01b038b811660048301529091169063093f30a290602401602060405180830381865afa158015613f29573d5f803e3d5ffd5b505050506040513d601f19601f82011682018060405250810190613f4d9190614aa0565b90508063ffffffff165f03613f625750613fcc565b5f6305f5e100613f7863ffffffff841689614dd4565b613f829190614deb565b9050613f8e8187614e36565b9550613fc989858581518110613fa657613fa6614bb8565b6020026020010151838b6001600160a01b0316613d7f909392919063ffffffff16565b50505b600101613e62565b505050949350505050565b6001600160a01b038481165f9081527f98dd2c34f21d19fd1d178ed731f3db3d03e0b4e39f02dbeb040e80c9427a03066020526040902054168061404f576040517f8fb52def00000000000000000000000000000000000000000000000000000000815260040160405180910390fd5b6040517fb8205bf20000000000000000000000000000000000000000000000000000000081526001600160a01b0384811660048301526024820184905282169063b8205bf2906044015f604051808303815f87803b1580156140af575f80fd5b505af11580156140c1573d5f803e3d5ffd5b506116af925050506001600160a01b038416858385613d7f565b6060815f0180548060200260200160405190810160405280929190818152602001828054801561412857602002820191905f5260205f20905b815481526020019060010190808311614114575b50505050509050919050565b612b43613c78565b5f7f360894a13ba1a3210667c828492db98dca3e2076cc3735a920a3ca505d382bbc612637565b61416c826142b7565b6040516001600160a01b038316907fbc7cd75a20ee27fd9adebab32041f755214dbc6bffa90cc0225b39da2e5c2d3b905f90a28051156141b05761339e828261435e565b611b086143c7565b6001600160a01b0382165f9081527f98dd2c34f21d19fd1d178ed731f3db3d03e0b4e39f02dbeb040e80c9427a03096020526040902061339e90826143ff565b6040516001600160a01b0383811660248301526044820183905261339e91859182169063a9059cbb90606401613db4565b5f610c64825490565b5f8060205f8451602086015f885af180614251576040513d5f823e3d81fd5b50505f513d91508115614268578060011415614275565b6001600160a01b0384163b155b156120c6576040517f5274afe70000000000000000000000000000000000000000000000000000000081526001600160a01b0385166004820152602401611d1e565b806001600160a01b03163b5f03614305576040517f4c9c8ce30000000000000000000000000000000000000000000000000000000081526001600160a01b0382166004820152602401611d1e565b7f360894a13ba1a3210667c828492db98dca3e2076cc3735a920a3ca505d382bbc80547fffffffffffffffffffffffff0000000000000000000000000000000000000000166001600160a01b0392909216919091179055565b60605f80846001600160a01b03168460405161437a9190614d10565b5f60405180830381855af49150503d805f81146143b2576040519150601f19603f3d011682016040523d82523d5f602084013e6143b7565b606091505b50915091506128dc858383614413565b3415611190576040517fb398979f00000000000000000000000000000000000000000000000000000000815260040160405180910390fd5b5f610ca1836001600160a01b038416614488565b60608261442857614423826144d4565b610ca1565b815115801561443f57506001600160a01b0384163b155b15614481576040517f9996b3150000000000000000000000000000000000000000000000000000000081526001600160a01b0385166004820152602401611d1e565b5092915050565b5f8181526001830160205260408120546144cd57508154600181810184555f848152602080822090930184905584548482528286019093526040902091909155610c64565b505f610c64565b8051156144e45780518082602001fd5b6040517fd6bda27500000000000000000000000000000000000000000000000000000000815260040160405180910390fd5b61059d80614eaa83390190565b5f60208284031215614533575f80fd5b81357fffffffff0000000000000000000000000000000000000000000000000000000081168114610ca1575f80fd5b602081525f82518060208401528060208501604085015e5f6040828501015260407fffffffffffffffffffffffffffffffffffffffffffffffffffffffffffffffe0601f83011684010191505092915050565b6001600160a01b038116811461117c575f80fd5b5f80604083850312156145da575f80fd5b82356145e5816145b5565b915060208301356145f5816145b5565b809150509250929050565b63ffffffff8116811461117c575f80fd5b5f60208284031215614621575f80fd5b8135610ca181614600565b5f6020828403121561463c575f80fd5b8135610ca1816145b5565b5f805f806080858703121561465a575f80fd5b8435614665816145b5565b93506020850135614675816145b5565b92506040850135614685816145b5565b9396929550929360600135925050565b5f8083601f8401126146a5575f80fd5b50813567ffffffffffffffff8111156146bc575f80fd5b6020830191508360208285010111156146d3575f80fd5b9250929050565b5f805f805f608086880312156146ee575f80fd5b85356146f9816145b5565b94506020860135614709816145b5565b9350604086013561471981614600565b9250606086013567ffffffffffffffff811115614734575f80fd5b61474088828901614695565b969995985093965092949392505050565b602080825282518282018190525f918401906040840190835b818110156147915783516001600160a01b031683526020938401939092019160010161476a565b509095945050505050565b801515811461117c575f80fd5b5f80604083850312156147ba575f80fd5b82356147c5816145b5565b915060208301356145f58161479c565b5f805f80608085870312156147e8575f80fd5b84356147f3816145b5565b966020860135965060408601359560600135945092505050565b7f4e487b71000000000000000000000000000000000000000000000000000000005f52604160045260245ffd5b5f806040838503121561484b575f80fd5b8235614856816145b5565b9150602083013567ffffffffffffffff811115614871575f80fd5b8301601f81018513614881575f80fd5b803567ffffffffffffffff81111561489b5761489b61480d565b6040517fffffffffffffffffffffffffffffffffffffffffffffffffffffffffffffffe0603f7fffffffffffffffffffffffffffffffffffffffffffffffffffffffffffffffe0601f8501160116810181811067ffffffffffffffff821117156149075761490761480d565b60405281815282820160200187101561491e575f80fd5b816020840160208301375f602083830101528093505050509250929050565b5f6020828403121561494d575f80fd5b5035919050565b5f805f60608486031215614966575f80fd5b505081359360208301359350604090920135919050565b5f8083601f84011261498d575f80fd5b50813567ffffffffffffffff8111156149a4575f80fd5b6020830191508360208260051b85010111156146d3575f80fd5b5f805f805f805f805f60a08a8c0312156149d6575f80fd5b89356149e1816145b5565b985060208a013567ffffffffffffffff8111156149fc575f80fd5b614a088c828d0161497d565b90995097505060408a013567ffffffffffffffff811115614a27575f80fd5b614a338c828d0161497d565b90975095505060608a013567ffffffffffffffff811115614a52575f80fd5b614a5e8c828d0161497d565b90955093505060808a013567ffffffffffffffff811115614a7d575f80fd5b614a898c828d01614695565b915080935050809150509295985092959850929598565b5f60208284031215614ab0575f80fd5b8151610ca181614600565b5f60208284031215614acb575f80fd5b8151610ca18161479c565b5f60208284031215614ae6575f80fd5b8151610ca1816145b5565b81835281816020850137505f602082840101525f60207fffffffffffffffffffffffffffffffffffffffffffffffffffffffffffffffe0601f840116840101905092915050565b6001600160a01b038516815263ffffffff84166020820152606060408201525f614b66606083018486614af1565b9695505050505050565b6001600160a01b03861681526001600160a01b038516602082015263ffffffff84166040820152608060608201525f614bad608083018486614af1565b979650505050505050565b7f4e487b71000000000000000000000000000000000000000000000000000000005f52603260045260245ffd5b8183526020830192505f815f5b84811015614c23578135614c05816145b5565b6001600160a01b031686526020958601959190910190600101614bf2565b5093949350505050565b6001600160a01b038a16815260a060208201525f614c4f60a083018a8c614be5565b8281036040840152614c6281898b614be5565b83810360608501528681528791506020015f5b87811015614ca2578235614c8881614600565b63ffffffff16825260209283019290910190600101614c75565b508381036080850152614cb6818688614af1565b9d9c50505050505050505050505050565b7f4e487b71000000000000000000000000000000000000000000000000000000005f52601160045260245ffd5b63ffffffff8181168382160190811115610c6457610c64614cc7565b5f82518060208501845e5f920191825250919050565b5f8085851115614d34575f80fd5b83861115614d40575f80fd5b5050820193919092039150565b80357fffffffff000000000000000000000000000000000000000000000000000000008116906004841015614481577fffffffff00000000000000000000000000000000000000000000000000000000808560040360031b1b82161691505092915050565b6001600160a01b0384168152604060208201525f6128dc604083018486614af1565b8082028115828204841417610c6457610c64614cc7565b5f82614e1e577f4e487b71000000000000000000000000000000000000000000000000000000005f52601260045260245ffd5b500490565b81810381811115610c6457610c64614cc7565b80820180821115610c6457610c64614cc7565b5f60208284031215614e59575f80fd5b5051919050565b63ffffffff8281168282160390811115610c6457610c64614cc7565b5f8060408385031215614e8d575f80fd5b8251614e988161479c565b60208401519092506145f58161460056fe60a060405260405161059d38038061059d83398101604081905261002291610354565b61002c828261003e565b506001600160a01b0316608052610445565b610047826100fb565b6040516001600160a01b038316907f1cf3b03a6cf19fa2baba4df148e9dcabedea7f8a5c07840e207e5c089be95d3e905f90a28051156100ef576100ea826001600160a01b0316635c60da1b6040518163ffffffff1660e01b8152600401602060405180830381865afa1580156100c0573d5f803e3d5ffd5b505050506040513d601f19601f820116820180604052508101906100e49190610416565b82610209565b505050565b6100f761027c565b5050565b806001600160a01b03163b5f0361013557604051631933b43b60e21b81526001600160a01b03821660048201526024015b60405180910390fd5b807fa3f0ad74e5423aebfd80d3ef4346578335a9a72aeaee59ff6cb3582b35133d5080546001600160a01b0319166001600160a01b0392831617905560408051635c60da1b60e01b815290515f92841691635c60da1b9160048083019260209291908290030181865afa1580156101ae573d5f803e3d5ffd5b505050506040513d601f19601f820116820180604052508101906101d29190610416565b9050806001600160a01b03163b5f036100f757604051634c9c8ce360e01b81526001600160a01b038216600482015260240161012c565b60605f80846001600160a01b031684604051610225919061042f565b5f60405180830381855af49150503d805f811461025d576040519150601f19603f3d011682016040523d82523d5f602084013e610262565b606091505b50909250905061027385838361029d565b95945050505050565b341561029b5760405163b398979f60e01b815260040160405180910390fd5b565b6060826102b2576102ad826102fc565b6102f5565b81511580156102c957506001600160a01b0384163b155b156102f257604051639996b31560e01b81526001600160a01b038516600482015260240161012c565b50805b9392505050565b80511561030c5780518082602001fd5b60405163d6bda27560e01b815260040160405180910390fd5b80516001600160a01b038116811461033b575f80fd5b919050565b634e487b7160e01b5f52604160045260245ffd5b5f8060408385031215610365575f80fd5b61036e83610325565b60208401519092506001600160401b03811115610389575f80fd5b8301601f81018513610399575f80fd5b80516001600160401b038111156103b2576103b2610340565b604051601f8201601f19908116603f011681016001600160401b03811182821017156103e0576103e0610340565b6040528181528282016020018710156103f7575f80fd5b8160208401602083015e5f602083830101528093505050509250929050565b5f60208284031215610426575f80fd5b6102f582610325565b5f82518060208501845e5f920191825250919050565b60805161014161045c5f395f602301526101415ff3fe608060405261000c61000e565b005b61001e610019610020565b6100b3565b565b5f7f000000000000000000000000000000000000000000000000000000000000000073ffffffffffffffffffffffffffffffffffffffff16635c60da1b6040518163ffffffff1660e01b8152600401602060405180830381865afa15801561008a573d5f803e3d5ffd5b505050506040513d601f19601f820116820180604052508101906100ae91906100d1565b905090565b365f80375f80365f845af43d5f803e8080156100cd573d5ff35b3d5ffd5b5f602082840312156100e1575f80fd5b815173ffffffffffffffffffffffffffffffffffffffff81168114610104575f80fd5b939250505056fea2646970667358221220b3b6bfd9b549cd2b19a52d4fa1288111f8901110c4aa7686184140e014c1f7c964736f6c634300081a0033a2646970667358221220df983f256935913f2d331e27a22f464bde2939b1778db537c975f9c3ab44d56e64736f6c634300081a0033","linkReferences":{}},"methodIdentifiers":{"DISPUTE_MODULE()":"f943f090","IP_ASSET_REGISTRY()":"41c782c5","IP_GRAPH()":"6b9ea4f6","LICENSE_REGISTRY()":"f0ebdc83","LICENSING_MODULE()":"65165aa5","MAX_PERCENT()":"1036bbe2","UPGRADE_INTERFACE_VERSION()":"ad3cb1cc","__ProtocolPausable_init(address)":"198fdd98","accumulatedRoyaltyPolicies(address)":"48119202","authority()":"bf7e214f","getAncestorsCount(address)":"dae82ae6","globalRoyaltyStack(address)":"1b785d76","hasAncestorIp(address,address)":"10487a6c","initialize(address,uint256,uint256,uint256)":"4ec81af1","ipRoyaltyVaultBeacon()":"f37a6e15","ipRoyaltyVaults(address)":"7a112e79","isConsumingScheduledOp()":"8fb36037","isIpRoyaltyVault(address)":"3f7aef8c","isRegisteredExternalRoyaltyPolicy(address)":"37143fb3","isWhitelistedRoyaltyPolicy(address)":"96467814","isWhitelistedRoyaltyToken(address)":"926e04fd","maxAccumulatedRoyaltyPolicies()":"d589a20a","maxAncestors()":"8d3b4f59","maxParents()":"c4a3df10","maxPercent()":"59a153ba","name()":"06fdde03","onLicenseMinting(address,address,uint32,bytes)":"41c70a21","onLinkToParents(address,address[],address[],uint32[],bytes)":"e9f89904","pause()":"8456cb59","paused()":"5c975abb","payLicenseMintingFee(address,address,address,uint256)":"41a03d5f","payRoyaltyOnBehalf(address,address,address,uint256)":"d2577f3b","proxiableUUID()":"52d1902d","registerExternalRoyaltyPolicy(address)":"2d4a93e8","royaltyFeePercent()":"dca615ed","setAuthority(address)":"7a9e5e4b","setIpGraphLimits(uint256,uint256,uint256)":"996ff671","setIpRoyaltyVaultBeacon(address)":"becfc917","setRoyaltyFeePercent(uint32)":"154cf6d1","setSnapshotInterval(uint256)":"764e57fe","setTreasury(address)":"f0f44260","snapshotInterval()":"07d0413c","supportsInterface(bytes4)":"01ffc9a7","totalRevenueTokensReceived(address,address)":"ba85fc06","treasury()":"61d027b3","unpause()":"3f4ba83a","upgradeToAndCall(address,bytes)":"4f1ef286","upgradeVaults(address)":"fc761919","whitelistRoyaltyPolicy(address,bool)":"49fb4615","whitelistRoyaltyToken(address,bool)":"520cbac6"},"id":122}