{"abi":[{"type":"function","name":"ABSTAIN","inputs":[],"outputs":[{"name":"","type":"uint8","internalType":"uint8"}],"stateMutability":"view"},{"type":"function","name":"ALLOW","inputs":[],"outputs":[{"name":"","type":"uint8","internalType":"uint8"}],"stateMutability":"view"},{"type":"function","name":"DENY","inputs":[],"outputs":[{"name":"","type":"uint8","internalType":"uint8"}],"stateMutability":"view"}],"bytecode":{"object":"0x60aa6032600b8282823980515f1a607314602657634e487b7160e01b5f525f60045260245ffd5b305f52607381538281f3fe73000000000000000000000000000000000000000030146080604052600436106046575f3560e01c80630b5dfc3914604a578063463ea0c1146067578063a1731a2b14606e575b5f80fd5b6051600181565b60405160ff909116815260200160405180910390f35b6051600281565b60515f8156fea2646970667358221220a5444682ce660aa2eca00f8d8743a344c4689260b5e87ee94531159b8e7a87c564736f6c634300081a0033","linkReferences":{}},"methodIdentifiers":{"ABSTAIN()":"a1731a2b","ALLOW()":"0b5dfc39","DENY()":"463ea0c1"},"id":105}